:020000040000FA
:040000007EEF00F09F
:020004000000FA
:040008000EEF00F007
:080018006BEF00F0D8CF13F0EC
:10002000146E1838176E0F0E171617C0E8FF300F32
:10003000C8EC07F018C017F00F0E171617C0E8FF2E
:10004000300FC8EC07F01938176E0F0E171617C0CF
:10005000E8FF300FC8EC07F0730EC8EC07F0F8ECBF
:1000600007F0C60ED76E3E0ED66EF2A466EF00F015
:1000700019C017F00F0E1716090E176249EF00F09E
:10008000100E1926F00E1916A00E1960196A4CEF01
:1000900000F0192A4CEF00F00000000E196266EF24
:1000A00000F018C017F00F0E1716090E176262EF56
:1000B00000F0100E1826F00E1816A00E1860186A20
:1000C00065EF00F0182A65EF00F00000F294143894
:1000D00013C0D8FF1000D8CF13F0146EF0A079EF42
:1000E00000F081380F0B126E79EF00F0FF6AFE6AA4
:1000F000FD6AF090143813C0D8FF1000FF0E926E06
:10010000FF0E936E000E946E000E956E070E966EA7
:100110000F0EC16E896A8A6A8B6A8C6A8D6A000EBC
:10012000C26EFF0EC16E8EEC07F0280EBAEC07F01F
:100130000C0EBAEC07F0010EBAEC07F0AFEC04F0CD
:10014000FBEC05F0000E806F010E816F0CEC09F0E6
:1001500012EC08F0000E806F020E816F0CEC09F0BB
:1001600012EC08F0010E806FF60E816F0CEC09F0B6
:1001700012EC08F00F0E806F030E816F0CEC09F08B
:1001800012EC08F0E5EC05F0D06AF26AF16AF06A68
:10019000D08EF28EF28CF18AF28AF284F184F086AB
:1001A000F09CD59ED59CD59AD598D596D594D582D8
:1001B000D580216A226A856B866B406A416A426AF1
:1001C000436AF20E936EE4EC07F0000EF86E0E0E2A
:1001D000F76E480EF66E0800F550C8EC07F00B00FD
:1001E000F550FBE1F8EC07F0000EF86E0E0EF76E1E
:1001F0004E0EF66E0800F550C8EC07F00B00F550F7
:10020000FBE1280E1B6EFBEC05F01B2E03EF01F04B
:10021000E4EC07F0000EF86E0E0EF76E580EF66E58
:100220000800F550C8EC07F00B00F550FBE161EC5D
:1002300006F0050E106223EF01F0896A8A6A8B6A64
:100240008C6AE5EF01F00000030E10622EEF01F062
:10025000896A8A6A8B6A8C6A30EF02F00000070EA6
:10026000106239EF01F0896A8A6A8B6A8C6A1AEF28
:1002700003F000000B0E106244EF01F0896A8A6AF5
:100280008B6A8C6A79EF03F000000F0E10624FEF5B
:1002900001F0896A8A6A8B6A8C6A60EF04F0000058
:1002A000C6D747C0E8FF455CD8A45AEF01F046C066
:1002B000E8FF445CD8A0120049C0E8FF455CD8A420
:1002C00065EF01F048C0E8FF445CD8A012004BC0C5
:1002D000E8FF455CD8A470EF01F04AC0E8FF445C39
:1002E000D8A01200630EC8EC07F06FD045C0E8FF3D
:1002F000475CD8A47FEF01F044C0E8FF465CD8A07B
:10030000120049C0E8FF475CD8A48AEF01F048C05A
:10031000E8FF465CD8A012004BC0E8FF475CD8A4B9
:1003200095EF01F04AC0E8FF465CD8A01200720EBB
:10033000C8EC07F04AD045C0E8FF495CD8A4A4EF58
:1003400001F044C0E8FF485CD8A0120047C0E8FFB5
:10035000495CD8A4AFEF01F046C0E8FF485CD8A0E4
:1003600012004BC0E8FF495CD8A4BAEF01F04AC0C4
:10037000E8FF485CD8A01200670EC8EC07F025D053
:1003800045C0E8FF4B5CD8A4C9EF01F044C0E8FFCA
:100390004A5CD8A0120047C0E8FF4B5CD8A4D4EF59
:1003A00001F046C0E8FF4A5CD8A0120049C0E8FF4F
:1003B0004B5CD8A4DFEF01F048C0E8FF4A5CD8A04E
:1003C0001200620EC8EC07F01200280E1B6EFBEC48
:1003D00005F01B2EE7EF01F0E4EC07F012EC08F05B
:1003E000140E806FC0EC08F081C044F0150E806FD1
:1003F000C0EC08F081C045F0160E806FC0EC08F02C
:1004000081C046F0170E806FC0EC08F081C047F045
:10041000180E806FC0EC08F081C048F0190E806F94
:10042000C0EC08F081C049F01A0E806FC0EC08F0F3
:1004300081C04AF01B0E806FC0EC08F081C04BF009
:10044000020E1B6EFBEC05F01B2E22EF02F076EC89
:1004500001F051EC01F09BEC01F0C0EC01F0B5D7DC
:1004600034EC06F0B6EC04F01F68E4EC07F0000E84
:10047000F86E0E0EF76EA20EF66E0800F550C8EC80
:1004800007F00B00F550FBE1F8EC07F0C50ED76E56
:10049000440ED66ED58E186A196A446A486A466A4E
:1004A0004A6A57EC06F00C0E10625DEF02F0896AA2
:1004B0008A6A8B6A8C6A5FEF02F00000F2D7D59EE1
:1004C000E9EC04F01F6A40C0E8FF300F21C0AAFF2A
:1004D00022C0A9FFE8CFA8FFA6B2FED7A69EA69C81
:1004E000A684F29EA198550EA76EAA0EA76EA682AC
:1004F000A6B2FED7F28EA694222A41C0E8FF300FA2
:1005000021C0AAFF22C0A9FFE8CFA8FFA6B2FED74C
:10051000A69EA69CA684F29EA198550EA76EAA0E32
:10052000A76EA682A6B2FED7F28EA694222A42C059
:10053000E8FF300F21C0AAFF22C0A9FFE8CFA8FF23
:10054000A6B2FED7A69EA69CA684F29EA198550EA2
:10055000A76EAA0EA76EA682A6B2FED7F28EA694AA
:10056000222A43C0E8FF300F21C0AAFF22C0A9FF02
:10057000E8CFA8FFA6B2FED7A69EA69CA684F29EB0
:10058000A198550EA76EAA0EA76EA682A6B2FED798
:10059000F28EA694222ACDEF02F0E4EC07F0000ED2
:1005A000F86E0E0EF76EEE0EF66E0800F550C8EC03
:1005B00007F00B00F550FBE1000E216EA80E226E35
:1005C000000E246EDC0E256E166A156A152A21C0EF
:1005D000AAFF22C0A9FFA69EA69CA680A8CF23F0B2
:1005E000150E222621C0AAFF22C0A9FF23C0A8FF02
:1005F000A6B2FED7A69EA69CA684F29EA198550EF2
:10060000A76EAA0EA76EA682A6B2FED7F28EA694F9
:10061000140E225E150E1562E6EF02F02A0E225E1F
:10062000DC0E256E156A162A090E1662E6EF02F038
:100630001AEF03F0E4EC07F0000EF86E0E0EF76E02
:10064000600EF66E0800F550C8EC07F00B00F55090
:10065000FBE10A0E226E6FEC06F0F8EC07F0226A5E
:10066000B8EC06F057EC06F0070E10623EEF03F010
:10067000896A8A6A8B6A8C6A4BEF03F000000D0E60
:10068000106249EF03F0896A8A6A8B6A8C6A08EF04
:1006900001F00000E7D7E4EC07F0000EF86E0E0E54
:1006A000F76E740EF66E0800F550C8EC07F00B00FC
:1006B000F550FBE1F8EC07F0000EF86E0E0EF76E49
:1006C0007C0EF66E0800F550C8EC07F00B00F550F4
:1006D000FBE1216A226A57EC06F00D0E106277EFFB
:1006E00003F0896A8A6A8B6A8C6A1AEF03F0000049
:1006F000B9D7E4EC07F0000EF86E0E0EF76E860E1A
:10070000F66E0800F550C8EC07F00B00F550FBE161
:10071000F8EC07F0000EF86E0E0EF76E960EF66E01
:100720000800F550C8EC07F00B00F550FBE157EC62
:1007300006F00D0E1062A3EF03F0896A8A6A8B6AD5
:100740008C6A08EF01F00000000E1062AEEF03F0BB
:10075000896A8A6A8B6A8C6A08EF04F00000010ECD
:100760001062B9EF03F0896A8A6A8B6A8C6A08EFB3
:1007700004F00000020E1062C4EF03F0896A8A6A76
:100780008B6A8C6A08EF04F00000040E1062CFEF51
:1007900003F0896A8A6A8B6A8C6A08EF04F00000A9
:1007A000050E1062DAEF03F0896A8A6A8B6A8C6A36
:1007B00008EF04F00000060E1062E5EF03F0896A0E
:1007C0008A6A8B6A8C6A08EF04F00000080E1062D7
:1007D000F0EF03F0896A8A6A8B6A8C6A08EF04F08A
:1007E0000000090E1062FBEF03F0896A8A6A8B6AC7
:1007F0008C6A08EF04F000000A0E106206EF04F0A5
:10080000896A8A6A8B6A8C6A08EF04F000008FD7C5
:10081000E4EC07F0000EF86E0E0EF76E860EF66E24
:100820000800F550C8EC07F00B00F550FBE110C0D4
:10083000E8FFE82A176EE842E89EE842E89E175E65
:1008400017C0E8FF17C011F0150D11C0E8FF300FF9
:10085000C8EC07F03A0EC8EC07F0200EC8EC07F021
:10086000F3CF22F0000E222621C0AAFF22C0A9FF4A
:10087000A69EA69CA680A8CF18F0222A21C0AAFF77
:1008800022C0A9FFA69EA69CA680A8CF19F0222A66
:100890006FEC06F0F3CF22F0F8EC07F0F3CF22F084
:1008A000B8EC06F057EC06F00D0E10625EEF04F0A7
:1008B000896A8A6A8B6A8C6A79EF03F00000F2D742
:1008C000E4EC07F0000EF86E0E0EF76EB60EF66E44
:1008D0000800F550C8EC07F00B00F550FBE1F8EC10
:1008E00007F0000EF86E0E0EF76EC40EF66E0800DE
:1008F000F550C8EC07F00B00F550FBE1F9CF3AF0EA
:10090000FACF3BF0FBCF3CF057EC06F00D0E106237
:1009100090EF04F0896A8A6A8B6A8C6A08EF01F0AA
:1009200000000E0E10629BEF04F0896A8A6A8B6ADF
:100930008C6A9DEF04F00000E7D73968E4EC07F01B
:10094000000EF86E0E0EF76ECE0EF66E0800F55025
:10095000C8EC07F00B00F550FBE1396AD5D7829857
:100960008296948894861DEC08F01200020E806F27
:100970006AEC08F082C0E8FFB5EC08F005EC06F080
:10098000010E806F6AEC08F082C0E8FFB5EC08F059
:1009900005EC06F0060E806F6AEC08F082C0E8FFF6
:1009A000B5EC08F005EC06F0050E806F6AEC08F077
:1009B00082C0E8FFB5EC08F005EC06F0040E806F8D
:1009C0006AEC08F082C0E8FFB5EC08F005EC06F030
:1009D00012001838176E0F0E171617C0E8FF300FE9
:1009E00021C0AAFF22C0A9FFE8CFA8FFA6B2FED768
:1009F000A69EA69CA684F29EA198550EA76EAA0E4E
:100A0000A76EA682A6B2FED7F28EA694222A18C09E
:100A100017F00F0E171617C0E8FF300F21C0AAFFFE
:100A200022C0A9FFE8CFA8FFA6B2FED7A69EA69C2B
:100A3000A684F29EA198550EA76EAA0EA76EA68256
:100A4000A6B2FED7F28EA694222A1938176E0F0E80
:100A5000171617C0E8FF300F21C0AAFF22C0A9FF58
:100A6000E8CFA8FFA6B2FED7A69EA69CA684F29EBB
:100A7000A198550EA76EAA0EA76EA682A6B2FED7A3
:100A8000F28EA694222A1200020E806F6AEC08F001
:100A900082C0E8FFB5EC08F085C0E8FFC8EC07F0BD
:100AA00086C0E8FFC8EC07F0680EC8EC07F0010E3E
:100AB000806F6AEC08F082C0E8FFB5EC08F085C0F2
:100AC000E8FFC8EC07F086C0E8FFC8EC07F0000EAE
:100AD000806F6AEC08F082C0E8FFB5EC08F085C0D2
:100AE000E8FFC8EC07F086C0E8FFC8EC07F0200E6E
:100AF000C8EC07F0060E806F6AEC08F082C0E8FFD1
:100B0000B5EC08F085C0E8FFC8EC07F086C0E8FF48
:100B1000C8EC07F02F0EC8EC07F0050E806F6AECEA
:100B200008F082C0E8FFB5EC08F085C0E8FFC8EC2B
:100B300007F086C0E8FFC8EC07F02F0EC8EC07F0FE
:100B4000040E806F6AEC08F082C0E8FFB5EC08F094
:100B500085C0E8FFC8EC07F086C0E8FFC8EC07F0E6
:100B60001200816B060E806F2DEC08F0802FFCD7F1
:100B70002DEC08F0000E806F800E816F2DEC08F0D8
:100B8000060E806F170E816F2DEC08F0050E806F3A
:100B9000020E816F2DEC08F0040E806F190E816F2C
:100BA0002DEC08F0020E806F110E816F2DEC08F015
:100BB000010E806F380E816F2DEC08F0000E806FF3
:100BC000000E816F2DEC08F012000F0EAF6EAC6AB4
:100BD000AB6AAB8EAB88AC8A1200780E1C6E1C2EF2
:100BE000EFEF05F000001200A40E1D6E1D2EF6EFB3
:100BF00005F000001200F90E1E6EF4EC05F01E2E3A
:100C0000FDEF05F0F4EC05F0120021C0AAFF22C0B0
:100C1000A9FF85C0A8FFA6B2FED7A69EA69CA68463
:100C2000F29EA198550EA76EAA0EA76EA682A6B236
:100C3000FED7F28EA694222A21C0AAFF22C0A9FFC5
:100C400086C0A8FFA6B2FED7A69EA69CA684F29E4A
:100C5000A198550EA76EAA0EA76EA682A6B2FED7C1
:100C6000F28EA694222A1200216A226A2068156A4E
:100C700021C0AAFF22C0A9FF20C0A8FFA6B2FED7AC
:100C8000A69EA69CA684F29EA198550EA76EAA0EBB
:100C9000A76EA682A6B2FED7F28EA694152A222AA5
:100CA000150E156238EF06F0216A226A120081A241
:100CB00057EF06F081380F0B106E81B25DEF06F032
:100CC0001200F8EC07F044EC05F081A261EF06F0A9
:100CD00081380F0B106E81B26BEF06F0120021C04D
:100CE000AAFF22C0A9FFA69EA69CA680A8CF23F09B
:100CF000FF0E23628EEF06F0000EF86E0F0EF76EF9
:100D0000080EF66E0800F550C8EC07F00B00F55021
:100D1000FBE1FF0E2360B7EF06F0120021C0AAFF2F
:100D200022C0A9FFA69EA69CA680A8CFE8FFC8EC7B
:100D300007F0222A21C0AAFF22C0A9FFA69EA69CD6
:100D4000A680A8CFE8FFC8EC07F0222A21C0AAFF9E
:100D500022C0A9FFA69EA69CA680A8CFE8FFC8EC4B
:100D600007F0222A730EC8EC07F0F8EC07F0120027
:100D700021C0AAFF22C0A9FFA69EA69CA680A8CF3C
:100D800023F0FF0E2362D6EF06F0000EF86E0F0E72
:100D9000F76E080EF66E0800F550C8EC07F00B0071
:100DA000F550FBE1FF0E236006EF07F021C0AAFF1C
:100DB00022C0A9FFA69EA69CA680A8CF23F023C090
:100DC000E8FFC8EC07F0222A21C0AAFF22C0A9FF31
:100DD000A69EA69CA680A8CF23F023C0E8FFC8EC5F
:100DE00007F0222A680EC8EC07F007EC07F0200E87
:100DF000C8EC07F007EC07F02F0EC8EC07F007EC83
:100E000007F02F0EC8EC07F007EC07F0120021C026
:100E1000AAFF22C0A9FFA69EA69CA680A8CF23F069
:100E200023C0E8FFC8EC07F0222A21C0AAFF22C095
:100E3000A9FFA69EA69CA680A8CF23F023C0E8FF0A
:080E4000C8EC07F0222A1200A1
:080E4800626F744C00006D7232
:100E500020686C20686700005374616E64627900DA
:100E600054696D653A0031323A303020322F332FD9
:100E70003134000053617665643A00004261636B6F
:100E8000203C303E00005065726D616E656E7420CE
:100E90004C6F677300003C313E202E2E2E203C39D3
:100EA0003E00536F7274696E672E2E2E0000454E01
:100EB00044203C2A3E00504320496E7465726661AE
:100EC00063650000426567696E203C233E005472F2
:100ED000616E7366657272696E672E2E2E00537492
:100EE0006F707065640054696D653A20000053614D
:100EF00076696E672E2E2E005361666574792063C5
:100F00006865636B2E2E2E004E2F410054696D656F
:100F100020616E6420446174653A000001EC08F0C1
:100F200001EC08F001EC08F08394300EFCEC07F0C3
:100F3000EBEC07F0EBEC07F001EC08F0EBEC07F062
:100F4000200EFCEC07F0EBEC07F001EC08F0280EAB
:100F5000D9EC07F001EC08F00C0ED9EC07F001EC2D
:100F600008F0060ED9EC07F001EC08F0E4EC07F00D
:100F7000838412008C94736EF00B8C6E8C867338A5
:100F8000F00B8C968C6E8C868C9612EC08F012000E
:100F90008C94746E7450F00B040F836E8C867438CE
:100FA000F00B8C96040F836E8C868C960CEC08F0FC
:100FB0001200706EFCEC07F0EBEC07F07038FCEC04
:100FC00007F0EBEC07F012008394010ED9EC07F068
:100FD00001EC08F01200838600008396230E716EE8
:100FE000712EF0EF07F01200800EBAEC07F012003D
:100FF000C00EBAEC07F01200F00B83120F09831633
:101000001200500E726E230E716E712E05EF08F0F5
:10101000722E03EF08F01200230E756E752E0EEF80
:1010200008F01200C20E756E0A0E766E752E1AEF5B
:1010300008F0762E16EF08F01200000EC76E240E90
:10104000C86E280EC66EC56AC68AA1969E96C790BF
:10105000C584C5B4FED79E961200C580C6AE9E86D6
:101060009EA6FED79E96D00EC7B0FED7C96E9EA68E
:10107000FED79E96C5BC55EF08F080C0E8FFC7B00C
:10108000FED7C96E9EA6FED79E96C5BC5AEF08F045
:1010900081C0E8FFC7B0FED7C96E9EA6FED79E9658
:1010A000C5BC60EF08F065EF08F000000D0E896E1A
:1010B00045EF09F000000F0E896E8D8045EF09F0B5
:1010C0000000090E896E45EF09F0C584C5B4FED74E
:1010D0009E961200C580C6AE9E869EA6FED79E96A0
:1010E000D00EC7B0FED7C96E9EA6FED79E96C5BCD1
:1010F000A1EF08F080C0E8FFC7B0FED7C96E9EA67A
:10110000FED79E96C5BCA6EF08F0C5829EA6FED768
:101110009E96D10EC7B0FED7C96E9EA6FED79E96EC
:10112000C5BCABEF08F0C5869EA6FED79E96C9CF7C
:10113000E8FF826FC58AC588C5B89CEF08F0B0EF9C
:1011400008F00000030E896E07EF09F00000050E9D
:10115000896E07EF09F00000070E896E07EF09F0AE
:10116000C584C5B4FED79E961200876F87390F0BD2
:10117000300F856F87C0E8FF0F0B300F866F1200AE
:10118000C580C6AE9E869EA6FED79E96520EC7B05E
:10119000FED7C96E9EA6FED79E96C5BCF8EF08F096
:1011A00080C0E8FF8009C7B0FED7C96E9EA6FED7F3
:1011B0009E96C5BCFDEF08F0C5829EA6FED79E9602
:1011C000530EC7B0FED7C96E9EA6FED79E96C5BC6D
:1011D00002EF09F0C5869EA6FED79E96C9CFE8FF0E
:1011E000816FC58AC588C5B8F3EF08F007EF09F02D
:1011F0000000030E896E07EF09F00000050E896EEE
:1012000007EF09F00000070E896E07EF09F0C584AB
:10121000C5B4FED79E961200C580C6AE9E869EA619
:10122000FED79E96520EC7B0FED7C96E9EA6FED7B9
:101230009E96C5BC35EF09F080C0E8FF8009C7B0B5
:10124000FED7C96E9EA6FED79E96C5BC3AEF09F0A2
:1012500081C0E8FFC7B0FED7C96E9EA6FED79E9696
:10126000C5BC40EF09F045EF09F000000D0E896E96
:1012700045EF09F000000F0E896E8D8045EF09F0F3
:101280000000090E896E45EF09F0C584C5B4FED78C
:101290009E961200C5BC1200C58AC598C5B84EEF0F
:1012A00009F01200C76A280EC66EC56A240EC86E01
:1012B000948694881200C7B45BEF09F01F0EC51422
:1012C0000009F9E112005BEC09F0C58012005BEC4B
:1012D00009F0C58212005BEC09F0C58412005BECDA
:1012E00009F0C96EC7B472EF09F01200C5865BEC55
:1012F00009F0C5B6FED7C9501200C59AC588C5B851
:04130000FED7120002
:020000040030CA
:0100010002FC
:010002001FDE
:010003001EDE
:010005008179
:0100060001F8
:010008000FE8
:01000900C036
:01000A000FE6
:01000B00E014
:01000C000FE4
:01000D0040B2
:00000001FF
