:020000040000FA
:0400000094EF00F089
:020004000000FA
:040008002DEF00F0E8
:0800180072EF00F0FF0ED76E3D
:10002000FF0ED66E1200C30ED76E250ED66E1200CE
:10003000FF0E1E626DEF00F0D59ED1EC05F0F2923E
:100040001E6A010E376ED0EC04F0FF6AFE6AFD6A8C
:10005000F090143813C0D8FF1000D8CF13F0146EEE
:10006000000E38628DEC09F0000E38620EEC00F0E4
:10007000FF0E386213EC00F0F2A46DEF00F019C02F
:1000800017F00F0E1716090E176250EF00F0100E42
:100090001926F00E1916A00E1960196A53EF00F018
:1000A000192A53EF00F00000000E19626DEF00F006
:1000B00018C017F00F0E1716090E176269EF00F03F
:1000C000100E1826F00E1816A00E1860186A6CEFA5
:1000D00000F0182A6CEF00F00000F294143813C0FE
:1000E000D8FF1000D8CF13F0146EF0A08FEF00F0FF
:1000F000FF0E1E628FEF00F081380F0B126E0C0E98
:1001000012628FEF00F0D59ED1EC05F01E6A010E51
:10011000376ED0EC04F0FF6AFE6AFD6AF090F09052
:10012000143813C0D8FF1000700ED36E000E926EFC
:10013000FF0E936E000E946E000E956E000E966E7E
:10014000000E896E000E8A6E000E8B6E000E8C6E95
:10015000000E8D6E000EC26E26EC09F0280E52ECD9
:1001600009F00C0E52EC09F0010E52EC09F0BCEC57
:1001700009F08FEC05F0CDEC06F0D06AF26AF16A76
:10018000F06AD08EF28EF28CF18AF28AF284F184D7
:10019000F086F09CF288F292D59ED59CD59AD5989F
:1001A000D596D594D582D580206A216A636A646A1F
:1001B0002C6A2D6A2E6A2F6A306A316A326AF30E0F
:1001C000936E7DEC09F0000EF86E110EF76E640E62
:1001D000F66E0800F55060EC09F00B00F550FBE1FD
:1001E00097EC09F0000EF86E110EF76E6A0EF66EBF
:1001F0000800F55060EC09F00B00F550FBE1280E0B
:100200001A6E2BEC07F01A2E01EF01F0000E846E2F
:10021000000E806E38687DEC09F0000EF86E110E4D
:10022000F76E740EF66E0800F55060EC09F00B00E6
:10023000F550FBE197EC09F0000EF86E110EF76E29
:100240009C0EF66E0800F55060EC09F00B00F550BE
:10025000FBE1FF0ED76EFF0ED66ED58E87EC07F052
:10026000000E10623AEF01F0896A8A6A8B6A8C6A22
:10027000DBEF01F00000010E106245EF01F0896A2A
:100280008A6A8B6A8C6ABDEF01F00000020E106270
:1002900050EF01F0896A8A6A8B6A8C6A89EF01F0F3
:1002A0000000040E10625BEF01F0896A8A6A8B6AB3
:1002B0008C6AA3EF01F00000030E106266EF01F0FC
:1002C000896A8A6A8B6A8C6AEBEF01F00000070E7C
:1002D000106271EF01F0896A8A6A8B6A8C6A10EF8A
:1002E00003F000000B0E10627CEF01F0896A8A6A4D
:1002F0008B6A8C6A67EF03F000000F0E106287EFC5
:1003000001F0896A8A6A8B6A8C6A7DEF04F00000CA
:10031000A5D7386A000E846E0A0E1A6E2BEC07F011
:100320001A2E8EEF01F0010E846E87EC07F00D0E91
:100330001062A1EF01F0896A8A6A8B6A8C6A06EF03
:1003400001F00000F0D7386A000E846E0A0E1A6EB3
:100350002BEC07F01A2EA8EF01F0020E846E87EC4A
:1003600007F00D0E1062BBEF01F0896A8A6A8B6A92
:100370008C6A06EF01F00000F0D7386A326A140E7A
:100380001A6E2BEC07F01A2EC1EF01F0230E806ECF
:10039000B1EC09F0260E806EB1EC09F02C0E806EE7
:1003A000B1EC09F0290E806EB1EC09F0322A080E8A
:1003B0003262ECD7E2D7386A280E1A6E2BEC07F0BF
:1003C0001A2EDEEF01F07DEC09F0B3EC0AF0300FED
:1003D00060EC09F0F1D7D59E386A64EC07F096EC32
:1003E00005F01E687DEC09F0000EF86E110EF76E38
:1003F000F80EF66E0800F55060EC09F00B00F550B1
:10040000FBE197EC09F0C30ED76E250ED66ED58EA4
:10041000186A196A2D6A2E6A2F6A306A316A010ECB
:10042000356E346A14EF02F0326A230E806EB1EC3E
:1004300009F0260E806EB1EC09F02C0E806EB1EC46
:1004400009F0290E806EB1EC09F0322A780E326282
:10045000ECD700D0B3EC0AF02C6E050E2C5C0EE04D
:10046000312A040E2C5C0AE0030E2C5C1EE0020E06
:100470002C5C32E0010E2C5C46E0ECD7302A040EF6
:10048000366E355C6FE00A0EE8CF33F0030E355C54
:1004900051E0140EE8CF33F0020E355C4BE01E0E37
:1004A000E8CF33F0010E355C45E02F2A030E366E9F
:1004B000355C58E00A0EE8CF33F0040E355C46E0B8
:1004C0000A0EE8CF33F0020E355C34E0140EE8CFAC
:1004D00033F0010E355C2EE02E2A020E366E355CAE
:1004E00041E0140EE8CF33F0040E355C2FE00A0E25
:1004F000E8CF33F0030E355C29E00A0EE8CF33F085
:10050000010E355C17E02D2A010E366E355C2AE0AF
:100510001E0EE8CF33F0040E355C18E0140EE8CF61
:1005200033F0030E355C12E00A0EE8CF33F0020E12
:10053000355C0CE0000E846E010E846E33C01AF040
:100540002BEC07F01A2EA0EF02F00CD0000E846EF8
:10055000020E846E33C01AF02BEC07F01A2EACEFAB
:1005600002F000D036C035F0000E846E000E1E6220
:10057000FDEF02F0376A090E315C29E01838176E7A
:100580000F0E1716000E176414EF02F0020E376EEE
:1005900018C017F00F0E1716050E175C18E0030EA3
:1005A000316414EF02F0000E306414EF02F0000E1C
:1005B0002F6414EF02F0000E2E6414EF02F0000E10
:1005C0002D6414EF02F0030E376EE7EF02F0D59EB4
:1005D000D1EC05F01E6A1E0EE8CF33F0040E355C38
:1005E000B5E0140EE8CF33F0030E355CAFE00A0E31
:1005F000E8CF33F0020E355CA9E07DEC09F0000E87
:10060000F86E120EF76E3E0EF66E0800F55060ECB6
:1006100009F00B00F550FBE1D0EC04F010EF03F013
:10062000386A7DEC09F0000EF86E110EF76EC40EFC
:10063000F66E0800F55060EC09F00B00F550FBE198
:100640000A0E216E91EC07F097EC09F00D0E216E69
:10065000DAEC07F087EC07F0070E106236EF03F0D4
:10066000896A8A6A8B6A8C6A43EF03F000000D0E78
:10067000106241EF03F0896A8A6A8B6A8C6A06EF1E
:1006800001F00000E7D77DEC09F0216A46EC08F0A4
:1006900097EC09F0000EF86E110EF76ED20EF66EA2
:1006A0000800F55060EC09F00B00F550FBE1206A02
:1006B000216A87EC07F00D0E106265EF03F0896A7E
:1006C0008A6A8B6A8C6A10EF03F00000C3D7386A1D
:1006D0007DEC09F0000EF86E110EF76EDC0EF66E72
:1006E0000800F55060EC09F00B00F550FBE197ECC9
:1006F00009F0000EF86E110EF76EEC0EF66E0800A3
:10070000F55060EC09F00B00F550FBE187EC07F0C9
:100710000D0E106292EF03F0896A8A6A8B6A8C6A06
:1007200006EF01F00000000E10629DEF03F0896AF1
:100730008A6A8B6A8C6AF7EF03F00000010E106280
:10074000A8EF03F0896A8A6A8B6A8C6AF7EF03F074
:100750000000020E1062B3EF03F0896A8A6A8B6AA6
:100760008C6AF7EF03F00000040E1062BEEF03F096
:10077000896A8A6A8B6A8C6AF7EF03F00000050EBB
:100780001062C9EF03F0896A8A6A8B6A8C6AF7EF94
:1007900003F00000060E1062D4EF03F0896A8A6A43
:1007A0008B6A8C6AF7EF03F00000080E1062DFEF2F
:1007B00003F0896A8A6A8B6A8C6AF7EF03F000009B
:1007C000090E1062EAEF03F0896A8A6A8B6A8C6A02
:1007D000F7EF03F000000A0E1062F5EF03F0896AEC
:1007E0008A6A8B6A8C6AF7EF03F000008FD77DEC82
:1007F00009F0000EF86E110EF76EDC0EF66E0800B2
:10080000F55060EC09F00B00F550FBE110C0E8FF7B
:10081000E82A176EE842E89EE842E89E175E17C095
:10082000E8FF17C011F0150D11C0E8FF300F60ECA4
:1008300009F03A0E60EC09F0200E60EC09F0F3CFFD
:1008400021F0000E212620C0AAFF21C0A9FFA69EEC
:10085000A69CA680A8CF18F0212A20C0AAFF21C0FC
:10086000A9FFA69EA69CA680A8CF19F0212A91ECEC
:1008700007F0F3CF21F097EC09F0F3CF21F046EC2D
:1008800008F087EC07F0030E10624DEF04F0896A60
:100890008A6A8B6A8C6A5AEF04F000000D0E1062AF
:1008A00058EF04F0896A8A6A8B6A8C6A67EF03F0F2
:1008B0000000E7D77DEC09F0000EF86E110EF76E20
:1008C000C40EF66E0800F55060EC09F00B00F55010
:1008D000FBE191EC07F097EC09F0DAEC07F087EC1C
:1008E00007F00D0E10627BEF04F0896A8A6A8B6A4A
:1008F0008C6A67EF03F00000F2D7386A7DEC09F0EC
:10090000000EF86E120EF76E0C0EF66E0800F55023
:1009100060EC09F00B00F550FBE197EC09F0000EDC
:10092000F86E120EF76E1A0EF66E0800F55060ECB7
:1009300009F00B00F550FBE1F9CF29F0FACF2AF0CE
:10094000FBCF2BF087EC07F00D0E1062AEEF04F03A
:10095000896A8A6A8B6A8C6A06EF01F000000E0EC3
:100960001062B9EF04F0896A8A6A8B6A8C6ABBEFFD
:1009700004F00000E7D728687DEC09F0000EF86E5F
:10098000120EF76E240EF66E0800F55060EC09F0BA
:100990000B00F550FBE1D7EC06F0286A06EF01F0FA
:1009A0002DC0E8FF300F20C0AAFF21C0A9FFE8CF6B
:1009B000A8FFA6B2FED7A69EA69CA684F29EA198EA
:1009C000550EA76EAA0EA76EA682A6B2FED7F28E0D
:1009D000A694212A2EC0E8FF300F20C0AAFF21C014
:1009E000A9FFE8CFA8FFA6B2FED7A69EA69CA68424
:1009F000F29EA198550EA76EAA0EA76EA682A6B269
:100A0000FED7F28EA694212A2FC0E8FF300F20C017
:100A1000AAFF21C0A9FFE8CFA8FFA6B2FED7A69ED5
:100A2000A69CA684F29EA198550EA76EAA0EA76E4C
:100A3000A682A6B2FED7F28EA694212A30C0E8FF85
:100A4000300F20C0AAFF21C0A9FFE8CFA8FFA6B29F
:100A5000FED7A69EA69CA684F29EA198550EA76ED0
:100A6000AA0EA76EA682A6B2FED7F28EA694212A5F
:100A700037C0E8FF300F20C0AAFF21C0A9FFE8CF90
:100A8000A8FFA6B2FED7A69EA69CA684F29EA19819
:100A9000550EA76EAA0EA76EA682A6B2FED7F28E3C
:100AA000A694212A000E206EA80E216E000E236E41
:100AB000DC0E246E166A156A152A20C0AAFF21C012
:100AC000A9FFA69EA69CA680A8CF22F0150E2126DF
:100AD00020C0AAFF21C0A9FF22C0A8FFA6B2FED74E
:100AE000A69EA69CA684F29EA198550EA76EAA0E5D
:100AF000A76EA682A6B2FED7F28EA694140E215E31
:100B0000150E15625CEF05F02A0E215EDC0E246ED8
:100B1000156A162A090E16625CEF05F0120082981B
:100B20008296948894862BEC0AF01200020E606E76
:100B3000EFEC09F062C0E8FF20EC0AF0020E606EF4
:100B4000EFEC09F062C0E8FF20EC0AF035EC07F0AA
:100B5000010E606EEFEC09F062C0E8FF20EC0AF0D5
:100B600035EC07F0060E606EEFEC09F062C0E8FFAE
:100B700020EC0AF035EC07F0050E606EEFEC09F0A2
:100B800062C0E8FF20EC0AF035EC07F0040E606E5E
:100B9000EFEC09F062C0E8FF20EC0AF035EC07F05A
:100BA00012001838176E0F0E171617C0E8FF300F17
:100BB00020C0AAFF21C0A9FFE8CFA8FFA6B2FED798
:100BC000A69EA69CA684F29EA198550EA76EAA0E7C
:100BD000A76EA682A6B2FED7F28EA694212A18C0CE
:100BE00017F00F0E171617C0E8FF300F20C0AAFF2E
:100BF00021C0A9FFE8CFA8FFA6B2FED7A69EA69C5B
:100C0000A684F29EA198550EA76EAA0EA76EA68284
:100C1000A6B2FED7F28EA694212A1938176E0F0EAF
:100C2000171617C0E8FF300F20C0AAFF21C0A9FF88
:100C3000E8CFA8FFA6B2FED7A69EA69CA684F29EE9
:100C4000A198550EA76EAA0EA76EA682A6B2FED7D1
:100C5000F28EA694212A1200020E606EEFEC09F0CB
:100C600062C0E8FF20EC0AF063C0E8FF60EC09F026
:100C700064C0E8FF60EC09F0680E60EC09F0010E5A
:100C8000606EEFEC09F062C0E8FF20EC0AF063C090
:100C9000E8FF60EC09F064C0E8FF60EC09F0000ECA
:100CA000606EEFEC09F062C0E8FF20EC0AF063C070
:100CB000E8FF60EC09F064C0E8FF60EC09F0200E8A
:100CC00060EC09F0060E606EEFEC09F062C0E8FF20
:100CD00020EC0AF063C0E8FF60EC09F064C0E8FFB4
:100CE00060EC09F02F0E60EC09F0050E606EEFEC81
:100CF00009F062C0E8FF20EC0AF063C0E8FF60EC96
:100D000009F064C0E8FF60EC09F02F0E60EC09F018
:100D1000040E606EEFEC09F062C0E8FF20EC0AF010
:100D200063C0E8FF60EC09F064C0E8FF60EC09F024
:100D30001200616A060E606ECDEC09F0602EFCD7E1
:100D4000CDEC09F0000E606E800E616ECDEC09F006
:100D5000060E606E170E616ECDEC09F0050E606E2A
:100D6000030E616ECDEC09F0040E606E040E616E30
:100D7000CDEC09F0020E606E120E616ECDEC09F042
:100D8000010E606E480E616ECDEC09F0000E606ED3
:100D9000000E616ECDEC09F01200948E949C0F0E43
:100DA000AF6EAC6AAB6AAB8EAB88AC8A1200020E37
:100DB00011EC07F00D0E11EC07F0156A166A150E0E
:100DC0001502F3CF21F0166A20C0AAFF21C0A9FFA7
:100DD000A69EA69CA680A8CFE8FF11EC07F0212ACA
:100DE000162A120E1662F0D716EC07F0152A080E16
:100DF0001562E5D797EC09F0000EF86E120EF76E4B
:100E0000340EF66E0800F55060EC09F00B00F5505A
:100E1000FBE1280E1A6E2BEC07F01A2E0BEF07F0F1
:100E20001200AD6EACA212EF07F012000A0E11EC28
:100E300007F00D0E11EC07F01200780E1B6E1B2E42
:100E40001FEF07F000001200A40E1C6E1C2E26EFF0
:100E500007F000001200F90E1D6E24EC07F01D2EA5
:100E60002DEF07F024EC07F0120020C0AAFF21C0EC
:100E7000A9FF63C0A8FFA6B2FED7A69EA69CA68423
:100E8000F29EA198550EA76EAA0EA76EA682A6B2D4
:100E9000FED7F28EA694212A20C0AAFF21C0A9FF66
:100EA00064C0A8FFA6B2FED7A69EA69CA684F29E0A
:100EB000A198550EA76EAA0EA76EA682A6B2FED75F
:100EC000F28EA694212A1200206A216A1F68156AF0
:100ED00020C0AAFF21C0A9FF1FC0A8FFA6B2FED74D
:100EE000A69EA69CA684F29EA198550EA76EAA0E59
:100EF000A76EA682A6B2FED7F28EA694152A212A44
:100F0000150E156268EF07F0206A216A120081A2AF
:100F100087EF07F081380F0B106E81B28DEF07F06D
:100F2000120020C0AAFF21C0A9FFA69EA69CA680F1
:100F3000A8CF22F0FF0E2262B0EF07F0000EF86E8D
:100F4000120EF76E480EF66E0800F55060EC09F0D0
:100F50000B00F550FBE1FF0E2260D9EF07F0120005
:100F600020C0AAFF21C0A9FFA69EA69CA680A8CF4C
:100F7000E8FF60EC09F0212A20C0AAFF21C0A9FFE8
:100F8000A69EA69CA680A8CFE8FF60EC09F0212AC7
:100F900020C0AAFF21C0A9FFA69EA69CA680A8CF1C
:100FA000E8FF60EC09F0212A730E60EC09F097EC81
:100FB00009F0120020C0AAFF21C0A9FFA69EA69C8E
:100FC000A680A8CF22F0FF0E2262F8EF07F0000EF5
:100FD000F86E120EF76E480EF66E0800F55060ECD3
:100FE00009F00B00F550FBE1FF0E226045EF08F021
:100FF000610E60EC09F020C0AAFF21C0A9FFA69EE7
:10100000A69CA680A8CF22F022C0E8FF60EC09F0E1
:10101000212A200E60EC09F0620E60EC09F020C07D
:10102000AAFF21C0A9FFA69EA69CA680A8CF22F059
:1010300022C0E8FF60EC09F0212A200E60EC09F0E4
:10104000630E60EC09F020C0AAFF21C0A9FFA69E94
:10105000A69CA680A8CF22F022C0E8FF60EC09F091
:10106000212A200E60EC09F0640E60EC09F020C02B
:10107000AAFF21C0A9FFA69EA69CA680A8CF22F009
:1010800022C0E8FF60EC09F0212A120020C0AAFF6C
:1010900021C0A9FFA69EA69CA680A8CF22F0FF0E85
:1010A000226264EF08F0000EF86E120EF76E480E22
:1010B000F66E0800F55060EC09F00B00F550FBE10E
:1010C000FF0E226094EF08F020C0AAFF21C0A9FF04
:1010D000A69EA69CA680A8CF22F022C0E8FF60ECC6
:1010E00009F0212A20C0AAFF21C0A9FFA69EA69C24
:1010F000A680A8CF22F022C0E8FF60EC09F0212AE8
:10110000680E60EC09F095EC08F0200E60EC09F038
:1011100095EC08F02F0E60EC09F095EC08F02F0E1E
:1011200060EC09F095EC08F0120020C0AAFF21C085
:10113000A9FFA69EA69CA680A8CF22F022C0E8FF09
:1011400060EC09F0212A20C0AAFF21C0A9FFA69EB9
:10115000A69CA680A8CF22F022C0E8FF60EC09F090
:04116000212A12002E
:0C116400626F744C00006D7220686C20FB
:10117000686700005374616E64696E67206279204D
:101180002E2E2E202E2E2E205374616E64696E67D3
:10119000206279202E2E2E202E2E2E003C413E53F2
:1011A0006F7274203C423E4C617374204C6F672018
:1011B0003C433E5065726D204C6F6773203C443E4B
:1011C0005043000054696D653A0053617665643A96
:1011D00000004261636B203C303E00005065726D40
:1011E000616E656E74204C6F677300003C313E2069
:1011F0002E2E2E203C393E00536F7274696E672E7E
:101200002E2E0000454E44203C2A3E0050432049EB
:101210006E746572666163650000426567696E2081
:101220003C233E005472616E7366657272696E672C
:101230002E2E2E00436F6D706C6574652100536116
:1012400076696E672E2E2E004E2F4100A0EC09F01D
:10125000A0EC09F0A0EC09F08394300E9BEC09F0AF
:1012600084EC09F084EC09F0A0EC09F084EC09F0BE
:10127000200E9BEC09F084EC09F0A0EC09F0280E9C
:1012800072EC09F0A0EC09F00C0E72EC09F0A0EC85
:1012900009F0060E72EC09F0A0EC09F07DEC09F003
:1012A000838412008C94716EF00B8C6E8C86713876
:1012B000F00B8C968C6E8C868C96B1EC09F012003B
:1012C0008C94726E72C0E8FFF00B040F836E8C86F4
:1012D0007238F00B8C96040F836E8C868C96ABEC78
:1012E00009F01200686E9BEC09F084EC09F0683894
:1012F0009BEC09F084EC09F012008394010E72EC6F
:1013000009F0A0EC09F01200838600008396230EFA
:10131000696E692E89EF09F012001B0E52EC09F07C
:10132000A0EC09F01200800E52EC09F01200C00E81
:1013300052EC09F01200F00B83120F098316120011
:10134000500E706E230E696E692EA4EF09F0702E98
:10135000A2EF09F01200230E736E732EADEF09F0A9
:101360001200C20E736E0A0E746E732EB9EF09F07E
:10137000742EB5EF09F01200000EC76E280EC66E6F
:10138000000EC56E180EC86EC68AA1969E96C790AE
:10139000C584C5B4FED79E961200C580C6AE9E8693
:1013A0009EA6FED79E96D00EC7B0FED7C96E9EA64B
:1013B000FED79E9660C0E8FFC7B0FED7C96E9EA656
:1013C000FED79E9661C0E8FFC7B0FED7C96E9EA645
:1013D000FED79E96C584C5B4FED79E961200C580E2
:1013E000C6AE9E869EA6FED79E96D00EC7B0FED7EE
:1013F000C96E9EA6FED79E9660C0E8FFC7B0FED716
:10140000C96E9EA6FED79E96C5829EA6FED79E96C4
:10141000D10EC7B0FED7C96E9EA6FED79E96C586D2
:101420009EA6FED79E96C9CFE8FF626EC58AC58884
:10143000C5B818EF0AF0C584C5B4FED79E96120051
:10144000656E65380F0B300F636E65C0E8FF0F0BDC
:10145000300F646E1200C580C6AE9E869EA6FED773
:101460009E96D00EC7B0FED7C96E9EA6FED79E969A
:101470000E0EC7B0FED7C96E9EA6FED79E96040E6E
:10148000C7B0FED7C96E9EA6FED79E96C584C5B4CA
:10149000FED79E961200C580C6AE9E869EA6FED73B
:1014A0009E96520EC7B0FED7C96E9EA6FED79E96D8
:1014B00060C0E8FF8009C7B0FED7C96E9EA6FED700
:1014C0009E96C5829EA6FED79E96530EC7B0FED7A7
:1014D000C96E9EA6FED79E96C5869EA6FED79E96F0
:1014E000C9CFE8FF616EC58AC588C5B875EF0AF037
:1014F000C584C5B4FED79E961200C580C6AE9E8632
:101500009EA6FED79E96520EC7B0FED7C96E9EA667
:10151000FED79E9660C0E8FF8009C7B0FED7C96EAF
:101520009EA6FED79E9661C0E8FFFF0BC7B0FED710
:10153000C96E9EA6FED79E96C584C5B4FED79E965C
:101540001200C580C6AE9E869EA6FED79E96100E41
:10155000C7B0FED7C96E9EA6FED79E96C584C5B4F9
:10156000FED79E961200C580C6AE9E869EA6FED76A
:101570009E96C5829EA6FED79E96110EC7B0FED738
:10158000C96E9EA6FED79E96C5869EA6FED79E963F
:10159000C9CFE8FFC58AC588C5B8CCEF0AF0C584B5
:1015A000C5B4FED79E961200C5BC1200C58AC59868
:1015B000C5B8D8EF0AF01200C76A280EC66EC56A11
:1015C000240EC86E948694881200C7B4E5EF0AF022
:1015D0001F0EC5140009F9E11200E5EC0AF0C58000
:1015E0001200E5EC0AF0C5821200E5EC0AF0C584B1
:1015F0001200E5EC0AF0C96EC7B4FCEF0AF0120065
:10160000C586E5EC0AF0C5B6FED7C9501200C59AEA
:08161000C588C5B8FED7120021
:020000040030CA
:0100010002FC
:010002001FDE
:010003001EDE
:010005008179
:010006008178
:010008000FE8
:01000900C036
:01000A000FE6
:01000B00E014
:01000C000FE4
:01000D0040B2
:00000001FF
