:020000040000FA
:0400000065EF00F0B8
:020004000000FA
:040008000EEF00F007
:080018004BEF00F0D8CF13F00C
:10002000146EBD0ED76EDC0ED66EF2A446EF00F055
:1000300019C017F00F0E1716090E176229EF00F0FE
:10004000100E1926F00E1916A00E1960196A2CEF61
:1000500000F0192A2CEF00F00000000E196246EFA4
:1000600000F018C017F00F0E1716090E176242EFB6
:1000700000F0100E1826F00E1816A00E1860186A60
:1000800045EF00F0182A45EF00F00000F294143814
:1000900013C0D8FF1000D8CF13F0146EF0A059EFA2
:1000A00000F081380F0B126E59EF00F0FF6AFE6A04
:1000B000FD6AF090143813C0D8FF146ED8CF13F037
:1000C00013C0D8FF143A14381000FF0E926EFF0EC2
:1000D000936E000E946E000E956E070E966E0F0EC8
:1000E000C16E896A8A6A8B6A8C6A8D6A000EC26EDA
:1000F000FF0EC16E29EC07F0280E55EC07F00C0E30
:1001000055EC07F0010E55EC07F0B6EC04F09CEC52
:1001100005F0000E806F010E816FA1EC08F0ADECD0
:1001200007F0000E806F030E816FA1EC08F0ADECBC
:1001300007F0010E806FD60E816FA1EC08F0ADECD8
:1001400007F00F0E806F030E816FA1EC08F0ADEC8D
:1001500007F086EC05F0D06AF26AF16AF06AD08E98
:10016000F28EF28CF18AF28AF284F184F086F09CAD
:10017000D59CD59AD598D596D594D582D580216A27
:10018000226A856B866BF20E936E000EF86E0D0E72
:10019000F76E7E0EF66E0800F55063EC07F00B006C
:1001A000F550FBE193EC07F0000EF86E0D0EF76EC4
:1001B000840EF66E0800F55063EC07F00B00F55066
:1001C000FBE1140E1B6E9CEC05F01B2EE3EF00F020
:1001D0007FEC07F0000EF86E0D0EF76E8E0EF66EC9
:1001E0000800F55063EC07F00B00F550FBE102EC62
:1001F00006F0050E106203EF01F0896A8A6A8B6AC5
:100200008C6AADEF01F00000030E10620EEF01F0FA
:10021000896A8A6A8B6A8C6AF1EF01F00000070E26
:10022000106219EF01F0896A8A6A8B6A8C6ADEEFC4
:1002300002F000000B0E106224EF01F0896A8A6A56
:100240008B6A8C6A80EF03F000000F0E10622FEFB4
:1002500001F0896A8A6A8B6A8C6A67EF04F0000091
:10026000C6D74350415CD8B438EF01F04250405CEF
:10027000D8A012004550415CD8B441EF01F0445081
:10028000405CD8A012004750415CD8B44AEF01F05E
:100290004650405CD8A01200630E63EC07F05DD0BE
:1002A0004150435CD8B457EF01F04050425CD8A0B5
:1002B00012004550435CD8B460EF01F04450425CFA
:1002C000D8A012004750435CD8B469EF01F0465003
:1002D000425CD8A01200720E63EC07F03ED0415091
:1002E000455CD8B476EF01F04050445CD8A01200D1
:1002F0004350455CD8B47FEF01F04250445CD8A035
:1003000012004750455CD8B488EF01F04650445C79
:10031000D8A01200670E63EC07F01FD04150475C75
:10032000D8B495EF01F04050465CD8A0120043507D
:10033000475CD8B49EEF01F04250465CD8A0120052
:100340004550475CD8B4A7EF01F04450465CD8A0B4
:100350001200620E63EC07F01200280E1B6E9CEC7C
:1003600005F01B2EAFEF01F07FEC07F0ADEC07F0CE
:10037000140E806F56EC08F082C040F0150E806FAE
:1003800056EC08F082C041F0160E806F56EC08F073
:1003900082C042F0170E806F56EC08F082C043F026
:1003A000180E806F56EC08F082C044F0190E806F72
:1003B00056EC08F082C045F01A0E806F56EC08F03B
:1003C00082C046F01B0E806F56EC08F082C047F0EA
:1003D00031EC01F050EC01F06FEC01F08EEC01F02B
:1003E000BCD7BDEC04F01F687FEC07F0000EF86E80
:1003F0000D0EF76ED80EF66E0800F55063EC07F0A0
:100400000B00F550FBE193EC07F0000EF86E0D0EBB
:10041000F76EE40EF66E0800F55063EC07F00B0083
:10042000F550FBE1BD0ED76EDC0ED66ED58ED5EC49
:1004300005F0186A196A406A446A426A466AF8EC2A
:1004400005F00C0E10622BEF02F0896A8A6A8B6A43
:100450008C6A2DEF02F00000F2D721C0AAFF22C063
:10046000A9FF18C0A8FFA6B2FED7A69EA69CA68488
:10047000F29EA198550EA76EAA0EA76EA682A6B2EE
:10048000FED7F28EA694222A21C0AAFF22C0A9FF7D
:1004900019C0A8FFA6B2FED7A69EA69CA684F29E6F
:1004A000A198550EA76EAA0EA76EA682A6B2FED779
:1004B000F28EA694222ABDEC04F01F6A60EF02F0CF
:1004C0007FEC07F0000EF86E0E0EF76E240EF66E3F
:1004D0000800F55063EC07F00B00F550FBE1000E4F
:1004E000216EA80E226E000E246EDC0E256E166A9A
:1004F000156A152A21C0AAFF22C0A9FFA69EA69CA4
:10050000A680A8CF23F0150E222621C0AAFF22C064
:10051000A9FF23C0A8FFA6B2FED7A69EA69CA684CC
:10052000F29EA198550EA76EAA0EA76EA682A6B23D
:10053000FED7F28EA694140E225E150E156279EF88
:1005400002F02A0E225EDC0E256E156A162A090EAE
:10055000166279EF02F0D59E090E226E21C0AAFF25
:1005600022C0A9FF18C0A8FFA6B2FED7A69EA69CCF
:10057000A684F29EA198550EA76EAA0EA76EA6821B
:10058000A6B2FED7F28EA694222A21C0AAFF22C0CC
:10059000A9FF19C0A8FFA6B2FED7A69EA69CA68456
:1005A000F29EA198550EA76EAA0EA76EA682A6B2BD
:1005B000FED7F28EA694222ADEEF02F07FEC07F03F
:1005C000000EF86E0D0EF76E960EF66E0800F550E2
:1005D00063EC07F00B00F550FBE1090E226E21C021
:1005E000AAFF22C0A9FFA69EA69CA680A8CF18F0AD
:1005F000222A21C0AAFF22C0A9FFA69EA69CA680EF
:10060000A8CF19F0222A10EC06F093EC07F0226A2A
:1006100050EC06F0F8EC05F0070E106216EF03F050
:10062000896A8A6A8B6A8C6A23EF03F000000D0ED8
:10063000106221EF03F0896A8A6A8B6A8C6AE8EF9C
:1006400000F00000E7D77FEC07F0000EF86E0D0E0B
:10065000F76EAA0EF66E0800F55063EC07F00B007B
:10066000F550FBE193EC07F0000EF86E0D0EF76EFF
:10067000B20EF66E0800F55063EC07F00B00F55073
:10068000FBE1216A226A336A276A21C0AAFF22C0DD
:10069000A9FFA69EA69CA680A8CF23F0FF0E2362EA
:1006A00061EF03F0000EF86E0E0EF76E3E0EF66E62
:1006B0000800F55063EC07F00B00F550FBE172EF1A
:1006C00003F0030E3360276072EF03F021C0AAFF2E
:1006D00022C0A9FFA69EA69CA680A8CF23F023BE79
:1006E00072EF03F0F8EC05F00D0E10627EEF03F0F0
:1006F000896A8A6A8B6A8C6ADEEF02F000008AD708
:100700007FEC07F0000EF86E0D0EF76EBC0EF66E65
:100710000800F55063EC07F00B00F550FBE193EC9B
:1007200007F0000EF86E0D0EF76ECC0EF66E080098
:10073000F55063EC07F00B00F550FBE1F8EC05F029
:100740000D0E1062AAEF03F0896A8A6A8B6A8C6ABE
:10075000E8EF00F00000000E1062B5EF03F0896AC8
:100760008A6A8B6A8C6A0FEF04F00000010E106237
:10077000C0EF03F0896A8A6A8B6A8C6A0FEF04F013
:100780000000020E1062CBEF03F0896A8A6A8B6A5E
:100790008C6A0FEF04F00000040E1062D6EF03F035
:1007A000896A8A6A8B6A8C6A0FEF04F00000050E72
:1007B0001062E1EF03F0896A8A6A8B6A8C6A0FEF34
:1007C00004F00000060E1062ECEF03F0896A8A6AFA
:1007D0008B6A8C6A0FEF04F00000080E1062F7EFCE
:1007E00003F0896A8A6A8B6A8C6A0FEF04F0000052
:1007F000090E106202EF04F0896A8A6A8B6A8C6AB9
:100800000FEF04F000000A0E10620DEF04F0896A89
:100810008A6A8B6A8C6A0FEF04F000008FD77FEC36
:1008200007F0000EF86E0D0EF76EBC0EF66E0800A7
:10083000F55063EC07F00B00F550FBE110C0E8FF4A
:10084000E82A176EE842E89EE842E89E175E17C065
:10085000E8FF17C011F0150D11C0E8FF300F63EC71
:1008600007F03A0E63EC07F0200E63EC07F0F3CFCD
:1008700022F0000E222621C0AAFF22C0A9FFA69EB8
:10088000A69CA680A8CF18F0222A21C0AAFF22C0C9
:10089000A9FFA69EA69CA680A8CF19F0222A10EC3C
:1008A00006F0F3CF22F093EC07F0F3CF22F050ECF8
:1008B00006F0F8EC05F00D0E106265EF04F0896AA1
:1008C0008A6A8B6A8C6A80EF03F00000F2D77FECB3
:1008D00007F0000EF86E0D0EF76EEC0EF66E0800C7
:1008E000F55063EC07F00B00F550FBE193EC07F0DB
:1008F000000EF86E0D0EF76EFA0EF66E0800F5504B
:1009000063EC07F00B00F550FBE1F9CF3AF0FACFBA
:100910003BF0FBCF3CF0F8EC05F00D0E106297EFCA
:1009200004F0896A8A6A8B6A8C6AE8EF00F000003A
:100930000E0E1062A2EF04F0896A8A6A8B6A8C6AD2
:10094000A4EF04F00000E7D739687FEC07F0000E51
:10095000F86E0E0EF76E040EF66E0800F55063EC9E
:1009600007F00B00F550FBE1396AD5D782988296E3
:1009700094889486B8EC07F01200020E806F03ECA6
:1009800008F082514CEC08F0A6EC05F0010E806FE7
:1009900003EC08F082514CEC08F0A6EC05F0060ED2
:1009A000806F03EC08F082514CEC08F0A6EC05F0E7
:1009B000050E806F03EC08F082514CEC08F0A6ECB9
:1009C00005F0040E806F03EC08F082514CEC08F047
:1009D000A6EC05F01200020E806F03EC08F08251C5
:1009E0004CEC08F085C0E8FF63EC07F086C0E8FF38
:1009F00063EC07F0680E63EC07F0010E806F03EC08
:100A000008F082514CEC08F085C0E8FF63EC07F079
:100A100086C0E8FF63EC07F0000E806F03EC08F07F
:100A200082514CEC08F085C0E8FF63EC07F086C00B
:100A3000E8FF63EC07F0200E63EC07F0060E806F12
:100A400003EC08F082514CEC08F085C0E8FF63EC41
:100A500007F086C0E8FF63EC07F02F0E63EC07F0A9
:100A6000050E806F03EC08F082514CEC08F085C055
:100A7000E8FF63EC07F086C0E8FF63EC07F02F0E99
:100A800063EC07F0040E806F03EC08F082514CEC2D
:100A900008F085C0E8FF63EC07F086C0E8FF63EC70
:100AA00007F01200816B060E806FC8EC07F0802FF4
:100AB000FCD7C8EC07F0000E806F800E816FC8EC89
:100AC00007F0060E806F170E816FC8EC07F0050E59
:100AD000806F020E816FC8EC07F0040E806F190E54
:100AE000816FC8EC07F0020E806F110E816FC8ECA9
:100AF00007F0010E806F380E816FC8EC07F0000E12
:100B0000806F000E816FC8EC07F012000F0EAF6E01
:100B1000AC6AAB6AAB8EAB88AC8A1200780E1C6EE6
:100B20001C2E90EF05F000001200A40E1D6E1D2E6D
:100B300097EF05F000001200F90E1E6E95EC05F01F
:100B40001E2E9EEF05F095EC05F0120021C0AAFFC5
:100B500022C0A9FF85C0A8FFA6B2FED7A69EA69C6C
:100B6000A684F29EA198550EA76EAA0EA76EA68225
:100B7000A6B2FED7F28EA694222A21C0AAFF22C0D6
:100B8000A9FF86C0A8FFA6B2FED7A69EA69CA684F3
:100B9000F29EA198550EA76EAA0EA76EA682A6B2C7
:100BA000FED7F28EA694222A1200216A226A2068B9
:100BB000156A21C0AAFF22C0A9FF20C0A8FFA6B2C3
:100BC000FED7A69EA69CA684F29EA198550EA76E5F
:100BD000AA0EA76EA682A6B2FED7F28EA694152AFA
:100BE000222A150E1562D9EF05F0216A226A120039
:100BF00081A2F8EF05F081380F0B106E81B2FEEF85
:100C000005F0120093EC07F0EBEC04F081A202EF88
:100C100006F081380F0B106E81B20CEF06F0120057
:100C200021C0AAFF22C0A9FFA69EA69CA680A8CF8D
:100C300023F0FF0E23622FEF06F0000EF86E0E0E6B
:100C4000F76E3E0EF66E0800F55063EC07F00B00F1
:100C5000F550FBE1FF0E23604FEF06F0120018384D
:100C6000176E0F0E171617C0E8FF300F63EC07F072
:100C700018C017F00F0E171617C0E8FF300F63ECFF
:100C800007F01938176E0F0E171617C0E8FF300F50
:100C900063EC07F0730E63EC07F093EC07F01200BF
:100CA000020E222621C0AAFF22C0A9FFA69EA69C52
:100CB000A680A8CF23F0FF0E236270EF06F0000E8F
:100CC000F86E0E0EF76E3E0EF66E0800F55063ECF1
:100CD00007F00B00F550FBE1FF0E2360A1EF06F0DB
:100CE00021C0AAFF22C0A9FFA69EA69CA680A8CFCD
:100CF00023F023C0E8FFF10B63EC07F0222A21C0A8
:100D0000AAFF22C0A9FFA69EA69CA680A8CF23F07A
:100D100023C0E8FF63EC07F0222A680E63EC07F0BB
:100D2000A2EC06F0200E63EC07F0A2EC06F02F0E0A
:100D300063EC07F0A2EC06F02F0E63EC07F0A2ECD8
:100D400006F0120021C0AAFF22C0A9FFA69EA69C01
:100D5000A680A8CF23F023C0E8FF63EC07F0222A87
:100D600021C0AAFF22C0A9FFA69EA69CA680A8CF4C
:0E0D700023F023C0E8FF63EC07F0222A1200F4
:020D7E00626FA2
:100D8000744C00006D7220686C206867000053741A
:100D9000616E6462790054696D653A0031323A30AF
:100DA0003020322F332F3134000053617665643A9E
:100DB00000004261636B203C303E00005065726D64
:100DC000616E656E74204C6F677300003C313E208D
:100DD0002E2E2E203C393E00536F7274696E672EA2
:100DE0002E2E0000454E44203C2A3E005043204910
:100DF0006E746572666163650000426567696E20A6
:100E00003C233E005472616E7366657272696E6750
:100E10002E2E2E0053746F707065640054696D65DA
:100E20003A200000536176696E672E2E2E005361C2
:100E30006665747920636865636B2E2E2E004E2FD5
:100E4000410054696D6520616E6420446174653AA7
:100E500000009CEC07F09CEC07F09CEC07F08394FE
:100E6000300E97EC07F086EC07F086EC07F09CEC70
:100E700007F086EC07F0200E97EC07F086EC07F001
:100E80009CEC07F0280E74EC07F09CEC07F00C0EBD
:100E900074EC07F09CEC07F0060E74EC07F09CEC89
:100EA00007F07FEC07F0838412008C94736EF00BD4
:100EB0008C6E8C867338F00B8C968C6E8C868C9630
:100EC000ADEC07F012008C94746E7450F00B040FAC
:100ED000836E8C867438F00B8C96040F836E8C8630
:100EE0008C96A7EC07F01200706E97EC07F086EC7A
:100EF00007F0703897EC07F086EC07F01200839447
:100F0000010E74EC07F09CEC07F0120083860000E1
:100F10008396230E716E712E8BEF07F01200800EF8
:100F200055EC07F01200C00E55EC07F01200F00B64
:100F300083120F0983161200500E726E230E716E0B
:100F4000712EA0EF07F0722E9EEF07F01200230E15
:100F5000756E752EA9EF07F01200C20E756E0A0E9F
:100F6000766E752EB5EF07F0762EB1EF07F0120012
:100F7000000EC76E240EC86E280EC66EC56AC68ADD
:100F8000A1969E96C790C584C5B4FED79E961200C2
:100F9000C580C6AE9E869EA6FED79E96D00EC7B0D2
:100FA000FED7C96E9EA6FED79E96C5BCEEEF07F093
:100FB0008051C7B0FED7C96E9EA6FED79E96C5BC0F
:100FC000F3EF07F08151C7B0FED7C96E9EA6FED7DA
:100FD0009E96C5BCF9EF07F0FEEF07F000000D0E7E
:100FE000896EDAEF08F000000F0E896E8D80DAEF5F
:100FF00008F00000090E896EDAEF08F0C584C5B468
:10100000FED79E961200C580C6AE9E869EA6FED7CF
:101010009E96D00EC7B0FED7C96E9EA6FED79E96EE
:10102000C5BC38EF08F08051C7B0FED7C96E9EA688
:10103000FED79E96C5BC3DEF08F0C5829EA6FED7A2
:101040009E96D10EC7B0FED7C96E9EA6FED79E96BD
:10105000C5BC42EF08F0C5869EA6FED79E96C95035
:10106000826FC58AC588C5B833EF08F047EF08F02E
:101070000000030E896E9CEF08F00000050E896EDB
:101080009CEF08F00000070E896E9CEF08F0C58405
:10109000C5B4FED79E961200876F87390F0B300FAD
:1010A000856F87510F0B300F866F1200C580C6AE5B
:1010B0009E869EA6FED79E96520EC7B0FED7C96EDC
:1010C0009EA6FED79E96C5BC8DEF08F080C0E8FFB7
:1010D0008009C7B0FED7C96E9EA6FED79E96C5BC36
:1010E00092EF08F0C5829EA6FED79E96530EC7B01B
:1010F000FED7C96E9EA6FED79E96C5BC97EF08F098
:10110000C5869EA6FED79E96C950826FC58AC588A1
:10111000C5B888EF08F09CEF08F00000030E896E58
:101120009CEF08F00000050E896E9CEF08F00000AF
:10113000070E896E9CEF08F0C584C5B4FED79E9655
:101140001200C580C6AE9E869EA6FED79E96520E03
:10115000C7B0FED7C96E9EA6FED79E96C5BCCAEF85
:1011600008F080C0E8FF8009C7B0FED7C96E9EA610
:10117000FED79E96C5BCCFEF08F081C0E8FFC7B090
:10118000FED7C96E9EA6FED79E96C5BCD5EF08F0C9
:10119000DAEF08F000000D0E896EDAEF08F00000BB
:1011A0000F0E896E8D80DAEF08F00000090E896E4F
:1011B000DAEF08F0C584C5B4FED79E961200C5BC10
:1011C0001200C58AC598C5B8E3EF08F01200C76AD7
:1011D000280EC66EC56A240EC86E948694881200C6
:1011E000C7B4F0EF08F01F0EC5140009F9E11200B2
:1011F000F0EC08F0C5801200F0EC08F0C582120097
:10120000F0EC08F0C5841200F0EC08F0C96EC7B429
:1012100007EF09F01200C586F0EC08F0C5B6FED75E
:0E122000C9501200C59AC588C5B8FED7120085
:020000040030CA
:0100010002FC
:010002001FDE
:010003001EDE
:010005008179
:010006008178
:010008000FE8
:01000900C036
:01000A000FE6
:01000B00E014
:01000C000FE4
:01000D0040B2
:00000001FF
