:020000040000FA
:0400000085EF00F098
:020004000000FA
:040008000EEF00F007
:080018006BEF00F0D8CF13F0EC
:10002000146E1838176E0F0E171617C0E8FF300F32
:10003000A5EC07F018C017F00F0E171617C0E8FF51
:10004000300FA5EC07F01938176E0F0E171617C0F2
:10005000E8FF300FA5EC07F0730EA5EC07F0D5EC28
:1000600007F0C60ED76E3E0ED66EF2A466EF00F015
:1000700019C017F00F0E1716090E176249EF00F09E
:10008000100E1926F00E1916A00E1960196A4CEF01
:1000900000F0192A4CEF00F00000000E196266EF24
:1000A00000F018C017F00F0E1716090E176262EF56
:1000B00000F0100E1826F00E1816A00E1860186A20
:1000C00065EF00F0182A65EF00F00000F294143894
:1000D00013C0D8FF1000D8CF13F0146EF0A079EF42
:1000E00000F081380F0B126E79EF00F0FF6AFE6AA4
:1000F000FD6AF090143813C0D8FF146ED8CF13F0F7
:1001000013C0D8FF143A14381000FF0E926EFF0E81
:10011000936E000E946E000E956E070E966E0F0E87
:10012000C16E896A8A6A8B6A8C6A8D6A000EC26E99
:10013000FF0EC16E6BEC07F0280E97EC07F00C0E6B
:1001400097EC07F0010E97EC07F097EC04F0D8EC71
:1001500005F0000E806F010E816FE3EC08F0EFEC0C
:1001600007F0000E806F030E816FE3EC08F0EFECF8
:1001700007F0010E806FD60E816FE3EC08F0EFEC14
:1001800007F00F0E806F030E816FE3EC08F0EFECC9
:1001900007F0C2EC05F0D06AF26AF16AF06AD08E1C
:1001A000F28EF28CF18AF28AF284F184F086F09C6D
:1001B000D59ED59CD59AD598D596D594D582D580FF
:1001C000216A226A856B866B406A416A426A436A89
:1001D000F20E936EC1EC07F0000EF86E0E0EF76E85
:1001E000020EF66E0800F550A5EC07F00B00F55076
:1001F000FBE1D5EC07F0000EF86E0E0EF76E080E60
:10020000F66E0800F550A5EC07F00B00F550FBE189
:10021000280E1B6ED8EC05F01B2E0AEF01F0C1EC86
:1002200007F0000EF86E0E0EF76E120EF66E080056
:10023000F550A5EC07F00B00F550FBE13EEC06F0A5
:10024000050E10622AEF01F0896A8A6A8B6A8C6A4D
:10025000D4EF01F00000030E106235EF01F0896A5F
:100260008A6A8B6A8C6A18EF02F00000070E10622F
:1002700040EF01F0896A8A6A8B6A8C6A02EF03F0A8
:1002800000000B0E10624BEF01F0896A8A6A8B6ADC
:100290008C6A61EF03F000000F0E106256EF01F060
:1002A000896A8A6A8B6A8C6A48EF04F00000C6D7B4
:1002B0004750455CD8B45FEF01F04650445CD8A08D
:1002C00012004950455CD8B468EF01F04850445CD6
:1002D000D8A012004B50455CD8B471EF01F04A50E1
:1002E000445CD8A01200630EA5EC07F05DD0455029
:1002F000475CD8B47EEF01F04450465CD8A01200B1
:100300004950475CD8B487EF01F04850465CD8A00C
:1003100012004B50475CD8B490EF01F04A50465C55
:10032000D8A01200720EA5EC07F03ED04550495CF3
:10033000D8B49DEF01F04450485CD8A0120047505B
:10034000495CD8B4A6EF01F04650485CD8A0120032
:100350004B50495CD8B4AFEF01F04A50485CD8A08C
:100360001200670EA5EC07F01FD045504B5CD8B4C7
:10037000BCEF01F044504A5CD8A0120047504B5CDF
:10038000D8B4C5EF01F046504A5CD8A012004950DD
:100390004B5CD8B4CEEF01F048504A5CD8A01200B4
:1003A000620EA5EC07F01200280E1B6ED8EC05F0CB
:1003B0001B2ED6EF01F0C1EC07F0EFEC07F0140EA6
:1003C000806F98EC08F082C044F0150E806F98ECB6
:1003D00008F082C045F0160E806F98EC08F082C0DD
:1003E00046F0170E806F98EC08F082C047F0180EA8
:1003F000806F98EC08F082C048F0190E806F98EC7E
:1004000008F082C049F01A0E806F98EC08F082C0A4
:100410004AF01B0E806F98EC08F082C04BF058EC4D
:1004200001F077EC01F096EC01F0B5EC01F0BCD7EF
:1004300011EC06F09EEC04F01F68C1EC07F0000E12
:10044000F86E0E0EF76E5C0EF66E0800F550A5EC19
:1004500007F00B00F550FBE1D5EC07F0C50ED76EA9
:10046000440ED66ED58E186A196A446A486A466A7E
:100470004A6A34EC06F00C0E106245EF02F0896A0D
:100480008A6A8B6A8C6A47EF02F00000F2D7D59E29
:10049000CCEC04F01F6A40C0E8FF300F21C0AAFF77
:1004A00022C0A9FFE8CFA8FFA6B2FED7A69EA69CB1
:1004B000A684F29EA198550EA76EAA0EA76EA682DC
:1004C000A6B2FED7F28EA694222A41C0E8FF300FD2
:1004D00021C0AAFF22C0A9FFE8CFA8FFA6B2FED77D
:1004E000A69EA69CA684F29EA198550EA76EAA0E63
:1004F000A76EA682A6B2FED7F28EA694222A42C08A
:10050000E8FF300F21C0AAFF22C0A9FFE8CFA8FF53
:10051000A6B2FED7A69EA69CA684F29EA198550ED2
:10052000A76EAA0EA76EA682A6B2FED7F28EA694DA
:10053000222A43C0E8FF300F21C0AAFF22C0A9FF32
:10054000E8CFA8FFA6B2FED7A69EA69CA684F29EE0
:10055000A198550EA76EAA0EA76EA682A6B2FED7C8
:10056000F28EA694222AB5EF02F0C1EC07F0000E3D
:10057000F86E0E0EF76EA80EF66E0800F550A5EC9C
:1005800007F00B00F550FBE1000E216EA80E226E65
:10059000000E246EDC0E256E166A156A152A21C01F
:1005A000AAFF22C0A9FFA69EA69CA680A8CF23F0E2
:1005B000150E222621C0AAFF22C0A9FF23C0A8FF32
:1005C000A6B2FED7A69EA69CA684F29EA198550E22
:1005D000A76EAA0EA76EA682A6B2FED7F28EA6942A
:1005E000140E225E150E1562CEEF02F02A0E225E68
:1005F000DC0E256E156A162A090E1662CEEF02F081
:1006000002EF03F0C1EC07F0000EF86E0E0EF76E6D
:100610001A0EF66E0800F550A5EC07F00B00F55029
:10062000FBE10A0E226E4CEC06F0D5EC07F0226AD4
:1006300095EC06F034EC06F0070E106226EF03F09E
:10064000896A8A6A8B6A8C6A33EF03F000000D0EA8
:10065000106231EF03F0896A8A6A8B6A8C6A0FEF45
:1006600001F00000E7D7C1EC07F0000EF86E0E0EA7
:10067000F76E2E0EF66E0800F550A5EC07F00B0095
:10068000F550FBE1D5EC07F0000EF86E0E0EF76E9C
:10069000360EF66E0800F550A5EC07F00B00F5508D
:1006A000FBE1216A226A34EC06F00D0E10625FEF66
:1006B00003F0896A8A6A8B6A8C6A02EF03F0000091
:1006C000B9D7C1EC07F0000EF86E0E0EF76E400EB3
:1006D000F66E0800F550A5EC07F00B00F550FBE1B5
:1006E000D5EC07F0000EF86E0E0EF76E500EF66E9B
:1006F0000800F550A5EC07F00B00F550FBE134ECD9
:1007000006F00D0E10628BEF03F0896A8A6A8B6A1D
:100710008C6A0FEF01F00000000E106296EF03F0FC
:10072000896A8A6A8B6A8C6AF0EF03F00000010E16
:100730001062A1EF03F0896A8A6A8B6A8C6AF0EF13
:1007400003F00000020E1062ACEF03F0896A8A6ABF
:100750008B6A8C6AF0EF03F00000040E1062B7EFB2
:1007600003F0896A8A6A8B6A8C6AF0EF03F00000F2
:10077000050E1062C2EF03F0896A8A6A8B6A8C6A7E
:10078000F0EF03F00000060E1062CDEF03F0896A6F
:100790008A6A8B6A8C6AF0EF03F00000080E106220
:1007A000D8EF03F0896A8A6A8B6A8C6AF0EF03F0EB
:1007B0000000090E1062E3EF03F0896A8A6A8B6A0F
:1007C0008C6AF0EF03F000000A0E1062EEEF03F007
:1007D000896A8A6A8B6A8C6AF0EF03F000008FD70F
:1007E000C1EC07F0000EF86E0E0EF76E400EF66EBE
:1007F0000800F550A5EC07F00B00F550FBE110C028
:10080000E8FFE82A176EE842E89EE842E89E175E95
:1008100017C0E8FF17C011F0150D11C0E8FF300F29
:10082000A5EC07F03A0EA5EC07F0200EA5EC07F0BA
:10083000F3CF22F0000E222621C0AAFF22C0A9FF7A
:10084000A69EA69CA680A8CF18F0222A21C0AAFFA7
:1008500022C0A9FFA69EA69CA680A8CF19F0222A96
:100860004CEC06F0F3CF22F0D5EC07F0F3CF22F0FA
:1008700095EC06F034EC06F00D0E106246EF04F035
:10088000896A8A6A8B6A8C6A61EF03F00000F2D78A
:10089000C1EC07F0000EF86E0E0EF76E700EF66EDD
:1008A0000800F550A5EC07F00B00F550FBE1D5EC86
:1008B00007F0000EF86E0E0EF76E7E0EF66E080054
:1008C000F550A5EC07F00B00F550FBE1F9CF3AF03D
:1008D000FACF3BF0FBCF3CF034EC06F00D0E10628B
:1008E00078EF04F0896A8A6A8B6A8C6A0FEF01F0EC
:1008F00000000E0E106283EF04F0896A8A6A8B6A28
:100900008C6A85EF04F00000E7D73968C1EC07F086
:10091000000EF86E0E0EF76E880EF66E0800F5509B
:10092000A5EC07F00B00F550FBE1396AD5D78298AA
:10093000829694889486FAEC07F01200020E806F7B
:1009400045EC08F082518EEC08F0E2EC05F0010E67
:10095000806F45EC08F082518EEC08F0E2EC05F077
:10096000060E806F45EC08F082518EEC08F0E2EC48
:1009700005F0050E806F45EC08F082518EEC08F012
:10098000E2EC05F0040E806F45EC08F082518EEC2D
:1009900008F0E2EC05F012001838176E0F0E17166B
:1009A00017C0E8FF300F21C0AAFF22C0A9FFE8CF7F
:1009B000A8FFA6B2FED7A69EA69CA684F29EA198EA
:1009C000550EA76EAA0EA76EA682A6B2FED7F28E0D
:1009D000A694222A18C017F00F0E171617C0E8FFAA
:1009E000300F21C0AAFF22C0A9FFE8CFA8FFA6B2FE
:1009F000FED7A69EA69CA684F29EA198550EA76E31
:100A0000AA0EA76EA682A6B2FED7F28EA694222ABE
:100A10001938176E0F0E171617C0E8FF300F21C0D8
:100A2000AAFF22C0A9FFE8CFA8FFA6B2FED7A69EC4
:100A3000A69CA684F29EA198550EA76EAA0EA76E3C
:100A4000A682A6B2FED7F28EA694222A1200020E29
:100A5000806F45EC08F082518EEC08F085C0E8FF0D
:100A6000A5EC07F086C0E8FFA5EC07F0680EA5EC42
:100A700007F0010E806F45EC08F082518EEC08F013
:100A800085C0E8FFA5EC07F086C0E8FFA5EC07F0FD
:100A9000000E806F45EC08F082518EEC08F085C0A6
:100AA000E8FFA5EC07F086C0E8FFA5EC07F0200EF4
:100AB000A5EC07F0060E806F45EC08F082518EEC35
:100AC00008F085C0E8FFA5EC07F086C0E8FFA5ECBC
:100AD00007F02F0EA5EC07F0050E806F45EC08F02F
:100AE00082518EEC08F085C0E8FFA5EC07F086C0C7
:100AF000E8FFA5EC07F02F0EA5EC07F0040E806FC1
:100B000045EC08F082518EEC08F085C0E8FFA5ECBA
:100B100007F086C0E8FFA5EC07F01200816B060E17
:100B2000806F0AEC08F0802FFCD70AEC08F0000E6A
:100B3000806F800E816F0AEC08F0060E806F170E32
:100B4000816F0AEC08F0050E806F020E816F0AECCF
:100B500008F0040E806F190E816F0AEC08F0020E87
:100B6000806F110E816F0AEC08F0010E806F380E55
:100B7000816F0AEC08F0000E806F000E816F0AECA6
:100B800008F012000F0EAF6EAC6AAB6AAB8EAB888A
:100B9000AC8A1200780E1C6E1C2ECCEF05F0000003
:100BA0001200A40E1D6E1D2ED3EF05F000001200E2
:100BB000F90E1E6ED1EC05F01E2EDAEF05F0D1EC29
:100BC00005F0120021C0AAFF22C0A9FF85C0A8FF1E
:100BD000A6B2FED7A69EA69CA684F29EA198550E0C
:100BE000A76EAA0EA76EA682A6B2FED7F28EA69414
:100BF000222A21C0AAFF22C0A9FF86C0A8FFA6B250
:100C0000FED7A69EA69CA684F29EA198550EA76E1E
:100C1000AA0EA76EA682A6B2FED7F28EA694222AAC
:100C20001200216A226A2068156A21C0AAFF22C028
:100C3000A9FF20C0A8FFA6B2FED7A69EA69CA684A8
:100C4000F29EA198550EA76EAA0EA76EA682A6B216
:100C5000FED7F28EA694152A222A150E156215EFDC
:100C600006F0216A226A120081A234EF06F0813870
:100C70000F0B106E81B23AEF06F01200D5EC07F0C0
:100C800027EC05F081A23EEF06F081380F0B106EC5
:100C900081B248EF06F0120021C0AAFF22C0A9FFCE
:100CA000A69EA69CA680A8CF23F0FF0E23626BEF22
:100CB00006F0000EF86E0E0EF76EC20EF66E08000D
:100CC000F550A5EC07F00B00F550FBE1FF0E23609B
:100CD00094EF06F0120021C0AAFF22C0A9FFA69E31
:100CE000A69CA680A8CFE8FFA5EC07F0222A21C089
:100CF000AAFF22C0A9FFA69EA69CA680A8CFE8FFB7
:100D0000A5EC07F0222A21C0AAFF22C0A9FFA69EB7
:100D1000A69CA680A8CFE8FFA5EC07F0222A730EB8
:100D2000A5EC07F0D5EC07F0120021C0AAFF22C005
:100D3000A9FFA69EA69CA680A8CF23F0FF0E236243
:100D4000B3EF06F0000EF86E0E0EF76EC20EF66EE2
:100D50000800F550A5EC07F00B00F550FBE1FF0E85
:100D60002360E3EF06F021C0AAFF22C0A9FFA69EE0
:100D7000A69CA680A8CF23F023C0E8FFA5EC07F02F
:100D8000222A21C0AAFF22C0A9FFA69EA69CA68057
:100D9000A8CF23F023C0E8FFA5EC07F0222A680EB5
:100DA000A5EC07F0E4EC06F0200EA5EC07F0E4EC6F
:100DB00006F02F0EA5EC07F0E4EC06F02F0EA5ECE4
:100DC00007F0E4EC06F0120021C0AAFF22C0A9FF40
:100DD000A69EA69CA680A8CF23F023C0E8FFA5EC82
:100DE00007F0222A21C0AAFF22C0A9FFA69EA69C26
:100DF000A680A8CF23F023C0E8FFA5EC07F0222AA5
:020E00001200DE
:0E0E0200626F744C00006D7220686C2068678F
:100E100000005374616E6462790054696D653A0034
:100E200031323A303020322F332F313400005361C9
:100E30007665643A00004261636B203C303E0000FE
:100E40005065726D616E656E74204C6F6773000043
:100E50003C313E202E2E2E203C393E00536F7274C2
:100E6000696E672E2E2E0000454E44203C2A3E001F
:100E7000504320496E746572666163650000426587
:100E800067696E203C233E005472616E7366657222
:100E900072696E672E2E2E0053746F707065640039
:100EA00054696D653A200000536176696E672E2E95
:100EB0002E0053616665747920636865636B2E2E1E
:100EC0002E004E2F410054696D6520616E642044F0
:100ED0006174653A0000DEEC07F0DEEC07F0DEEC52
:100EE00007F08394300ED9EC07F0C8EC07F0C8EC9B
:100EF00007F0DEEC07F0C8EC07F0200ED9EC07F0A5
:100F0000C8EC07F0DEEC07F0280EB6EC07F0DEECDC
:100F100007F00C0EB6EC07F0DEEC07F0060EB6ECB0
:100F200007F0DEEC07F0C1EC07F0838412008C942C
:100F3000736EF00B8C6E8C867338F00B8C968C6E07
:100F40008C868C96EFEC07F012008C94746E7450C3
:100F5000F00B040F836E8C867438F00B8C96040FA4
:100F6000836E8C868C96E9EC07F01200706ED9ECDB
:100F700007F0C8EC07F07038D9EC07F0C8EC07F0C0
:100F800012008394010EB6EC07F0DEEC07F01200BD
:100F9000838600008396230E716E712ECDEF07F0CD
:100FA0001200800E97EC07F01200C00E97EC07F0CD
:100FB0001200F00B83120F0983161200500E726E8E
:100FC000230E716E712EE2EF07F0722EE0EF07F044
:100FD0001200230E756E752EEBEF07F01200C20E95
:100FE000756E0A0E766E752EF7EF07F0762EF3EF1C
:100FF00007F01200000EC76E240EC86E280EC66ED3
:10100000C56AC68AA1969E96C790C584C5B4FED708
:101010009E961200C580C6AE9E869EA6FED79E9660
:10102000D00EC7B0FED7C96E9EA6FED79E96C5BC91
:1010300030EF08F08051C7B0FED7C96E9EA6FED72C
:101040009E96C5BC35EF08F08151C7B0FED7C96E7A
:101050009EA6FED79E96C5BC3BEF08F040EF08F079
:1010600000000D0E896E1CEF09F000000F0E896E56
:101070008D801CEF09F00000090E896E1CEF09F04D
:10108000C584C5B4FED79E961200C580C6AE9E86A6
:101090009EA6FED79E96D00EC7B0FED7C96E9EA65E
:1010A000FED79E96C5BC7AEF08F08051C7B0FED738
:1010B000C96E9EA6FED79E96C5BC7FEF08F0C5827E
:1010C0009EA6FED79E96D10EC7B0FED7C96E9EA62D
:1010D000FED79E96C5BC84EF08F0C5869EA6FED7B7
:1010E0009E96C950826FC58AC588C5B875EF08F04D
:1010F00089EF08F00000030E896EDEEF08F00000B3
:10110000050E896EDEEF08F00000070E896EDEEF37
:1011100008F0C584C5B4FED79E961200876F873944
:101120000F0B300F856F87510F0B300F866F12003A
:10113000C580C6AE9E869EA6FED79E96520EC7B0AE
:10114000FED7C96E9EA6FED79E96C5BCCFEF08F00F
:1011500080C0E8FF8009C7B0FED7C96E9EA6FED743
:101160009E96C5BCD4EF08F0C5829EA6FED79E967B
:10117000530EC7B0FED7C96E9EA6FED79E96C5BCBD
:10118000D9EF08F0C5869EA6FED79E96C950826FFD
:10119000C58AC588C5B8CAEF08F0DEEF08F00000C0
:1011A000030E896EDEEF08F00000050E896EDEEF9B
:1011B00008F00000070E896EDEEF08F0C584C5B4A4
:1011C000FED79E961200C580C6AE9E869EA6FED70E
:1011D0009E96520EC7B0FED7C96E9EA6FED79E96AB
:1011E000C5BC0CEF09F080C0E8FF8009C7B0FED78E
:1011F000C96E9EA6FED79E96C5BC11EF09F081C0B0
:10120000E8FFC7B0FED7C96E9EA6FED79E96C5BCA6
:1012100017EF09F01CEF09F000000D0E896E1CEFAE
:1012200009F000000F0E896E8D801CEF09F00000A0
:10123000090E896E1CEF09F0C584C5B4FED79E96D1
:101240001200C5BC1200C58AC598C5B825EF09F0C3
:101250001200C76A280EC66EC56A240EC86E948630
:1012600094881200C7B432EF09F01F0EC5140009AC
:10127000F9E1120032EC09F0C580120032EC09F0FD
:10128000C582120032EC09F0C584120032EC09F07C
:10129000C96EC7B449EF09F01200C58632EC09F0F7
:1012A000C5B6FED7C9501200C59AC588C5B8FED7C5
:0212B00012002A
:020000040030CA
:0100010002FC
:010002001FDE
:010003001EDE
:010005008179
:0100060001F8
:010008000FE8
:01000900C036
:01000A000FE6
:01000B00E014
:01000C000FE4
:01000D0040B2
:00000001FF
