:020000040000FA
:0400000083EF00F09A
:020004000000FA
:0400080018EF00F0FD
:080018005DEF00F0FF0ED76E52
:10002000FF0ED66E1200C50ED76E440ED66E1200AD
:10003000D8CF13F0146E000E386252EC09F0000EA7
:1000400038620EEC00F0FF0E386213EC00F0F2A400
:1000500058EF00F019C017F00F0E1716090E1762AF
:100060003BEF00F0100E1926F00E1916A00E1960C5
:10007000196A3EEF00F0192A3EEF00F00000000E72
:10008000196258EF00F018C017F00F0E1716090E7E
:10009000176254EF00F0100E1826F00E1816A00E7E
:1000A0001860186A57EF00F0182A57EF00F00000A8
:1000B000F294143813C0D8FF1000D8CF13F0146E88
:1000C000F0A07EEF00F0FF0E1E627EEF00F08138A0
:1000D0000F0B126E0C0E12627EEF00F0D59E83ECB9
:1000E00005F01E6A010E376E82EC04F0FF6AFE6AAC
:1000F000FD6AF090143813C0D8FF1000F090143847
:1001000013C0D8FF1000000E926EFF0E936E000E0B
:10011000946E000E956E000E966E000E896E000EA7
:100120008A6E000E8B6E000E8C6E000E8D6E000EB1
:10013000C26EEBEC08F0280E17EC09F00C0E17EC71
:1001400009F0010E17EC09F081EC09F041EC05F023
:100150007FEC06F0D06AF26AF16AF06AD08EF28E15
:10016000F28CF18AF28AF284F184F086F09CD59EBA
:10017000D59CD59AD598D596D594D582D580206A28
:10018000216A636A646A2C6A2D6A2E6A2F6A306A51
:10019000316A326AF20E936E42EC09F0000EF86E8C
:1001A000100EF76EE00EF66E0800F55025EC09F023
:1001B0000B00F550FBE15CEC09F0000EF86E100E40
:1001C000F76EE60EF66E0800F55025EC09F00B0010
:1001D000F550FBE1280E1A6EDDEC06F01A2EECEF5E
:1001E00000F0000E846E000E806E386842EC09F05C
:1001F000000EF86E100EF76EF00EF66E0800F55059
:1002000025EC09F00B00F550FBE15CEC09F0000E69
:10021000F86E110EF76E180EF66E0800F55025EC0C
:1002200009F00B00F550FBE1FF0ED76EFF0ED66E06
:10023000D58E43EC07F0000E106225EF01F0896ABD
:100240008A6A8B6A8C6AC6EF01F00000010E1062A8
:1002500030EF01F0896A8A6A8B6A8C6AA8EF01F034
:100260000000020E10623BEF01F0896A8A6A8B6A15
:100270008C6A74EF01F00000040E106246EF01F08A
:10028000896A8A6A8B6A8C6A8EEF01F00000030E1D
:10029000106251EF01F0896A8A6A8B6A8C6AD6EF24
:1002A00001F00000070E10625CEF01F0896A8A6AB3
:1002B0008B6A8C6AC2EF02F000000B0E106267EFCF
:1002C00001F0896A8A6A8B6A8C6A19EF03F0000070
:1002D0000F0E106272EF01F0896A8A6A8B6A8C6A6B
:1002E0002FEF04F00000A5D7386A000E846E0A0EC6
:1002F0001A6EDDEC06F01A2E79EF01F0010E846E15
:1003000039EC07F00D0E10628CEF01F0896A8A6AF1
:100310008B6A8C6AF1EF00F00000F0D7386A000EAB
:10032000846E0A0E1A6EDDEC06F01A2E93EF01F0C1
:10033000020E846E39EC07F00D0E1062A6EF01F08C
:10034000896A8A6A8B6A8C6AF1EF00F00000F0D744
:10035000386A326A140E1A6EDDEC06F01A2EACEF13
:1003600001F0230E806E76EC09F0260E806E76EC9E
:1003700009F02C0E806E76EC09F0290E806E76EC7A
:1003800009F0322A780E3262ECD7E2D7386A280EAA
:100390001A6EDDEC06F01A2EC9EF01F042EC09F0FE
:1003A000E5EC0AF0300F25EC09F0F1D7D59E386A5C
:1003B00016EC07F048EC05F01E6842EC09F0000E60
:1003C000F86E110EF76E820EF66E0800F55025ECF1
:1003D00009F00B00F550FBE15CEC09F0C50ED76E9F
:1003E000440ED66ED58E186A196A2D6A2E6A2F6A47
:1003F000306A316A010E356E346AFFEF01F0326AFD
:10040000230E806E76EC09F0260E806E76EC09F0F5
:100410002C0E806E76EC09F0290E806E76EC09F0D9
:10042000322A780E3262ECD700D0E5EC0AF02C6E5E
:10043000050E2C5C0EE0312A040E2C5C0AE0030E43
:100440002C5C15E0020E2C5C20E0010E2C5C2DE0F3
:10045000ECD7302A040E366E355C4CE0030E355C6A
:1004600032E0020E355C2FE0010E355C2CE02F2AC5
:10047000030E366E355C3EE0040E355C30E0020E55
:10048000355C21E0010E355C1EE02E2A7EEF02F085
:10049000020E366E355C2EE0040E355C20E0030E55
:1004A000355C1DE0010E355C0EE02D2A010E366E26
:1004B000355C20E0040E355C12E0030E355C0FE085
:1004C000020E355C0CE0336A000E846E010E846E01
:1004D000332A33C0E8FF346266EF02F00BD0336A90
:1004E000000E846E020E846E332A33C0E8FF34623D
:1004F000F9D700D036C035F0000E846E376A090E89
:10050000315C29E01838176E0F0E1716000E1764AD
:10051000FFEF01F0020E376E18C017F00F0E17161E
:10052000050E175C18E0030E3164FFEF01F0000EBA
:100530003064FFEF01F0000E2F64FFEF01F0000EBA
:100540002E64FFEF01F0000E2D64FFEF01F0030EAB
:10055000376EABEF02F0D59E83EC05F01E6A42ECDD
:1005600009F0000EF86E110EF76EC80EF66E080058
:10057000F55025EC09F00B00F550FBE182EC04F09E
:10058000C2EF02F0386A42EC09F0000EF86E110E6C
:10059000F76E400EF66E0800F55025EC09F00B00E2
:1005A000F550FBE10A0E216E4FEC07F05CEC09F010
:1005B0000D0E216E98EC07F039EC07F0070E106273
:1005C000E8EF02F0896A8A6A8B6A8C6AF5EF02F0BA
:1005D00000000D0E1062F3EF02F0896A8A6A8B6ADE
:1005E0008C6AF1EF00F00000E7D742EC09F0216AD5
:1005F00004EC08F05CEC09F0000EF86E110EF76EDA
:100600005C0EF66E0800F55025EC09F00B00F55075
:10061000FBE1206A216A39EC07F00D0E106217EF3A
:1006200003F0896A8A6A8B6A8C6AC2EF02F0000062
:10063000C3D7386A42EC09F0000EF86E110EF76E5F
:10064000660EF66E0800F55025EC09F00B00F5502B
:10065000FBE15CEC09F0000EF86E110EF76E760E01
:10066000F66E0800F55025EC09F00B00F550FBE1A3
:1006700039EC07F00D0E106244EF03F0896A8A6AC4
:100680008B6A8C6AF1EF00F00000000E10624FEFF1
:1006900003F0896A8A6A8B6A8C6AA9EF03F000000A
:1006A000010E10625AEF03F0896A8A6A8B6A8C6ABB
:1006B000A9EF03F00000020E106265EF03F0896AF3
:1006C0008A6A8B6A8C6AA9EF03F00000040E10623C
:1006D00070EF03F0896A8A6A8B6A8C6AA9EF03F06B
:1006E0000000050E10627BEF03F0896A8A6A8B6A4C
:1006F0008C6AA9EF03F00000060E106286EF03F08B
:10070000896A8A6A8B6A8C6AA9EF03F00000080E76
:10071000106291EF03F0896A8A6A8B6A8C6AA9EF8A
:1007200003F00000090E10629CEF03F0896A8A6AE8
:100730008B6A8C6AA9EF03F000000A0E1062A7EF23
:1007400003F0896A8A6A8B6A8C6AA9EF03F0000059
:100750008FD742EC09F0000EF86E110EF76E660EA0
:10076000F66E0800F55025EC09F00B00F550FBE1A2
:1007700010C0E8FFE82A176EE842E89EE842E89ECB
:10078000175E17C0E8FF17C011F0150D11C0E8FF84
:10079000300F25EC09F03A0E25EC09F0200E25EC7F
:1007A00009F0F3CF21F0000E212620C0AAFF21C0BE
:1007B000A9FFA69EA69CA680A8CF18F0212A20C03B
:1007C000AAFF21C0A9FFA69EA69CA680A8CF19F0CB
:1007D000212A4FEC07F0F3CF21F05CEC09F0F3CFC6
:1007E00021F004EC08F039EC07F0030E1062FFEF83
:1007F00003F0896A8A6A8B6A8C6A0CEF04F0000045
:100800000D0E10620AEF04F0896A8A6A8B6A8C6A9C
:1008100019EF03F00000E7D742EC09F0000EF86E84
:10082000110EF76E400EF66E0800F55025EC09F03B
:100830000B00F550FBE14FEC07F05CEC09F098EC95
:1008400007F039EC07F00D0E10622DEF04F0896A05
:100850008A6A8B6A8C6A19EF03F00000F2D7386A53
:1008600042EC09F0000EF86E110EF76E960EF66E61
:100870000800F55025EC09F00B00F550FBE15CECAD
:1008800009F0000EF86E110EF76EA40EF66E080059
:10089000F55025EC09F00B00F550FBE1F9CF29F0FC
:1008A000FACF2AF0FBCF2BF039EC07F00D0E1062D7
:1008B00060EF04F0896A8A6A8B6A8C6AF1EF00F053
:1008C00000000E0E10626BEF04F0896A8A6A8B6A70
:1008D0008C6A6DEF04F00000E7D7286842EC09F05D
:1008E000000EF86E110EF76EAE0EF66E0800F550A3
:1008F00025EC09F00B00F550FBE189EC06F0286AC5
:10090000F1EF00F02DC0E8FF300F20C0AAFF21C09A
:10091000A9FFE8CFA8FFA6B2FED7A69EA69CA684F4
:10092000F29EA198550EA76EAA0EA76EA682A6B239
:10093000FED7F28EA694212A2EC0E8FF300F20C0E9
:10094000AAFF21C0A9FFE8CFA8FFA6B2FED7A69EA6
:10095000A69CA684F29EA198550EA76EAA0EA76E1D
:10096000A682A6B2FED7F28EA694212A2FC0E8FF57
:10097000300F20C0AAFF21C0A9FFE8CFA8FFA6B270
:10098000FED7A69EA69CA684F29EA198550EA76EA1
:10099000AA0EA76EA682A6B2FED7F28EA694212A30
:1009A00030C0E8FF300F20C0AAFF21C0A9FFE8CF68
:1009B000A8FFA6B2FED7A69EA69CA684F29EA198EA
:1009C000550EA76EAA0EA76EA682A6B2FED7F28E0D
:1009D000A694212A37C0E8FF300F20C0AAFF21C00B
:1009E000A9FFE8CFA8FFA6B2FED7A69EA69CA68424
:1009F000F29EA198550EA76EAA0EA76EA682A6B269
:100A0000FED7F28EA694212A000E206EA80E216E2B
:100A1000000E236EDC0E246E166A156A152A20C09D
:100A2000AAFF21C0A9FFA69EA69CA680A8CF22F05F
:100A3000150E212620C0AAFF21C0A9FF22C0A8FFB1
:100A4000A6B2FED7A69EA69CA684F29EA198550E9D
:100A5000A76EAA0EA76EA682A6B2FED7F28EA694A5
:100A6000140E215E150E15620EEF05F02A0E215EA2
:100A7000DC0E246E156A162A090E16620EEF05F0BA
:100A80001200829882969488948625EC0AF01200CF
:100A9000020E606ECFEC09F062C0E8FF1AEC0AF0BB
:100AA000020E606ECFEC09F062C0E8FF1AEC0AF0AB
:100AB000E7EC06F0010E606ECFEC09F062C0E8FFD3
:100AC0001AEC0AF0E7EC06F0060E606ECFEC09F0C7
:100AD00062C0E8FF1AEC0AF0E7EC06F0050E606E63
:100AE000CFEC09F062C0E8FF1AEC0AF0E7EC06F080
:100AF000040E606ECFEC09F062C0E8FF1AEC0AF059
:100B0000E7EC06F012001838176E0F0E171617C014
:100B1000E8FF300F20C0AAFF21C0A9FFE8CFA8FF3F
:100B2000A6B2FED7A69EA69CA684F29EA198550EBC
:100B3000A76EAA0EA76EA682A6B2FED7F28EA694C4
:100B4000212A18C017F00F0E171617C0E8FF300F34
:100B500020C0AAFF21C0A9FFE8CFA8FFA6B2FED7F8
:100B6000A69EA69CA684F29EA198550EA76EAA0EDC
:100B7000A76EA682A6B2FED7F28EA694212A1938B5
:100B8000176E0F0E171617C0E8FF300F20C0AAFF10
:100B900021C0A9FFE8CFA8FFA6B2FED7A69EA69CBB
:100BA000A684F29EA198550EA76EAA0EA76EA682E5
:100BB000A6B2FED7F28EA694212A1200020E606E13
:100BC000CFEC09F062C0E8FF1AEC0AF063C0E8FF5E
:100BD00025EC09F064C0E8FF25EC09F0680E25EC6F
:100BE00009F0010E606ECFEC09F062C0E8FF1AEC6C
:100BF0000AF063C0E8FF25EC09F064C0E8FF25ECCB
:100C000009F0000E606ECFEC09F062C0E8FF1AEC4C
:100C10000AF063C0E8FF25EC09F064C0E8FF25ECAA
:100C200009F0200E25EC09F0060E606ECFEC09F0FD
:100C300062C0E8FF1AEC0AF063C0E8FF25EC09F097
:100C400064C0E8FF25EC09F02F0E25EC09F0050E35
:100C5000606ECFEC09F062C0E8FF1AEC0AF063C0E6
:100C6000E8FF25EC09F064C0E8FF25EC09F02F0E41
:100C700025EC09F0040E606ECFEC09F062C0E8FFCD
:100C80001AEC0AF063C0E8FF25EC09F064C0E8FF45
:100C900025EC09F01200616A060E606E92EC09F014
:100CA000602EFCD792EC09F0000E606E800E616E33
:100CB00092EC09F0060E606E170E616E92EC09F070
:100CC000050E606E030E616E92EC09F0040E606E0C
:100CD000040E616E92EC09F0020E606E120E616EEF
:100CE00092EC09F0010E606E480E616E92EC09F014
:100CF000000E606E000E616E92EC09F01200948E90
:100D0000949C0F0EAF6EAC6AAB6AAB8EAB88AC8AAC
:100D10001200020EC3EC06F00D0EC3EC06F0156ACD
:100D2000166A150E1502F3CF21F0166A20C0AAFF2D
:100D300021C0A9FFA69EA69CA680A8CFE8FFC3EC71
:100D400006F0212A162A120E1662F0D7C8EC06F019
:100D5000152A080E1562E5D75CEC09F0000EF86E56
:100D6000110EF76EBE0EF66E0800F55025EC09F078
:100D70000B00F550FBE1280E1A6EDDEC06F01A2E82
:100D8000BDEF06F01200AD6EACA2C4EF06F012008B
:100D90000A0EC3EC06F00D0EC3EC06F01200780E3E
:100DA0001B6E1B2ED1EF06F000001200A40E1C6E6D
:100DB0001C2ED8EF06F000001200F90E1D6ED6ECC6
:100DC00006F01D2EDFEF06F0D6EC06F0120020C074
:100DD000AAFF21C0A9FF63C0A8FFA6B2FED7A69EA6
:100DE000A69CA684F29EA198550EA76EAA0EA76E89
:100DF000A682A6B2FED7F28EA694212A20C0AAFF10
:100E000021C0A9FF64C0A8FFA6B2FED7A69EA69CDB
:100E1000A684F29EA198550EA76EAA0EA76EA68272
:100E2000A6B2FED7F28EA694212A1200206A216A69
:100E30001F68156A20C0AAFF21C0A9FF1FC0A8FF14
:100E4000A6B2FED7A69EA69CA684F29EA198550E99
:100E5000A76EAA0EA76EA682A6B2FED7F28EA694A1
:100E6000152A212A150E15621AEF07F0206A216A49
:100E7000120081A239EF07F081380F0B106E81B29A
:100E80003FEF07F012005CEC09F081A243EF07F09E
:100E900081380F0B106E81B24BEF07F0120020C0AB
:100EA000AAFF21C0A9FFA69EA69CA680A8CF22F0DB
:100EB000FF0E22626EEF07F0000EF86E110EF76E55
:100EC000D20EF66E0800F55025EC09F00B00F55037
:100ED000FBE1FF0E226097EF07F0120020C0AAFF8F
:100EE00021C0A9FFA69EA69CA680A8CFE8FF25EC5E
:100EF00009F0212A20C0AAFF21C0A9FFA69EA69C16
:100F0000A680A8CFE8FF25EC09F0212A20C0AAFF7F
:100F100021C0A9FFA69EA69CA680A8CFE8FF25EC2D
:100F200009F0212A730E25EC09F05CEC09F012009F
:100F300020C0AAFF21C0A9FFA69EA69CA680A8CF7C
:100F400022F0FF0E2262B6EF07F0000EF86E110ECF
:100F5000F76ED20EF66E0800F55025EC09F00B0086
:100F6000F550FBE1FF0E226003EF08F0610E25EC67
:100F700009F020C0AAFF21C0A9FFA69EA69CA680BA
:100F8000A8CF22F022C0E8FF25EC09F0212A200E8C
:100F900025EC09F0620E25EC09F020C0AAFF21C063
:100FA000A9FFA69EA69CA680A8CF22F022C0E8FF9B
:100FB00025EC09F0212A200E25EC09F0630E25EC22
:100FC00009F020C0AAFF21C0A9FFA69EA69CA6806A
:100FD000A8CF22F022C0E8FF25EC09F0212A200E3C
:100FE00025EC09F0640E25EC09F020C0AAFF21C011
:100FF000A9FFA69EA69CA680A8CF22F022C0E8FF4B
:1010000025EC09F0212A120020C0AAFF21C0A9FF67
:10101000A69EA69CA680A8CF22F0FF0E226222EFF9
:1010200008F0000EF86E110EF76ED20EF66E080084
:10103000F55025EC09F00B00F550FBE1FF0E2260A6
:1010400052EF08F020C0AAFF21C0A9FFA69EA69CCF
:10105000A680A8CF22F022C0E8FF25EC09F0212AC3
:1010600020C0AAFF21C0A9FFA69EA69CA680A8CF4B
:1010700022F022C0E8FF25EC09F0212A680E25ECB9
:1010800009F053EC08F0200E25EC09F053EC08F0C1
:101090002F0E25EC09F053EC08F02F0E25EC09F08B
:1010A00053EC08F0120020C0AAFF21C0A9FFA69EA1
:1010B000A69CA680A8CF22F022C0E8FF25EC09F06C
:1010C000212A20C0AAFF21C0A9FFA69EA69CA68017
:1010D000A8CF22F022C0E8FF25EC09F0212A120057
:1010E000626F744C00006D7220686C2068670000AD
:1010F0005374616E64696E67206279202E2E2E20F3
:101100002E2E2E205374616E64696E6720627920E2
:101110002E2E2E202E2E2E003C413E536F72742018
:101120003C423E4C617374204C6F67203C433E5000
:1011300065726D204C6F6773203C443E5043000045
:1011400054696D653A0031323A303020322F332FF6
:101150003134000053617665643A00004261636B8C
:10116000203C303E00005065726D616E656E7420EB
:101170004C6F677300003C313E202E2E2E203C39F0
:101180003E00536F7274696E672E2E2E0000454E1E
:1011900044203C2A3E00504320496E7465726661CB
:1011A00063650000426567696E203C233E0054720F
:1011B000616E7366657272696E672E2E2E00436FC4
:1011C0006D706C6574652100536176696E672E2EB3
:1011D0002E004E2F410065EC09F065EC09F065EC3E
:1011E00009F08394300E60EC09F049EC09F049EC09
:1011F00009F065EC09F049EC09F0200E60EC09F00B
:1012000049EC09F065EC09F0280E37EC09F065ECC3
:1012100009F00C0E37EC09F065EC09F0060E37EC1E
:1012200009F065EC09F042EC09F0838412008C941B
:10123000716EF00B8C6E8C867138F00B8C968C6E08
:101240008C868C9676EC09F012008C94726E72C0CB
:10125000E8FFF00B040F836E8C867238F00B8C96CF
:10126000040F836E8C868C9670EC09F01200686E09
:1012700060EC09F049EC09F0683860EC09F049ECE1
:1012800009F012008394010E37EC09F065EC09F0C7
:101290001200838600008396230E696E692E4EEF3E
:1012A00009F012001B0E17EC09F065EC09F01200B2
:1012B000800E17EC09F01200C00E17EC09F01200B6
:1012C000F00B83120F0983161200500E706E230E5E
:1012D000696E692E69EF09F0702E67EF09F0120050
:1012E000230E736E732E72EF09F01200C20E736E2E
:1012F0000A0E746E732E7EEF09F0742E7AEF09F0E9
:101300001200000EC76E280EC66E000EC56E180EB7
:10131000C86EC68AA1969E96C790C584C5B4FED7EE
:101320009E961200C580C6AE9E869EA6FED79E964D
:10133000D00EC7B0FED7C96E9EA6FED79E96C5BC7E
:10134000BAEF09F060C0E8FFC7B0FED7C96E9EA62D
:10135000FED79E96C5BCBFEF09F061C0E8FFC7B0DD
:10136000FED7C96E9EA6FED79E96C5BCC5EF09F0F6
:10137000CAEF09F00000010E896ECAEF09F0000003
:10138000020E896E8D80CAEF09F00000040E896E8E
:10139000CAEF09F0C584C5B4FED79E961200C58079
:1013A000C6AE9E869EA6FED79E96D00EC7B0FED72E
:1013B000C96E9EA6FED79E96C5BC06EF0AF060C019
:1013C000E8FFC7B0FED7C96E9EA6FED79E96C5BCE5
:1013D0000BEF0AF0C5829EA6FED79E96D10EC7B02F
:1013E000FED7C96E9EA6FED79E96C5BC10EF0AF02A
:1013F000C5869EA6FED79E96C9CFE8FF626EC58AB7
:10140000C588C5B801EF0AF015EF0AF00000030E19
:10141000896E15EF0AF00000070E896E15EF0AF0CD
:1014200000000F0E896E15EF0AF0C584C5B4FED713
:101430009E961200656E65380F0B300F636E65C0A7
:10144000E8FF0F0B300F646E1200C580C6AE9E869B
:101450009EA6FED79E96D00EC7B0FED7C96E9EA69A
:10146000FED79E960E0EC7B0FED7C96E9EA6FED7BB
:101470009E96040EC7B0FED7C96E9EA6FED79E9656
:10148000C584C5B4FED79E961200C580C6AE9E86A2
:101490009EA6FED79E96520EC7B0FED7C96E9EA6D8
:1014A000FED79E96C5BC7DEF0AF060C0E8FF8009BC
:1014B000C7B0FED7C96E9EA6FED79E96C5BC82EF6A
:1014C0000AF0C5829EA6FED79E96530EC7B0FED7E1
:1014D000C96E9EA6FED79E96C5BC87EF0AF0C5864C
:1014E0009EA6FED79E96C9CFE8FF616EC58AC588C5
:1014F000C5B878EF0AF08CEF0AF00000030E896E91
:101500008CEF0AF00000050E896E8CEF0AF00000E7
:10151000070E896E8CEF0AF0C584C5B4FED79E967F
:101520001200C580C6AE9E869EA6FED79E96520E1F
:10153000C7B0FED7C96E9EA6FED79E96C5BCBBEFB0
:101540000AF060C0E8FF8009C7B0FED7C96E9EA64A
:10155000FED79E96C5BCC0EF0AF061C0E8FFFF0B46
:10156000C7B0FED7C96E9EA6FED79E96C5BCC6EF75
:101570000AF0CBEF0AF000000D0E896ECBEF0AF0F7
:1015800000000F0E896E8D80CBEF0AF00000090E6F
:10159000896ECBEF0AF0C584C5B4FED79E961200C3
:1015A000C580C6AE9E869EA6FED79E96100EC7B07C
:1015B000FED7C96E9EA6FED79E96C5BCBBEF0AF0AD
:1015C000C584C5B4FED79E961200C580C6AE9E8661
:1015D0009EA6FED79E96C5829EA6FED79E96110E0B
:1015E000C7B0FED7C96E9EA6FED79E96C5869EA69C
:1015F000FED79E96C9CFE8FFC58AC588C5B8FEEF5D
:101600000AF0C584C5B4FED79E961200C5BC120070
:10161000C58AC598C5B80AEF0BF01200C76A280E34
:10162000C66EC56A240EC86E948694881200C7B42C
:1016300017EF0BF01F0EC5140009F9E1120017ECAB
:101640000BF0C580120017EC0BF0C582120017ECEE
:101650000BF0C584120017EC0BF0C96EC7B42EEF67
:101660000BF01200C58617EC0BF0C5B6FED7C950BB
:0C1670001200C59AC588C5B8FED712004C
:020000040030CA
:0100010002FC
:010002001FDE
:010003001EDE
:010005008179
:010006008178
:010008000FE8
:01000900C036
:01000A000FE6
:01000B00E014
:01000C000FE4
:01000D0040B2
:00000001FF
