:020000040000FA
:0400000098EF00F085
:020004000000FA
:040008002DEF00F0E8
:0800180072EF00F0FF0E1E6202
:100020006DEF00F0D59E8CEC05F0F2921E6A010E89
:10003000376E8BEC04F0FF6AFE6AFD6AF0901438AC
:1000400013C0D8FF1000FF0ED76EFF0ED66E120041
:10005000C30ED76E250ED66E1200D8CF13F0146ED5
:10006000000E38625BEC09F0000E386223EC00F001
:10007000FF0E386228EC00F0F2A46DEF00F019C01A
:1000800017F00F0E1716090E176250EF00F0100E42
:100090001926F00E1916A00E1960196A53EF00F018
:1000A000192A53EF00F00000000E19626DEF00F006
:1000B00018C017F00F0E1716090E176269EF00F03F
:1000C000100E1826F00E1816A00E1860186A6CEFA5
:1000D00000F0182A6CEF00F00000F294143813C0FE
:1000E000D8FF1000D8CF13F0146EF0A093EF00F0FB
:1000F000FF0E1E6293EF00F081380F0B126E0C0E94
:10010000126293EF00F0D59E8CEC05F01E6A010E92
:10011000376E8BEC04F0FF6AFE6AFD6AF0901438CB
:1001200013C0D8FF1000F090143813C0D8FF10008F
:10013000700ED36E000E926EFF0E936E000E946ED4
:10014000000E956E000E966E000E896E000E8A6E81
:10015000000E8B6E000E8C6E000E8D6E000EC26E49
:10016000F4EC08F0280E20EC09F00C0E20EC09F05D
:10017000010E20EC09F08AEC09F04AEC05F088EC5D
:1001800006F0D06AF26AF16AF06AD08EF28EF28CD2
:10019000F18AF28AF284F184F086F09CD59ED59C97
:1001A000D59AD598D596D594D582D580206A216ADE
:1001B000636A646A2C6A2D6A2E6A2F6A306A316A11
:1001C000326AF20E936E4BEC09F0000EF86E100ED0
:1001D000F76EF20EF66E0800F5502EEC09F00B00EB
:1001E000F550FBE165EC09F0000EF86E100EF76EAD
:1001F000F80EF66E0800F5502EEC09F00B00F550E5
:10020000FBE1280E1A6EE6EC06F01A2E03EF01F061
:10021000000E846E000E806E38684BEC09F0000E04
:10022000F86E110EF76E020EF66E0800F5502EEC09
:1002300009F00B00F550FBE165EC09F0000EF86EDB
:10024000110EF76E2A0EF66E0800F5502EEC09F02E
:100250000B00F550FBE1FF0ED76EFF0ED66ED58E6C
:100260004CEC07F0000E10623CEF01F0896A8A6ADC
:100270008B6A8C6ACEEF01F00000010E106247EF2E
:1002800001F0896A8A6A8B6A8C6A75EF01F0000056
:10029000030E106252EF01F0896A8A6A8B6A8C6AD7
:1002A000E8EF01F00000070E10625DEF01F0896ACF
:1002B0008A6A8B6A8C6ACBEF02F000000B0E106228
:1002C00068EF01F0896A8A6A8B6A8C6A22EF03F010
:1002D00000000F0E106273EF01F0896A8A6A8B6A60
:1002E0008C6A38EF04F00000BBD7386A326A140E0B
:1002F0001A6EE6EC06F01A2E79EF01F0230E806EEE
:100300007FEC09F07FEC09F07FEC09F07FEC09F05D
:100310007FEC09F07FEC09F07FEC09F07FEC09F04D
:10032000322A190E325CE1E0260E806E7FEC09F075
:100330007FEC09F07FEC09F07FEC09F07FEC09F02D
:100340007FEC09F07FEC09F07FEC09F0322A2C0EEB
:10035000806E7FEC09F07FEC09F07FEC09F07FEC18
:1003600009F07FEC09F07FEC09F07FEC09F07FECFD
:1003700009F0322A290E806E7FEC09F07FEC09F03B
:100380007FEC09F07FEC09F07FEC09F07FEC09F0DD
:100390007FEC09F07FEC09F0322AB0D74BEC09F082
:1003A000386A010E846E280E1A6EE6EC06F01A2EDC
:1003B000D5EF01F081EC0AF02C6E300F2EEC09F035
:1003C000280E1A6EE6EC06F01A2EE2EF01F0E6D7E0
:1003D000D59E386A1FEC07F051EC05F01E684BEC17
:1003E00009F0000EF86E110EF76E940EF66E08000E
:1003F000F5502EEC09F00B00F550FBE165EC09F02F
:10040000C30ED76E250ED66ED58E186A196A2D6A60
:100410002E6A2F6A306A316A010E356E346A010E17
:10042000846E13EF02F0326A230E806E7FEC09F0C7
:100430007FEC09F07FEC09F07FEC09F07FEC09F02C
:100440007FEC09F07FEC09F07FEC09F0322A190EFD
:10045000325C3AE0260E806E7FEC09F07FEC09F00A
:100460007FEC09F07FEC09F07FEC09F07FEC09F0FC
:100470007FEC09F07FEC09F0322A2C0E806E7FECC5
:1004800009F07FEC09F07FEC09F07FEC09F07FECDC
:1004900009F07FEC09F07FEC09F07FEC09F0322ADB
:1004A000290E806E7FEC09F07FEC09F07FEC09F0FB
:1004B0007FEC09F07FEC09F07FEC09F07FEC09F0AC
:1004C0007FEC09F0322AB0D7140E1A6EE6EC06F073
:1004D0001A2E66EF02F081EC0AF02C6E050E2C5CF1
:1004E000A2E0312A040E2C5C0AE0030E2C5C09E029
:1004F000020E2C5C08E0010E2C5C07E0E5D7302AE8
:1005000006D02F2A04D02E2A02D02D2A00D0376AF6
:10051000090E315C29E01838176E0F0E1716000E01
:10052000176413EF02F0020E376E18C017F00F0EAB
:100530001716050E175C18E0030E316413EF02F076
:10054000000E306413EF02F0000E2F6413EF02F080
:10055000000E2E6413EF02F0000E2D6413EF02F074
:10056000030E376EB4EF02F0D59E8CEC05F01E6AD8
:100570004BEC09F0000EF86E110EF76EDA0EF66E07
:100580000800F5502EEC09F00B00F550FBE18BEC68
:1005900004F0CBEF02F0386A4BEC09F0000EF86E75
:1005A000110EF76E520EF66E0800F5502EEC09F0A3
:1005B0000B00F550FBE10A0E216E58EC07F065ECDC
:1005C00009F00D0E216EA1EC07F042EC07F0070ECA
:1005D0001062F1EF02F0896A8A6A8B6A8C6AFEEF18
:1005E00002F000000D0E1062FCEF02F0896A8A6AC8
:1005F0008B6A8C6A08EF01F00000E7D74BEC09F03A
:10060000216A0DEC08F065EC09F0000EF86E110E91
:10061000F76E6E0EF66E0800F5502EEC09F00B002A
:10062000F550FBE1206A216A42EC07F00D0E1062E2
:1006300020EF03F0896A8A6A8B6A8C6ACBEF02F03A
:100640000000C3D7386A4BEC09F0000EF86E110EAB
:10065000F76E780EF66E0800F5502EEC09F00B00E0
:10066000F550FBE165EC09F0000EF86E110EF76E27
:10067000880EF66E0800F5502EEC09F00B00F550D0
:10068000FBE142EC07F00D0E10624DEF03F0896ABA
:100690008A6A8B6A8C6A08EF01F00000000E106213
:1006A00058EF03F0896A8A6A8B6A8C6AB2EF03F0AA
:1006B0000000010E106263EF03F0896A8A6A8B6A98
:1006C0008C6AB2EF03F00000020E10626EEF03F0CE
:1006D000896A8A6A8B6A8C6AB2EF03F00000040EA2
:1006E000106279EF03F0896A8A6A8B6A8C6AB2EFCA
:1006F00003F00000050E106284EF03F0896A8A6A35
:100700008B6A8C6AB2EF03F00000060E10628FEF66
:1007100003F0896A8A6A8B6A8C6AB2EF03F0000080
:10072000080E10629AEF03F0896A8A6A8B6A8C6AF3
:10073000B2EF03F00000090E1062A5EF03F0896A22
:100740008A6A8B6A8C6AB2EF03F000000A0E1062AC
:10075000B0EF03F0896A8A6A8B6A8C6AB2EF03F0A1
:1007600000008FD74BEC09F0000EF86E110EF76EFB
:10077000780EF66E0800F5502EEC09F00B00F550DF
:10078000FBE110C0E8FFE82A176EE842E89EE84265
:10079000E89E175E17C0E8FF17C011F0150D11C0D5
:1007A000E8FF300F2EEC09F03A0E2EEC09F0200E87
:1007B0002EEC09F0F3CF21F0000E212620C0AAFF75
:1007C00021C0A9FFA69EA69CA680A8CF18F0212A2A
:1007D00020C0AAFF21C0A9FFA69EA69CA680A8CFE4
:1007E00019F0212A58EC07F0F3CF21F065EC09F05D
:1007F000F3CF21F00DEC08F042EC07F0030E10628D
:1008000008EF04F0896A8A6A8B6A8C6A15EF04F033
:1008100000000D0E106213EF04F0896A8A6A8B6A79
:100820008C6A22EF03F00000E7D74BEC09F0000ED2
:10083000F86E110EF76E520EF66E0800F5502EECA3
:1008400009F00B00F550FBE158EC07F065EC09F0FE
:10085000A1EC07F042EC07F00D0E106236EF04F049
:10086000896A8A6A8B6A8C6A22EF03F00000F2D7E9
:10087000386A4BEC09F0000EF86E110EF76EA80EF8
:10088000F66E0800F5502EEC09F00B00F550FBE178
:1008900065EC09F0000EF86E110EF76EB60EF66EEE
:1008A0000800F5502EEC09F00B00F550FBE1F9CFF4
:1008B00029F0FACF2AF0FBCF2BF042EC07F00D0E17
:1008C000106269EF04F0896A8A6A8B6A8C6A08EFA1
:1008D00001F000000E0E106274EF04F0896A8A6A5B
:1008E0008B6A8C6A76EF04F00000E7D728684BEC3F
:1008F00009F0000EF86E110EF76EC00EF66E0800CD
:10090000F5502EEC09F00B00F550FBE192EC06F0EF
:10091000286A08EF01F02DC0E8FF300F20C0AAFFC1
:1009200021C0A9FFE8CFA8FFA6B2FED7A69EA69C2D
:10093000A684F29EA198550EA76EAA0EA76EA68257
:10094000A6B2FED7F28EA694212A2EC0E8FF300F61
:1009500020C0AAFF21C0A9FFE8CFA8FFA6B2FED7FA
:10096000A69EA69CA684F29EA198550EA76EAA0EDE
:10097000A76EA682A6B2FED7F28EA694212A2FC019
:10098000E8FF300F20C0AAFF21C0A9FFE8CFA8FFD1
:10099000A6B2FED7A69EA69CA684F29EA198550E4E
:1009A000A76EAA0EA76EA682A6B2FED7F28EA69456
:1009B000212A30C0E8FF300F20C0AAFF21C0A9FFC4
:1009C000E8CFA8FFA6B2FED7A69EA69CA684F29E5C
:1009D000A198550EA76EAA0EA76EA682A6B2FED744
:1009E000F28EA694212A37C0E8FF300F20C0AAFF5C
:1009F00021C0A9FFE8CFA8FFA6B2FED7A69EA69C5D
:100A0000A684F29EA198550EA76EAA0EA76EA68286
:100A1000A6B2FED7F28EA694212A000E206EA80E52
:100A2000216E000E236EDC0E246E166A156A152ADE
:100A300020C0AAFF21C0A9FFA69EA69CA680A8CF81
:100A400022F0150E212620C0AAFF21C0A9FF22C036
:100A5000A8FFA6B2FED7A69EA69CA684F29EA19849
:100A6000550EA76EAA0EA76EA682A6B2FED7F28E6C
:100A7000A694140E215E150E156217EF05F02A0ECE
:100A8000215EDC0E246E156A162A090E166217EF17
:100A900005F012008298829694889486F9EC09F009
:100AA0001200020E606EBDEC09F062C0E8FFEEECD1
:100AB00009F0020E606EBDEC09F062C0E8FFEEECDA
:100AC00009F0F0EC06F0010E606EBDEC09F062C0BA
:100AD000E8FFEEEC09F0F0EC06F0060E606EBDECFF
:100AE00009F062C0E8FFEEEC09F0F0EC06F0050E4C
:100AF000606EBDEC09F062C0E8FFEEEC09F0F0ECCE
:100B000006F0040E606EBDEC09F062C0E8FFEEEC8A
:100B100009F0F0EC06F012001838176E0F0E1716D9
:100B200017C0E8FF300F20C0AAFF21C0A9FFE8CFFF
:100B3000A8FFA6B2FED7A69EA69CA684F29EA19868
:100B4000550EA76EAA0EA76EA682A6B2FED7F28E8B
:100B5000A694212A18C017F00F0E171617C0E8FF29
:100B6000300F20C0AAFF21C0A9FFE8CFA8FFA6B27E
:100B7000FED7A69EA69CA684F29EA198550EA76EAF
:100B8000AA0EA76EA682A6B2FED7F28EA694212A3E
:100B90001938176E0F0E171617C0E8FF300F20C058
:100BA000AAFF21C0A9FFE8CFA8FFA6B2FED7A69E44
:100BB000A69CA684F29EA198550EA76EAA0EA76EBB
:100BC000A682A6B2FED7F28EA694212A1200020EA9
:100BD000606EBDEC09F062C0E8FFEEEC09F063C0A6
:100BE000E8FF2EEC09F064C0E8FF2EEC09F0680E77
:100BF0002EEC09F0010E606EBDEC09F062C0E8FF5A
:100C0000EEEC09F063C0E8FF2EEC09F064C0E8FFE9
:100C10002EEC09F0000E606EBDEC09F062C0E8FF3A
:100C2000EEEC09F063C0E8FF2EEC09F064C0E8FFC9
:100C30002EEC09F0200E2EEC09F0060E606EBDECD5
:100C400009F062C0E8FFEEEC09F063C0E8FF2EECAB
:100C500009F064C0E8FF2EEC09F02F0E2EEC09F02D
:100C6000050E606EBDEC09F062C0E8FFEEEC09F025
:100C700063C0E8FF2EEC09F064C0E8FF2EEC09F039
:100C80002F0E2EEC09F0040E606EBDEC09F062C070
:100C9000E8FFEEEC09F063C0E8FF2EEC09F064C059
:100CA000E8FF2EEC09F01200616A060E606E9BEC04
:100CB00009F0602EFCD79BEC09F0000E606E800EF0
:100CC000616E9BEC09F0060E606E170E616E9BEC78
:100CD00009F0050E606E030E616E9BEC09F0040EC8
:100CE000606E040E616E9BEC09F0020E606E120ED7
:100CF000616E9BEC09F0010E606E480E616E9BEC1C
:100D000009F0000E606E000E616E9BEC09F012009F
:100D1000948E949C0F0EAF6EAC6AAB6AAB8EAB88B0
:100D2000AC8A1200020ECCEC06F00D0ECCEC06F0F4
:100D3000156A166A150E1502F3CF21F0166A20C047
:100D4000AAFF21C0A9FFA69EA69CA680A8CFE8FF67
:100D5000CCEC06F0212A162A120E1662F0D7D1EC3E
:100D600006F0152A080E1562E5D765EC09F0000EAD
:100D7000F86E110EF76ED00EF66E0800F5502EECE0
:100D800009F00B00F550FBE1280E1A6EE6EC06F0B8
:100D90001A2EC6EF06F01200AD6EACA2CDEF06F033
:100DA00012000A0ECCEC06F00D0ECCEC06F0120090
:100DB000780E1B6E1B2EDAEF06F000001200A40E58
:100DC0001C6E1C2EE1EF06F000001200F90E1D6EE5
:100DD000DFEC06F01D2EE8EF06F0DFEC06F0120067
:100DE00020C0AAFF21C0A9FF63C0A8FFA6B2FED7FA
:100DF000A69EA69CA684F29EA198550EA76EAA0E4A
:100E0000A76EA682A6B2FED7F28EA694212A20C093
:100E1000AAFF21C0A9FF64C0A8FFA6B2FED7A69E64
:100E2000A69CA684F29EA198550EA76EAA0EA76E48
:100E3000A682A6B2FED7F28EA694212A1200206ABC
:100E4000216A1F68156A20C0AAFF21C0A9FF1FC020
:100E5000A8FFA6B2FED7A69EA69CA684F29EA19845
:100E6000550EA76EAA0EA76EA682A6B2FED7F28E68
:100E7000A694152A212A150E156223EF07F0206A81
:100E8000216A120081A242EF07F081380F0B106E29
:100E900081B248EF07F0120065EC09F081A24CEF37
:100EA00007F081380F0B106E81B254EF07F012007B
:100EB00020C0AAFF21C0A9FFA69EA69CA680A8CFFD
:100EC00022F0FF0E226277EF07F0000EF86E110E8F
:100ED000F76EE40EF66E0800F5502EEC09F00B00EC
:100EE000F550FBE1FF0E2260A0EF07F0120020C0DA
:100EF000AAFF21C0A9FFA69EA69CA680A8CFE8FFB6
:100F00002EEC09F0212A20C0AAFF21C0A9FFA69E2D
:100F1000A69CA680A8CFE8FF2EEC09F0212A20C0CD
:100F2000AAFF21C0A9FFA69EA69CA680A8CFE8FF85
:100F30002EEC09F0212A730E2EEC09F065EC09F075
:100F4000120020C0AAFF21C0A9FFA69EA69CA680D1
:100F5000A8CF22F0FF0E2262BFEF07F0000EF86E5E
:100F6000110EF76EE40EF66E0800F5502EEC09F047
:100F70000B00F550FBE1FF0E22600CEF08F0610E54
:100F80002EEC09F020C0AAFF21C0A9FFA69EA69CB6
:100F9000A680A8CF22F022C0E8FF2EEC09F0212A7B
:100FA000200E2EEC09F0620E2EEC09F020C0AAFFF4
:100FB00021C0A9FFA69EA69CA680A8CF22F022C091
:100FC000E8FF2EEC09F0212A200E2EEC09F0630E2A
:100FD0002EEC09F020C0AAFF21C0A9FFA69EA69C66
:100FE000A680A8CF22F022C0E8FF2EEC09F0212A2B
:100FF000200E2EEC09F0640E2EEC09F020C0AAFFA2
:1010000021C0A9FFA69EA69CA680A8CF22F022C040
:10101000E8FF2EEC09F0212A120020C0AAFF21C00F
:10102000A9FFA69EA69CA680A8CF22F0FF0E226252
:101030002BEF08F0000EF86E110EF76EE40EF66E50
:101040000800F5502EEC09F00B00F550FBE1FF0E07
:1010500022605BEF08F020C0AAFF21C0A9FFA69E76
:10106000A69CA680A8CF22F022C0E8FF2EEC09F0B3
:10107000212A20C0AAFF21C0A9FFA69EA69CA68067
:10108000A8CF22F022C0E8FF2EEC09F0212A680E3A
:101090002EEC09F05CEC08F0200E2EEC09F05CEC74
:1010A00008F02F0E2EEC09F05CEC08F02F0E2EEC61
:1010B00009F05CEC08F0120020C0AAFF21C0A9FFD3
:1010C000A69EA69CA680A8CF22F022C0E8FF2EEC08
:1010D00009F0212A20C0AAFF21C0A9FFA69EA69C34
:1010E000A680A8CF22F022C0E8FF2EEC09F0212A2A
:0210F0001200EC
:0E10F200626F744C00006D7220686C2068679D
:1011000000005374616E64696E67206279202E2E30
:101110002E202E2E2E205374616E64696E6720621D
:1011200079202E2E2E202E2E2E003C413E536F7203
:1011300074203C423E4C617374204C6F67203C43EA
:101140003E5065726D204C6F6773203C443E5043A7
:10115000000054696D653A0031323A303020322F48
:10116000332F3134000053617665643A00004261E8
:10117000636B203C303E00005065726D616E656EA1
:1011800074204C6F677300003C313E202E2E2E20C1
:101190003C393E00536F7274696E672E2E2E00002C
:1011A000454E44203C2A3E00504320496E746572EF
:1011B000666163650000426567696E203C233E00FE
:1011C0005472616E7366657272696E672E2E2E00A0
:1011D000436F6D706C6574652100536176696E674D
:1011E0002E2E2E004E2F41006EEC09F06EEC09F011
:1011F0006EEC09F08394300E69EC09F052EC09F0C2
:1012000052EC09F06EEC09F052EC09F0200E69EC9A
:1012100009F052EC09F06EEC09F0280E40EC09F0F0
:101220006EEC09F00C0E40EC09F06EEC09F0060EC5
:1012300040EC09F06EEC09F04BEC09F083841200ED
:101240008C94716EF00B8C6E8C867138F00B8C96D2
:101250008C6E8C868C967FEC09F012008C94726EEA
:1012600072C0E8FFF00B040F836E8C867238F00BAF
:101270008C96040F836E8C868C9679EC09F01200A4
:10128000686E69EC09F052EC09F0683869EC09F015
:1012900052EC09F012008394010E40EC09F06EEC60
:1012A00009F01200838600008396230E696E692E72
:1012B00057EF09F012001B0E20EC09F06EEC09F05C
:1012C0001200800E20EC09F01200C00E20EC09F094
:1012D0001200F00B83120F0983161200500E706E6D
:1012E000230E696E692E72EF09F0702E70EF09F00F
:1012F0001200230E736E732E7BEF09F01200C20EE4
:10130000736E0A0E746E732E87EF09F0742E83EFDE
:1013100009F01200000EC76E280EC66E000EC56ED4
:10132000180EC86EC68AA1969E96C790C584C5B48D
:10133000FED79E961200C580C6AE9E869EA6FED79C
:101340009E96D00EC7B0FED7C96E9EA6FED79E96BB
:1013500060C0E8FFC7B0FED7C96E9EA6FED79E96B6
:1013600061C0E8FFC7B0FED7C96E9EA6FED79E96A5
:10137000C584C5B4FED79E961200C580C6AE9E86B3
:101380009EA6FED79E96D00EC7B0FED7C96E9EA66B
:10139000FED79E9660C0E8FFC7B0FED7C96E9EA676
:1013A000FED79E96C5829EA6FED79E96D10EC7B04A
:1013B000FED7C96E9EA6FED79E96C5869EA6FED770
:1013C0009E96C9CFE8FF626EC58AC588C5B8E6EFAC
:1013D00009F0C584C5B4FED79E961200656E6538C7
:1013E0000F0B300F636E65C0E8FF0F0B300F646E9C
:1013F0001200C580C6AE9E869EA6FED79E96D00ED3
:10140000C7B0FED7C96E9EA6FED79E960E0EC7B079
:10141000FED7C96E9EA6FED79E96040EC7B0FED715
:10142000C96E9EA6FED79E96C584C5B4FED79E966D
:101430001200C580C6AE9E869EA6FED79E96520E10
:10144000C7B0FED7C96E9EA6FED79E9660C0E8FFC5
:101450008009C7B0FED7C96E9EA6FED79E96C582EC
:101460009EA6FED79E96530EC7B0FED7C96E9EA607
:10147000FED79E96C5869EA6FED79E96C9CFE8FF4C
:10148000616EC58AC588C5B843EF0AF0C584C5B486
:10149000FED79E961200C580C6AE9E869EA6FED73B
:1014A0009E96520EC7B0FED7C96E9EA6FED79E96D8
:1014B00060C0E8FF8009C7B0FED7C96E9EA6FED700
:1014C0009E9661C0E8FFFF0BC7B0FED7C96E9EA60F
:1014D000FED79E96C584C5B4FED79E961200C580E1
:1014E000C6AE9E869EA6FED79E96100EC7B0FED7AD
:1014F000C96E9EA6FED79E96C584C5B4FED79E969D
:101500001200C580C6AE9E869EA6FED79E96C58258
:101510009EA6FED79E96110EC7B0FED7C96E9EA698
:10152000FED79E96C5869EA6FED79E96C9CFE8FF9B
:10153000C58AC588C5B89AEF0AF0C584C5B4FED778
:101540009E961200C5BC1200C58AC598C5B8A6EF04
:101550000AF01200C76A280EC66EC56A240EC86E4D
:10156000948694881200C7B4B3EF0AF01F0EC51416
:101570000009F9E11200B3EC0AF0C5801200B3ECE7
:101580000AF0C5821200B3EC0AF0C5841200B3EC75
:101590000AF0C96EC7B4CAEF0AF01200C586B3ECF0
:1015A0000AF0C5B6FED7C9501200C59AC588C5B89D
:0415B000FED7120050
:020000040030CA
:0100010002FC
:010002001FDE
:010003001EDE
:010005008179
:010006008178
:010008000FE8
:01000900C036
:01000A000FE6
:01000B00E014
:01000C000FE4
:01000D0040B2
:00000001FF
