:020000040000FA
:040000007EEF00F09F
:020004000000FA
:040008000EEF00F007
:080018006BEF00F0D8CF13F0EC
:10002000146E1838176E0F0E171617C0E8FF300F32
:1000300008EC08F018C017F00F0E171617C0E8FFED
:10004000300F08EC08F01938176E0F0E171617C08E
:10005000E8FF300F08EC08F0730E08EC08F038ECFD
:1000600008F0C60ED76E3E0ED66EF2A466EF00F014
:1000700019C017F00F0E1716090E176249EF00F09E
:10008000100E1926F00E1916A00E1960196A4CEF01
:1000900000F0192A4CEF00F00000000E196266EF24
:1000A00000F018C017F00F0E1716090E176262EF56
:1000B00000F0100E1826F00E1816A00E1860186A20
:1000C00065EF00F0182A65EF00F00000F294143894
:1000D00013C0D8FF1000D8CF13F0146EF0A079EF42
:1000E00000F081380F0B126E79EF00F0FF6AFE6AA4
:1000F000FD6AF090143813C0D8FF1000FF0E926E06
:10010000FF0E936E000E946E000E956E070E966EA7
:100110000F0EC16E896A8A6A8B6A8C6A8D6A000EBC
:10012000C26ECEEC07F0280EFAEC07F00C0EFAECDB
:1001300007F0010EFAEC07F0A2EC04F036EC06F042
:10014000000E806F010E816F7EEC09F052EC08F01A
:10015000000E806F020E816F7EEC09F052EC08F009
:10016000010E806FFF0E816F7EEC09F052EC08F0FB
:100170000F0E806F030E816F7EEC09F052EC08F0D9
:10018000D06AF26AF16AF06AD08EF28EF28CF18A4D
:10019000F28AF284F184F086F09CD59ED59CD59AA3
:1001A000D598D596D594D582D580216A226A856B5B
:1001B000866B406A416A426A436A446A456A466A93
:1001C000476A486A496A4A6A4B6A4C6AF20E936EF9
:1001D00024EC08F0000EF86E0E0EF76EBE0EF66EF2
:1001E0000800F55008EC08F00B00F550FBE138EC86
:1001F00008F0000EF86E0E0EF76EC40EF66E0800D4
:10020000F55008EC08F00B00F550FBE1280E1B6ED2
:1002100036EC06F01B2E08EF01F024EC08F0000E7F
:10022000F86E0E0EF76ECE0EF66E0800F55008EC66
:1002300008F00B00F550FBE19CEC06F0050E106297
:1002400028EF01F0896A8A6A8B6A8C6A06EF02F0ED
:100250000000090E106233EF01F0896A8A6A8B6A26
:100260008C6A61EF01F00000030E10623EEF01F0B6
:10027000896A8A6A8B6A8C6A19EF02F00000070E9D
:10028000106249EF01F0896A8A6A8B6A8C6A0BEF07
:1002900003F000000B0E106254EF01F0896A8A6AC5
:1002A0008B6A8C6A6AEF03F000000F0E10625FEF3A
:1002B00001F0896A8A6A8B6A8C6A51EF04F0000047
:1002C000BBD7030E836E52EC08F0060E836E52EC21
:1002D00008F00C0E836E52EC08F0090E836E52EC9F
:1002E00008F0EFD748C0E8FF465CD8A47BEF01F0E8
:1002F00047C0E8FF455CD8A012004AC0E8FF465C52
:10030000D8A486EF01F049C0E8FF455CD8A01200F0
:100310004CC0E8FF465CD8A491EF01F04BC0E8FF69
:10032000455CD8A01200630E08EC08F06FD046C000
:10033000E8FF485CD8A4A0EF01F045C0E8FF475CA7
:10034000D8A012004AC0E8FF485CD8A4ABEF01F087
:1003500049C0E8FF475CD8A012004CC0E8FF485CE9
:10036000D8A4B6EF01F04BC0E8FF475CD8A012005C
:10037000720E08EC08F04AD046C0E8FF4A5CD8A4E8
:10038000C5EF01F045C0E8FF495CD8A0120048C0A5
:10039000E8FF4A5CD8A4D0EF01F047C0E8FF495C11
:1003A000D8A012004CC0E8FF4A5CD8A4DBEF01F0F3
:1003B0004BC0E8FF495CD8A01200670E08EC08F0BB
:1003C00025D046C0E8FF4C5CD8A4EAEF01F045C058
:1003D000E8FF4B5CD8A0120048C0E8FF4C5CD8A4F2
:1003E000F5EF01F047C0E8FF4B5CD8A012004AC00F
:1003F000E8FF4C5CD8A400EF02F049C0E8FF4B5C7A
:10040000D8A01200620E08EC08F01200280E1B6E35
:1004100036EC06F01B2E08EF02F024EC08F0D2ECCC
:1004200009F0E8CF40F0010E4062310E08EC08F010
:10043000EDD76FEC06F0A9EC04F01F6824EC08F08F
:10044000000EF86E0F0EF76E180EF66E0800F550DF
:1004500008EC08F00B00F550FBE138EC08F0C50E95
:10046000D76E440ED66ED58E186A196A416A426AF2
:10047000436A446A456A466A476A486A496A4A6AF8
:100480004B6A4C6A92EC06F00C0E10624EEF02F0D2
:10049000896A8A6A8B6A8C6A50EF02F00000F2D790
:1004A000D59EDCEC04F01F6A41C0E8FF300F21C08C
:1004B000AAFF22C0A9FFE8CFA8FFA6B2FED7A69E3A
:1004C000A69CA684F29EA198550EA76EAA0EA76EB2
:1004D000A682A6B2FED7F28EA694222A42C0E8FFD8
:1004E000300F21C0AAFF22C0A9FFE8CFA8FFA6B203
:1004F000FED7A69EA69CA684F29EA198550EA76E36
:10050000AA0EA76EA682A6B2FED7F28EA694222AC3
:1005100043C0E8FF300F21C0AAFF22C0A9FFE8CFE7
:10052000A8FFA6B2FED7A69EA69CA684F29EA1987E
:10053000550EA76EAA0EA76EA682A6B2FED7F28EA1
:10054000A694222A44C0E8FF300F21C0AAFF22C08F
:10055000A9FFE8CFA8FFA6B2FED7A69EA69CA684B8
:10056000F29EA198550EA76EAA0EA76EA682A6B2FD
:10057000FED7F28EA694222ABEEF02F024EC08F0F9
:10058000000EF86E0F0EF76E6E0EF66E0800F55048
:1005900008EC08F00B00F550FBE1000E216EA80EF0
:1005A000226E000E246EDC0E256E166A156A152A60
:1005B00021C0AAFF22C0A9FFA69EA69CA680A8CF04
:1005C00023F0150E222621C0AAFF22C0A9FF23C0B6
:1005D000A8FFA6B2FED7A69EA69CA684F29EA198CE
:1005E000550EA76EAA0EA76EA682A6B2FED7F28EF1
:1005F000A694140E225E150E1562D7EF02F02A0E95
:10060000225EDC0E256E156A162A090E1662D7EFD9
:1006100002F00BEF03F024EC08F0000EF86E0E0E63
:10062000F76ED60EF66E0800F55008EC08F00B00D9
:10063000F550FBE10A0E226EAAEC06F038EC08F049
:10064000226AF3EC06F092EC06F0070E10622FEF30
:1006500003F0896A8A6A8B6A8C6A3CEF03F00000B7
:100660000D0E10623AEF03F0896A8A6A8B6A8C6A0F
:100670000DEF01F00000E7D724EC08F0000EF86E53
:100680000E0EF76EEA0EF66E0800F55008EC08F054
:100690000B00F550FBE138EC08F0000EF86E0E0E82
:1006A000F76EF20EF66E0800F55008EC08F00B003D
:1006B000F550FBE1216A226A92EC06F00D0E106201
:1006C00068EF03F0896A8A6A8B6A8C6A0BEF03F021
:1006D0000000B9D724EC08F0000EF86E0E0EF76E8D
:1006E000FC0EF66E0800F55008EC08F00B00F55013
:1006F000FBE138EC08F0000EF86E0F0EF76E0C0EF2
:10070000F66E0800F55008EC08F00B00F550FBE120
:1007100092EC06F00D0E106294EF03F0896A8A6A7B
:100720008B6A8C6A0DEF01F00000000E10629FEFE3
:1007300003F0896A8A6A8B6A8C6AF9EF03F0000019
:10074000010E1062AAEF03F0896A8A6A8B6A8C6ACA
:10075000F9EF03F00000020E1062B5EF03F0896AB2
:100760008A6A8B6A8C6AF9EF03F00000040E10624B
:10077000C0EF03F0896A8A6A8B6A8C6AF9EF03F02A
:100780000000050E1062CBEF03F0896A8A6A8B6A5B
:100790008C6AF9EF03F00000060E1062D6EF03F04A
:1007A000896A8A6A8B6A8C6AF9EF03F00000080E86
:1007B0001062E1EF03F0896A8A6A8B6A8C6AF9EF4A
:1007C00003F00000090E1062ECEF03F0896A8A6AF8
:1007D0008B6A8C6AF9EF03F000000A0E1062F7EFE3
:1007E00003F0896A8A6A8B6A8C6AF9EF03F0000069
:1007F0008FD724EC08F0000EF86E0E0EF76EFC0E8C
:10080000F66E0800F55008EC08F00B00F550FBE11F
:1008100010C0E8FFE82A176EE842E89EE842E89E2A
:10082000175E17C0E8FF17C011F0150D11C0E8FFE3
:10083000300F08EC08F03A0E08EC08F0200E08EC37
:1008400008F0F3CF22F0000E222621C0AAFF22C01A
:10085000A9FFA69EA69CA680A8CF18F0222A21C098
:10086000AAFF22C0A9FFA69EA69CA680A8CF19F029
:10087000222AAAEC06F0F3CF22F038EC08F0F3CFEE
:1008800022F0F3EC06F092EC06F00D0E10624FEF42
:1008900004F0896A8A6A8B6A8C6A6AEF03F0000046
:1008A000F2D724EC08F0000EF86E0F0EF76E2C0E47
:1008B000F66E0800F55008EC08F00B00F550FBE16F
:1008C00038EC08F0000EF86E0F0EF76E3A0EF66E6A
:1008D0000800F55008EC08F00B00F550FBE1F9CFEB
:1008E0003AF0FACF3BF0FBCF3CF092EC06F00D0E65
:1008F000106281EF04F0896A8A6A8B6A8C6A0DEF54
:1009000001F000000E0E10628CEF04F0896A8A6A12
:100910008B6A8C6A8EEF04F00000E7D7396824EC0C
:1009200008F0000EF86E0F0EF76E440EF66E08001B
:10093000F55008EC08F00B00F550FBE1E2EC05F097
:10094000396A6BD482988296948894865DEC08F01C
:100950001200020E806FABEC08F082C0E8FFF6ECEC
:1009600008F040EC06F0010E806FABEC08F082C09E
:10097000E8FFF6EC08F040EC06F0060E806FABECFA
:1009800008F082C0E8FFF6EC08F040EC06F0050E37
:10099000806FABEC08F082C0E8FFF6EC08F040ECAA
:1009A00006F0040E806FABEC08F082C0E8FFF6ECB6
:1009B00008F040EC06F012001838176E0F0E1716EC
:1009C00017C0E8FF300F21C0AAFF22C0A9FFE8CF5F
:1009D000A8FFA6B2FED7A69EA69CA684F29EA198CA
:1009E000550EA76EAA0EA76EA682A6B2FED7F28EED
:1009F000A694222A18C017F00F0E171617C0E8FF8A
:100A0000300F21C0AAFF22C0A9FFE8CFA8FFA6B2DD
:100A1000FED7A69EA69CA684F29EA198550EA76E10
:100A2000AA0EA76EA682A6B2FED7F28EA694222A9E
:100A30001938176E0F0E171617C0E8FF300F21C0B8
:100A4000AAFF22C0A9FFE8CFA8FFA6B2FED7A69EA4
:100A5000A69CA684F29EA198550EA76EAA0EA76E1C
:100A6000A682A6B2FED7F28EA694222A1200020E09
:100A7000806FABEC08F082C0E8FFF6EC08F085C0B0
:100A8000E8FF08EC08F086C0E8FF08EC08F0680E04
:100A900008EC08F0010E806FABEC08F082C0E8FFB4
:100AA000F6EC08F085C0E8FF08EC08F086C0E8FF27
:100AB00008EC08F0000E806FABEC08F082C0E8FF95
:100AC000F6EC08F085C0E8FF08EC08F086C0E8FF07
:100AD00008EC08F0200E08EC08F0060E806FABEC76
:100AE00008F082C0E8FFF6EC08F085C0E8FF08ECEB
:100AF00008F086C0E8FF08EC08F02F0E08EC08F0BC
:100B0000050E806FABEC08F082C0E8FFF6EC08F051
:100B100085C0E8FF08EC08F086C0E8FF08EC08F0A4
:100B20002F0E08EC08F0040E806FABEC08F082C0CA
:100B3000E8FFF6EC08F085C0E8FF08EC08F086C096
:100B4000E8FF08EC08F01200816B060E806F6EEC77
:100B500008F0802FFCD76EEC08F0000E806F800E3E
:100B6000816F6EEC08F0060E806F170E816F6EECD1
:100B700008F0050E806F020E816F6EEC08F0040E17
:100B8000806F190E816F6EEC08F0020E806F110EEF
:100B9000816F6EEC08F0010E806F380E816F6EEC85
:100BA00008F0000E806F000E816F6EEC08F01200EE
:100BB000948E949C0F0EAF6EAC6AAB6AAB8EAB8812
:100BC000AC8A1200020E1CEC06F00D0E1CEC06F0B6
:100BD000156A166A150E1502F3CF22F0166A21C0A7
:100BE000AAFF22C0A9FFA69EA69CA680A8CFE8FFC8
:100BF0001CEC06F0222A162A120E1662F0D721ECFF
:100C000006F0152A080E1562E5D738EC08F0000E3C
:100C1000F86E0F0EF76E540EF66E0800F55008ECE5
:100C200008F00B00F550FBE1280E1B6E36EC06F0C9
:100C30001B2E16EF06F01200AD6EACA21DEF06F0F3
:100C400012000A0E1CEC06F00D0E1CEC06F0120051
:100C5000780E1C6E1C2E2AEF06F000001200A40E67
:100C60001D6E1D2E31EF06F000001200F90E1E6EF3
:100C70002FEC06F01E2E38EF06F02FEC06F01200D7
:100C800021C0AAFF22C0A9FF85C0A8FFA6B2FED737
:100C9000A69EA69CA684F29EA198550EA76EAA0EAB
:100CA000A76EA682A6B2FED7F28EA694222A21C0F3
:100CB000AAFF22C0A9FF86C0A8FFA6B2FED7A69EA3
:100CC000A69CA684F29EA198550EA76EAA0EA76EAA
:100CD000A682A6B2FED7F28EA694222A1200216A1C
:100CE000226A2068156A21C0AAFF22C0A9FF20C07D
:100CF000A8FFA6B2FED7A69EA69CA684F29EA198A7
:100D0000550EA76EAA0EA76EA682A6B2FED7F28EC9
:100D1000A694152A222A150E156273EF06F0216A91
:100D2000226A120081A292EF06F081380F0B106E3A
:100D300081B298EF06F0120038EC08F037EC05F0BD
:100D400081A29CEF06F081380F0B106E81B2A6EFE6
:100D500006F0120021C0AAFF22C0A9FFA69EA69CF1
:100D6000A680A8CF23F0FF0E2362C9EF06F0000E85
:100D7000F86E0F0EF76E880EF66E0800F55008EC50
:100D800008F00B00F550FBE1FF0E2360F2EF06F0D8
:100D9000120021C0AAFF22C0A9FFA69EA69CA68081
:100DA000A8CFE8FF08EC08F0222A21C0AAFF22C041
:100DB000A9FFA69EA69CA680A8CFE8FF08EC08F095
:100DC000222A21C0AAFF22C0A9FFA69EA69CA68017
:100DD000A8CFE8FF08EC08F0222A730E08EC08F010
:100DE00038EC08F0120021C0AAFF22C0A9FFA69E7D
:100DF000A69CA680A8CF23F0FF0E236211EF07F078
:100E0000000EF86E0F0EF76E880EF66E0800F550A5
:100E100008EC08F00B00F550FBE1FF0E236041EFFA
:100E200007F021C0AAFF22C0A9FFA69EA69CA6800B
:100E3000A8CF23F023C0E8FF08EC08F0222A21C045
:100E4000AAFF22C0A9FFA69EA69CA680A8CF23F039
:100E500023C0E8FF08EC08F0222A680E08EC08F02E
:100E600042EC07F0200E08EC08F042EC07F02F0EE1
:100E700008EC08F042EC07F02F0E08EC08F042EC0A
:100E800007F0120021C0AAFF22C0A9FFA69EA69CBF
:100E9000A680A8CF23F023C0E8FF08EC08F0222AA0
:100EA00021C0AAFF22C0A9FFA69EA69CA680A8CF0B
:0E0EB00023F023C0E8FF08EC08F0222A12000D
:020EBE00626F61
:100EC000744C00006D7220686C20686700005374D9
:100ED000616E6462790054696D653A0031323A306E
:100EE0003020322F332F3134000053617665643A5D
:100EF00000004261636B203C303E00005065726D23
:100F0000616E656E74204C6F677300003C313E204B
:100F10002E2E2E203C393E00536F7274696E672E60
:100F20002E2E0000454E44203C2A3E0050432049CE
:100F30006E746572666163650000426567696E2064
:100F40003C233E005472616E7366657272696E670F
:100F50002E2E2E00436F6D706C65746521005374E6
:100F60006F707065640054696D653A2000005361CC
:100F700076696E672E2E2E00536166657479206344
:100F80006865636B2E2E2E004E2F410054696D65EF
:100F900020616E6420446174653A000041EC08F001
:100FA00041EC08F041EC08F08394300E3CEC08F082
:100FB0002BEC08F02BEC08F041EC08F02BEC08F0DF
:100FC000200E3CEC08F02BEC08F041EC08F0280E69
:100FD00019EC08F041EC08F00C0E19EC08F041ECAB
:100FE00008F0060E19EC08F041EC08F024EC08F0CB
:100FF000838412008C94736EF00B8C6E8C86733825
:10100000F00B8C968C6E8C868C9652EC08F012004D
:101010008C94746E7450F00B040F836E8C8674384D
:10102000F00B8C96040F836E8C868C964CEC08F03B
:101030001200706E3CEC08F02BEC08F070383CECC1
:1010400008F02BEC08F012008394010E19EC08F064
:1010500041EC08F01200838600008396230E716E27
:10106000712E30EF08F01200800EFAEC07F012003B
:10107000C00EFAEC07F01200F00B83120F09831672
:101080001200500E726E230E716E712E45EF08F035
:10109000722E43EF08F01200230E756E752E4EEF80
:1010A00008F01200C20E756E0A0E766E752E5AEF9B
:1010B00008F0762E56EF08F01200000EC76E280ECC
:1010C000C66E000EC56E240EC86EC68AA1969E9688
:1010D000C790C584C5B4FED79E961200C580C6AE23
:1010E0009E869EA6FED79E96D00EC7B0FED7C96E2E
:1010F0009EA6FED79E96C5BC96EF08F080C0E8FF7E
:10110000C7B0FED7C96E9EA6FED79E96C5BC9BEF04
:1011100008F081C0E8FFC7B0FED7C96E9EA6FED713
:101120009E96C5BCA1EF08F0A6EF08F000000D0EDA
:10113000896EB8EF09F000000F0E896E8D80B8EF50
:1011400009F00000090E896EB8EF09F0C584C5B436
:10115000FED79E961200C580C6AE9E869EA6FED77E
:101160009E96D00EC7B0FED7C96E9EA6FED79E969D
:10117000C5BCE2EF08F080C0E8FFC7B0FED7C96E7B
:101180009EA6FED79E96C5BCE7EF08F0C5829EA638
:10119000FED79E96D10EC7B0FED7C96E9EA6FED7CB
:1011A0009E96C5BCECEF08F0C5869EA6FED79E961F
:1011B000C9CFE8FF826FC58AC588C5B8DDEF08F0E2
:1011C000F1EF08F00000030E896E48EF09F000000F
:1011D000050E896E48EF09F00000070E896E48EF92
:1011E00009F0C584C5B4FED79E961200876F873973
:1011F0000F0B300F856F87C0E8FF0F0B300F866F26
:101200001200C580C6AE9E869EA6FED79E96520E42
:10121000C7B0FED7C96E9EA6FED79E96C5BC39EF55
:1012200009F080C0E8FF8009C7B0FED7C96E9EA64E
:10123000FED79E96C5BC3EEF09F0C5829EA6FED79E
:101240009E96530EC7B0FED7C96E9EA6FED79E9639
:10125000C5BC43EF09F0C5869EA6FED79E96C9CFB2
:10126000E8FF816FC58AC588C5B834EF09F048EF3B
:1012700009F00000030E896E48EF09F00000050E2A
:10128000896E48EF09F00000070E896E48EF09F0FB
:10129000C584C5B4FED79E961200C76A280EC66ED6
:1012A000C56A240EC86E948694881200C7B456EF9F
:1012B00009F01F0EC5140009F9E1120056EC09F0FF
:1012C000C580120056EC09F0C582120056EC09F0F8
:1012D000C584120056EC09F0C96EC7B46DEF09F071
:1012E0001200C58656EC09F0C5B6FED7C9CF00F08E
:1012F0001200C59AC588C5B8FED71200C580C6AE13
:101300009E869EA6FED79E96520EC7B0FED7C96E89
:101310009EA6FED79E96C5BCA8EF09F080C0E8FF48
:101320008009C7B0FED7C96E9EA6FED79E96C5BCE3
:10133000ADEF09F081C0E8FFFF0BC7B0FED7C96E63
:101340009EA6FED79E96C5BCB3EF09F0B8EF09F094
:1013500000000D0E896EB8EF09F000000F0E896EC7
:101360008D80B8EF09F00000090E896EB8EF09F022
:10137000C584C5B4FED79E961200C580C6AE9E86B3
:101380009EA6FED79E96100EC7B0FED7C96E9EA62B
:10139000FED79E96C5BCA8EF09F0C584C5B4FED79C
:1013A0009E961200C580C6AE9E869EA6FED79E96CD
:1013B000110EC7B0FED7C96E9EA6FED79E96C5BCBD
:1013C000A8EF09F0C5869EA6FED79E96C9CFE8FF76
:1013D000C58AC588C5B8EAEF09F0C584C5B4FED78B
:1013E0009E961200C5BC1200C58AC598C5B8F6EF16
:1013F00009F01200C76A280EC66EC56A240EC86EB0
:10140000948694881200C7B403EF0AF01F0EC51427
:101410000009F9E1120003EC0AF0C580120003ECA8
:101420000AF0C582120003EC0AF0C584120003EC36
:101430000AF0C96EC7B41AEF0AF01200C58603ECB1
:101440000AF0C5B6FED7C9501200C59AC588C5B8FE
:04145000FED71200B1
:020000040030CA
:0100010002FC
:010002001FDE
:010003001EDE
:010005008179
:010006008178
:010008000FE8
:01000900C036
:01000A000FE6
:01000B00E014
:01000C000FE4
:01000D0040B2
:00000001FF
