:020000040000FA
:0400000065EF00F0B8
:020004000000FA
:040008000EEF00F007
:080018004BEF00F0D8CF13F00C
:10002000146E0B0ED76EDC0ED66EF2A446EF00F007
:1000300019C017F00F0E1716090E176229EF00F0FE
:10004000100E19260F0E1916A00E1960196A2CEF42
:1000500000F0192A2CEF00F00000000E196246EFA4
:1000600000F018C017F00F0E1716090E176242EFB6
:1000700000F0100E18260F0E1816A00E1860186A41
:1000800045EF00F0182A45EF00F00000F294143814
:1000900013C0D8FF1000D8CF13F0146EF0A059EFA2
:1000A00000F081380F0B126E59EF00F0FF6AFE6A04
:1000B000FD6AF090143813C0D8FF146ED8CF13F037
:1000C00013C0D8FF143A14381000FF0E926EFF0EC2
:1000D000936E000E946E000E956E070E966E0F0EC8
:1000E000C16E896A8A6A8B6A8C6A8D6A000EC26EDA
:1000F000FF0EC16E6FEC06F0280E9BEC06F00C0EA6
:100100009BEC06F0010E9BEC06F02AEC04F0E9EC07
:1001100004F0A10E806F100E816FF2EC07F0AD0EAF
:10012000806F000E816FF2EC07F0AF0E806F000E53
:10013000816FF2EC07F0A00E806F030E816FF2EC7E
:1001400007F0D3EC04F0D06AF26AF16AF06AD08E5C
:10015000F28EF28CF18AF28AF284F184F086F09CBD
:10016000D59CD59AD596D584D592D590216A226A08
:10017000856B866B406A426A416A436AF20E936EEF
:10018000000EF86E0C0EF76E0A0EF66E0800F550B3
:10019000A9EC06F00B00F550FBE1D9EC06F0000EDF
:1001A000F86E0C0EF76E100EF66E0800F550A9EC06
:1001B00006F00B00F550FBE1140E1B6EE9EC04F0A9
:1001C0001B2EDEEF00F0C5EC06F0000EF86E0C0EF4
:1001D000F76E1A0EF66E0800F550A9EC06F00B004B
:1001E000F550FBE14FEC05F0050E1062FEEF00F05C
:1001F000896A8A6A8B6A8C6A2CEF01F00000030E10
:10020000106209EF01F0896A8A6A8B6A8C6A69EF69
:1002100001F00000070E106214EF01F0896A8A6A8B
:100220008B6A8C6A52EF02F000000B0E10621FEF17
:1002300001F0896A8A6A8B6A8C6AF4EF02F0000026
:100240000F0E10622AEF01F0896A8A6A8B6A8C6A43
:10025000DBEF03F00000C6D7C5EC06F0406A19D00A
:10026000C5EC06F0630EA9EC06F0030E1B6EE9EC7C
:1002700004F01B2E37EF01F00CD0C5EC06F0720E27
:10028000A9EC06F0030E1B6EE9EC04F01B2E44EF04
:1002900001F0140E806F9BEC07F0406E160E806F1D
:1002A0009BEC07F0416E180E806F9BEC07F0426EDE
:1002B0001A0E806F9BEC07F0436E030E1B6EE9EC89
:1002C00004F01B2E5FEF01F0400E4264C9D7D5D772
:1002D000E0D731EC04F01F68C5EC06F0000EF86EB4
:1002E0000C0EF76E640EF66E0800F550A9EC06F0E1
:1002F0000B00F550FBE1D9EC06F0000EF86E0C0E89
:10030000F76E700EF66E0800F550A9EC06F00B00C3
:10031000F550FBE10B0ED76EDC0ED66ED58E22ECBF
:1003200005F0186A196A45EC05F00C0E10629FEF93
:1003300001F0896A8A6A8B6A8C6AA1EF01F0000079
:10034000F2D721C0AAFF22C0AAFF18C0A8FFA6B2F8
:10035000FED7A69EA69CA684A69EA198550EA76E23
:10036000AA0EA76EA682A6B2FED7A68EA694222AB1
:1003700021C0AAFF22C0AAFF19C0A8FFA6B2FED7BB
:10038000A69EA69CA684A69EA198550EA76EAA0E10
:10039000A76EA682A6B2FED7A68EA694222A31EC1C
:1003A00004F01F6AD4EF01F0C5EC06F0000EF86E01
:1003B0000C0EF76EB00EF66E0800F550A9EC06F0C4
:1003C0000B00F550FBE1000E216EA80E226E000E10
:1003D000246EDC0E256E166A156A152A21C0AAFF46
:1003E00022C0A9FFA69EA69CA680A8CF23F0150E2A
:1003F000222621C0AAFF22C0AAFF23C0A8FFA6B2BE
:10040000FED7A69EA69CA684A69EA198550EA76E72
:10041000AA0EA76EA682A6B2FED7A68EA694140E2A
:10042000225E150E1562EDEF01F02A0E225EDC0E43
:10043000256E156A162A090E1662EDEF01F0D59E9B
:10044000090E226E21C0AAFF22C0AAFF18C0A8FF71
:10045000A6B2FED7A69EA69CA684A69EA198550EDF
:10046000A76EAA0EA76EA682A6B2FED7A68EA694E7
:10047000222A21C0AAFF22C0AAFF19C0A8FFA6B243
:10048000FED7A69EA69CA684A69EA198550EA76EF2
:10049000AA0EA76EA682A6B2FED7A68EA694222A80
:1004A00052EF02F0C5EC06F0000EF86E0C0EF76E7F
:1004B000220EF66E0800F550A9EC06F00B00F55080
:1004C000FBE1090E226E21C0AAFF22C0A9FFA69E51
:1004D000A69CA680A8CF18F0222A21C0AAFF22C07D
:1004E000A9FFA69EA69CA680A8CF19F0222A5DECA3
:1004F00005F0D9EC06F0226A96EC05F045EC05F023
:10050000070E10628AEF02F0896A8A6A8B6A8C6A27
:1005100097EF02F000000D0E106295EF02F0896A6D
:100520008A6A8B6A8C6AE3EF00F00000E7D7C5ECBB
:1005300006F0000EF86E0C0EF76E360EF66E080022
:10054000F550A9EC06F00B00F550FBE1D9EC06F0F4
:10055000000EF86E0C0EF76E3E0EF66E0800F550AB
:10056000A9EC06F00B00F550FBE1216A226A336A20
:10057000276A21C0AAFF22C0A9FFA69EA69CA6802A
:10058000A8CF23F0FF0E2362D5EF02F0000EF86E25
:100590000C0EF76ECA0EF66E0800F550A9EC06F0C8
:1005A0000B00F550FBE1E6EF02F0030E336027602D
:1005B000E6EF02F021C0AAFF22C0A9FFA69EA69CDA
:1005C000A680A8CF23F023BEE6EF02F045EC05F0AD
:1005D0000D0E1062F2EF02F0896A8A6A8B6A8C6AE9
:1005E00052EF02F000008AD7C5EC06F0000EF86E5C
:1005F0000C0EF76E480EF66E0800F550A9EC06F0EA
:100600000B00F550FBE1D9EC06F0000EF86E0C0E75
:10061000F76E580EF66E0800F550A9EC06F00B00C8
:10062000F550FBE145EC05F00D0E10621EEF03F0F6
:10063000896A8A6A8B6A8C6AE3EF00F00000000E18
:10064000106229EF03F0896A8A6A8B6A8C6A83EFE9
:1006500003F00000010E106234EF03F0896A8A6A29
:100660008B6A8C6A83EF03F00000020E10623FEF8A
:1006700003F0896A8A6A8B6A8C6A83EF03F0000050
:10068000040E10624AEF03F0896A8A6A8B6A8C6AE8
:1006900083EF03F00000050E106255EF03F0896A46
:1006A0008A6A8B6A8C6A83EF03F00000060E106280
:1006B00060EF03F0896A8A6A8B6A8C6A83EF03F0C1
:1006C0000000080E10626BEF03F0896A8A6A8B6A79
:1006D0008C6A83EF03F00000090E106276EF03F0DE
:1006E000896A8A6A8B6A8C6A83EF03F000000A0EBB
:1006F000106281EF03F0896A8A6A8B6A8C6A83EFE1
:1007000003F000008FD7C5EC06F0000EF86E0C0E5B
:10071000F76E480EF66E0800F550A9EC06F00B00D7
:10072000F550FBE110C0E8FFE82A176EE842E89EAA
:10073000E842E89E175E17C0E8FF17C011F0150DDC
:1007400011C0E8FF300FA9EC06F03A0EA9EC06F054
:10075000200EA9EC06F0F3CF22F0000E222621C0D5
:10076000AAFF22C0A9FFA69EA69CA680A8CF18F02B
:10077000222A21C0AAFF22C0A9FFA69EA69CA6806D
:10078000A8CF19F0222A5DEC05F0F3CF22F0D9ECC6
:1007900006F0F3CF22F096EC05F045EC05F00D0ED7
:1007A0001062D9EF03F0896A8A6A8B6A8C6AF4EF67
:1007B00002F0000037D7C5EC06F0000EF86E0C0E04
:1007C000F76E780EF66E0800F550A9EC06F00B00F7
:1007D000F550FBE1D9EC06F0000EF86E0C0EF76E4A
:1007E000860EF66E0800F550A9EC06F00B00F550E9
:1007F000FBE1F9CF3AF0FACF3BF0FBCF3CF045EC10
:1008000005F00D0E10620BEF04F0896A8A6A8B6A9C
:100810008C6AE3EF00F000000E0E106216EF04F099
:10082000896A8A6A8B6A8C6A18EF04F00000E7D73D
:100830003968C5EC06F0000EF86E0C0EF76E900EDF
:10084000F66E0800F550A9EC06F00B00F550FBE140
:10085000396AD5D78298829694889486FEEC06F001
:100860001200020E806F48EC07F0825191EC07F005
:10087000F3EC04F0010E806F48EC07F0825191EC2C
:1008800007F0F3EC04F0060E806F48EC07F082519D
:1008900091EC07F0F3EC04F0050E806F48EC07F0E4
:1008A000825191EC07F0F3EC04F0040E806F48ECF9
:1008B00007F0825191EC07F0F3EC04F01200020E05
:1008C000806F48EC07F0825191EC07F08551A9EC5C
:1008D00006F08651A9EC06F0680EA9EC06F0010EB0
:1008E000806F48EC07F0825191EC07F08551A9EC3C
:1008F00006F08651A9EC06F0200EA9EC06F0060ED3
:10090000806F48EC07F0825191EC07F08551A9EC1B
:1009100006F08651A9EC06F02F0EA9EC06F0050EA4
:10092000806F48EC07F0825191EC07F08551A9ECFB
:1009300006F08651A9EC06F02F0EA9EC06F0040E85
:10094000806F48EC07F0825191EC07F08551A9ECDB
:1009500006F08651A9EC06F01200816B060E806F3E
:100960000DEC07F0802FFCD70DEC07F0000E806F28
:10097000800E816F060E806F170E816F050E806FDF
:10098000020E816F040E806F120E816F020E806F57
:10099000130E816F010E806F470E816F000E806F06
:1009A000000E816F12000F0EAF6EAC6AAB6AAB8E99
:1009B000AB88AC8A1200780E1C6E1C2EDDEF04F0A2
:1009C00000001200A40E1D6E1D2EE4EF04F00000C6
:1009D0001200F90E1E6EE2EC04F01E2EEBEF04F096
:1009E000E2EC04F0120021C0AAFF22C0AAFF85C0D9
:1009F000A8FFA6B2FED7A69EA69CA684A69EA198F6
:100A0000550EA76EAA0EA76EA682A6B2FED7A68E18
:100A1000A694222A21C0AAFF22C0AAFF86C0A8FF4E
:100A2000A6B2FED7A69EA69CA684A69EA198550E09
:100A3000A76EAA0EA76EA682A6B2FED7A68EA69411
:100A4000222A1200216A226A2068156A21C0AAFFA0
:100A500022C0AAFF20C0A8FFA6B2FED7A69EA69CD1
:100A6000A684A69EA198550EA76EAA0EA76EA68272
:100A7000A6B2FED7A68EA694152A222A150E1562B6
:100A800026EF05F0216A226A120081A245EF05F0E7
:100A900081380F0B106E81B24BEF05F01200D9ECCC
:100AA00006F05FEC04F081A24FEF05F081380F0BE8
:100AB000106E81B259EF05F0120021C0AAFF22C0CA
:100AC000A9FFA69EA69CA680A8CF23F0FF0E2362B6
:100AD0007CEF05F0000EF86E0C0EF76ECA0EF66E87
:100AE0000800F550A9EC06F00B00F550FBE1FF0EF5
:100AF000236095EF05F01200210E186E1838176E5E
:100B00000F0E171617C0E8FF300FA9EC06F018C03B
:100B100017F00F0E171617C0E8FF300FA9EC06F0FC
:100B2000730EA9EC06F0D9EC06F012000B0E22268B
:100B300021C0AAFF22C0A9FFA69EA69CA680A8CF7E
:100B400023F0FF0E2362B6EF05F0000EF86E0C0ED8
:100B5000F76ECA0EF66E0800F550A9EC06F00B0011
:100B6000F550FBE1FF0E2360E7EF05F021C0AAFF7F
:100B700022C0A9FFA69EA69CA680A8CF23F023C0D2
:100B8000E8FFF10BA9EC06F0222A21C0AAFF22C03F
:100B9000A9FFA69EA69CA680A8CF23F023C0E8FFAD
:100BA000A9EC06F0222A680EA9EC06F0E8EC05F0A4
:100BB000200EA9EC06F0E8EC05F02F0EA9EC06F0EB
:100BC000E8EC05F02F0EA9EC06F0E8EC05F01200B9
:100BD00021C0AAFF22C0A9FFA69EA69CA680A8CFDE
:100BE00023F023C0E8FFA9EC06F0222A21C0AAFFC7
:100BF00022C0A9FFA69EA69CA680A8CF23F023C052
:0A0C0000E8FFA9EC06F0222A12001A
:060C0A00626F744C000053
:100C10006D7220686C20686700005374616E6462B6
:100C2000790054696D653A0031323A303020322F04
:100C3000332F3134000053617665643A000042611D
:100C4000636B203C303E00005065726D616E656ED6
:100C500074204C6F677300003C313E202E2E2E20F6
:100C60003C393E00536F7274696E672E2E2E000061
:100C7000454E44203C2A3E00504320496E74657224
:100C8000666163650000426567696E203C233E0033
:100C90005472616E7366657272696E672E2E2E00D5
:100CA00053746F707065640054696D653A2000007C
:100CB000536176696E672E2E2E00536166657479D6
:100CC00020636865636B2E2E2E004E2F4100546901
:100CD0006D6520616E6420446174653A0000E2EC49
:100CE00006F0E2EC06F0E2EC06F08394300EDDEC68
:100CF00006F0CCEC06F0CCEC06F0E2EC06F0CCEC26
:100D000006F0200EDDEC06F0CCEC06F0E2EC06F08E
:100D1000280EBAEC06F0E2EC06F00C0EBAEC06F087
:100D2000E2EC06F0060EBAEC06F0E2EC06F0C5ECDA
:100D300006F0838412008C94736EF00B8C6E8C869C
:100D40007338F00B8C968C6E8C868C96F3EC06F0D8
:100D500012008C94746E7450F00B040F836E8C86AA
:100D60007438F00B8C96040F836E8C868C96EDECA9
:100D700006F01200706EDDEC06F0CCEC06F0703878
:100D8000DDEC06F0CCEC06F012008394010EBAEC18
:100D900006F0E2EC06F01200838600008396230E34
:100DA000716E712ED1EF06F01200800E9BEC06F0F2
:100DB0001200C00E9BEC06F01200F00B83120F091C
:100DC00083161200500E726E230E716E712EE6EFB6
:100DD00006F0722EE4EF06F01200230E756E752EEB
:100DE000EFEF06F01200C20E756E0A0E766E752ECB
:100DF000FBEF06F0762EF7EF06F01200000EC76E3E
:100E0000240EC86E280EC66EC68AA1969E96C790FE
:100E1000C584C5B4FED79E961200C580C6AE9E8618
:100E20009EA6FED79E96D00EC7B0FED7C96E9EA6D0
:100E3000FED79E96C5BC33EF07F08051C7B0FED7F2
:100E4000C96E9EA6FED79E96C5BC38EF07F08151AD
:100E5000C7B0FED7C96E9EA6FED79E96C5BC3EEF14
:100E600007F043EF07F000000D0E896E28EF08F041
:100E700000000F0E896E8D8028EF08F00000090E2B
:100E8000896E28EF08F0C584C5B4FED79E9612007F
:100E9000C580C6AE9E869EA6FED79E96D00EC7B0D3
:100EA000FED7C96E9EA6FED79E96C5BC7DEF07F005
:100EB0008051C7B0FED7C96E9EA6FED79E96C5BC10
:100EC00082EF07F0C5829EA6FED79E96D10EC7B0D0
:100ED000FED7C96E9EA6FED79E96C5BC87EF07F0CB
:100EE000C5869EA6FED79E96C950826FC58AC588C4
:100EF000C5B878EF07F08CEF07F00000030E896E9D
:100F0000EDEF07F00000050E896EEDEF07F0000031
:100F1000070E896EEDEF07F0C584C5B4FED79E9627
:100F20001200876F87390F0B300F856F87510F0BBA
:100F3000300F866F1200A9EC06F0C580C6AE9E8603
:100F40009EA6FED79E96520EC7B0FED7C96E9EA62D
:100F5000FED79E96C5BCDEEF07F0800E8009C7B0B5
:100F6000FED7C96E9EA6FED79E96C5BCE3EF07F0DE
:100F7000C5829EA6FED79E96530EC7B0FED7C96EF9
:100F80009EA6FED79E96C5BCE8EF07F0C5869EA636
:100F9000FED79E96C950846FC58AC588C5B8CEEF66
:100FA00007F0C5869EA6FED79E96C950836FC58A58
:100FB000C588C5B8D9EF07F0EDEF07F00000030EC4
:100FC000896EEDEF07F00000050E896EEDEF07F07A
:100FD0000000070E896EEDEF07F0C584C5B4FED79B
:100FE0009E961200C580C6AE9E869EA6FED79E9691
:100FF000520EC7B0FED7C96E9EA6FED79E96C5BC40
:1010000018EF08F0800EC7B0FED7C96E9EA6FED7B7
:101010009E96C5BC1DEF08F0810EC7B0FED7C96E05
:101020009EA6FED79E96C5BC23EF08F028EF08F0D9
:1010300000000D0E896E28EF08F000000F0E896E7B
:101040008D8028EF08F00000090E896E28EF08F067
:10105000C584C5B4FED79E961200C5BC1200C58AD1
:10106000C598C5B831EF08F01200C76A280EC66EE1
:10107000C56A240EC86E948694881200C7B43EEFE9
:1010800008F01F0EC5140009F9E112003EEC08F04B
:10109000C58012003EEC08F0C58212003EEC08F05C
:1010A000C58412003EEC08F0C96EC7B455EF08F0D5
:1010B0001200C5863EEC08F0C5B6FED7C950120036
:0A10C000C59AC588C5B8FED7120016
:020000040030CA
:0100010002FC
:010002001FDE
:010003001EDE
:010005008179
:010006008178
:010008000FE8
:01000900C036
:01000A000FE6
:01000B00E014
:01000C000FE4
:01000D0040B2
:00000001FF
