:020000040000FA
:0400000086EF00F097
:020004000000FA
:040008000EEF00F007
:080018006BEF00F0D8CF14F0EB
:10002000156E1938186E0F0E181618C0E8FF300F2D
:1000300027EC08F019C018F00F0E181618C0E8FFCA
:10004000300F27EC08F01A38186E0F0E181618C06B
:10005000E8FF300F27EC08F0730E27EC08F057ECA0
:1000600008F0C60ED76E3E0ED66EF2A466EF00F014
:100070001AC018F00F0E1816090E186249EF00F09A
:10008000100E1A26F00E1A16A00E1A601A6A4CEFFD
:1000900000F01A2A4CEF00F00000000E1A6266EF22
:1000A00000F019C018F00F0E1816090E186262EF52
:1000B00000F0100E1926F00E1916A00E1960196A1C
:1000C00065EF00F0192A65EF00F00000F294153892
:1000D00014C0D8FF1000D8CF14F0156EF0A081EF37
:1000E00000F081380F0B136EFF0E206281EF00F0DD
:1000F0000C0E136281EF00F0F5EF01F0FF6AFE6A6B
:10010000FD6AF090153814C0D8FF1000000E926EF2
:10011000FF0E936E000E946E000E956E070E966E97
:10012000000E896E000E8A6E000E8B6E000E8C6EB5
:10013000000E8D6E000EC26EFF0EC16EEDEC07F06C
:10014000280E19EC08F00C0E19EC08F0010E19EC51
:1001500008F07CEC08F06DEC04F06CEC04F0A3EC1F
:1001600005F0D06AF26AF16AF06AD08EF28EF28CF3
:10017000F18AF28AF284F184F086F09CD59ED59CB7
:10018000D59AD598D596D594D582D580226A236AFA
:10019000856B866B3F6A406A416A426A436A446A79
:1001A000456AF20E936E43EC08F0000EF86E0F0EE7
:1001B000F76E2C0EF66E0800F55027EC08F00B00D9
:1001C000F550FBE157EC08F0000EF86E0F0EF76EDD
:1001D000320EF66E0800F55027EC08F00B00F550D3
:1001E000FBE1280E1C6E01EC06F01C2EF3EF00F074
:1001F00043EC08F0000EF86E0F0EF76E3C0EF66E34
:100200000800F55027EC08F00B00F550FBE167EC17
:1002100006F0000E106213EF01F0896A8A6A8B6A99
:100220008C6A7EEF01F00000010E10621EEF01F0FB
:10023000896A8A6A8B6A8C6A6DEF01F00000020E8F
:10024000106229EF01F0896A8A6A8B6A8C6A57EF1B
:1002500001F00000030E106234EF01F0896A8A6A2F
:100260008B6A8C6A8CEF01F00000070E10623FEF82
:1002700001F0896A8A6A8B6A8C6AB0EF02F000002A
:100280000B0E10624AEF01F0896A8A6A8B6A8C6AE7
:1002900006EF03F000000F0E106255EF01F0896ABF
:1002A0008A6A8B6A8C6A1BEF04F00000B0D7630E79
:1002B00084B06E0E27EC08F0140E1C6E01EC06F0F4
:1002C0001C2E5EEF01F043EC08F0140E1C6E01ECE6
:1002D00006F01C2E67EF01F0EAD7030E806E71EC7A
:1002E00008F0060E806E71EC08F00C0E806E71EC5A
:1002F00008F0090E806E71EC08F0EFD7280E1C6E26
:1003000001EC06F01C2E80EF01F043EC08F006EC47
:100310000AF027EC08F0F2D73AEC06F074EC04F09F
:10032000206843EC08F0000EF86E0F0EF76E860E94
:10033000F66E0800F55027EC08F00B00F550FBE1D5
:1003400057EC08F0C50ED76E440ED66ED58E196ADE
:100350001A6A406A416A426A436A446A456A030EFD
:10036000806E060E806E0C0E806E090E806E452A21
:100370000F0E4562F4D700D00A0E1C6E01EC06F099
:100380001C2EBEEF01F0030E3F6E050E3F60AEEF78
:1003900001F0442A040E3F5C09E0030E3F5C09E0D3
:1003A000020E3F5C09E0010E3F5C09E0432AE2EFE8
:1003B00001F0422AE2EF01F0412AE2EF01F0402A87
:1003C000E2EF01F0090E4462AEEF01F00ED05DECF9
:1003D00006F00C0E1062F3EF01F0896A8A6A8B6AEC
:1003E0008C6AF5EF01F00000F2D7D59EA7EC04F07F
:1003F000206A40C0E8FF300F22C0AAFF23C0A9FF37
:10040000E8CFA8FFA6B2FED7A69EA69CA684F29E21
:10041000A198550EA76EAA0EA76EA682A6B2FED709
:10042000F28EA694232A41C0E8FF300F22C0AAFF13
:1004300023C0A9FFE8CFA8FFA6B2FED7A69EA69C20
:10044000A684F29EA198550EA76EAA0EA76EA6824C
:10045000A6B2FED7F28EA694232A42C0E8FF300F40
:1004600022C0AAFF23C0A9FFE8CFA8FFA6B2FED7EB
:10047000A69EA69CA684F29EA198550EA76EAA0ED3
:10048000A76EA682A6B2FED7F28EA694232A43C0F8
:10049000E8FF300F22C0AAFF23C0A9FFE8CFA8FFC2
:1004A000A6B2FED7A69EA69CA684F29EA198550E43
:1004B000A76EAA0EA76EA682A6B2FED7F28EA6944B
:1004C000232A63EF02F043EC08F0000EF86E0F0EE3
:1004D000F76ECC0EF66E0800F55027EC08F00B0016
:1004E000F550FBE1000E226EA80E236E000E256E65
:1004F000DC0E266E176A166A162A22C0AAFF23C0CF
:10050000A9FFA69EA69CA680A8CF24F0150E2326A0
:1005100022C0AAFF23C0A9FF24C0A8FFA6B2FED70D
:10052000A69EA69CA684F29EA198550EA76EAA0E22
:10053000A76EA682A6B2FED7F28EA694140E235EF4
:10054000150E16627CEF02F02A0E235EDC0E266E7C
:10055000166A172A090E17627CEF02F0B0EF02F05C
:1005600043EC08F0000EF86E0F0EF76E440EF66EB8
:100570000800F55027EC08F00B00F550FBE10A0EDF
:10058000236E75EC06F057EC08F00D0E236EBEECF2
:1005900006F05DEC06F0070E1062D5EF02F0896AF6
:1005A0008A6A8B6A8C6AE2EF02F000000D0E10621C
:1005B000E0EF02F0896A8A6A8B6A8C6AF8EF00F0D1
:1005C0000000E7D743EC08F0236A2AEC07F057EC69
:1005D00008F0000EF86E0F0EF76E600EF66E080053
:1005E000F55027EC08F00B00F550FBE1226A236A76
:1005F0005DEC06F00D0E106204EF03F0896A8A6A62
:100600008B6A8C6AB0EF02F00000C3D743EC08F0AD
:10061000000EF86E0F0EF76E6A0EF66E0800F550BB
:1006200027EC08F00B00F550FBE157EC08F0000E4A
:10063000F86E0F0EF76E7A0EF66E0800F55027EC86
:1006400008F00B00F550FBE15DEC06F00D0E1062BA
:1006500030EF03F0896A8A6A8B6A8C6AF8EF00F0DF
:100660000000000E10623BEF03F0896A8A6A8B6A11
:100670008C6A95EF03F00000010E106246EF03F064
:10068000896A8A6A8B6A8C6A95EF03F00000020E11
:10069000106251EF03F0896A8A6A8B6A8C6A95EF5F
:1006A00003F00000040E10625CEF03F0896A8A6AAE
:1006B0008B6A8C6A95EF03F00000050E106267EFFD
:1006C00003F0896A8A6A8B6A8C6A95EF03F00000EE
:1006D000060E106272EF03F0896A8A6A8B6A8C6A6E
:1006E00095EF03F00000080E10627DEF03F0896AB9
:1006F0008A6A8B6A8C6A95EF03F00000090E10621B
:1007000088EF03F0896A8A6A8B6A8C6A95EF03F036
:1007100000000A0E106293EF03F0896A8A6A8B6AFE
:100720008C6A95EF03F000008FD743EC08F0000EC1
:10073000F86E0F0EF76E6A0EF66E0800F55027EC95
:1007400008F00B00F550FBE110C0E8FFE82A186E36
:10075000E842E89EE842E89E185E18C0E8FF18C02C
:1007600012F0150D12C0E8FF300F27EC08F03A0E1A
:1007700027EC08F0200E27EC08F0F3CF23F0000E52
:10078000232622C0AAFF23C0A9FFA69EA69CA6805E
:10079000A8CF19F0232A22C0AAFF23C0A9FFA69E32
:1007A000A69CA680A8CF1AF0232A75EC06F0F3CFFA
:1007B00023F057EC08F0F3CF23F02AEC07F05DECC0
:1007C00006F0030E1062EBEF03F0896A8A6A8B6A07
:1007D0008C6AF8EF03F000000D0E1062F6EF03F0E4
:1007E000896A8A6A8B6A8C6A06EF03F00000E7D791
:1007F00043EC08F0000EF86E0F0EF76E440EF66E26
:100800000800F55027EC08F00B00F550FBE175EC03
:1008100006F057EC08F0BEEC06F05DEC06F00D0EAD
:10082000106219EF04F0896A8A6A8B6A8C6A06EF93
:1008300003F00000F2D743EC08F0000EF86E0F0E44
:10084000F76E9A0EF66E0800F55027EC08F00B00D4
:10085000F550FBE157EC08F0000EF86E0F0EF76E46
:10086000A80EF66E0800F55027EC08F00B00F550C6
:10087000FBE1F9CF39F0FACF3AF0FBCF3BF05DEC7A
:1008800006F00D0E10624BEF04F0896A8A6A8B6ADB
:100890008C6AF8EF00F000000E0E106256EF04F0C4
:1008A000896A8A6A8B6A8C6A58EF04F00000E7D77D
:1008B000386843EC08F0000EF86E0F0EF76EB20EBB
:1008C000F66E0800F55027EC08F00B00F550FBE140
:1008D000ADEC05F0386A8CD4120082988296948828
:1008E000948630EC09F01200020E806FD0EC08F014
:1008F00082C0E8FF25EC09F00BEC06F0010E806FDA
:10090000D0EC08F082C0E8FF25EC09F00BEC06F013
:10091000060E806FD0EC08F082C0E8FF25EC09F0ED
:100920000BEC06F0050E806FD0EC08F082C0E8FFFB
:1009300025EC09F00BEC06F0040E806FD0EC08F00B
:1009400082C0E8FF25EC09F00BEC06F01200193824
:10095000186E0F0E181618C0E8FF300F22C0AAFF3D
:1009600023C0A9FFE8CFA8FFA6B2FED7A69EA69CEB
:10097000A684F29EA198550EA76EAA0EA76EA68217
:10098000A6B2FED7F28EA694232A19C018F00F0E35
:10099000181618C0E8FF300F22C0AAFF23C0A9FF15
:1009A000E8CFA8FFA6B2FED7A69EA69CA684F29E7C
:1009B000A198550EA76EAA0EA76EA682A6B2FED764
:1009C000F28EA694232A1A38186E0F0E181618C025
:1009D000E8FF300F22C0AAFF23C0A9FFE8CFA8FF7D
:1009E000A6B2FED7A69EA69CA684F29EA198550EFE
:1009F000A76EAA0EA76EA682A6B2FED7F28EA69406
:100A0000232A1200020E806FD0EC08F082C0E8FFAB
:100A100025EC09F085C0E8FF27EC08F086C0E8FF68
:100A200027EC08F0680E27EC08F0010E806FD0EC80
:100A300008F082C0E8FF25EC09F085C0E8FF27EC4C
:100A400008F086C0E8FF27EC08F0000E806FD0ECBD
:100A500008F082C0E8FF25EC09F085C0E8FF27EC2C
:100A600008F086C0E8FF27EC08F0200E27EC08F01D
:100A7000060E806FD0EC08F082C0E8FF25EC09F08C
:100A800085C0E8FF27EC08F086C0E8FF27EC08F0F7
:100A90002F0E27EC08F0050E806FD0EC08F082C016
:100AA000E8FF25EC09F085C0E8FF27EC08F086C0D8
:100AB000E8FF27EC08F02F0E27EC08F0040E806FFB
:100AC000D0EC08F082C0E8FF25EC09F085C0E8FF13
:100AD00027EC08F086C0E8FF27EC08F01200816BD5
:100AE000060E806F8DEC08F0802FFCD78DEC08F09F
:100AF000000E806F800E816F8DEC08F0060E806F07
:100B0000170E816F8DEC08F0050E806F020E816F5D
:100B10008DEC08F0040E806F250E816F8DEC08F0CF
:100B2000020E806F220E816F8DEC08F0010E806F37
:100B3000250E816F8DEC08F0000E806F000E816F26
:100B40008DEC08F01200948E949C0F0EAF6EAC6A80
:100B5000AB6AAB8EAB88AC8A1200020EE7EC05F0F4
:100B60000D0EE7EC05F0166A176A150E1602F3CFA4
:100B700023F0176A22C0AAFF23C0A9FFA69EA69C45
:100B8000A680A8CFE8FFE7EC05F0232A172A120E6B
:100B90001762F0D7ECEC05F0162A080E1662E5D7BE
:100BA00057EC08F0000EF86E0F0EF76EC20EF66EE0
:100BB0000800F55027EC08F00B00F550FBE1280E7B
:100BC0001C6E01EC06F01C2EE1EF05F01200AD6E7C
:100BD000ACA2E8EF05F012000A0EE7EC05F00D0EEE
:100BE000E7EC05F01200780E1D6E1D2EF5EF05F0F6
:100BF00000001200A40E1E6E1E2EFCEF05F0000079
:100C00001200F90E1F6EFAEC05F01F2E03EF06F02E
:100C1000FAEC05F0120022C0AAFF23C0A9FF85C08C
:100C2000A8FFA6B2FED7A69EA69CA684F29EA19877
:100C3000550EA76EAA0EA76EA682A6B2FED7F28E9A
:100C4000A694232A22C0AAFF23C0A9FF86C0A8FF1A
:100C5000A6B2FED7A69EA69CA684F29EA198550E8B
:100C6000A76EAA0EA76EA682A6B2FED7F28EA69493
:100C7000232A1200226A236A2168166A22C0AAFF68
:100C800023C0A9FF21C0A8FFA6B2FED7A69EA69C9E
:100C9000A684F29EA198550EA76EAA0EA76EA682F4
:100CA000A6B2FED7F28EA694162A232A150E166235
:100CB0003EEF06F0226A236A120081A25DEF06F081
:100CC00081380F0B106E81B263EF06F0120057EC03
:100CD00008F002EC05F081A267EF06F081380F0BF7
:100CE000106E81B271EF06F0120022C0AAFF23C07D
:100CF000A9FFA69EA69CA680A8CF24F0FF0E246282
:100D000094EF06F0000EF86E0F0EF76ED60EF66E2C
:100D10000800F55027EC08F00B00F550FBE1FF0E42
:100D20002460BDEF06F0120022C0AAFF23C0A9FF75
:100D3000A69EA69CA680A8CFE8FF27EC08F0232A51
:100D400022C0AAFF23C0A9FFA69EA69CA680A8CF6A
:100D5000E8FF27EC08F0232A22C0AAFF23C0A9FF3E
:100D6000A69EA69CA680A8CFE8FF27EC08F0232A21
:100D7000730E27EC08F057EC08F0120022C0AAFF0F
:100D800023C0A9FFA69EA69CA680A8CF24F0FF0E94
:100D90002462DCEF06F0000EF86E0F0EF76ED60E32
:100DA000F66E0800F55027EC08F00B00F550FBE15B
:100DB000FF0E246029EF07F0610E27EC08F022C037
:100DC000AAFF23C0A9FFA69EA69CA680A8CF24F0B8
:100DD00024C0E8FF27EC08F0232A200E27EC08F0B7
:100DE000620E27EC08F022C0AAFF23C0A9FFA69E2E
:100DF000A69CA680A8CF24F024C0E8FF27EC08F02A
:100E0000232A200E27EC08F0630E27EC08F022C0FE
:100E1000AAFF23C0A9FFA69EA69CA680A8CF24F067
:100E200024C0E8FF27EC08F0232A200E27EC08F066
:100E3000640E27EC08F022C0AAFF23C0A9FFA69EDB
:100E4000A69CA680A8CF24F024C0E8FF27EC08F0D9
:100E5000232A120022C0AAFF23C0A9FFA69EA69C97
:100E6000A680A8CF24F0FF0E246248EF07F0000E02
:100E7000F86E0F0EF76ED60EF66E0800F55027ECE2
:100E800008F00B00F550FBE1FF0E246078EF07F04F
:100E900022C0AAFF23C0A9FFA69EA69CA680A8CF19
:100EA00024F024C0E8FF27EC08F0232A22C0AAFF80
:100EB00023C0A9FFA69EA69CA680A8CF24F024C08C
:100EC000E8FF27EC08F0232A680E27EC08F079ECFD
:100ED00007F0200E27EC08F079EC07F02F0E27EC36
:100EE00008F079EC07F02F0E27EC08F079EC07F00A
:100EF000120022C0AAFF23C0A9FFA69EA69CA6801E
:100F0000A8CF24F024C0E8FF27EC08F0232A22C051
:100F1000AAFF23C0A9FFA69EA69CA680A8CF24F066
:0C0F200024C0E8FF27EC08F0232A120090
:040F2C00626F744C30
:100F300000006D7220686C20686700005374616E59
:100F40006462790054696D653A0031323A3030207C
:100F5000322F332F3134000053617665643A00003C
:100F60004261636B203C303E00005065726D616EE3
:100F7000656E74204C6F677300003C313E202E2E4E
:100F80002E203C393E00536F7274696E672E2E2EF0
:100F90000000454E44203C2A3E00504320496E74D8
:100FA0006572666163650000426567696E203C2377
:100FB0003E005472616E7366657272696E672E2EA2
:100FC0002E00436F6D706C65746521005361766906
:100FD0006E672E2E2E004E2F410060EC08F060EC64
:100FE00008F060EC08F08394300E5BEC08F04AECFB
:100FF00008F04AEC08F060EC08F04AEC08F0200E2B
:101000005BEC08F04AEC08F060EC08F0280E38ECD5
:1010100008F060EC08F00C0E38EC08F060EC08F01A
:10102000060E38EC08F060EC08F043EC08F083841E
:1010300012008C94736EF00B8C6E8C867338F00BF0
:101040008C968C6E8C868C9671EC08F012008C94C9
:10105000746E7450F00B040F836E8C867438F00B32
:101060008C96040F836E8C868C966BEC08F01200C5
:10107000706E5BEC08F04AEC08F070385BEC08F03E
:101080004AEC08F012008394010E38EC08F060EC92
:1010900008F01200838600008396230E716E712E75
:1010A0004FEF08F01200800E19EC08F01200C00E8D
:1010B00019EC08F01200F00B83120F0983161200CE
:1010C000500E726E230E716E712E64EF08F0722E48
:1010D00062EF08F01200230E756E752E6DEF08F0AA
:1010E0001200C20E756E0A0E766E752E79EF08F03C
:1010F000762E75EF08F01200000EC76E280EC66E31
:10110000000EC56E180EC86EC68AA1969E96C79030
:10111000C584C5B4FED79E961200C580C6AE9E8615
:101120009EA6FED79E96D00EC7B0FED7C96E9EA6CD
:10113000FED76BEC08F09E96C5BCBBEF08F080C0F4
:10114000E8FFC7B0FED7C96E9EA6FED76BEC08F0CD
:101150009E96C5BCC0EF08F081C0E8FFC7B0FED7BF
:10116000C96E9EA6FED76BEC08F09E96C5BCC6EF76
:1011700008F0CBEF08F00000010E896ECBEF08F00D
:101180000000020E896E8D80CBEF08F00000040E87
:10119000896ECBEF08F0C584C5B4FED79E961200C9
:1011A000C580C6AE9E869EA6FED79E96D00EC7B0C0
:1011B000FED7C96E9EA6FED76BEC08F09E96C5BC06
:1011C00011EF09F080C0E8FFC7B0FED7C96E9EA638
:1011D000FED76BEC08F09E966BEC08F0C5BC16EFE2
:1011E00009F0C5829EA6FED79E96D10EC7B0FED747
:1011F000C96E9EA6FED76BEC08F09E96C5BC1BEF91
:1012000009F0C5869EA6FED79E966BEC08F0C9CF66
:10121000E8FF826FC58AC588C5B80CEF09F020EFDA
:1012200009F00000030E896E20EF09F00000070EA0
:10123000896E20EF09F000000F0E896E20EF09F093
:10124000C584C5B4FED79E961200876F87390F0BF1
:10125000300F856F87C0E8FF0F0B300F866F1200CD
:10126000C580C6AE9E869EA6FED79E96D00EC7B0FF
:10127000FED7C96E9EA6FED76BEC08F09E960E0EAA
:10128000C7B0FED7C96E9EA6FED76BEC08F09E963F
:10129000040EC7B0FED7C96E9EA6FED76BEC08F051
:1012A0009E96C584C5B4FED79E961200C580C6AE74
:1012B0009E869EA6FED79E96520EC7B0FED7C96EDA
:1012C0009EA6FED76BEC08F09E96C5BC96EF09F083
:1012D00080C0E8FF8009C7B0FED7C96E9EA6FED7C2
:1012E0006BEC08F09E96C5BC9BEF09F0C5829EA6EC
:1012F000FED79E96530EC7B0FED7C96E9EA6FED7E8
:101300006BEC08F09E96C5BCA0EF09F0C5869EA6C2
:10131000FED79E966BEC08F0C9CFE8FF816FC58AB7
:10132000C588C5B891EF09F0A5EF09F00000030EDC
:10133000896EA5EF09F00000050E896EA5EF09F092
:101340000000070E896EA5EF09F0C584C5B4FED76D
:101350009E961200C580C6AE9E869EA6FED79E961D
:10136000520EC7B0FED7C96E9EA6FED76BEC08F032
:101370009E96C5BCDAEF09F080C0E8FF8009C7B0CF
:10138000FED7C96E9EA6FED76BEC08F09E96C5BC34
:10139000DFEF09F081C0E8FFFF0BC7B0FED7C96ED1
:1013A0009EA6FED76BEC08F09E96C5BCE5EF09F053
:1013B000EAEF09F000000D0E896EEAEF09F0000077
:1013C0000F0E896E8D80EAEF09F00000090E896E1C
:1013D000EAEF09F0C584C5B4FED79E961200C58019
:1013E000C6AE9E869EA6FED79E96100EC7B0FED7AE
:1013F000C96E9EA6FED76BEC08F09E96C5BCDAEFD0
:1014000009F0C584C5B4FED79E961200C580C6AE4D
:101410009E869EA6FED79E96C5829EA6FED79E96C7
:10142000110EC7B0FED7C96E9EA6FED76BEC08F0B2
:101430009E96C5869EA6FED79E966BEC08F0C9CFF9
:10144000E8FFC58AC588C5B823EF0AF0C584C5B4CE
:10145000FED79E961200C5BC1200C58AC598C5B8B5
:101460002FEF0AF01200C76A280EC66EC56A240E56
:10147000C86E948694881200C7B43CEF0AF01F0E21
:10148000C5140009F9E112003CEC0AF0C580120015
:101490003CEC0AF0C58212003CEC0AF0C584120054
:1014A0003CEC0AF0C96EC7B453EF0AF01200C586CF
:1014B0003CEC0AF0C5B6FED7C9501200C59AC588E3
:0614C000C5B8FED71200C2
:020000040030CA
:0100010002FC
:010002001FDE
:010003001EDE
:010005008179
:010006008178
:010008000FE8
:01000900C036
:01000A000FE6
:01000B00E014
:01000C000FE4
:01000D0040B2
:00000001FF
