:020000040000FA
:0400000083EF00F09A
:020004000000FA
:0400080018EF00F0FD
:080018005DEF00F0FF0ED76E52
:10002000FF0ED66E1200C30ED76E250ED66E1200CE
:10003000D8CF13F0146E000E386255EC09F0000EA4
:1000400038620EEC00F0FF0E386213EC00F0F2A400
:1000500058EF00F019C017F00F0E1716090E1762AF
:100060003BEF00F0100E1926F00E1916A00E1960C5
:10007000196A3EEF00F0192A3EEF00F00000000E72
:10008000196258EF00F018C017F00F0E1716090E7E
:10009000176254EF00F0100E1826F00E1816A00E7E
:1000A0001860186A57EF00F0182A57EF00F00000A8
:1000B000F294143813C0D8FF1000D8CF13F0146E88
:1000C000F0A07EEF00F0FF0E1E627EEF00F08138A0
:1000D0000F0B126E0C0E12627EEF00F0D59E86ECB6
:1000E00005F01E6A010E376E85EC04F0FF6AFE6AA9
:1000F000FD6AF090143813C0D8FF1000F090143847
:1001000013C0D8FF1000700ED36E000E926EFF0E5B
:10011000936E000E946E000E956E000E966E000E9D
:10012000896E000E8A6E000E8B6E000E8C6E000EB5
:100130008D6E000EC26EEEEC08F0280E1AEC09F07F
:100140000C0E1AEC09F0010E1AEC09F084EC09F01F
:1001500044EC05F082EC06F0D06AF26AF16AF06ACB
:10016000D08EF28EF28CF18AF28AF284F184F086DB
:10017000F09CD59ED59CD59AD598D596D594D58208
:10018000D580206A216A636A646A2C6A2D6A2E6AA5
:100190002F6A306A316A326AF20E936E45EC09F0CA
:1001A000000EF86E100EF76EE60EF66E0800F550B3
:1001B00028EC09F00B00F550FBE15FEC09F0000EB4
:1001C000F86E100EF76EEC0EF66E0800F55028EC87
:1001D00009F00B00F550FBE1280E1A6EE0EC06F07A
:1001E0001A2EEEEF00F0000E846E000E806E38685E
:1001F00045EC09F0000EF86E100EF76EF60EF66E76
:100200000800F55028EC09F00B00F550FBE15FEC1D
:1002100009F0000EF86E110EF76E1E0EF66E080055
:10022000F55028EC09F00B00F550FBE1FF0ED76EFE
:10023000FF0ED66ED58E46EC07F0000E106227EF4B
:1002400001F0896A8A6A8B6A8C6AC8EF01F0000043
:10025000010E106232EF01F0896A8A6A8B6A8C6A39
:10026000AAEF01F00000020E10623DEF01F0896A72
:100270008A6A8B6A8C6A76EF01F00000040E1062C5
:1002800048EF01F0896A8A6A8B6A8C6A90EF01F004
:100290000000030E106253EF01F0896A8A6A8B6ACC
:1002A0008C6AD8EF01F00000070E10625EEF01F0DB
:1002B000896A8A6A8B6A8C6AC5EF02F000000B0EAD
:1002C000106269EF01F0896A8A6A8B6A8C6A1CEF96
:1002D00003F000000F0E106274EF01F0896A8A6A61
:1002E0008B6A8C6A32EF04F00000A5D7386A000EE2
:1002F000846E0A0E1A6EE0EC06F01A2E7BEF01F007
:10030000010E846E3CEC07F00D0E10628EEF01F0D2
:10031000896A8A6A8B6A8C6AF3EF00F00000F0D772
:10032000386A000E846E0A0E1A6EE0EC06F01A2E81
:1003300095EF01F0020E846E3CEC07F00D0E10629A
:10034000A8EF01F0896A8A6A8B6A8C6AF3EF00F081
:100350000000F0D7386A326A140E1A6EE0EC06F02C
:100360001A2EAEEF01F0230E806E79EC09F0260E06
:10037000806E79EC09F02C0E806E79EC09F0290E74
:10038000806E79EC09F0322A780E3262ECD7E2D72F
:10039000386A280E1A6EE0EC06F01A2ECBEF01F048
:1003A00045EC09F0E8EC0AF0300F28EC09F0F1D741
:1003B000D59E386A19EC07F04BEC05F01E6845EC49
:1003C00009F0000EF86E110EF76E880EF66E08003A
:1003D000F55028EC09F00B00F550FBE15FEC09F05B
:1003E000C30ED76E250ED66ED58E186A196A2D6A81
:1003F0002E6A2F6A306A316A010E356E346A01EF57
:1004000002F0326A230E806E79EC09F0260E806EBF
:1004100079EC09F02C0E806E79EC09F0290E806ED3
:1004200079EC09F0322A780E3262ECD700D0E8EC91
:100430000AF02C6E050E2C5C0EE0312A040E2C5CAA
:100440000AE0030E2C5C15E0020E2C5C20E0010E8D
:100450002C5C2BE0ECD7302A040E366E355C4DE078
:10046000030E355C30E0020E355C2DE0010E355C8C
:100470002AE02F2A030E366E355C3FE0040E355C11
:100480002FE0020E355C1FE0010E355C1CE02E2AC9
:10049000020E366E355C31E0040E355C21E0030E51
:1004A000355C1EE0010E355C0EE02D2A010E366E25
:1004B000355C23E0040E355C13E0030E355C10E080
:1004C000020E355C0DE0336A000E846E010E846E00
:1004D000240E1A6EE0EC06F01A2E6AEF02F00DD030
:1004E000336A000E846E020E846E240E1A6EE0ECE7
:1004F00006F01A2E77EF02F000D036C035F0000E6D
:10050000846E376A090E315C29E01838176E0F0EB9
:100510001716000E176401EF02F0020E376E18C0B6
:1005200017F00F0E1716050E175C18E0030E316456
:1005300001EF02F0000E306401EF02F0000E2F64B4
:1005400001EF02F0000E2E6401EF02F0000E2D64A8
:1005500001EF02F0030E376EAEEF02F0D59E86EC8F
:1005600005F01E6A45EC09F0000EF86E110EF76EEC
:10057000CE0EF66E0800F55028EC09F00B00F55091
:10058000FBE185EC04F0C5EF02F0386A45EC09F0B8
:10059000000EF86E110EF76E460EF66E0800F5505E
:1005A00028EC09F00B00F550FBE10A0E216E52EC2D
:1005B00007F05FEC09F00D0E216E9BEC07F03CECB0
:1005C00007F0070E1062EBEF02F0896A8A6A8B6A05
:1005D0008C6AF8EF02F000000D0E1062F6EF02F0E8
:1005E000896A8A6A8B6A8C6AF3EF00F00000E7D7A9
:1005F00045EC09F0216A07EC08F05FEC09F0000E09
:10060000F86E110EF76E620EF66E0800F55028ECCB
:1006100009F00B00F550FBE1206A216A3CEC07F081
:100620000D0E10621AEF03F0896A8A6A8B6A8C6A6F
:10063000C5EF02F00000C3D7386A45EC09F0000EA0
:10064000F86E110EF76E6C0EF66E0800F55028EC81
:1006500009F00B00F550FBE15FEC09F0000EF86EBD
:10066000110EF76E7C0EF66E0800F55028EC09F0BE
:100670000B00F550FBE13CEC07F00D0E106247EF6C
:1006800003F0896A8A6A8B6A8C6AF3EF00F00000D3
:10069000000E106252EF03F0896A8A6A8B6A8C6AD4
:1006A000ACEF03F00000010E10625DEF03F0896A09
:1006B0008A6A8B6A8C6AACEF03F00000020E10624B
:1006C00068EF03F0896A8A6A8B6A8C6AACEF03F080
:1006D0000000040E106273EF03F0896A8A6A8B6A65
:1006E0008C6AACEF03F00000050E10627EEF03F0A1
:1006F000896A8A6A8B6A8C6AACEF03F00000060E86
:10070000106289EF03F0896A8A6A8B6A8C6AACEF9F
:1007100003F00000080E106294EF03F0896A8A6A01
:100720008B6A8C6AACEF03F00000090E10629FEF39
:1007300003F0896A8A6A8B6A8C6AACEF03F0000066
:100740000A0E1062AAEF03F0896A8A6A8B6A8C6AC1
:10075000ACEF03F000008FD745EC09F0000EF86E07
:10076000110EF76E6C0EF66E0800F55028EC09F0CD
:100770000B00F550FBE110C0E8FFE82A176EE842D5
:10078000E89EE842E89E175E17C0E8FF17C011F028
:10079000150D11C0E8FF300F28EC09F03A0E28ECD7
:1007A00009F0200E28EC09F0F3CF21F0000E2126ED
:1007B00020C0AAFF21C0A9FFA69EA69CA680A8CF04
:1007C00018F0212A20C0AAFF21C0A9FFA69EA69C3E
:1007D000A680A8CF19F0212A52EC07F0F3CF21F020
:1007E0005FEC09F0F3CF21F007EC08F03CEC07F0E8
:1007F000030E106202EF04F0896A8A6A8B6A8C6ABF
:100800000FEF04F000000D0E10620DEF04F0896A86
:100810008A6A8B6A8C6A1CEF03F00000E7D745EC0C
:1008200009F0000EF86E110EF76E460EF66E080017
:10083000F55028EC09F00B00F550FBE152EC07F005
:100840005FEC09F09BEC07F03CEC07F00D0E10623A
:1008500030EF04F0896A8A6A8B6A8C6A1CEF03F0B5
:100860000000F2D7386A45EC09F0000EF86E110E60
:10087000F76E9C0EF66E0800F55028EC09F00B00A0
:10088000F550FBE15FEC09F0000EF86E110EF76E0B
:10089000AA0EF66E0800F55028EC09F00B00F55092
:1008A000FBE1F9CF29F0FACF2AF0FBCF2BF03CEC9B
:1008B00007F00D0E106263EF04F0896A8A6A8B6A92
:1008C0008C6AF3EF00F000000E0E10626EEF04F081
:1008D000896A8A6A8B6A8C6A70EF04F00000E7D735
:1008E000286845EC09F0000EF86E110EF76EB40E94
:1008F000F66E0800F55028EC09F00B00F550FBE10E
:100900008CEC06F0286AF3EF00F02DC0E8FF300F02
:1009100020C0AAFF21C0A9FFE8CFA8FFA6B2FED73A
:10092000A69EA69CA684F29EA198550EA76EAA0E1E
:10093000A76EA682A6B2FED7F28EA694212A2EC05A
:10094000E8FF300F20C0AAFF21C0A9FFE8CFA8FF11
:10095000A6B2FED7A69EA69CA684F29EA198550E8E
:10096000A76EAA0EA76EA682A6B2FED7F28EA69496
:10097000212A2FC0E8FF300F20C0AAFF21C0A9FF05
:10098000E8CFA8FFA6B2FED7A69EA69CA684F29E9C
:10099000A198550EA76EAA0EA76EA682A6B2FED784
:1009A000F28EA694212A30C0E8FF300F20C0AAFFA3
:1009B00021C0A9FFE8CFA8FFA6B2FED7A69EA69C9D
:1009C000A684F29EA198550EA76EAA0EA76EA682C7
:1009D000A6B2FED7F28EA694212A37C0E8FF300FC8
:1009E00020C0AAFF21C0A9FFE8CFA8FFA6B2FED76A
:1009F000A69EA69CA684F29EA198550EA76EAA0E4E
:100A0000A76EA682A6B2FED7F28EA694212A000E69
:100A1000206EA80E216E000E236EDC0E246E166A68
:100A2000156A152A20C0AAFF21C0A9FFA69EA69C70
:100A3000A680A8CF22F0150E212620C0AAFF21C033
:100A4000A9FF22C0A8FFA6B2FED7A69EA69CA68498
:100A5000F29EA198550EA76EAA0EA76EA682A6B208
:100A6000FED7F28EA694140E215E150E156211EFBC
:100A700005F02A0E215EDC0E246E156A162A090E78
:100A8000166211EF05F0120082988296948894867F
:100A900028EC0AF01200020E606ED2EC09F062C07F
:100AA000E8FF1DEC0AF0020E606ED2EC09F062C0A5
:100AB000E8FF1DEC0AF0EAEC06F0010E606ED2ECE5
:100AC00009F062C0E8FF1DEC0AF0EAEC06F0060E41
:100AD000606ED2EC09F062C0E8FF1DEC0AF0EAECAF
:100AE00006F0050E606ED2EC09F062C0E8FF1DEC66
:100AF0000AF0EAEC06F0040E606ED2EC09F062C077
:100B0000E8FF1DEC0AF0EAEC06F012001838176E48
:100B10000F0E171617C0E8FF300F20C0AAFF21C024
:100B2000A9FFE8CFA8FFA6B2FED7A69EA69CA684E2
:100B3000F29EA198550EA76EAA0EA76EA682A6B227
:100B4000FED7F28EA694212A18C017F00F0E1716A2
:100B500017C0E8FF300F20C0AAFF21C0A9FFE8CFCF
:100B6000A8FFA6B2FED7A69EA69CA684F29EA19838
:100B7000550EA76EAA0EA76EA682A6B2FED7F28E5B
:100B8000A694212A1938176E0F0E171617C0E8FF02
:100B9000300F20C0AAFF21C0A9FFE8CFA8FFA6B24E
:100BA000FED7A69EA69CA684F29EA198550EA76E7F
:100BB000AA0EA76EA682A6B2FED7F28EA694212A0E
:100BC0001200020E606ED2EC09F062C0E8FF1DEC6C
:100BD0000AF063C0E8FF28EC09F064C0E8FF28ECE5
:100BE00009F0680E28EC09F0010E606ED2EC09F0F5
:100BF00062C0E8FF1DEC0AF063C0E8FF28EC09F0D2
:100C000064C0E8FF28EC09F0000E606ED2EC09F039
:100C100062C0E8FF1DEC0AF063C0E8FF28EC09F0B1
:100C200064C0E8FF28EC09F0200E28EC09F0060E5D
:100C3000606ED2EC09F062C0E8FF1DEC0AF063C000
:100C4000E8FF28EC09F064C0E8FF28EC09F02F0E5B
:100C500028EC09F0050E606ED2EC09F062C0E8FFE6
:100C60001DEC0AF063C0E8FF28EC09F064C0E8FF5F
:100C700028EC09F02F0E28EC09F0040E606ED2EC7F
:100C800009F062C0E8FF1DEC0AF063C0E8FF28EC41
:100C900009F064C0E8FF28EC09F01200616A060E52
:100CA000606E95EC09F0602EFCD795EC09F0000E13
:100CB000606E800E616E95EC09F0060E606E170E88
:100CC000616E95EC09F0050E606E030E616E95EC99
:100CD00009F0040E606E040E616E95EC09F0020ED0
:100CE000606E120E616E95EC09F0010E606E480E9A
:100CF000616E95EC09F0000E606E000E616E95EC71
:100D000009F01200948E949C0F0EAF6EAC6AAB6A21
:100D1000AB8EAB88AC8A1200020EC6EC06F00D0E4C
:100D2000C6EC06F0156A166A150E1502F3CF21F00F
:100D3000166A20C0AAFF21C0A9FFA69EA69CA68075
:100D4000A8CFE8FFC6EC06F0212A162A120E16627A
:100D5000F0D7CBEC06F0152A080E1562E5D75FEC4C
:100D600009F0000EF86E110EF76EC40EF66E080054
:100D7000F55028EC09F00B00F550FBE1280E1A6E37
:100D8000E0EC06F01A2EC0EF06F01200AD6EACA239
:100D9000C7EF06F012000A0EC6EC06F00D0EC6EC08
:100DA00006F01200780E1B6E1B2ED4EF06F000002A
:100DB0001200A40E1C6E1C2EDBEF06F000001200C9
:100DC000F90E1D6ED9EC06F01D2EE2EF06F0D9ECFF
:100DD00006F0120020C0AAFF21C0A9FF63C0A8FF2F
:100DE000A6B2FED7A69EA69CA684F29EA198550EFA
:100DF000A76EAA0EA76EA682A6B2FED7F28EA69402
:100E0000212A20C0AAFF21C0A9FF64C0A8FFA6B262
:100E1000FED7A69EA69CA684F29EA198550EA76E0C
:100E2000AA0EA76EA682A6B2FED7F28EA694212A9B
:100E30001200206A216A1F68156A20C0AAFF21C01B
:100E4000A9FF1FC0A8FFA6B2FED7A69EA69CA68497
:100E5000F29EA198550EA76EAA0EA76EA682A6B204
:100E6000FED7F28EA694152A212A150E15621DEFC3
:100E700007F0206A216A120081A23CEF07F0813856
:100E80000F0B106E81B242EF07F012005FEC09F019
:100E900081A246EF07F081380F0B106E81B24EEF42
:100EA00007F0120020C0AAFF21C0A9FFA69EA69CA1
:100EB000A680A8CF22F0FF0E226271EF07F0000E8D
:100EC000F86E110EF76ED80EF66E0800F55028EC8D
:100ED00009F00B00F550FBE1FF0E22609AEF07F0DE
:100EE000120020C0AAFF21C0A9FFA69EA69CA68032
:100EF000A8CFE8FF28EC09F0212A20C0AAFF21C0D2
:100F0000A9FFA69EA69CA680A8CFE8FF28EC09F022
:100F1000212A20C0AAFF21C0A9FFA69EA69CA680C8
:100F2000A8CFE8FF28EC09F0212A730E28EC09F07D
:100F30005FEC09F0120020C0AAFF21C0A9FFA69E05
:100F4000A69CA680A8CF22F0FF0E2262B9EF07F080
:100F5000000EF86E110EF76ED80EF66E0800F55002
:100F600028EC09F00B00F550FBE1FF0E226006EFC4
:100F700008F0610E28EC09F020C0AAFF21C0A9FFEB
:100F8000A69EA69CA680A8CF22F022C0E8FF28EC4F
:100F900009F0212A200E28EC09F0620E28EC09F055
:100FA00020C0AAFF21C0A9FFA69EA69CA680A8CF0C
:100FB00022F022C0E8FF28EC09F0212A200E28ECBC
:100FC00009F0630E28EC09F020C0AAFF21C0A9FF98
:100FD000A69EA69CA680A8CF22F022C0E8FF28ECFF
:100FE00009F0212A200E28EC09F0640E28EC09F003
:100FF00020C0AAFF21C0A9FFA69EA69CA680A8CFBC
:1010000022F022C0E8FF28EC09F0212A120020C0BB
:10101000AAFF21C0A9FFA69EA69CA680A8CF22F069
:10102000FF0E226225EF08F0000EF86E110EF76E2B
:10103000D80EF66E0800F55028EC09F00B00F550BC
:10104000FBE1FF0E226055EF08F020C0AAFF21C08F
:10105000A9FFA69EA69CA680A8CF22F022C0E8FFEA
:1010600028EC09F0212A20C0AAFF21C0A9FFA69ED2
:10107000A69CA680A8CF22F022C0E8FF28EC09F0A9
:10108000212A680E28EC09F056EC08F0200E28EC16
:1010900009F056EC08F02F0E28EC09F056EC08F099
:1010A0002F0E28EC09F056EC08F0120020C0AAFF21
:1010B00021C0A9FFA69EA69CA680A8CF22F022C090
:1010C000E8FF28EC09F0212A20C0AAFF21C0A9FFCF
:1010D000A69EA69CA680A8CF22F022C0E8FF28ECFE
:0610E00009F0212A1200B4
:0A10E600626F744C00006D72206808
:1010F0006C20686700005374616E64696E672062DB
:1011000079202E2E2E202E2E2E205374616E64698F
:101110006E67206279202E2E2E202E2E2E003C412E
:101120003E536F7274203C423E4C617374204C6F8E
:1011300067203C433E5065726D204C6F6773203CC6
:10114000443E5043000054696D653A0031323A30F4
:101150003020322F332F3134000053617665643AEA
:1011600000004261636B203C303E00005065726DB0
:10117000616E656E74204C6F677300003C313E20D9
:101180002E2E2E203C393E00536F7274696E672EEE
:101190002E2E0000454E44203C2A3E00504320495C
:1011A0006E746572666163650000426567696E20F2
:1011B0003C233E005472616E7366657272696E679D
:1011C0002E2E2E00436F6D706C6574652100536187
:1011D00076696E672E2E2E004E2F410068EC09F0C6
:1011E00068EC09F068EC09F08394300E63EC09F0C8
:1011F0004CEC09F04CEC09F068EC09F04CEC09F00F
:10120000200E63EC09F04CEC09F068EC09F0280EB4
:101210003AEC09F068EC09F00C0E3AEC09F068ECD5
:1012200009F0060E3AEC09F068EC09F045EC09F01B
:10123000838412008C94716EF00B8C6E8C867138E6
:10124000F00B8C968C6E8C868C9679EC09F01200E3
:101250008C94726E72C0E8FFF00B040F836E8C8664
:101260007238F00B8C96040F836E8C868C9673EC20
:1012700009F01200686E63EC09F04CEC09F0683874
:1012800063EC09F04CEC09F012008394010E3AEC87
:1012900009F068EC09F01200838600008396230EA3
:1012A000696E692E51EF09F012001B0E1AEC09F05D
:1012B00068EC09F01200800E1AEC09F01200C00E62
:1012C0001AEC09F01200F00B83120F0983161200BA
:1012D000500E706E230E696E692E6CEF09F0702E41
:1012E0006AEF09F01200230E736E732E75EF09F08A
:1012F0001200C20E736E0A0E746E732E81EF09F027
:10130000742E7DEF09F01200000EC76E280EC66E17
:10131000000EC56E180EC86EC68AA1969E96C7901E
:10132000C584C5B4FED79E961200C580C6AE9E8603
:101330009EA6FED79E96D00EC7B0FED7C96E9EA6BB
:10134000FED79E96C5BCBDEF09F060C0E8FFC7B0F0
:10135000FED7C96E9EA6FED79E96C5BCC2EF09F009
:1013600061C0E8FFC7B0FED7C96E9EA6FED79E96A5
:10137000C5BCC8EF09F0CDEF09F00000010E896E81
:10138000CDEF09F00000020E896E8D80CDEF09F0DF
:101390000000040E896ECDEF09F0C584C5B4FED7F8
:1013A0009E961200C580C6AE9E869EA6FED79E96CD
:1013B000D00EC7B0FED7C96E9EA6FED79E96C5BCFE
:1013C00009EF0AF060C0E8FFC7B0FED7C96E9EA65D
:1013D000FED79E96C5BC0EEF0AF0C5829EA6FED72C
:1013E0009E96D10EC7B0FED7C96E9EA6FED79E961A
:1013F000C5BC13EF0AF0C5869EA6FED79E96C9CF40
:10140000E8FF626EC58AC588C5B804EF0AF018EF18
:101410000AF00000030E896E18EF0AF00000070EB4
:10142000896E18EF0AF000000F0E896E18EF0AF0AF
:10143000C584C5B4FED79E961200656E65380F0B45
:10144000300F636E65C0E8FF0F0B300F646E120043
:10145000C580C6AE9E869EA6FED79E96D00EC7B00D
:10146000FED7C96E9EA6FED79E960E0EC7B0FED7BB
:10147000C96E9EA6FED79E96040EC7B0FED7C96E53
:101480009EA6FED79E96C584C5B4FED79E96120032
:10149000C580C6AE9E869EA6FED79E96520EC7B04B
:1014A000FED7C96E9EA6FED79E96C5BC80EF0AF0F9
:1014B00060C0E8FF8009C7B0FED7C96E9EA6FED700
:1014C0009E96C5BC85EF0AF0C5829EA6FED79E9665
:1014D000530EC7B0FED7C96E9EA6FED79E96C5BC5A
:1014E0008AEF0AF0C5869EA6FED79E96C9CFE8FF72
:1014F000616EC58AC588C5B87BEF0AF08FEF0AF028
:101500000000030E896E8FEF0AF00000050E896E51
:101510008FEF0AF00000070E896E8FEF0AF0C58486
:10152000C5B4FED79E961200C580C6AE9E869EA606
:10153000FED79E96520EC7B0FED7C96E9EA6FED7A6
:101540009E96C5BCBEEF0AF060C0E8FF8009C7B038
:10155000FED7C96E9EA6FED79E96C5BCC3EF0AF005
:1015600061C0E8FFFF0BC7B0FED7C96E9EA6FED7CD
:101570009E96C5BCC9EF0AF0CEEF0AF000000D0E32
:10158000896ECEEF0AF000000F0E896E8D80CEEFCF
:101590000AF00000090E896ECEEF0AF0C584C5B4CA
:1015A000FED79E961200C580C6AE9E869EA6FED72A
:1015B0009E96100EC7B0FED7C96E9EA6FED79E9609
:1015C000C5BCBEEF0AF0C584C5B4FED79E96120016
:1015D000C580C6AE9E869EA6FED79E96C5829EA656
:1015E000FED79E96110EC7B0FED7C96E9EA6FED737
:1015F0009E96C5869EA6FED79E96C9CFE8FFC58A51
:10160000C588C5B801EF0BF0C584C5B4FED79E965A
:101610001200C5BC1200C58AC598C5B80DEF0BF005
:101620001200C76A280EC66EC56A240EC86E94865C
:1016300094881200C7B41AEF0BF01F0EC5140009EE
:10164000F9E112001AEC0BF0C58012001AEC0BF055
:10165000C58212001AEC0BF0C58412001AEC0BF0D4
:10166000C96EC7B431EF0BF01200C5861AEC0BF04F
:10167000C5B6FED7C9501200C59AC588C5B8FED7F1
:02168000120056
:020000040030CA
:0100010002FC
:010002001FDE
:010003001EDE
:010005008179
:010006008178
:010008000FE8
:01000900C036
:01000A000FE6
:01000B00E014
:01000C000FE4
:01000D0040B2
:00000001FF
