:020000040000FA
:0400000083EF00F09A
:020004000000FA
:0400080018EF00F0FD
:080018005DEF00F0FF0ED76E52
:10002000FF0ED66E1200C30ED76E250ED66E1200CE
:10003000D8CF13F0146E000E386244EC09F0000EB5
:1000400038620EEC00F0FF0E386213EC00F0F2A400
:1000500058EF00F019C017F00F0E1716090E1762AF
:100060003BEF00F0100E1926F00E1916A00E1960C5
:10007000196A3EEF00F0192A3EEF00F00000000E72
:10008000196258EF00F018C017F00F0E1716090E7E
:10009000176254EF00F0100E1826F00E1816A00E7E
:1000A0001860186A57EF00F0182A57EF00F00000A8
:1000B000F294143813C0D8FF1000D8CF13F0146E88
:1000C000F0A07EEF00F0FF0E1E627EEF00F08138A0
:1000D0000F0B126E0C0E12627EEF00F0D59E75ECC7
:1000E00005F01E6A010E376E74EC04F0FF6AFE6ABA
:1000F000FD6AF090143813C0D8FF1000F090143847
:1001000013C0D8FF1000700ED36E000E926EFF0E5B
:10011000936E000E946E000E956E000E966E000E9D
:10012000896E000E8A6E000E8B6E000E8C6E000EB5
:100130008D6E000EC26EDDEC08F0280E09EC09F0A1
:100140000C0E09EC09F0010E09EC09F073EC09F052
:1001500033EC05F071EC06F0D06AF26AF16AF06AED
:10016000D08EF28EF28CF18AF28AF284F184F086DB
:10017000F09CD59ED59CD59AD598D596D594D58208
:10018000D580206A216A636A646A2C6A2D6A2E6AA5
:100190002F6A306A316A326AF20E936E34EC09F0DB
:1001A000000EF86E100EF76EC40EF66E0800F550D5
:1001B00017EC09F00B00F550FBE14EEC09F0000ED6
:1001C000F86E100EF76ECA0EF66E0800F55017ECBA
:1001D00009F00B00F550FBE1280E1A6ECFEC06F08B
:1001E0001A2EEEEF00F0000E846E000E806E38685E
:1001F00034EC09F0000EF86E100EF76ED40EF66EA9
:100200000800F55017EC09F00B00F550FBE14EEC3F
:1002100009F0000EF86E100EF76EFC0EF66E080078
:10022000F55017EC09F00B00F550FBE1FF0ED76E0F
:10023000FF0ED66ED58E35EC07F0000E106227EF5C
:1002400001F0896A8A6A8B6A8C6AB9EF01F0000052
:10025000010E106232EF01F0896A8A6A8B6A8C6A39
:100260009CEF01F00000020E10623DEF01F0896A80
:100270008A6A8B6A8C6A76EF01F00000040E1062C5
:1002800048EF01F0896A8A6A8B6A8C6A89EF01F00B
:100290000000030E106253EF01F0896A8A6A8B6ACC
:1002A0008C6AC8EF01F00000070E10625EEF01F0EB
:1002B000896A8A6A8B6A8C6AB4EF02F000000B0EBE
:1002C000106269EF01F0896A8A6A8B6A8C6A0BEFA7
:1002D00003F000000F0E106274EF01F0896A8A6A61
:1002E0008B6A8C6A21EF04F00000A5D7000E846EA3
:1002F000140E1A6ECFEC06F01A2E7AEF01F0010EF2
:10030000846E0A0E1A6ECFEC06F01A2E83EF01F0FF
:10031000EDD7000E846E140E1A6ECFEC06F01A2E76
:100320008DEF01F0020E846E0A0E1A6ECFEC06F00D
:100330001A2E96EF01F0EDD7326A140E1A6ECFEC3A
:1003400006F01A2E9FEF01F0230E806E68EC09F084
:10035000260E806E68EC09F02C0E806E68EC09F0B9
:10036000290E806E68EC09F0322A780E3262ECD7E2
:10037000E3D7280E1A6ECFEC06F01A2EBBEF01F071
:1003800034EC09F06AEC0AF0300F17EC09F0F1D701
:10039000D59E386A08EC07F03AEC05F01E6834EC9C
:1003A00009F0000EF86E110EF76E660EF66E08007C
:1003B000F55017EC09F00B00F550FBE14EEC09F09D
:1003C000C30ED76E250ED66ED58E186A196A2D6AA1
:1003D0002E6A2F6A306A316A010E356E346AF1EF87
:1003E00001F0326A230E806E260E806E2C0E806E17
:1003F000290E806E322A190E3262F4D700D00A0E0E
:100400001A6ECFEC06F01A2E01EF02F06AEC0AF039
:100410002C6E050E2C5CE5E0312A040E2C5C0AE003
:10042000030E2C5C15E0020E2C5C20E0010E2C5C0F
:100430002BE0E5D7302A040E366E355C4DE0030E16
:10044000355C30E0020E355C2DE0010E355C2AE0B3
:100450002F2A030E366E355C3FE0040E355C2FE02C
:10046000020E355C1FE0010E355C1CE02E2A020EE8
:10047000366E355C31E0040E355C21E0030E355CF0
:100480001EE0010E355C0EE02D2A010E366E355C45
:1004900023E0040E355C13E0030E355C10E0020E21
:1004A000355C0DE0336A000E846E010E846E050E1D
:1004B0001A6ECFEC06F01A2E59EF02F00DD0336A07
:1004C000000E846E020E846E050E1A6ECFEC06F0DE
:1004D0001A2E66EF02F000D036C035F0000E846EA2
:1004E000376A090E315C29E01838176E0F0E17169F
:1004F000000E1764F1EF01F0020E376E18C017F00E
:100500000F0E1716050E175C18E0030E3164F1EF9D
:1005100001F0000E3064F1EF01F0000E2F64F1EFF6
:1005200001F0000E2E64F1EF01F0000E2D64F1EFEA
:1005300001F0030E376E9DEF02F0D59E75EC05F0CD
:100540001E6A34EC09F0000EF86E110EF76EAC0E58
:10055000F66E0800F55017EC09F00B00F550FBE1C2
:1005600074EC04F0B4EF02F0386A34EC09F0000ED9
:10057000F86E110EF76E240EF66E0800F55017ECAB
:1005800009F00B00F550FBE10A0E216E41EC07F07B
:100590004EEC09F00D0E216E8AEC07F02BEC07F003
:1005A000070E1062DAEF02F0896A8A6A8B6A8C6A37
:1005B000E7EF02F000000D0E1062E5EF02F0896A2D
:1005C0008A6A8B6A8C6AF3EF00F00000E7D734EC9C
:1005D00009F0216AF6EC07F04EEC09F0000EF86E17
:1005E000110EF76E400EF66E0800F55017EC09F08C
:1005F0000B00F550FBE1206A216A2BEC07F00D0E91
:10060000106209EF03F0896A8A6A8B6A8C6AB4EF18
:1006100002F00000C3D7386A34EC09F0000EF86E1F
:10062000110EF76E4A0EF66E0800F55017EC09F041
:100630000B00F550FBE14EEC09F0000EF86E110EC8
:10064000F76E5A0EF66E0800F55017EC09F00B0025
:10065000F550FBE12BEC07F00D0E106236EF03F0C6
:10066000896A8A6A8B6A8C6AF3EF00F00000000ED8
:10067000106241EF03F0896A8A6A8B6A8C6A9BEF89
:1006800003F00000010E10624CEF03F0896A8A6AE1
:100690008B6A8C6A9BEF03F00000020E106257EF2A
:1006A00003F0896A8A6A8B6A8C6A9BEF03F0000008
:1006B000040E106262EF03F0896A8A6A8B6A8C6AA0
:1006C0009BEF03F00000050E10626DEF03F0896AE6
:1006D0008A6A8B6A8C6A9BEF03F00000060E106238
:1006E00078EF03F0896A8A6A8B6A8C6A9BEF03F061
:1006F0000000080E106283EF03F0896A8A6A8B6A31
:100700008C6A9BEF03F00000090E10628EEF03F07D
:10071000896A8A6A8B6A8C6A9BEF03F000000A0E72
:10072000106299EF03F0896A8A6A8B6A8C6A9BEF80
:1007300003F000008FD734EC09F0000EF86E110EB4
:10074000F76E4A0EF66E0800F55017EC09F00B0034
:10075000F550FBE110C0E8FFE82A176EE842E89E7A
:10076000E842E89E175E17C0E8FF17C011F0150DAC
:1007700011C0E8FF300F17EC09F03A0E17EC09F042
:10078000200E17EC09F0F3CF21F0000E212620C037
:10079000AAFF21C0A9FFA69EA69CA680A8CF18F0FC
:1007A000212A20C0AAFF21C0A9FFA69EA69CA68040
:1007B000A8CF19F0212A41EC07F0F3CF21F04EEC3D
:1007C00009F0F3CF21F0F6EC07F02BEC07F0030E65
:1007D0001062F1EF03F0896A8A6A8B6A8C6AFEEF15
:1007E00003F000000D0E1062FCEF03F0896A8A6AC4
:1007F0008B6A8C6A0BEF03F00000E7D734EC09F04A
:10080000000EF86E110EF76E240EF66E0800F5500D
:1008100017EC09F00B00F550FBE141EC07F04EEC52
:1008200009F08AEC07F02BEC07F00D0E10621FEFB9
:1008300004F0896A8A6A8B6A8C6A0BEF03F0000005
:10084000F2D7386A34EC09F0000EF86E110EF76E2C
:100850007A0EF66E0800F55017EC09F00B00F55013
:10086000FBE14EEC09F0000EF86E110EF76E880EEB
:10087000F66E0800F55017EC09F00B00F550FBE19F
:10088000F9CF29F0FACF2AF0FBCF2BF02BEC07F0B1
:100890000D0E106252EF04F0896A8A6A8B6A8C6AC4
:1008A000F3EF00F000000E0E10625DEF04F0896AB5
:1008B0008A6A8B6A8C6A5FEF04F00000E7D72868C9
:1008C00034EC09F0000EF86E110EF76E920EF66E13
:1008D0000800F55017EC09F00B00F550FBE17BEC3C
:1008E00006F0286AF3EF00F02DC0E8FF300F20C0BB
:1008F000AAFF21C0A9FFE8CFA8FFA6B2FED7A69EF7
:10090000A69CA684F29EA198550EA76EAA0EA76E6D
:10091000A682A6B2FED7F28EA694212A2EC0E8FFA8
:10092000300F20C0AAFF21C0A9FFE8CFA8FFA6B2C0
:10093000FED7A69EA69CA684F29EA198550EA76EF1
:10094000AA0EA76EA682A6B2FED7F28EA694212A80
:100950002FC0E8FF300F20C0AAFF21C0A9FFE8CFB9
:10096000A8FFA6B2FED7A69EA69CA684F29EA1983A
:10097000550EA76EAA0EA76EA682A6B2FED7F28E5D
:10098000A694212A30C0E8FF300F20C0AAFF21C062
:10099000A9FFE8CFA8FFA6B2FED7A69EA69CA68474
:1009A000F29EA198550EA76EAA0EA76EA682A6B2B9
:1009B000FED7F28EA694212A37C0E8FF300F20C060
:1009C000AAFF21C0A9FFE8CFA8FFA6B2FED7A69E26
:1009D000A69CA684F29EA198550EA76EAA0EA76E9D
:1009E000A682A6B2FED7F28EA694212A000E206E11
:1009F000A80E216E000E236EDC0E246E166A156A98
:100A0000152A20C0AAFF21C0A9FFA69EA69CA680E9
:100A1000A8CF22F0150E212620C0AAFF21C0A9FFD1
:100A200022C0A8FFA6B2FED7A69EA69CA684F29ED0
:100A3000A198550EA76EAA0EA76EA682A6B2FED7E3
:100A4000F28EA694140E215E150E156200EF05F0CD
:100A50002A0E215EDC0E246E156A162A090E166215
:100A600000EF05F012008298829694889486E2EC5A
:100A700009F01200020E606EA6EC09F062C0E8FFF9
:100A8000D7EC09F0020E606EA6EC09F062C0E8FF38
:100A9000D7EC09F0D9EC06F0010E606EA6EC09F077
:100AA00062C0E8FFD7EC09F0D9EC06F0060E606EE4
:100AB000A6EC09F062C0E8FFD7EC09F0D9EC06F02B
:100AC000050E606EA6EC09F062C0E8FFD7EC09F0F5
:100AD000D9EC06F0040E606EA6EC09F062C0E8FFE7
:100AE000D7EC09F0D9EC06F012001838176E0F0E8B
:100AF000171617C0E8FF300F20C0AAFF21C0A9FFBA
:100B0000E8CFA8FFA6B2FED7A69EA69CA684F29E1A
:100B1000A198550EA76EAA0EA76EA682A6B2FED702
:100B2000F28EA694212A18C017F00F0E171617C0C0
:100B3000E8FF300F20C0AAFF21C0A9FFE8CFA8FF1F
:100B4000A6B2FED7A69EA69CA684F29EA198550E9C
:100B5000A76EAA0EA76EA682A6B2FED7F28EA694A4
:100B6000212A1938176E0F0E171617C0E8FF300F1D
:100B700020C0AAFF21C0A9FFE8CFA8FFA6B2FED7D8
:100B8000A69EA69CA684F29EA198550EA76EAA0EBC
:100B9000A76EA682A6B2FED7F28EA694212A1200D4
:100BA000020E606EA6EC09F062C0E8FFD7EC09F017
:100BB00063C0E8FF17EC09F064C0E8FF17EC09F028
:100BC000680E17EC09F0010E606EA6EC09F062C029
:100BD000E8FFD7EC09F063C0E8FF17EC09F064C048
:100BE000E8FF17EC09F0000E606EA6EC09F062C099
:100BF000E8FFD7EC09F063C0E8FF17EC09F064C028
:100C0000E8FF17EC09F0200E17EC09F0060E606EF5
:100C1000A6EC09F062C0E8FFD7EC09F063C0E8FF7A
:100C200017EC09F064C0E8FF17EC09F02F0E17EC81
:100C300009F0050E606EA6EC09F062C0E8FFD7EC83
:100C400009F063C0E8FF17EC09F064C0E8FF17EC97
:100C500009F02F0E17EC09F0040E606EA6EC09F0F7
:100C600062C0E8FFD7EC09F063C0E8FF17EC09F0B9
:100C700064C0E8FF17EC09F01200616A060E606EAE
:100C800084EC09F0602EFCD784EC09F0000E606E55
:100C9000800E616E84EC09F0060E606E170E616EB8
:100CA00084EC09F0050E606E030E616E84EC09F0B1
:100CB000040E606E040E616E84EC09F0020E606E2C
:100CC000120E616E84EC09F0010E606E480E616ECA
:100CD00084EC09F0000E606E000E616E84EC09F089
:100CE0001200948E949C0F0EAF6EAC6AAB6AAB8E02
:100CF000AB88AC8A1200020EB5EC06F00D0EB5EC16
:100D000006F0156A166A150E1502F3CF21F0166A61
:100D100020C0AAFF21C0A9FFA69EA69CA680A8CF9E
:100D2000E8FFB5EC06F0212A162A120E1662F0D75B
:100D3000BAEC06F0152A080E1562E5D74EEC09F05C
:100D4000000EF86E110EF76EA20EF66E0800F5504A
:100D500017EC09F00B00F550FBE1280E1A6ECFECF2
:100D600006F01A2EAFEF06F01200AD6EACA2B6EF91
:100D700006F012000A0EB5EC06F00D0EB5EC06F00A
:100D80001200780E1B6E1B2EC3EF06F0000012003F
:100D9000A40E1C6E1C2ECAEF06F000001200F90E05
:100DA0001D6EC8EC06F01D2ED1EF06F0C8EC06F063
:100DB000120020C0AAFF21C0A9FF63C0A8FFA6B2ED
:100DC000FED7A69EA69CA684F29EA198550EA76E5D
:100DD000AA0EA76EA682A6B2FED7F28EA694212AEC
:100DE00020C0AAFF21C0A9FF64C0A8FFA6B2FED7F9
:100DF000A69EA69CA684F29EA198550EA76EAA0E4A
:100E0000A76EA682A6B2FED7F28EA694212A120061
:100E1000206A216A1F68156A20C0AAFF21C0A9FFA5
:100E20001FC0A8FFA6B2FED7A69EA69CA684F29ECF
:100E3000A198550EA76EAA0EA76EA682A6B2FED7DF
:100E4000F28EA694152A212A150E15620CEF07F0D2
:100E5000206A216A120081A22BEF07F081380F0B64
:100E6000106E81B231EF07F012004EEC09F081A252
:100E700035EF07F081380F0B106E81B23DEF07F0B0
:100E8000120020C0AAFF21C0A9FFA69EA69CA68092
:100E9000A8CF22F0FF0E226260EF07F0000EF86E7E
:100EA000110EF76EB60EF66E0800F55017EC09F04D
:100EB0000B00F550FBE1FF0E226089EF07F01200F6
:100EC00020C0AAFF21C0A9FFA69EA69CA680A8CFED
:100ED000E8FF17EC09F0212A20C0AAFF21C0A9FFD2
:100EE000A69EA69CA680A8CFE8FF17EC09F0212AB1
:100EF00020C0AAFF21C0A9FFA69EA69CA680A8CFBD
:100F0000E8FF17EC09F0212A730E17EC09F04EECFC
:100F100009F0120020C0AAFF21C0A9FFA69EA69C2E
:100F2000A680A8CF22F0FF0E2262A8EF07F0000EE5
:100F3000F86E110EF76EB60EF66E0800F55017EC4F
:100F400009F00B00F550FBE1FF0E2260F5EF07F012
:100F5000610E17EC09F020C0AAFF21C0A9FFA69ED0
:100F6000A69CA680A8CF22F022C0E8FF17EC09F0CB
:100F7000212A200E17EC09F0620E17EC09F020C0B0
:100F8000AAFF21C0A9FFA69EA69CA680A8CF22F0FA
:100F900022C0E8FF17EC09F0212A200E17EC09F017
:100FA000630E17EC09F020C0AAFF21C0A9FFA69E7E
:100FB000A69CA680A8CF22F022C0E8FF17EC09F07B
:100FC000212A200E17EC09F0640E17EC09F020C05E
:100FD000AAFF21C0A9FFA69EA69CA680A8CF22F0AA
:100FE00022C0E8FF17EC09F0212A120020C0AAFF56
:100FF00021C0A9FFA69EA69CA680A8CF22F0FF0E26
:10100000226214EF08F0000EF86E110EF76EB60EA5
:10101000F66E0800F55017EC09F00B00F550FBE1F7
:10102000FF0E226044EF08F020C0AAFF21C0A9FFF4
:10103000A69EA69CA680A8CF22F022C0E8FF17ECAF
:1010400009F0212A20C0AAFF21C0A9FFA69EA69CC4
:10105000A680A8CF22F022C0E8FF17EC09F0212AD1
:10106000680E17EC09F045EC08F0200E17EC09F0BB
:1010700045EC08F02F0E17EC09F045EC08F02F0EA8
:1010800017EC09F045EC08F0120020C0AAFF21C0BF
:10109000A9FFA69EA69CA680A8CF22F022C0E8FFAA
:1010A00017EC09F0212A20C0AAFF21C0A9FFA69EA3
:1010B000A69CA680A8CF22F022C0E8FF17EC09F07A
:0410C000212A1200CF
:0C10C400626F744C00006D7220686C209C
:1010D000686700005374616E64696E6720627920EE
:1010E0002E2E2E202E2E2E205374616E64696E6774
:1010F000206279202E2E2E202E2E2E003C413E5393
:101100006F7274203C423E4C617374204C6F6720B8
:101110003C433E5065726D204C6F6773203C443EEB
:101120005043000054696D653A0031323A30302046
:10113000322F332F3134000053617665643A00005A
:101140004261636B203C303E00005065726D616E01
:10115000656E74204C6F677300003C313E202E2E6C
:101160002E203C393E00536F7274696E672E2E2E0E
:101170000000454E44203C2A3E00504320496E74F6
:101180006572666163650000426567696E203C2395
:101190003E005472616E7366657272696E672E2EC0
:1011A0002E00436F6D706C65746521005361766924
:1011B0006E672E2E2E004E2F410057EC09F057EC93
:1011C00009F057EC09F08394300E52EC09F03BEC37
:1011D00009F03BEC09F057EC09F03BEC09F0200E6C
:1011E00052EC09F03BEC09F057EC09F0280E29EC21
:1011F00009F057EC09F00C0E29EC09F057EC09F056
:10120000060E29EC09F057EC09F034EC09F0838460
:1012100012008C94716EF00B8C6E8C867138F00B12
:101220008C968C6E8C868C9668EC09F012008C94EF
:10123000726E72C0E8FFF00B040F836E8C867238FA
:10124000F00B8C96040F836E8C868C9662EC09F002
:101250001200686E52EC09F03BEC09F0683852EC71
:1012600009F03BEC09F012008394010E29EC09F01F
:1012700057EC09F01200838600008396230E696EF6
:10128000692E40EF09F012001B0E09EC09F057EC33
:1012900009F01200800E09EC09F01200C00E09ECF2
:1012A00009F01200F00B83120F0983161200500E82
:1012B000706E230E696E692E5BEF09F0702E59EF88
:1012C00009F01200230E736E732E64EF09F0120002
:1012D000C20E736E0A0E746E732E70EF09F0742EC8
:1012E0006CEF09F01200000EC76E280EC66E000EDD
:1012F000C56E180EC86EC68AA1969E96C790C58404
:10130000C5B4FED79E961200C580C6AE9E869EA628
:10131000FED79E96D00EC7B0FED7C96E9EA6FED74A
:101320009E9660C0E8FFC7B0FED7C96E9EA6FED7E6
:101330009E9661C0E8FFC7B0FED7C96E9EA6FED7D5
:101340009E96C584C5B4FED79E961200C580C6AED3
:101350009E869EA6FED79E96D00EC7B0FED7C96EBB
:101360009EA6FED79E9660C0E8FFC7B0FED7C96EA6
:101370009EA6FED79E96C5829EA6FED79E96D10EAD
:10138000C7B0FED7C96E9EA6FED79E96C5869EA6FE
:10139000FED79E96C9CFE8FF626EC58AC588C5B8DC
:1013A000CFEF09F0C584C5B4FED79E961200656ED6
:1013B00065380F0B300F636E65C0E8FF0F0B300F01
:1013C000646E1200C580C6AE9E869EA6FED79E960F
:1013D000D00EC7B0FED7C96E9EA6FED79E960E0E43
:1013E000C7B0FED7C96E9EA6FED79E96040EC7B0A4
:1013F000FED7C96E9EA6FED79E96C584C5B4FED7FD
:101400009E961200C580C6AE9E869EA6FED79E966C
:10141000520EC7B0FED7C96E9EA6FED79E9660C07C
:10142000E8FF8009C7B0FED7C96E9EA6FED79E967C
:10143000C5829EA6FED79E96530EC7B0FED7C96E34
:101440009EA6FED79E96C5869EA6FED79E96C9CF1F
:10145000E8FF616EC58AC588C5B82CEF0AF0C5845F
:10146000C5B4FED79E961200C580C6AE9E869EA6C7
:10147000FED79E96520EC7B0FED7C96E9EA6FED767
:101480009E9660C0E8FF8009C7B0FED7C96E9EA6D1
:10149000FED79E9661C0E8FFFF0BC7B0FED7C96EAE
:1014A0009EA6FED79E96C584C5B4FED79E96120012
:1014B000C580C6AE9E869EA6FED79E96100EC7B06D
:1014C000FED7C96E9EA6FED79E96C584C5B4FED72C
:1014D0009E961200C580C6AE9E869EA6FED79E969C
:1014E000C5829EA6FED79E96110EC7B0FED7C96EC6
:1014F0009EA6FED79E96C5869EA6FED79E96C9CF6F
:10150000E8FFC58AC588C5B883EF0AF0C584C5B4AD
:10151000FED79E961200C5BC1200C58AC598C5B8F4
:101520008FEF0AF01200C76A280EC66EC56A240E35
:10153000C86E948694881200C7B49CEF0AF01F0E00
:10154000C5140009F9E112009CEC0AF0C5801200F4
:101550009CEC0AF0C58212009CEC0AF0C5841200D3
:101560009CEC0AF0C96EC7B4B3EF0AF01200C5864E
:101570009CEC0AF0C5B6FED7C9501200C59AC588C2
:06158000C5B8FED7120001
:020000040030CA
:0100010002FC
:010002001FDE
:010003001EDE
:010005008179
:010006008178
:010008000FE8
:01000900C036
:01000A000FE6
:01000B00E014
:01000C000FE4
:01000D0040B2
:00000001FF
