:020000040000FA
:0400000094EF00F089
:020004000000FA
:040008002DEF00F0E8
:0800180072EF00F0FF0ED76E3D
:10002000FF0ED66E1200C30ED76E250ED66E1200CE
:10003000FF0E1E626DEF00F0D59EA8EC05F0F29267
:100040001E6A010E376EA7EC04F0FF6AFE6AFD6AB5
:10005000F090143813C0D8FF1000D8CF13F0146EEE
:10006000000E386264EC09F0000E38620EEC00F00D
:10007000FF0E386213EC00F0F2A46DEF00F019C02F
:1000800017F00F0E1716090E176250EF00F0100E42
:100090001926F00E1916A00E1960196A53EF00F018
:1000A000192A53EF00F00000000E19626DEF00F006
:1000B00018C017F00F0E1716090E176269EF00F03F
:1000C000100E1826F00E1816A00E1860186A6CEFA5
:1000D00000F0182A6CEF00F00000F294143813C0FE
:1000E000D8FF1000D8CF13F0146EF0A08FEF00F0FF
:1000F000FF0E1E628FEF00F081380F0B126E0C0E98
:1001000012628FEF00F0D59EA8EC05F01E6A010E7A
:10011000376EA7EC04F0FF6AFE6AFD6AF090F0907B
:10012000143813C0D8FF1000700ED36E000E926EFC
:10013000FF0E936E000E946E000E956E000E966E7E
:10014000000E896E000E8A6E000E8B6E000E8C6E95
:10015000000E8D6E000EC26EFDEC08F0280E29EC2C
:1001600009F00C0E29EC09F0010E29EC09F093ECD2
:1001700009F066EC05F0A4EC06F0D06AF26AF16AC8
:10018000F06AD08EF28EF28CF18AF28AF284F184D7
:10019000F086F09CF288F292D59ED59CD59AD5989F
:1001A000D596D594D582D580206A216A636A646A1F
:1001B0002C6A2D6A2E6A2F6A306A316A326AF30E0F
:1001C000936E54EC09F0000EF86E110EF76E120EDD
:1001D000F66E0800F55037EC09F00B00F550FBE126
:1001E0006EEC09F0000EF86E110EF76E180EF66E3A
:1001F0000800F55037EC09F00B00F550FBE1280E34
:100200001A6E02EC07F01A2E01EF01F0000E846E58
:10021000000E806E386854EC09F0000EF86E110E76
:10022000F76E220EF66E0800F55037EC09F00B0061
:10023000F550FBE16EEC09F0000EF86E110EF76E52
:100240004A0EF66E0800F55037EC09F00B00F55039
:10025000FBE1FF0ED76EFF0ED66ED58E5EEC07F07B
:10026000000E10623AEF01F0896A8A6A8B6A8C6A22
:10027000DBEF01F00000010E106245EF01F0896A2A
:100280008A6A8B6A8C6ABDEF01F00000020E106270
:1002900050EF01F0896A8A6A8B6A8C6A89EF01F0F3
:1002A0000000040E10625BEF01F0896A8A6A8B6AB3
:1002B0008C6AA3EF01F00000030E106266EF01F0FC
:1002C000896A8A6A8B6A8C6AEBEF01F00000070E7C
:1002D000106271EF01F0896A8A6A8B6A8C6AE7EFB3
:1002E00002F000000B0E10627CEF01F0896A8A6A4E
:1002F0008B6A8C6A3EEF03F000000F0E106287EFEE
:1003000001F0896A8A6A8B6A8C6A54EF04F00000F3
:10031000A5D7386A000E846E0A0E1A6E02EC07F03A
:100320001A2E8EEF01F0010E846E5EEC07F00D0EBA
:100330001062A1EF01F0896A8A6A8B6A8C6A06EF03
:1003400001F00000F0D7386A000E846E0A0E1A6EB3
:1003500002EC07F01A2EA8EF01F0020E846E5EEC9C
:1003600007F00D0E1062BBEF01F0896A8A6A8B6A92
:100370008C6A06EF01F00000F0D7386A326A140E7A
:100380001A6E02EC07F01A2EC1EF01F0230E806EF8
:1003900088EC09F0260E806E88EC09F02C0E806E39
:1003A00088EC09F0290E806E88EC09F0322A780E6C
:1003B0003262ECD7E2D7386A280E1A6E02EC07F0E8
:1003C0001A2EDEEF01F054EC09F0F7EC0AF0300FD2
:1003D00037EC09F0F1D7D59E386A3BEC07F06DECAD
:1003E00005F01E6854EC09F0000EF86E110EF76E61
:1003F000A60EF66E0800F55037EC09F00B00F5502C
:10040000FBE16EEC09F0C30ED76E250ED66ED58ECD
:10041000186A196A2D6A2E6A2F6A306A316A010ECB
:10042000356E346A14EF02F0326A230E806E88EC67
:1004300009F0260E806E88EC09F02C0E806E88EC98
:1004400009F0290E806E88EC09F0322A780E3262AB
:10045000ECD700D0F7EC0AF02C6E050E2C5C0EE009
:10046000312A040E2C5C0AE0030E2C5C15E0020E0F
:100470002C5C20E0010E2C5C2BE0ECD7302A040E23
:10048000366E355C4DE0030E355C30E0020E355CB7
:100490002DE0010E355C2AE02F2A030E366E355C06
:1004A0003FE0040E355C2FE0020E355C1FE0010ECC
:1004B000355C1CE02E2A020E366E355C31E0040EEF
:1004C000355C21E0030E355C1EE0010E355C0EE06C
:1004D0002D2A010E366E355C23E0040E355C13E0E8
:1004E000030E355C10E0020E355C0DE0336A000E41
:1004F000846E010E846E33C01AF002EC07F01A2EDF
:100500007DEF02F00DD0336A000E846E020E846E11
:10051000240E1A6E02EC07F01A2E8AEF02F000D0B9
:1005200036C035F0000E846E000E1E62D4EF02F06D
:10053000376A090E315C29E01838176E0F0E17164E
:10054000000E176414EF02F0020E376E18C017F099
:100550000F0E1716050E175C18E0030E316414EF2A
:1005600002F0000E306414EF02F0000E2F6414EF5E
:1005700002F0000E2E6414EF02F0000E2D6414EF52
:1005800002F0030E376EC5EF02F0D59EA8EC05F021
:100590001E6A1E0E330E040E355CB5E0030E355C8C
:1005A000B2E0020E355CAFE054EC09F0000EF86EDC
:1005B000110EF76EEC0EF66E0800F55037EC09F0F0
:1005C0000B00F550FBE1A7EC04F0E7EF02F0386A0E
:1005D00054EC09F0000EF86E110EF76E720EF66E06
:1005E0000800F55037EC09F00B00F550FBE10A0E5E
:1005F000216E68EC07F06EEC09F00D0E216EB1EC87
:1006000007F05EEC07F0070E10620DEF03F0896A49
:100610008A6A8B6A8C6A1AEF03F000000D0E106272
:1006200018EF03F0896A8A6A8B6A8C6A06EF01F018
:100630000000E7D754EC09F0216A1DEC08F06EECDD
:1006400009F0000EF86E110EF76E800EF66E0800BF
:10065000F55037EC09F00B00F550FBE1206A216AF8
:100660005EEC07F00D0E10623CEF03F0896A8A6AB7
:100670008B6A8C6AE7EF02F00000C3D7386A54EC4B
:1006800009F0000EF86E110EF76E8A0EF66E080075
:10069000F55037EC09F00B00F550FBE16EEC09F07A
:1006A000000EF86E110EF76E9A0EF66E0800F550F9
:1006B00037EC09F00B00F550FBE15EEC07F00D0E96
:1006C000106269EF03F0896A8A6A8B6A8C6A06EFA6
:1006D00001F00000000E106274EF03F0896A8A6A6C
:1006E0008B6A8C6ACEEF03F00000010E10627FEF80
:1006F00003F0896A8A6A8B6A8C6ACEEF03F0000085
:10070000020E10628AEF03F0896A8A6A8B6A8C6A29
:10071000CEEF03F00000040E106295EF03F0896A3B
:100720008A6A8B6A8C6ACEEF03F00000050E1062B5
:10073000A0EF03F0896A8A6A8B6A8C6ACEEF03F0B5
:100740000000060E1062ABEF03F0896A8A6A8B6ABA
:100750008C6ACEEF03F00000080E1062B6EF03F0D3
:10076000896A8A6A8B6A8C6ACEEF03F00000090EF0
:100770001062C1EF03F0896A8A6A8B6A8C6ACEEFD5
:1007800003F000000A0E1062CCEF03F0896A8A6A57
:100790008B6A8C6ACEEF03F000008FD754EC09F01F
:1007A000000EF86E110EF76E8A0EF66E0800F55008
:1007B00037EC09F00B00F550FBE110C0E8FFE82A28
:1007C000176EE842E89EE842E89E175E17C0E8FF11
:1007D00017C011F0150D11C0E8FF300F37EC09F00C
:1007E0003A0E37EC09F0200E37EC09F0F3CF21F088
:1007F000000E212620C0AAFF21C0A9FFA69EA69C0C
:10080000A680A8CF18F0212A20C0AAFF21C0A9FFE6
:10081000A69EA69CA680A8CF19F0212A68EC07F016
:10082000F3CF21F06EEC09F0F3CF21F01DEC08F0CE
:100830005EEC07F0030E106224EF04F0896A8A6A06
:100840008B6A8C6A31EF04F000000D0E10622FEFFE
:1008500004F0896A8A6A8B6A8C6A3EEF03F00000B2
:10086000E7D754EC09F0000EF86E110EF76E720E19
:10087000F66E0800F55037EC09F00B00F550FBE17F
:1008800068EC07F06EEC09F0B1EC07F05EEC07F0F5
:100890000D0E106252EF04F0896A8A6A8B6A8C6AC4
:1008A0003EEF03F00000F2D7386A54EC09F0000E76
:1008B000F86E110EF76EBA0EF66E0800F55037ECB2
:1008C00009F00B00F550FBE16EEC09F0000EF86E3C
:1008D000110EF76EC80EF66E0800F55037EC09F0F1
:1008E0000B00F550FBE1F9CF29F0FACF2AF0FBCF4E
:1008F0002BF05EEC07F00D0E106285EF04F0896AB4
:100900008A6A8B6A8C6A06EF01F000000E0E106294
:1009100090EF04F0896A8A6A8B6A8C6A92EF04F01D
:100920000000E7D7286854EC09F0000EF86E110EAD
:10093000F76ED20EF66E0800F55037EC09F00B009A
:10094000F550FBE1AEEC06F0286A06EF01F02DC091
:10095000E8FF300F20C0AAFF21C0A9FFE8CFA8FF01
:10096000A6B2FED7A69EA69CA684F29EA198550E7E
:10097000A76EAA0EA76EA682A6B2FED7F28EA69486
:10098000212A2EC0E8FF300F20C0AAFF21C0A9FFF6
:10099000E8CFA8FFA6B2FED7A69EA69CA684F29E8C
:1009A000A198550EA76EAA0EA76EA682A6B2FED774
:1009B000F28EA694212A2FC0E8FF300F20C0AAFF94
:1009C00021C0A9FFE8CFA8FFA6B2FED7A69EA69C8D
:1009D000A684F29EA198550EA76EAA0EA76EA682B7
:1009E000A6B2FED7F28EA694212A30C0E8FF300FBF
:1009F00020C0AAFF21C0A9FFE8CFA8FFA6B2FED75A
:100A0000A69EA69CA684F29EA198550EA76EAA0E3D
:100A1000A76EA682A6B2FED7F28EA694212A37C070
:100A2000E8FF300F20C0AAFF21C0A9FFE8CFA8FF30
:100A3000A6B2FED7A69EA69CA684F29EA198550EAD
:100A4000A76EAA0EA76EA682A6B2FED7F28EA694B5
:100A5000212A000E206EA80E216E000E236EDC0EE1
:100A6000246E166A156A152A20C0AAFF21C0A9FFA4
:100A7000A69EA69CA680A8CF22F0150E212620C0F7
:100A8000AAFF21C0A9FF22C0A8FFA6B2FED7A69E3A
:100A9000A69CA684F29EA198550EA76EAA0EA76EDC
:100AA000A682A6B2FED7F28EA694140E215E150E73
:100AB000156233EF05F02A0E215EDC0E246E156AF6
:100AC000162A090E166233EF05F0120082988296FC
:100AD0009488948637EC0AF01200020E606EE1EC06
:100AE00009F062C0E8FF2CEC0AF0020E606EE1EC47
:100AF00009F062C0E8FF2CEC0AF00CEC07F0010EE4
:100B0000606EE1EC09F062C0E8FF2CEC0AF00CEC3E
:100B100007F0060E606EE1EC09F062C0E8FF2CEC15
:100B20000AF00CEC07F0050E606EE1EC09F062C013
:100B3000E8FF2CEC0AF00CEC07F0040E606EE1EC20
:100B400009F062C0E8FF2CEC0AF00CEC07F0120090
:100B50001838176E0F0E171617C0E8FF300F20C099
:100B6000AAFF21C0A9FFE8CFA8FFA6B2FED7A69E84
:100B7000A69CA684F29EA198550EA76EAA0EA76EFB
:100B8000A682A6B2FED7F28EA694212A18C017F02C
:100B90000F0E171617C0E8FF300F20C0AAFF21C0A4
:100BA000A9FFE8CFA8FFA6B2FED7A69EA69CA68462
:100BB000F29EA198550EA76EAA0EA76EA682A6B2A7
:100BC000FED7F28EA694212A1938176E0F0E17162B
:100BD00017C0E8FF300F20C0AAFF21C0A9FFE8CF4F
:100BE000A8FFA6B2FED7A69EA69CA684F29EA198B8
:100BF000550EA76EAA0EA76EA682A6B2FED7F28EDB
:100C0000A694212A1200020E606EE1EC09F062C087
:100C1000E8FF2CEC0AF063C0E8FF37EC09F064C091
:100C2000E8FF37EC09F0680E37EC09F0010E606E52
:100C3000E1EC09F062C0E8FF2CEC0AF063C0E8FFC9
:100C400037EC09F064C0E8FF37EC09F0000E606E85
:100C5000E1EC09F062C0E8FF2CEC0AF063C0E8FFA9
:100C600037EC09F064C0E8FF37EC09F0200E37ECF0
:100C700009F0060E606EE1EC09F062C0E8FF2CECB2
:100C80000AF063C0E8FF37EC09F064C0E8FF37EC16
:100C900009F02F0E37EC09F0050E606EE1EC09F05B
:100CA00062C0E8FF2CEC0AF063C0E8FF37EC09F003
:100CB00064C0E8FF37EC09F02F0E37EC09F0040EA2
:100CC000606EE1EC09F062C0E8FF2CEC0AF063C052
:100CD000E8FF37EC09F064C0E8FF37EC09F01200D8
:100CE000616A060E606EA4EC09F0602EFCD7A4ECDD
:100CF00009F0000E606E800E616EA4EC09F0060E25
:100D0000606E170E616EA4EC09F0050E606E030EA6
:100D1000616EA4EC09F0040E606E040E616EA4EC2A
:100D200009F0020E606E120E616EA4EC09F0010E65
:100D3000606E480E616EA4EC09F0000E606E000E4D
:100D4000616EA4EC09F01200948E949C0F0EAF6EAD
:100D5000AC6AAB6AAB8EAB88AC8A1200020EE8ECD0
:100D600006F00D0EE8EC06F0156A166A150E15026F
:100D7000F3CF21F0166A20C0AAFF21C0A9FFA69ECA
:100D8000A69CA680A8CFE8FFE8EC06F0212A162A48
:100D9000120E1662F0D7EDEC06F0152A080E156259
:100DA000E5D76EEC09F0000EF86E110EF76EE20E4C
:100DB000F66E0800F55037EC09F00B00F550FBE13A
:100DC000280E1A6E02EC07F01A2EE2EF06F012005F
:100DD000AD6EACA2E9EF06F012000A0EE8EC06F0E8
:100DE0000D0EE8EC06F01200780E1B6E1B2EF6EFCF
:100DF00006F000001200A40E1C6E1C2EFDEF06F083
:100E000000001200F90E1D6EFBEC06F01D2E04EF23
:100E100007F0FBEC06F0120020C0AAFF21C0A9FFDA
:100E200063C0A8FFA6B2FED7A69EA69CA684F29E8B
:100E3000A198550EA76EAA0EA76EA682A6B2FED7DF
:100E4000F28EA694212A20C0AAFF21C0A9FF64C067
:100E5000A8FFA6B2FED7A69EA69CA684F29EA19845
:100E6000550EA76EAA0EA76EA682A6B2FED7F28E68
:100E7000A694212A1200206A216A1F68156A20C0E0
:100E8000AAFF21C0A9FF1FC0A8FFA6B2FED7A69E39
:100E9000A69CA684F29EA198550EA76EAA0EA76ED8
:100EA000A682A6B2FED7F28EA694152A212A150E86
:100EB00015623FEF07F0206A216A120081A25EEFFF
:100EC00007F081380F0B106E81B264EF07F012004B
:100ED00020C0AAFF21C0A9FFA69EA69CA680A8CFDD
:100EE00022F0FF0E226287EF07F0000EF86E110E5F
:100EF000F76EF60EF66E0800F55037EC09F00B00B1
:100F0000F550FBE1FF0E2260B0EF07F0120020C0A9
:100F1000AAFF21C0A9FFA69EA69CA680A8CFE8FF95
:100F200037EC09F0212A20C0AAFF21C0A9FFA69E04
:100F3000A69CA680A8CFE8FF37EC09F0212A20C0A4
:100F4000AAFF21C0A9FFA69EA69CA680A8CFE8FF65
:100F500037EC09F0212A730E37EC09F06EEC09F03A
:100F6000120020C0AAFF21C0A9FFA69EA69CA680B1
:100F7000A8CF22F0FF0E2262CFEF07F0000EF86E2E
:100F8000110EF76EF60EF66E0800F55037EC09F00C
:100F90000B00F550FBE1FF0E22601CEF08F0610E24
:100FA00037EC09F020C0AAFF21C0A9FFA69EA69C8D
:100FB000A680A8CF22F022C0E8FF37EC09F0212A52
:100FC000200E37EC09F0620E37EC09F020C0AAFFC2
:100FD00021C0A9FFA69EA69CA680A8CF22F022C071
:100FE000E8FF37EC09F0212A200E37EC09F0630EF8
:100FF00037EC09F020C0AAFF21C0A9FFA69EA69C3D
:10100000A680A8CF22F022C0E8FF37EC09F0212A01
:10101000200E37EC09F0640E37EC09F020C0AAFF6F
:1010200021C0A9FFA69EA69CA680A8CF22F022C020
:10103000E8FF37EC09F0212A120020C0AAFF21C0E6
:10104000A9FFA69EA69CA680A8CF22F0FF0E226232
:101050003BEF08F0000EF86E110EF76EF60EF66E0E
:101060000800F55037EC09F00B00F550FBE1FF0EDE
:1010700022606BEF08F020C0AAFF21C0A9FFA69E46
:10108000A69CA680A8CF22F022C0E8FF37EC09F08A
:10109000212A20C0AAFF21C0A9FFA69EA69CA68047
:1010A000A8CF22F022C0E8FF37EC09F0212A680E11
:1010B00037EC09F06CEC08F0200E37EC09F06CEC22
:1010C00008F02F0E37EC09F06CEC08F02F0E37EC1F
:1010D00009F06CEC08F0120020C0AAFF21C0A9FFA3
:1010E000A69EA69CA680A8CF22F022C0E8FF37ECDF
:1010F00009F0212A20C0AAFF21C0A9FFA69EA69C14
:10110000A680A8CF22F022C0E8FF37EC09F0212A00
:021110001200CB
:0E111200626F744C00006D7220686C2068677C
:1011200000005374616E64696E67206279202E2E10
:101130002E202E2E2E205374616E64696E672062FD
:1011400079202E2E2E202E2E2E003C413E536F72E3
:1011500074203C423E4C617374204C6F67203C43CA
:101160003E5065726D204C6F6773203C443E504387
:10117000000054696D653A0053617665643A000079
:101180004261636B203C303E00005065726D616EC1
:10119000656E74204C6F677300003C313E202E2E2C
:1011A0002E203C393E00536F7274696E672E2E2ECE
:1011B0000000454E44203C2A3E00504320496E74B6
:1011C0006572666163650000426567696E203C2355
:1011D0003E005472616E7366657272696E672E2E80
:1011E0002E00436F6D706C657465210053617669E4
:1011F0006E672E2E2E004E2F410077EC09F077EC13
:1012000009F077EC09F08394300E72EC09F05BEC96
:1012100009F05BEC09F077EC09F05BEC09F0200ECB
:1012200072EC09F05BEC09F077EC09F0280E49EC60
:1012300009F077EC09F00C0E49EC09F077EC09F0B5
:10124000060E49EC09F077EC09F054EC09F08384C0
:1012500012008C94716EF00B8C6E8C867138F00BD2
:101260008C968C6E8C868C9688EC09F012008C948F
:10127000726E72C0E8FFF00B040F836E8C867238BA
:10128000F00B8C96040F836E8C868C9682EC09F0A2
:101290001200686E72EC09F05BEC09F0683872ECD1
:1012A00009F05BEC09F012008394010E49EC09F09F
:1012B00077EC09F01200838600008396230E696E96
:1012C000692E60EF09F012001B0E29EC09F077EC93
:1012D00009F01200800E29EC09F01200C00E29EC72
:1012E00009F01200F00B83120F0983161200500E42
:1012F000706E230E696E692E7BEF09F0702E79EF08
:1013000009F01200230E736E732E84EF09F01200A1
:10131000C20E736E0A0E746E732E90EF09F0742E67
:101320008CEF09F01200000EC76E280EC66E000E7C
:10133000C56E180EC86EC68AA1969E96C790C584C3
:10134000C5B4FED79E961200C580C6AE9E869EA6E8
:10135000FED79E96D00EC7B0FED7C96E9EA6FED70A
:101360009E96C5BCCCEF09F060C0E8FFC7B0FED7C1
:10137000C96E9EA6FED79E96C5BCD1EF09F061C08E
:10138000E8FFC7B0FED7C96E9EA6FED79E96C5BC25
:10139000D7EF09F0DCEF09F00000010E896EDCEFF9
:1013A00009F00000020E896E8D80DCEF09F000006C
:1013B000040E896EDCEF09F0C584C5B4FED79E9695
:1013C0001200C580C6AE9E869EA6FED79E96D00E03
:1013D000C7B0FED7C96E9EA6FED79E96C5BC18EFB5
:1013E0000AF060C0E8FFC7B0FED7C96E9EA6FED760
:1013F0009E96C5BC1DEF0AF0C5829EA6FED79E969E
:10140000D10EC7B0FED7C96E9EA6FED79E96C5BCAC
:1014100022EF0AF0C5869EA6FED79E96C9CFE8FFAA
:10142000626EC58AC588C5B813EF0AF027EF0AF0C7
:101430000000030E896E27EF0AF00000070E896E88
:1014400027EF0AF000000F0E896E27EF0AF0C5841F
:10145000C5B4FED79E961200656E65380F0B300F2F
:10146000636E65C0E8FF0F0B300F646E1200C5801D
:10147000C6AE9E869EA6FED79E96D00EC7B0FED75D
:10148000C96E9EA6FED79E960E0EC7B0FED7C96E39
:101490009EA6FED79E96040EC7B0FED7C96E9EA626
:1014A000FED79E96C584C5B4FED79E961200C58011
:1014B000C6AE9E869EA6FED79E96520EC7B0FED79B
:1014C000C96E9EA6FED79E96C5BC8FEF0AF060C07F
:1014D000E8FF8009C7B0FED7C96E9EA6FED79E96CC
:1014E000C5BC94EF0AF0C5829EA6FED79E96530E09
:1014F000C7B0FED7C96E9EA6FED79E96C5BC99EF13
:101500000AF0C5869EA6FED79E96C9CFE8FF616EFB
:10151000C58AC588C5B88AEF0AF09EEF0AF00000B8
:10152000030E896E9EEF0AF00000050E896E9EEF95
:101530000AF00000070E896E9EEF0AF0C584C5B45C
:10154000FED79E961200C580C6AE9E869EA6FED78A
:101550009E96520EC7B0FED7C96E9EA6FED79E9627
:10156000C5BCCDEF0AF060C0E8FF8009C7B0FED768
:10157000C96E9EA6FED79E96C5BCD2EF0AF061C08A
:10158000E8FFFF0BC7B0FED7C96E9EA6FED79E969A
:10159000C5BCD8EF0AF0DDEF0AF000000D0E896E31
:1015A000DDEF0AF000000F0E896E8D80DDEF0AF08E
:1015B0000000090E896EDDEF0AF0C584C5B4FED7C0
:1015C0009E961200C580C6AE9E869EA6FED79E96AB
:1015D000100EC7B0FED7C96E9EA6FED79E96C5BC9C
:1015E000CDEF0AF0C584C5B4FED79E961200C58023
:1015F000C6AE9E869EA6FED79E96C5829EA6FED7A6
:101600009E96110EC7B0FED7C96E9EA6FED79E96B7
:10161000C5869EA6FED79E96C9CFE8FFC58AC58817
:10162000C5B810EF0BF0C584C5B4FED79E96120066
:10163000C5BC1200C58AC598C5B81CEF0BF01200D6
:10164000C76A280EC66EC56A240EC86E9486948832
:101650001200C7B429EF0BF01F0EC5140009F9E101
:10166000120029EC0BF0C580120029EC0BF0C582AA
:10167000120029EC0BF0C584120029EC0BF0C96EA6
:10168000C7B440EF0BF01200C58629EC0BF0C5B6CD
:10169000FED7C9501200C59AC588C5B8FED712003A
:020000040030CA
:0100010002FC
:010002001FDE
:010003001EDE
:010005008179
:010006008178
:010008000FE8
:01000900C036
:01000A000FE6
:01000B00E014
:01000C000FE4
:01000D0040B2
:00000001FF
