:020000040000FA
:0400000098EF00F085
:020004000000FA
:040008002DEF00F0E8
:0800180072EF00F0FF0E1E6202
:100020006DEF00F0D59E7AEC05F0F2921E6A010E9B
:10003000376E79EC04F0FF6AFE6AFD6AF0901438BE
:1000400013C0D8FF1000FF0ED76EFF0ED66E120041
:10005000C30ED76E250ED66E1200D8CF13F0146ED5
:10006000000E386249EC09F0000E386223EC00F013
:10007000FF0E386228EC00F0F2A46DEF00F019C01A
:1000800017F00F0E1716090E176250EF00F0100E42
:100090001926F00E1916A00E1960196A53EF00F018
:1000A000192A53EF00F00000000E19626DEF00F006
:1000B00018C017F00F0E1716090E176269EF00F03F
:1000C000100E1826F00E1816A00E1860186A6CEFA5
:1000D00000F0182A6CEF00F00000F294143813C0FE
:1000E000D8FF1000D8CF13F0146EF0A093EF00F0FB
:1000F000FF0E1E6293EF00F081380F0B126E0C0E94
:10010000126293EF00F0D59E7AEC05F01E6A010EA4
:10011000376E79EC04F0FF6AFE6AFD6AF0901438DD
:1001200013C0D8FF1000F090143813C0D8FF10008F
:10013000700ED36E000E926EFF0E936E000E946ED4
:10014000000E956E000E966E000E896E000E8A6E81
:10015000000E8B6E000E8C6E000E8D6E000EC26E49
:10016000E2EC08F0280E0EEC09F00C0E0EEC09F093
:10017000010E0EEC09F078EC09F038EC05F076ECA5
:1001800006F0D06AF26AF16AF06AD08EF28EF28CD2
:10019000F18AF28AF284F184F086F09CD59ED59C97
:1001A000D59AD598D596D594D582D580206A216ADE
:1001B000636A646A2C6A2D6A2E6A2F6A306A316A11
:1001C000326AF20E936E39EC09F0000EF86E100EE2
:1001D000F76ECE0EF66E0800F5501CEC09F00B0021
:1001E000F550FBE153EC09F0000EF86E100EF76EBF
:1001F000D40EF66E0800F5501CEC09F00B00F5501B
:10020000FBE1280E1A6ED4EC06F01A2E03EF01F073
:10021000000E846E000E806E386839EC09F0000E16
:10022000F86E100EF76EDE0EF66E0800F5501CEC40
:1002300009F00B00F550FBE153EC09F0000EF86EED
:10024000110EF76E060EF66E0800F5501CEC09F064
:100250000B00F550FBE1FF0ED76EFF0ED66ED58E6C
:100260003AEC07F0000E10623CEF01F0896A8A6AEE
:100270008B6A8C6ACBEF01F00000010E106247EF31
:1002800001F0896A8A6A8B6A8C6A75EF01F0000056
:10029000030E106252EF01F0896A8A6A8B6A8C6AD7
:1002A000E5EF01F00000070E10625DEF01F0896AD2
:1002B0008A6A8B6A8C6AB9EF02F000000B0E10623A
:1002C00068EF01F0896A8A6A8B6A8C6A10EF03F022
:1002D00000000F0E106273EF01F0896A8A6A8B6A60
:1002E0008C6A26EF04F00000BBD7386A326A140E1D
:1002F0001A6ED4EC06F01A2E79EF01F0230E806E00
:100300006DEC09F06DEC09F06DEC09F06DEC09F0A5
:100310006DEC09F06DEC09F06DEC09F06DEC09F095
:10032000260E806E6DEC09F06DEC09F06DEC09F0B5
:100330006DEC09F06DEC09F06DEC09F06DEC09F075
:100340006DEC09F02C0E806E6DEC09F06DEC09F08F
:100350006DEC09F06DEC09F06DEC09F06DEC09F055
:100360006DEC09F06DEC09F0290E806E6DEC09F072
:100370006DEC09F06DEC09F06DEC09F06DEC09F035
:100380006DEC09F06DEC09F06DEC09F0322A020E0B
:100390003262B4D7AAD739EC09F0386A010E846EFC
:1003A0003C0E1A6ED4EC06F01A2ED2EF01F06FEC70
:1003B0000AF02C6E300F1CEC09F03C0E1A6ED4ECD7
:1003C00006F01A2EDFEF01F0E6D7D59E386A0DEC65
:1003D00007F03FEC05F01E6839EC09F0000EF86EEE
:1003E000110EF76E700EF66E0800F5501CEC09F059
:1003F0000B00F550FBE153EC09F0C30ED76E250E50
:10040000D66ED58E186A196A2D6A2E6A2F6A306ADE
:10041000316A010E356E346A010E846E52EF02F0BD
:10042000000E336E1A0E346E0ED0010E336E190E9E
:10043000346E09D0326A000E140E1A6ED4EC06F037
:100440001A2E1EEF02F0230E806E030E1A6ED4ECED
:1004500006F01A2E27EF02F0322A34C0E8FF190EF8
:10046000325C20E0260E806E030E1A6ED4EC06F08D
:100470001A2E36EF02F0322A2C0E806E030E1A6E00
:10048000D4EC06F01A2E40EF02F0322A290E806ECC
:10049000030E1A6ED4EC06F01A2E4AEF02F0322A3E
:1004A00023EF02F03C0E1A6ED4EC06F01A2E54EF35
:1004B00002F06FEC0AF02C6E050E2C5CF3E0312A92
:1004C000040E2C5C0AE0030E2C5C09E0020E2C5C8E
:1004D00008E0010E2C5C07E008D0302A06D02F2A55
:1004E00004D02E2A02D02D2A00D01838176E0F0EF5
:1004F0001716000E176452EF02F0020E376E18C086
:1005000017F00F0E1716050E175C1CE0376A0A0E5F
:10051000315C18E0030E316452EF02F0000E3064DB
:1005200052EF02F0000E2F6452EF02F0000E2E6424
:1005300052EF02F0000E2D6452EF02F0030E376E00
:10054000A2EF02F0D59E7AEC05F01E6A39EC09F0B4
:10055000000EF86E110EF76EB60EF66E0800F5502E
:100560001CEC09F00B00F550FBE179EC04F0B9EF5D
:1005700002F0386A39EC09F0000EF86E110EF76ED1
:100580002E0EF66E0800F5501CEC09F00B00F5502D
:10059000FBE10A0E216E46EC07F053EC09F00D0E5C
:1005A000216E8FEC07F030EC07F0070E1062DFEFE2
:1005B00002F0896A8A6A8B6A8C6AECEF02F00000AA
:1005C0000D0E1062EAEF02F0896A8A6A8B6A8C6A01
:1005D00008EF01F00000E7D739EC09F0216AFBECE5
:1005E00007F053EC09F0000EF86E110EF76E4A0E8C
:1005F000F66E0800F5501CEC09F00B00F550FBE11D
:10060000206A216A30EC07F00D0E10620EEF03F045
:10061000896A8A6A8B6A8C6AB9EF02F00000C3D7D4
:10062000386A39EC09F0000EF86E110EF76E540EB0
:10063000F66E0800F5501CEC09F00B00F550FBE1DC
:1006400053EC09F0000EF86E110EF76E640EF66EA4
:100650000800F5501CEC09F00B00F550FBE130EC04
:1006600007F00D0E10623BEF03F0896A8A6A8B6A0D
:100670008C6A08EF01F00000000E106246EF03F0F4
:10068000896A8A6A8B6A8C6AA0EF03F00000010E07
:10069000106251EF03F0896A8A6A8B6A8C6AA0EF54
:1006A00003F00000020E10625CEF03F0896A8A6AB0
:1006B0008B6A8C6AA0EF03F00000040E106267EFF3
:1006C00003F0896A8A6A8B6A8C6AA0EF03F00000E3
:1006D000050E106272EF03F0896A8A6A8B6A8C6A6F
:1006E000A0EF03F00000060E10627DEF03F0896AB0
:1006F0008A6A8B6A8C6AA0EF03F00000080E106211
:1007000088EF03F0896A8A6A8B6A8C6AA0EF03F02B
:100710000000090E106293EF03F0896A8A6A8B6AFF
:100720008C6AA0EF03F000000A0E10629EEF03F047
:10073000896A8A6A8B6A8C6AA0EF03F000008FD7FF
:1007400039EC09F0000EF86E110EF76E540EF66ECD
:100750000800F5501CEC09F00B00F550FBE110C04F
:10076000E8FFE82A176EE842E89EE842E89E175E36
:1007700017C0E8FF17C011F0150D11C0E8FF300FCA
:100780001CEC09F03A0E1CEC09F0200E1CEC09F0F0
:10079000F3CF21F0000E212620C0AAFF21C0A9FF1F
:1007A000A69EA69CA680A8CF18F0212A20C0AAFF4A
:1007B00021C0A9FFA69EA69CA680A8CF19F0212A39
:1007C00046EC07F0F3CF21F053EC09F0F3CF21F022
:1007D000FBEC07F030EC07F0030E1062F6EF03F0CD
:1007E000896A8A6A8B6A8C6A03EF04F000000D0E36
:1007F000106201EF04F0896A8A6A8B6A8C6A10EFD2
:1008000003F00000E7D739EC09F0000EF86E110E86
:10081000F76E2E0EF66E0800F5501CEC09F00B007A
:10082000F550FBE146EC07F053EC09F08FEC07F0D4
:1008300030EC07F00D0E106224EF04F0896A8A6A2A
:100840008B6A8C6A10EF03F00000F2D7386A39EC3B
:1008500009F0000EF86E110EF76E840EF66E0800A9
:10086000F5501CEC09F00B00F550FBE153EC09F0DE
:10087000000EF86E110EF76E920EF66E0800F5502F
:100880001CEC09F00B00F550FBE1F9CF29F0FACF91
:100890002AF0FBCF2BF030EC07F00D0E106257EF73
:1008A00004F0896A8A6A8B6A8C6A08EF01F000009A
:1008B0000E0E106262EF04F0896A8A6A8B6A8C6A93
:1008C00064EF04F00000E7D7286839EC09F0000E67
:1008D000F86E110EF76E9C0EF66E0800F5501CECCB
:1008E00009F00B00F550FBE180EC06F0286A08EFF8
:1008F00001F02DC0E8FF300F20C0AAFF21C0A9FFE2
:10090000E8CFA8FFA6B2FED7A69EA69CA684F29E1C
:10091000A198550EA76EAA0EA76EA682A6B2FED704
:10092000F28EA694212A2EC0E8FF300F20C0AAFF25
:1009300021C0A9FFE8CFA8FFA6B2FED7A69EA69C1D
:10094000A684F29EA198550EA76EAA0EA76EA68247
:10095000A6B2FED7F28EA694212A2FC0E8FF300F50
:1009600020C0AAFF21C0A9FFE8CFA8FFA6B2FED7EA
:10097000A69EA69CA684F29EA198550EA76EAA0ECE
:10098000A76EA682A6B2FED7F28EA694212A30C008
:10099000E8FF300F20C0AAFF21C0A9FFE8CFA8FFC1
:1009A000A6B2FED7A69EA69CA684F29EA198550E3E
:1009B000A76EAA0EA76EA682A6B2FED7F28EA69446
:1009C000212A37C0E8FF300F20C0AAFF21C0A9FFAD
:1009D000E8CFA8FFA6B2FED7A69EA69CA684F29E4C
:1009E000A198550EA76EAA0EA76EA682A6B2FED734
:1009F000F28EA694212A000E206EA80E216E000E03
:100A0000236EDC0E246E166A156A152A20C0AAFF12
:100A100021C0A9FFA69EA69CA680A8CF22F0150EF5
:100A2000212620C0AAFF21C0A9FF22C0A8FFA6B28C
:100A3000FED7A69EA69CA684F29EA198550EA76EF0
:100A4000AA0EA76EA682A6B2FED7F28EA694140EA8
:100A5000215E150E156205EF05F02A0E215EDC0EF3
:100A6000246E156A162A090E166205EF05F01200AB
:100A70008298829694889486E7EC09F01200020E20
:100A8000606EABEC09F062C0E8FFDCEC09F0020E2E
:100A9000606EABEC09F062C0E8FFDCEC09F0DEEC64
:100AA00006F0010E606EABEC09F062C0E8FFDCEC12
:100AB00009F0DEEC06F0060E606EABEC09F062C0E9
:100AC000E8FFDCEC09F0DEEC06F0050E606EABEC46
:100AD00009F062C0E8FFDCEC09F0DEEC06F0040E81
:100AE000606EABEC09F062C0E8FFDCEC09F0DEEC14
:100AF00006F012001838176E0F0E171617C0E8FF11
:100B0000300F20C0AAFF21C0A9FFE8CFA8FFA6B2DE
:100B1000FED7A69EA69CA684F29EA198550EA76E0F
:100B2000AA0EA76EA682A6B2FED7F28EA694212A9E
:100B300018C017F00F0E171617C0E8FF300F20C0AF
:100B4000AAFF21C0A9FFE8CFA8FFA6B2FED7A69EA4
:100B5000A69CA684F29EA198550EA76EAA0EA76E1B
:100B6000A682A6B2FED7F28EA694212A1938176E55
:100B70000F0E171617C0E8FF300F20C0AAFF21C0C4
:100B8000A9FFE8CFA8FFA6B2FED7A69EA69CA68482
:100B9000F29EA198550EA76EAA0EA76EA682A6B2C7
:100BA000FED7F28EA694212A1200020E606EABECE4
:100BB00009F062C0E8FFDCEC09F063C0E8FF1CEC60
:100BC00009F064C0E8FF1CEC09F0680E1CEC09F0A9
:100BD000010E606EABEC09F062C0E8FFDCEC09F0DE
:100BE00063C0E8FF1CEC09F064C0E8FF1CEC09F0EE
:100BF000000E606EABEC09F062C0E8FFDCEC09F0BF
:100C000063C0E8FF1CEC09F064C0E8FF1CEC09F0CD
:100C1000200E1CEC09F0060E606EABEC09F062C011
:100C2000E8FFDCEC09F063C0E8FF1CEC09F064C0ED
:100C3000E8FF1CEC09F02F0E1CEC09F0050E606EAD
:100C4000ABEC09F062C0E8FFDCEC09F063C0E8FF40
:100C50001CEC09F064C0E8FF1CEC09F02F0E1CEC42
:100C600009F0040E606EABEC09F062C0E8FFDCEC4A
:100C700009F063C0E8FF1CEC09F064C0E8FF1CEC5D
:100C800009F01200616A060E606E89EC09F0602EB0
:100C9000FCD789EC09F0000E606E800E616E89EC65
:100CA00009F0060E606E170E616E89EC09F0050EF4
:100CB000606E030E616E89EC09F0040E606E040E26
:100CC000616E89EC09F0020E606E120E616E89ECA5
:100CD00009F0010E606E480E616E89EC09F0000E9D
:100CE000606E000E616E89EC09F01200948E949C87
:100CF0000F0EAF6EAC6AAB6AAB8EAB88AC8A1200DB
:100D0000020EBAEC06F00D0EBAEC06F0156A166A81
:100D1000150E1502F3CF21F0166A20C0AAFF21C0DC
:100D2000A9FFA69EA69CA680A8CFE8FFBAEC06F075
:100D3000212A162A120E1662F0D7BFEC06F0152AE9
:100D4000080E1562E5D753EC09F0000EF86E110E8F
:100D5000F76EAC0EF66E0800F5501CEC09F00B00B7
:100D6000F550FBE1280E1A6ED4EC06F01A2EB4EF03
:100D700006F01200AD6EACA2BBEF06F012000A0E38
:100D8000BAEC06F00D0EBAEC06F01200780E1B6EEF
:100D90001B2EC8EF06F000001200A40E1C6E1C2EC5
:100DA000CFEF06F000001200F90E1D6ECDEC06F03C
:100DB0001D2ED6EF06F0CDEC06F0120020C0AAFFE3
:100DC00021C0A9FF63C0A8FFA6B2FED7A69EA69C1D
:100DD000A684F29EA198550EA76EAA0EA76EA682B3
:100DE000A6B2FED7F28EA694212A20C0AAFF21C067
:100DF000A9FF64C0A8FFA6B2FED7A69EA69CA684A3
:100E0000F29EA198550EA76EAA0EA76EA682A6B254
:100E1000FED7F28EA694212A1200206A216A1F684A
:100E2000156A20C0AAFF21C0A9FF1FC0A8FFA6B253
:100E3000FED7A69EA69CA684F29EA198550EA76EEC
:100E4000AA0EA76EA682A6B2FED7F28EA694152A87
:100E5000212A150E156211EF07F0206A216A12008F
:100E600081A230EF07F081380F0B106E81B236EFA0
:100E700007F0120053EC09F081A23AEF07F0813835
:100E80000F0B106E81B242EF07F0120020C0AAFFD4
:100E900021C0A9FFA69EA69CA680A8CF22F0FF0E87
:100EA000226265EF07F0000EF86E110EF76EC00EAD
:100EB000F66E0800F5501CEC09F00B00F550FBE154
:100EC000FF0E22608EEF07F0120020C0AAFF21C0A3
:100ED000A9FFA69EA69CA680A8CFE8FF1CEC09F05F
:100EE000212A20C0AAFF21C0A9FFA69EA69CA680F9
:100EF000A8CFE8FF1CEC09F0212A20C0AAFF21C0DE
:100F0000A9FFA69EA69CA680A8CFE8FF1CEC09F02E
:100F1000212A730E1CEC09F053EC09F0120020C0DA
:100F2000AAFF21C0A9FFA69EA69CA680A8CF22F05A
:100F3000FF0E2262ADEF07F0000EF86E110EF76E95
:100F4000C00EF66E0800F5501CEC09F00B00F550D1
:100F5000FBE1FF0E2260FAEF07F0610E1CEC09F0D6
:100F600020C0AAFF21C0A9FFA69EA69CA680A8CF4C
:100F700022F022C0E8FF1CEC09F0212A200E1CEC14
:100F800009F0620E1CEC09F020C0AAFF21C0A9FFE5
:100F9000A69EA69CA680A8CF22F022C0E8FF1CEC4B
:100FA00009F0212A200E1CEC09F0630E1CEC09F05C
:100FB00020C0AAFF21C0A9FFA69EA69CA680A8CFFC
:100FC00022F022C0E8FF1CEC09F0212A200E1CECC4
:100FD00009F0640E1CEC09F020C0AAFF21C0A9FF93
:100FE000A69EA69CA680A8CF22F022C0E8FF1CECFB
:100FF00009F0212A120020C0AAFF21C0A9FFA69E45
:10100000A69CA680A8CF22F0FF0E226219EF08F05E
:10101000000EF86E110EF76EC00EF66E0800F55059
:101020001CEC09F00B00F550FBE1FF0E226049EFCC
:1010300008F020C0AAFF21C0A9FFA69EA69CA680FA
:10104000A8CF22F022C0E8FF1CEC09F0212A20C022
:10105000AAFF21C0A9FFA69EA69CA680A8CF22F029
:1010600022C0E8FF1CEC09F0212A680E1CEC09F0F4
:101070004AEC08F0200E1CEC09F04AEC08F02F0EA8
:101080001CEC09F04AEC08F02F0E1CEC09F04AECBD
:1010900008F0120020C0AAFF21C0A9FFA69EA69CAE
:1010A000A680A8CF22F022C0E8FF1CEC09F0212A7C
:1010B00020C0AAFF21C0A9FFA69EA69CA680A8CFFB
:0E10C00022F022C0E8FF1CEC09F0212A1200E9
:0210CE00626F4F
:1010D000744C00006D7220686C20686700005374C7
:1010E000616E64696E67206279202E2E2E202E2E6E
:1010F0002E205374616E64696E67206279202E2EF3
:101100002E202E2E2E003C413E536F7274203C4206
:101110003E4C617374204C6F67203C433E506572B7
:101120006D204C6F6773203C443E5043000054696F
:101130006D653A0031323A303020322F332F31345E
:10114000000053617665643A00004261636B203CA5
:10115000303E00005065726D616E656E74204C6F9C
:10116000677300003C313E202E2E2E203C393E007D
:10117000536F7274696E672E2E2E0000454E442008
:101180003C2A3E00504320496E7465726661636577
:101190000000426567696E203C233E005472616E18
:1011A0007366657272696E672E2E2E00436F6D70C6
:1011B0006C6574652100536176696E672E2E2E0072
:1011C0004E2F41005CEC09F05CEC09F05CEC09F09E
:1011D0008394300E57EC09F040EC09F040EC09F034
:1011E0005CEC09F040EC09F0200E57EC09F040EC03
:1011F00009F05CEC09F0280E2EEC09F05CEC09F02B
:101200000C0E2EEC09F05CEC09F0060E2EEC09F049
:101210005CEC09F039EC09F0838412008C94716E57
:10122000F00B8C6E8C867138F00B8C968C6E8C86E5
:101230008C966DEC09F012008C94726E72C0E8FF0F
:10124000F00B040F836E8C867238F00B8C96040FB3
:10125000836E8C868C9667EC09F01200686E57ECF2
:1012600009F040EC09F0683857EC09F040EC09F05F
:1012700012008394010E2EEC09F05CEC09F01200D0
:10128000838600008396230E696E692E45EF09F070
:1012900012001B0E0EEC09F05CEC09F01200800E3F
:1012A0000EEC09F01200C00E0EEC09F01200F00B6B
:1012B00083120F0983161200500E706E230E696E92
:1012C000692E60EF09F0702E5EEF09F01200230E18
:1012D000736E732E69EF09F01200C20E736E0A0E60
:1012E000746E732E75EF09F0742E71EF09F0120011
:1012F000000EC76E280EC66E000EC56E180EC86EA4
:10130000C68AA1969E96C790C584C5B4FED79E9600
:101310001200C580C6AE9E869EA6FED79E96D00EB3
:10132000C7B0FED7C96E9EA6FED79E9660C0E8FFE6
:10133000C7B0FED7C96E9EA6FED79E9661C0E8FFD5
:10134000C7B0FED7C96E9EA6FED79E96C584C5B40B
:10135000FED79E961200C580C6AE9E869EA6FED77C
:101360009E96D00EC7B0FED7C96E9EA6FED79E969B
:1013700060C0E8FFC7B0FED7C96E9EA6FED79E9696
:10138000C5829EA6FED79E96D10EC7B0FED7C96E67
:101390009EA6FED79E96C5869EA6FED79E96C9CFD0
:1013A000E8FF626EC58AC588C5B8D4EF09F0C58468
:1013B000C5B4FED79E961200656E65380F0B300FD0
:1013C000636E65C0E8FF0F0B300F646E1200C580BE
:1013D000C6AE9E869EA6FED79E96D00EC7B0FED7FE
:1013E000C96E9EA6FED79E960E0EC7B0FED7C96EDA
:1013F0009EA6FED79E96040EC7B0FED7C96E9EA6C7
:10140000FED79E96C584C5B4FED79E961200C580B1
:10141000C6AE9E869EA6FED79E96520EC7B0FED73B
:10142000C96E9EA6FED79E9660C0E8FF8009C7B031
:10143000FED7C96E9EA6FED79E96C5829EA6FED7F3
:101440009E96530EC7B0FED7C96E9EA6FED79E9637
:10145000C5869EA6FED79E96C9CFE8FF616EC58A57
:10146000C588C5B831EF0AF0C584C5B4FED79E96CD
:101470001200C580C6AE9E869EA6FED79E96520ED0
:10148000C7B0FED7C96E9EA6FED79E9660C0E8FF85
:101490008009C7B0FED7C96E9EA6FED79E9661C0D2
:1014A000E8FFFF0BC7B0FED7C96E9EA6FED79E967B
:1014B000C584C5B4FED79E961200C580C6AE9E8672
:1014C0009EA6FED79E96100EC7B0FED7C96E9EA6EA
:1014D000FED79E96C584C5B4FED79E961200C580E1
:1014E000C6AE9E869EA6FED79E96C5829EA6FED7B7
:1014F0009E96110EC7B0FED7C96E9EA6FED79E96C9
:10150000C5869EA6FED79E96C9CFE8FFC58AC58828
:10151000C5B888EF0AF0C584C5B4FED79E96120000
:10152000C5BC1200C58AC598C5B894EF0AF0120070
:10153000C76A280EC66EC56A240EC86E9486948843
:101540001200C7B4A1EF0AF01F0EC5140009F9E19B
:101550001200A1EC0AF0C5801200A1EC0AF0C582CD
:101560001200A1EC0AF0C5841200A1EC0AF0C96EC9
:10157000C7B4B8EF0AF01200C586A1EC0AF0C5B6F0
:10158000FED7C9501200C59AC588C5B8FED712004B
:020000040030CA
:0100010002FC
:010002001FDE
:010003001EDE
:010005008179
:010006008178
:010008000FE8
:01000900C036
:01000A000FE6
:01000B00E014
:01000C000FE4
:01000D0040B2
:00000001FF
