:020000040000FA
:0400000071EF00F0AC
:020004000000FA
:040008000EEF00F007
:080018004BEF00F0D8CF13F00C
:10002000146EC60ED76E3E0ED66EF2A446EF00F0EA
:1000300019C017F00F0E1716090E176229EF00F0FE
:10004000100E1926F00E1916A00E1960196A2CEF61
:1000500000F0192A2CEF00F00000000E196246EFA4
:1000600000F018C017F00F0E1716090E176242EFB6
:1000700000F0100E1826F00E1816A00E1860186A60
:1000800045EF00F0182A45EF00F00000F294143814
:1000900013C0D8FF1000D8CF13F0146EF0A06CEF8F
:1000A00000F0FF0E1E626CEF00F081380F0B126E35
:1000B0000C0E12626CEF00F0D59E4AEC05F01E6A41
:1000C000010E376E49EC04F0FF6AFE6AFD6AF0909B
:1000D000143813C0D8FF1000F090143813C0D8FFA4
:1000E0001000000E926EFF0E936E000E946E000EC6
:1000F000956E000E966E000E896E000E8A6E000ED2
:100100008B6E000E8C6E000E8D6E000EC26EA2EC19
:1001100008F0280ECEEC08F00C0ECEEC08F0010E24
:10012000CEEC08F036EC09F008EC05F046EC06F0F1
:10013000D06AF26AF16AF06AD08EF28EF28CF18A9D
:10014000F28AF284F184F086F09CD59ED59CD59AF3
:10015000D598D596D594D582D580206A216A636AD0
:10016000646A2C6A2D6A2E6A2F6A306A316A326A92
:10017000F20E936EF9EC08F0000EF86E100EF76EAA
:100180006E0EF66E0800F550DCEC08F00B00F55032
:10019000FBE111EC09F0000EF86E100EF76E740E14
:1001A000F66E0800F550DCEC08F00B00F550FBE1B2
:1001B000280E1A6EA4EC06F01A2EDAEF00F0000EEC
:1001C000846E000E806E3868C50ED76E440ED66EF3
:1001D000D58EF9EC08F0000EF86E100EF76E7E0E5C
:1001E000F66E0800F550DCEC08F00B00F550FBE172
:1001F00011EC09F0000EF86E100EF76E860EF66E1A
:100200000800F550DCEC08F00B00F550FBE10AECBF
:1002100007F0000E106213EF01F0896A8A6A8B6A98
:100220008C6AB4EF01F00000010E10621EEF01F0C5
:10023000896A8A6A8B6A8C6A96EF01F00000020E66
:10024000106229EF01F0896A8A6A8B6A8C6A62EF10
:1002500001F00000040E106234EF01F0896A8A6A2E
:100260008B6A8C6A7CEF01F00000030E10623FEF96
:1002700001F0896A8A6A8B6A8C6AC4EF01F0000017
:10028000070E10624AEF01F0896A8A6A8B6A8C6AEB
:1002900089EF02F000000B0E106255EF01F0896A41
:1002A0008A6A8B6A8C6AE0EF02F000000F0E10621F
:1002B00060EF01F0896A8A6A8B6A8C6AF6EF03F054
:1002C0000000A5D7386A000E846E0A0E1A6EA4ECE0
:1002D00006F01A2E67EF01F0010E846E00EC07F0B5
:1002E0000D0E10627AEF01F0896A8A6A8B6A8C6A55
:1002F000DFEF00F00000F0D7386A000E846E0A0EBF
:100300001A6EA4EC06F01A2E81EF01F0020E846E34
:1003100000EC07F00D0E106294EF01F0896A8A6A12
:100320008B6A8C6ADFEF00F00000F0D7386A326A1F
:10033000140E1A6EA4EC06F01A2E9AEF01F0230E9A
:10034000806E2BEC09F0260E806E2BEC09F02C0E43
:10035000806E2BEC09F0290E806E2BEC09F0322A0E
:10036000780E3262ECD7E2D7386A280E1A6EA4EC07
:1003700006F01A2EB7EF01F0F9EC08F09AEC0AF04B
:10038000300FDCEC08F0F1D7386AD59EDDEC06F0D2
:100390000FEC05F01E68F9EC08F0000EF86E100E78
:1003A000F76EF00EF66E0800F550DCEC08F00B006E
:1003B000F550FBE111EC09F0C50ED76E440ED66E78
:1003C000D58E186A196A2D6A2E6A2F6A306A316AC8
:1003D000010E356E346AEDEF01F0326A230E806E45
:1003E0002BEC09F0260E806E2BEC09F02C0E806EA3
:1003F0002BEC09F0290E806E2BEC09F0322A780ED6
:100400003262ECD700D0020E2C6E050E2C60EDEFA0
:1004100001F0312A040E2C5C09E0030E2C5C14E080
:10042000020E2C5C1FE0010E2C5C2CE0302A040E26
:10043000366E355C4CE0030E355C32E0020E355C06
:100440002FE0010E355C2CE02F2A030E366E355C52
:100450003EE0040E355C30E0020E355C21E0010E1A
:10046000355C1EE02E2A6BEF02F0020E366E355C14
:100470002EE0040E355C20E0030E355C1DE0010E1D
:10048000355C0EE02D2A010E366E355C20E0040E40
:10049000355C12E0030E355C0FE0020E355C0CE0BB
:1004A000336A000E846E010E846E332A33C0E8FF77
:1004B000346253EF02F00BD0336A000E846E020EEA
:1004C000846E332A33C0E8FF3462F9D700D036C0D7
:1004D00035F0000E846E090E3162EDEF01F071EF20
:1004E00002F0D59E4AEC05F01E6A376AF9EC08F076
:1004F000000EF86E110EF76E360EF66E0800F5500F
:10050000DCEC08F00B00F550FBE149EC04F089EF5E
:1005100002F0386AF9EC08F0000EF86E100EF76E73
:10052000AE0EF66E0800F550DCEC08F00B00F5504E
:10053000FBE10A0E216E16EC07F011EC09F00D0E2E
:10054000216E5FEC07F000EC07F0070E1062AFEFD2
:1005500002F0896A8A6A8B6A8C6ABCEF02F000003A
:100560000D0E1062BAEF02F0896A8A6A8B6A8C6A91
:10057000DFEF00F00000E7D7F9EC08F0216ACBECE0
:1005800007F011EC09F0000EF86E100EF76ECA0EAF
:10059000F66E0800F550DCEC08F00B00F550FBE1BE
:1005A000206A216A00EC07F00D0E1062DEEF02F007
:1005B000896A8A6A8B6A8C6A89EF02F00000C3D765
:1005C000386AF9EC08F0000EF86E100EF76ED40ED3
:1005D000F66E0800F550DCEC08F00B00F550FBE17E
:1005E00011EC09F0000EF86E100EF76EE40EF66EC8
:1005F0000800F550DCEC08F00B00F550FBE100ECD6
:1006000007F00D0E10620BEF03F0896A8A6A8B6A9D
:100610008C6ADFEF00F00000000E106216EF03F0AE
:10062000896A8A6A8B6A8C6A70EF03F00000010E97
:10063000106221EF03F0896A8A6A8B6A8C6A70EF14
:1006400003F00000020E10622CEF03F0896A8A6A40
:100650008B6A8C6A70EF03F00000040E106237EFB3
:1006600003F0896A8A6A8B6A8C6A70EF03F0000073
:10067000050E106242EF03F0896A8A6A8B6A8C6AFF
:1006800070EF03F00000060E10624DEF03F0896A70
:100690008A6A8B6A8C6A70EF03F00000080E1062A1
:1006A00058EF03F0896A8A6A8B6A8C6A70EF03F0EC
:1006B0000000090E106263EF03F0896A8A6A8B6A90
:1006C0008C6A70EF03F000000A0E10626EEF03F008
:1006D000896A8A6A8B6A8C6A70EF03F000008FD790
:1006E000F9EC08F0000EF86E100EF76ED40EF66EF0
:1006F0000800F550DCEC08F00B00F550FBE110C0F1
:10070000E8FFE82A176EE842E89EE842E89E175E96
:1007100017C0E8FF17C011F0150D11C0E8FF300F2A
:10072000DCEC08F03A0EDCEC08F0200EDCEC08F013
:10073000F3CF21F0000E212620C0AAFF21C0A9FF7F
:10074000A69EA69CA680A8CF18F0212A20C0AAFFAA
:1007500021C0A9FFA69EA69CA680A8CF19F0212A99
:1007600016EC07F0F3CF21F011EC09F0F3CF21F0F4
:10077000CBEC07F000EC07F0030E1062C6EF03F0BD
:10078000896A8A6A8B6A8C6AD3EF03F000000D0EC7
:100790001062D1EF03F0896A8A6A8B6A8C6AE0EF93
:1007A00002F00000E7D7F9EC08F0000EF86E100E2A
:1007B000F76EAE0EF66E0800F550DCEC08F00B009C
:1007C000F550FBE116EC07F011EC09F05FEC07F0D7
:1007D00000EC07F00D0E1062F4EF03F0896A8A6AEC
:1007E0008B6A8C6AE0EF02F00000F2D7386AF9EC0D
:1007F00008F0000EF86E110EF76E040EF66E08008B
:10080000F550DCEC08F00B00F550FBE111EC09F0C1
:10081000000EF86E110EF76E120EF66E0800F5500F
:10082000DCEC08F00B00F550FBE1F9CF29F0FACF32
:100830002AF0FBCF2BF000EC07F00D0E106227EF33
:1008400004F0896A8A6A8B6A8C6ADFEF00F0000024
:100850000E0E106232EF04F0896A8A6A8B6A8C6A23
:1008600034EF04F00000E7D72868F9EC08F0000E38
:10087000F86E110EF76E1C0EF66E0800F550DCECEB
:1008800008F00B00F550FBE150EC06F0286ADFEFB2
:1008900000F02DC0E8FF300F20C0AAFF21C0A9FF43
:1008A000E8CFA8FFA6B2FED7A69EA69CA684F29E7D
:1008B000A198550EA76EAA0EA76EA682A6B2FED765
:1008C000F28EA694212A2EC0E8FF300F20C0AAFF86
:1008D00021C0A9FFE8CFA8FFA6B2FED7A69EA69C7E
:1008E000A684F29EA198550EA76EAA0EA76EA682A8
:1008F000A6B2FED7F28EA694212A2FC0E8FF300FB1
:1009000020C0AAFF21C0A9FFE8CFA8FFA6B2FED74A
:10091000A69EA69CA684F29EA198550EA76EAA0E2E
:10092000A76EA682A6B2FED7F28EA694212A30C068
:10093000E8FF300F20C0AAFF21C0A9FFE8CFA8FF21
:10094000A6B2FED7A69EA69CA684F29EA198550E9E
:10095000A76EAA0EA76EA682A6B2FED7F28EA694A6
:10096000212A37C0E8FF300F20C0AAFF21C0A9FF0D
:10097000E8CFA8FFA6B2FED7A69EA69CA684F29EAC
:10098000A198550EA76EAA0EA76EA682A6B2FED794
:10099000F28EA694212A000E206EA80E216E000E63
:1009A000236EDC0E246E166A156A152A20C0AAFF73
:1009B00021C0A9FFA69EA69CA680A8CF22F0150E56
:1009C000212620C0AAFF21C0A9FF22C0A8FFA6B2ED
:1009D000FED7A69EA69CA684F29EA198550EA76E51
:1009E000AA0EA76EA682A6B2FED7F28EA694140E09
:1009F000215E150E1562D5EF04F02A0E215EDC0E85
:100A0000246E156A162A090E1662D5EF04F012003C
:100A10008298829694889486DAEC09F01200020E8D
:100A2000606E84EC09F062C0E8FFCFEC09F0020EC2
:100A3000606E84EC09F062C0E8FFCFEC09F0AEEC28
:100A400006F0010E606E84EC09F062C0E8FFCFECA6
:100A500009F0AEEC06F0060E606E84EC09F062C0A0
:100A6000E8FFCFEC09F0AEEC06F0050E606E84EC0A
:100A700009F062C0E8FFCFEC09F0AEEC06F0040E1E
:100A8000606E84EC09F062C0E8FFCFEC09F0AEECD8
:100A900006F012001838176E0F0E171617C0E8FF71
:100AA000300F20C0AAFF21C0A9FFE8CFA8FFA6B23F
:100AB000FED7A69EA69CA684F29EA198550EA76E70
:100AC000AA0EA76EA682A6B2FED7F28EA694212AFF
:100AD00018C017F00F0E171617C0E8FF300F20C010
:100AE000AAFF21C0A9FFE8CFA8FFA6B2FED7A69E05
:100AF000A69CA684F29EA198550EA76EAA0EA76E7C
:100B0000A682A6B2FED7F28EA694212A1938176EB5
:100B10000F0E171617C0E8FF300F20C0AAFF21C024
:100B2000A9FFE8CFA8FFA6B2FED7A69EA69CA684E2
:100B3000F29EA198550EA76EAA0EA76EA682A6B227
:100B4000FED7F28EA694212A1200020E606E84EC6B
:100B500009F062C0E8FFCFEC09F063C0E8FFDCEC0D
:100B600008F064C0E8FFDCEC08F0680EDCEC08F08C
:100B7000010E606E84EC09F062C0E8FFCFEC09F072
:100B800063C0E8FFDCEC08F064C0E8FFDCEC08F0D0
:100B9000000E606E84EC09F062C0E8FFCFEC09F053
:100BA00063C0E8FFDCEC08F064C0E8FFDCEC08F0B0
:100BB000200EDCEC08F0060E606E84EC09F062C0DA
:100BC000E8FFCFEC09F063C0E8FFDCEC08F064C09C
:100BD000E8FFDCEC08F02F0EDCEC08F0050E606E90
:100BE00084EC09F062C0E8FFCFEC09F063C0E8FFD5
:100BF000DCEC08F064C0E8FFDCEC08F02F0EDCEC65
:100C000008F0040E606E84EC09F062C0E8FFCFECDF
:100C100009F063C0E8FFDCEC08F064C0E8FFDCEC3E
:100C200008F01200616A060E606E47EC09F0602E53
:100C3000FCD747EC09F0000E606E800E616E47EC49
:100C400009F0060E606E170E616E47EC09F0050E96
:100C5000606E030E616E47EC09F0040E606E040EC8
:100C6000616E47EC09F0020E606E120E616E47EC89
:100C700009F0010E606E480E616E47EC09F0000E3F
:100C8000606E000E616E47EC09F01200948E949C29
:100C90000F0EAF6EAC6AAB6AAB8EAB88AC8A12003B
:100CA000020E8AEC06F00D0E8AEC06F0156A166A42
:100CB000150E1502F3CF21F0166A20C0AAFF21C03D
:100CC000A9FFA69EA69CA680A8CFE8FF8AEC06F006
:100CD000212A162A120E1662F0D78FEC06F0152A7A
:100CE000080E1562E5D711EC09F0000EF86E110E32
:100CF000F76E2C0EF66E0800F550DCEC08F00B00D9
:100D0000F550FBE1280E1A6EA4EC06F01A2E84EFC3
:100D100006F01200AD6EACA28BEF06F012000A0EC8
:100D20008AEC06F00D0E8AEC06F01200780E1B6EAF
:100D30001B2E98EF06F000001200A40E1C6E1C2E55
:100D40009FEF06F000001200F90E1D6E9DEC06F0FC
:100D50001D2EA6EF06F09DEC06F0120020C0AAFFA3
:100D600021C0A9FF63C0A8FFA6B2FED7A69EA69C7D
:100D7000A684F29EA198550EA76EAA0EA76EA68213
:100D8000A6B2FED7F28EA694212A20C0AAFF21C0C7
:100D9000A9FF64C0A8FFA6B2FED7A69EA69CA68403
:100DA000F29EA198550EA76EAA0EA76EA682A6B2B5
:100DB000FED7F28EA694212A1200206A216A1F68AB
:100DC000156A20C0AAFF21C0A9FF1FC0A8FFA6B2B4
:100DD000FED7A69EA69CA684F29EA198550EA76E4D
:100DE000AA0EA76EA682A6B2FED7F28EA694152AE8
:100DF000212A150E1562E1EF06F0206A216A120021
:100E000081A200EF07F081380F0B106E81B206EF60
:100E100007F0120011EC09F081A20AEF07F0813807
:100E20000F0B106E81B212EF07F0120020C0AAFF64
:100E300021C0A9FFA69EA69CA680A8CF22F0FF0EE7
:100E4000226235EF07F0000EF86E110EF76E400EBD
:100E5000F66E0800F550DCEC08F00B00F550FBE1F5
:100E6000FF0E22605EEF07F0120020C0AAFF21C033
:100E7000A9FFA69EA69CA680A8CFE8FFDCEC08F000
:100E8000212A20C0AAFF21C0A9FFA69EA69CA68059
:100E9000A8CFE8FFDCEC08F0212A20C0AAFF21C07F
:100EA000A9FFA69EA69CA680A8CFE8FFDCEC08F0D0
:100EB000212A730EDCEC08F011EC09F0120020C0BE
:100EC000AAFF21C0A9FFA69EA69CA680A8CF22F0BB
:100ED000FF0E22627DEF07F0000EF86E110EF76E26
:100EE000400EF66E0800F550DCEC08F00B00F550F3
:100EF000FBE1FF0E2260CAEF07F0610EDCEC08F0A8
:100F000020C0AAFF21C0A9FFA69EA69CA680A8CFAC
:100F100022F022C0E8FFDCEC08F0212A200EDCECF5
:100F200008F0620EDCEC08F020C0AAFF21C0A9FF87
:100F3000A69EA69CA680A8CF22F022C0E8FFDCECEB
:100F400008F0212A200EDCEC08F0630EDCEC08F03F
:100F500020C0AAFF21C0A9FFA69EA69CA680A8CF5C
:100F600022F022C0E8FFDCEC08F0212A200EDCECA5
:100F700008F0640EDCEC08F020C0AAFF21C0A9FF35
:100F8000A69EA69CA680A8CF22F022C0E8FFDCEC9B
:100F900008F0212A120020C0AAFF21C0A9FFA69EA6
:100FA000A69CA680A8CF22F0FF0E2262E9EF07F0F0
:100FB000000EF86E110EF76E400EF66E0800F5503A
:100FC000DCEC08F00B00F550FBE1FF0E226019EF9E
:100FD00008F020C0AAFF21C0A9FFA69EA69CA6805B
:100FE000A8CF22F022C0E8FFDCEC08F0212A20C0C4
:100FF000AAFF21C0A9FFA69EA69CA680A8CF22F08A
:1010000022C0E8FFDCEC08F0212A680EDCEC08F0D6
:101010001AEC08F0200EDCEC08F01AEC08F02F0EA9
:10102000DCEC08F01AEC08F02F0EDCEC08F01AECFF
:1010300008F0120020C0AAFF21C0A9FFA69EA69C0E
:10104000A680A8CF22F022C0E8FFDCEC08F0212A1D
:1010500020C0AAFF21C0A9FFA69EA69CA680A8CF5B
:0E10600022F022C0E8FFDCEC08F0212A12008A
:02106E00626FAF
:10107000744C00006D7220686C2068670000537427
:10108000616E646279003C413E536F7274203C4251
:101090003E4C617374204C6F67203C433E50657238
:1010A0006D204C6F6773203C443E504300005469F0
:1010B0006D653A0031323A303020322F332F3134DF
:1010C000000053617665643A00004261636B203C26
:1010D000303E00005065726D616E656E74204C6F1D
:1010E000677300003C313E202E2E2E203C393E00FE
:1010F000536F7274696E672E2E2E0000454E442089
:101100003C2A3E00504320496E74657266616365F7
:101110000000426567696E203C233E005472616E98
:101120007366657272696E672E2E2E00436F6D7046
:101130006C6574652100536176696E672E2E2E00F2
:101140004E2F41001AEC09F01AEC09F01AEC09F0E4
:101150008394300E15EC09F000EC09F000EC09F076
:101160001AEC09F000EC09F0200E15EC09F000EC87
:1011700009F01AEC09F0280EEEEC08F01AEC09F070
:101180000C0EEEEC08F01AEC09F0060EEEEC08F08E
:101190001AEC09F0F9EC08F0838412008C94716E5B
:1011A000F00B8C6E8C867138F00B8C968C6E8C8666
:1011B0008C962BEC09F012008C94726E72C0E8FFD2
:1011C000F00B040F836E8C867238F00B8C96040F34
:1011D000836E8C868C9625EC09F01200686E15ECF7
:1011E00009F000EC09F0683815EC09F000EC09F0A2
:1011F00012008394010EEEEC08F01AEC09F01200D4
:10120000838600008396230E696E692E05EF09F030
:1012100012001B0ECEEC08F01200800ECEEC08F08F
:101220001200C00ECEEC08F01200F00B83120F0972
:1012300083161200500E706E230E696E692E1EEF1B
:1012400009F0702E1CEF09F01200230E736E732E3E
:1012500027EF09F01200C20E736E0A0E746E732E21
:1012600033EF09F0742E2FEF09F01200000EC76E55
:10127000280EC66E000EC56E180EC86EC68AA196E0
:101280009E96C790C584C5B4FED79E961200C580B1
:10129000C6AE9E869EA6FED79E96D00EC7B0FED73F
:1012A000C96E9EA6FED79E96C5BC6FEF09F060C0C2
:1012B000E8FFC7B0FED7C96E9EA6FED79E96C5BCF6
:1012C00074EF09F061C0E8FFC7B0FED7C96E9EA6F3
:1012D000FED79E96C5BC7AEF09F07FEF09F00000BB
:1012E000010E896E7FEF09F00000020E896E8D807D
:1012F0007FEF09F00000040E896E7FEF09F0C584CE
:10130000C5B4FED79E961200C580C6AE9E869EA628
:10131000FED79E96D00EC7B0FED7C96E9EA6FED74A
:101320009E96C5BCBBEF09F060C0E8FFC7B0FED712
:10133000C96E9EA6FED79E96C5BCC0EF09F0C582B9
:101340009EA6FED79E96D10EC7B0FED7C96E9EA6AA
:10135000FED79E96C5BCC5EF09F0C5869EA6FED7F2
:101360009E96C9CFE8FF626EC58AC588C5B8B6EF3C
:1013700009F0CAEF09F00000030E896ECAEF09F008
:101380000000070E896ECAEF09F000000F0E896E8B
:10139000CAEF09F0C584C5B4FED79E961200656EEB
:1013A00065380F0B300F636E65C0E8FF0F0B300F11
:1013B000646E1200C580C6AE9E869EA6FED79E961F
:1013C000D00EC7B0FED7C96E9EA6FED79E960E0E53
:1013D000C7B0FED7C96E9EA6FED79E96040EC7B0B4
:1013E000FED7C96E9EA6FED79E96C584C5B4FED70D
:1013F0009E961200C580C6AE9E869EA6FED79E967D
:10140000520EC7B0FED7C96E9EA6FED79E96C5BC2B
:1014100032EF0AF060C0E8FF8009C7B0FED7C96E9E
:101420009EA6FED79E96C5BC37EF0AF0C5829EA643
:10143000FED79E96530EC7B0FED7C96E9EA6FED7A6
:101440009E96C5BC3CEF0AF0C5869EA6FED79E962A
:10145000C9CFE8FF616EC58AC588C5B82DEF0AF00F
:1014600041EF0AF00000030E896E41EF0AF0000020
:10147000050E896E41EF0AF00000070E896E41EFFC
:101480000AF0C584C5B4FED79E961200C580C6AECC
:101490009E869EA6FED79E96520EC7B0FED7C96EF8
:1014A0009EA6FED79E96C5BC70EF0AF060C0E8FF0E
:1014B0008009C7B0FED7C96E9EA6FED79E96C5BC52
:1014C00075EF0AF061C0E8FFFF0BC7B0FED7C96E29
:1014D0009EA6FED79E96C5BC7BEF0AF080EF0AF071
:1014E00000000D0E896E80EF0AF000000F0E896E6D
:1014F0008D8080EF0AF00000090E896E80EF0AF0FF
:10150000C584C5B4FED79E961200C580C6AE9E8621
:101510009EA6FED79E96100EC7B0FED7C96E9EA699
:10152000FED79E96C5BC70EF0AF0C584C5B4FED741
:101530009E961200C580C6AE9E869EA6FED79E963B
:10154000C5829EA6FED79E96110EC7B0FED7C96E65
:101550009EA6FED79E96C5869EA6FED79E96C9CF0E
:10156000E8FFC58AC588C5B8B3EF0AF0C584C5B41D
:10157000FED79E961200C5BC1200C58AC598C5B894
:10158000BFEF0AF01200C76A280EC66EC56A240EA5
:10159000C86E948694881200C7B4CCEF0AF01F0E70
:1015A000C5140009F9E11200CCEC0AF0C580120064
:1015B000CCEC0AF0C5821200CCEC0AF0C584120013
:1015C000CCEC0AF0C96EC7B4E3EF0AF01200C5868E
:1015D000CCEC0AF0C5B6FED7C9501200C59AC58832
:0615E000C5B8FED71200A1
:020000040030CA
:0100010002FC
:010002001FDE
:010003001EDE
:010005008179
:010006008178
:010008000FE8
:01000900C036
:01000A000FE6
:01000B00E014
:01000C000FE4
:01000D0040B2
:00000001FF
