:020000040000FA
:0400000030EF00F0ED
:020004000000FA
:040008000EEF00F007
:0800180016EF00F0026ED8CFD4
:1000200001F001C0D8FF023A02381000D8CF01F029
:10003000026EF0A024EF00F081380F0B526E24EF17
:1000400000F0FF6AFE6AFD6AF090023801C0D8FF36
:10005000026ED8CF01F001C0D8FF023A023810007A
:10006000000E926EFF0E936EBF0E946E000E956E94
:10007000070E966E0F0EC16E896A8A6A8B6A8C6A49
:100080008D6A63EC03F071EC04F001EC02F0080EF1
:10009000D56ED06AF26AF16AF06AD08EF28EF28C76
:1000A000F18AF28AF184F086F09C716A726A906B30
:1000B000916B000EF86E060EF76E360EF66E0800A7
:1000C000F5509DEC03F00B00F550FBE1CDEC03F097
:1000D000000EF86E060EF76E3C0EF66E0800F55038
:1000E0009DEC03F00B00F550FBE13C0E286E01EC9B
:1000F00002F0282E77EF00F0B9EC03F0000EF86E56
:10010000060EF76E460EF66E0800F5509DEC03F0F5
:100110000B00F550FBE167EC02F0030E506297EF25
:1001200000F0896A8A6A8B6A8C6AA4EF00F000008A
:10013000070E5062A2EF00F0896A8A6A8B6A8C6AA5
:1001400082EF01F00000E7D76068B9EC03F0000E21
:10015000F86E060EF76E740EF66E0800F5509DEC04
:1001600003F00B00F550FBE1CDEC03F0000EF86E50
:10017000060EF76E800EF66E0800F5509DEC03F04B
:100180000B00F550FBE1106A116A5DEC02F00C0EF9
:100190005062D1EF00F0896A8A6A8B6A8C6AD3EF69
:1001A00000F00000F2D771C0AAFF72C0AAFF10C011
:1001B000A8FFA6B2FED7A69EA69CA684A69EA1983E
:1001C000550EA76EAA0EA76EA682A6B2FED7A68E61
:1001D000A694722A71C0AAFF72C0AAFF11C0A8FF1C
:1001E000A6B2FED7A69EA69CA684A69EA198550E52
:1001F000A76EAA0EA76EA682A6B2FED7A68EA6945A
:10020000722A606A04EF01F0B9EC03F0000EF86E98
:10021000060EF76E980EF66E0800F5509DEC03F092
:100220000B00F550FBE1000E716EA8C072F0000EDD
:10023000746E82C075F0046A036A032A71C0AAFF53
:1002400072C0A9FFA69EA69CA680A8CF73F0150E2B
:10025000722671C0AAFF72C0AAFF73C0A8FFA6B21F
:10026000FED7A69EA69CA684A69EA198550EA76E14
:10027000AA0EA76EA682A6B2FED7A68EA694140ECC
:10028000725E150E03621DEF01F02A0E725E82C0CF
:1002900075F0036A042A090E04621DEF01F0D59E71
:1002A000090E726E71C0AAFF72C0AAFF10C0A8FF2B
:1002B000A6B2FED7A69EA69CA684A69EA198550E81
:1002C000A76EAA0EA76EA682A6B2FED7A68EA69489
:1002D000722A71C0AAFF72C0AAFF11C0A8FFA6B2FD
:1002E000FED7A69EA69CA684A69EA198550EA76E94
:1002F000AA0EA76EA682A6B2FED7A68EA694722AD2
:1003000082EF01F0B9EC03F0000EF86E060EF76E06
:100310004E0EF66E0800F5509DEC03F00B00F55004
:10032000FBE1090E726E71C0AAFF72C0A9FFA69E02
:10033000A69CA680A8CF10F0722A71C0AAFF72C036
:10034000A9FFA69EA69CA680A8CF11F0722A73ECE6
:1003500002F0CDEC03F0726AACEC02F05DEC02F05E
:10036000070E5062BAEF01F0896A8A6A8B6A8C6A5A
:10037000C7EF01F000000D0E5062C5EF01F0896A71
:100380008A6A8B6A8C6A7CEF00F00000E7D7B9ECD0
:1003900003F0000EF86E060EF76E620EF66E0800A1
:1003A000F5509DEC03F00B00F550FBE1CDEC03F0B4
:1003B000000EF86E060EF76E6A0EF66E0800F55027
:1003C0009DEC03F00B00F550FBE15DEC02F00D0E2F
:1003D0005062F1EF01F0896A8A6A8B6A8C6A82EF57
:1003E00001F00000BBD7780E296E292EF5EF01F041
:1003F00000001200A40E306E302EFCEF01F0000061
:100400001200F90E316EFAEC01F0312E03EF02F01A
:10041000FAEC01F0120071C0AAFF72C0AAFF90C0EE
:10042000A8FFA6B2FED7A69EA69CA684A69EA198CB
:10043000550EA76EAA0EA76EA682A6B2FED7A68EEE
:10044000A694722A71C0AAFF72C0AAFF91C0A8FF29
:10045000A6B2FED7A69EA69CA684A69EA198550EDF
:10046000A76EAA0EA76EA682A6B2FED7A68EA694E7
:10047000722A1200716A726A7068036A71C0AAFFF8
:1004800072C0AAFF70C0A8FFA6B2FED7A69EA69C07
:10049000A684A69EA198550EA76EAA0EA76EA68248
:1004A000A6B2FED7A68EA694032A722A150E036260
:1004B0003EEF02F0716A726A120081A25DEF02F0F3
:1004C00081380F0B506E81B263EF02F01200CDEC59
:1004D00003F081A267EF02F081380F0B506E81B2FA
:1004E0006FEF02F0120071C0AAFF72C0A9FFA69EB2
:1004F000A69CA680A8CF73F0FF0E736291EF02F066
:10050000000EF86E060EF76EC20EF66E0800F5507D
:100510009DEC03F00B00F550FBE1FF0E7360ABEFB9
:1005200002F01038066E0F0E061606C0E8FF300FF8
:100530009DEC03F010C006F00F0E061606C0E8FF93
:10054000300F9DEC03F02E0E9DEC03F0730E9DEC2E
:1005500003F0CDEC03F012000B0E722671C0AAFF5F
:1005600072C0A9FFA69EA69CA680A8CF73F0FF0E1E
:100570007362CCEF02F0000EF86E060EF76EC20E3C
:10058000F66E0800F5509DEC03F00B00F550FBE112
:10059000FF0E7360FDEF02F071C0AAFF72C0A9FFE9
:1005A000A69EA69CA680A8CF73F073C0E8FFF10BAF
:1005B0009DEC03F0722A71C0AAFF72C0A9FFA69E2B
:1005C000A69CA680A8CF73F073C0E8FF9DEC03F053
:1005D000722A3A0E9DEC03F0FEEC02F0200E9DEC28
:1005E00003F0FEEC02F02F0E9DEC03F0FEEC02F0A7
:1005F0002F0E9DEC03F0FEEC02F0120071C0AAFF7A
:1006000072C0A9FFA69EA69CA680A8CF73F073C057
:10061000E8FF9DEC03F0722A71C0AAFF72C0A9FF27
:10062000A69EA69CA680A8CF73F073C0E8FF9DECA1
:0606300003F0722A120023
:0A063600626F744C00006D722068C2
:100640006C20686700005374616E646279005469BD
:100650006D653A0031323A303020322F332F313449
:10066000000053617665643A00004261636B203C90
:10067000303E0000536F7274696E672E2E2E00009C
:10068000454E44203C2A3E0053746F7070656400F0
:1006900054696D653A200000536176696E672E2EAD
:1006A0002E005472616E7366657272696E672E2ECB
:1006B0002E0053616665747920636865636B2E2E26
:1006C0002E004E2F4100D6EC03F0D6EC03F0D6EC12
:1006D00003F08394300ED1EC03F0C0EC03F0C0ECD7
:1006E00003F0D6EC03F0C0EC03F0200ED1EC03F0E5
:1006F000C0EC03F0D6EC03F0280EAEEC03F0D6EC21
:1007000003F00C0EAEEC03F0D6EC03F0060EAEECEC
:1007100003F0D6EC03F0B9EC03F0838412008C9460
:10072000236EF00B8C6E8C862338F00B8C968C6EBF
:100730008C868C96E7EC03F012008C94246E245087
:10074000F00B040F836E8C862438F00B8C96040F0C
:10075000836E8C868C96E1EC03F01200206ED1EC57
:1007600003F0C0EC03F02038D1EC03F0C0EC03F050
:1007700012008394010EAEEC03F0D6EC03F01200ED
:10078000838600008396230E216E212EC5EF03F091
:100790001200800E8FEC03F01200C00E8FEC03F0FD
:1007A0001200F00B83120F0983161200500E226EF6
:1007B000230E216E212EDAEF03F0222ED8EF03F064
:1007C0001200230E256E252EE3EF03F01200C20E59
:1007D000256E0A0E266E252EEFEF03F0262EEBEF88
:1007E00003F01200000EC76E240EC86E280EC66EEF
:1007F000C68AA1969E96C790C5849E961200C58013
:100800009E96D00EC96E9EA6FED79E96C5BC1BEFC7
:1008100004F08051C96E9EA6FED79E96C5BC20EFFF
:1008200004F08151C96E9EA6FED79E96C5BC26EFE8
:1008300004F02BEF04F000000D0E896E2BEF04F096
:1008400000000F0E896E8D802BEF04F00000090E62
:10085000896E2BEF04F0C5849E961200C5809E968B
:10086000D00EC96E9EA6FED79E96C5BC55EF04F06D
:100870008051C96E9EA6FED79E96C5BC5AEF04F065
:10088000C5829E96D10EC96E9EA6FED79E96C5BC09
:100890005FEF04F0C5869E96C950826FC58AC588F1
:1008A000C5B850EF04F064EF04F00000030E896E49
:1008B00064EF04F00000050E896E64EF04F00000A0
:1008C000070E896E64EF04F0C5849E961200856F52
:1008D00085390F0B300F836F85510F0B300F846FED
:1008E0001200000EC76E280EC66E000EC56E240ED6
:1008F000C86E948694881200010E0009FDE1120072
:100900007CEC04F0C58012007CEC04F0C58212007F
:100910007CEC04F0C58412007CEC04F0C950120099
:100920007CEC04F0C5867CEC04F0C9527CEC04F04D
:08093000E2B3C58AC58812007C
:020000040030CA
:0100010002FC
:010002001FDE
:010003001EDE
:010005008179
:0100060001F8
:010008000FE8
:01000900C036
:01000A000FE6
:01000B00E014
:01000C000FE4
:01000D0040B2
:00000001FF
