:020000040000FA
:040000007EEF00F09F
:020004000000FA
:040008000EEF00F007
:080018006BEF00F0D8CF13F0EC
:10002000146E1838176E0F0E171617C0E8FF300F32
:10003000BDEC07F018C017F00F0E171617C0E8FF39
:10004000300FBDEC07F01938176E0F0E171617C0DA
:10005000E8FF300FBDEC07F0730EBDEC07F0EDECE0
:1000600007F0C60ED76E3E0ED66EF2A466EF00F015
:1000700019C017F00F0E1716090E176249EF00F09E
:10008000100E1926F00E1916A00E1960196A4CEF01
:1000900000F0192A4CEF00F00000000E196266EF24
:1000A00000F018C017F00F0E1716090E176262EF56
:1000B00000F0100E1826F00E1816A00E1860186A20
:1000C00065EF00F0182A65EF00F00000F294143894
:1000D00013C0D8FF1000D8CF13F0146EF0A079EF42
:1000E00000F081380F0B126E79EF00F0FF6AFE6AA4
:1000F000FD6AF090143813C0D8FF1000FF0E926E06
:10010000FF0E936E000E946E000E956E070E966EA7
:100110000F0EC16E896A8A6A8B6A8C6A8D6A000EBC
:10012000C26EFF0EC16E83EC07F0280EAFEC07F035
:100130000C0EAFEC07F0010EAFEC07F0A4EC04F0EE
:10014000F0EC05F0000E806F010E816F01EC09F0FC
:1001500007EC08F0000E806F020E816F01EC09F0D1
:1001600007EC08F0010E806FFF0E816F01EC09F0C3
:1001700007EC08F00F0E806F030E816F01EC09F0A1
:1001800007EC08F0DAEC05F0D06AF26AF16AF06A7E
:10019000D08EF28EF28CF18AF28AF284F184F086AB
:1001A000F09CD59ED59CD59AD598D596D594D582D8
:1001B000D580216A226A856B866B406A416A426AF1
:1001C000436A446A456A466A476A486A496A4A6AAB
:1001D0004B6A4C6AF20E936ED9EC07F0000EF86E83
:1001E0000E0EF76E320EF66E0800F550BDEC07F0FD
:1001F0000B00F550FBE1EDEC07F0000EF86E0E0E73
:10020000F76E380EF66E0800F550BDEC07F00B00E7
:10021000F550FBE1280E1B6EF0EC05F01B2E0CEFE9
:1002200001F0D9EC07F0000EF86E0E0EF76E420EDC
:10023000F66E0800F550BDEC07F00B00F550FBE141
:1002400056EC06F0050E10622CEF01F0896A8A6AFE
:100250008B6A8C6A0AEF02F00000090E106237EF19
:1002600001F0896A8A6A8B6A8C6A65EF01F0000086
:10027000030E106242EF01F0896A8A6A8B6A8C6A07
:100280001DEF02F00000070E10624DEF01F0896AC9
:100290008A6A8B6A8C6A0FEF03F000000B0E106203
:1002A00058EF01F0896A8A6A8B6A8C6A6EEF03F0F4
:1002B00000000F0E106263EF01F0896A8A6A8B6A90
:1002C0008C6A55EF04F00000BBD7030E836E07EC79
:1002D00008F0060E836E07EC08F00C0E836E07EC38
:1002E00008F0090E836E07EC08F0EFD748C0E8FF6E
:1002F000465CD8A47FEF01F047C0E8FF455CD8A07A
:1003000012004AC0E8FF465CD8A48AEF01F049C059
:10031000E8FF455CD8A012004CC0E8FF465CD8A4BA
:1003200095EF01F04BC0E8FF455CD8A01200630ECA
:10033000BDEC07F06FD046C0E8FF485CD8A4A4EF3E
:1003400001F045C0E8FF475CD8A012004AC0E8FFB2
:10035000485CD8A4AFEF01F049C0E8FF475CD8A0E3
:1003600012004CC0E8FF485CD8A4BAEF01F04BC0C3
:10037000E8FF475CD8A01200720EBDEC07F04AD02F
:1003800046C0E8FF4A5CD8A4C9EF01F045C0E8FFC9
:10039000495CD8A0120048C0E8FF4A5CD8A4D4EF5A
:1003A00001F047C0E8FF495CD8A012004CC0E8FF4C
:1003B0004A5CD8A4DFEF01F04BC0E8FF495CD8A04D
:1003C0001200670EBDEC07F025D046C0E8FF4C5C7C
:1003D000D8A4EEEF01F045C0E8FF4B5CD8A01200B6
:1003E00048C0E8FF4C5CD8A4F9EF01F047C0E8FF33
:1003F0004B5CD8A012004AC0E8FF4C5CD8A404EFC4
:1004000002F049C0E8FF4B5CD8A01200620EBDECC0
:1004100007F01200280E1B6EF0EC05F01B2E0CEFFF
:1004200002F0D9EC07F040EC09F081C040F0010E79
:100430004062310EBDEC07F0EDD729EC06F0ABECD5
:1004400004F01F68D9EC07F0000EF86E0E0EF76E80
:100450008C0EF66E0800F550BDEC07F00B00F55061
:10046000FBE1EDEC07F0C50ED76E440ED66ED58ECF
:10047000186A196A416A426A436A446A456A466A66
:10048000476A486A496A4A6A4B6A4C6A4CEC06F009
:100490000C0E106252EF02F0896A8A6A8B6A8C6ACB
:1004A00054EF02F00000F2D7D59EDEEC04F01F6A94
:1004B00041C0E8FF300F21C0AAFF22C0A9FFE8CF4A
:1004C000A8FFA6B2FED7A69EA69CA684F29EA198DF
:1004D000550EA76EAA0EA76EA682A6B2FED7F28E02
:1004E000A694222A42C0E8FF300F21C0AAFF22C0F2
:1004F000A9FFE8CFA8FFA6B2FED7A69EA69CA68419
:10050000F29EA198550EA76EAA0EA76EA682A6B25D
:10051000FED7F28EA694222A43C0E8FF300F21C0F6
:10052000AAFF22C0A9FFE8CFA8FFA6B2FED7A69EC9
:10053000A69CA684F29EA198550EA76EAA0EA76E41
:10054000A682A6B2FED7F28EA694222A44C0E8FF65
:10055000300F21C0AAFF22C0A9FFE8CFA8FFA6B292
:10056000FED7A69EA69CA684F29EA198550EA76EC5
:10057000AA0EA76EA682A6B2FED7F28EA694222A53
:10058000C2EF02F0D9EC07F0000EF86E0E0EF76E17
:10059000D80EF66E0800F550BDEC07F00B00F550D4
:1005A000FBE1000E216EA80E226E000E246EDC0E02
:1005B000256E166A156A152A21C0AAFF22C0A9FF56
:1005C000A69EA69CA680A8CF23F0150E222621C0A9
:1005D000AAFF22C0A9FF23C0A8FFA6B2FED7A69EED
:1005E000A69CA684F29EA198550EA76EAA0EA76E91
:1005F000A682A6B2FED7F28EA694140E225E150E27
:100600001562DBEF02F02A0E225EDC0E256E156A03
:10061000162A090E1662DBEF02F00FEF03F0D9EC99
:1006200007F0000EF86E0E0EF76E4A0EF66E08001A
:10063000F550BDEC07F00B00F550FBE10A0E226E01
:1006400064EC06F0EDEC07F0226AADEC06F04CEC41
:1006500006F0070E106233EF03F0896A8A6A8B6A2C
:100660008C6A40EF03F000000D0E10623EEF03F0C5
:10067000896A8A6A8B6A8C6A11EF01F00000E7D7F9
:10068000D9EC07F0000EF86E0E0EF76E5E0EF66EE9
:100690000800F550BDEC07F00B00F550FBE1EDEC68
:1006A00007F0000EF86E0E0EF76E660EF66E08007E
:1006B000F550BDEC07F00B00F550FBE1216A226A12
:1006C0004CEC06F00D0E10626CEF03F0896A8A6A3A
:1006D0008B6A8C6A0FEF03F00000B9D7D9EC07F0F2
:1006E000000EF86E0E0EF76E700EF66E0800F550E6
:1006F000BDEC07F00B00F550FBE1EDEC07F0000E50
:10070000F86E0E0EF76E800EF66E0800F550BDEC1A
:1007100007F00B00F550FBE14CEC06F00D0E1062FB
:1007200098EF03F0896A8A6A8B6A8C6A11EF01F08C
:100730000000000E1062A3EF03F0896A8A6A8B6AD8
:100740008C6AFDEF03F00000010E1062AEEF03F0C3
:10075000896A8A6A8B6A8C6AFDEF03F00000020ED8
:100760001062B9EF03F0896A8A6A8B6A8C6AFDEFBE
:1007700003F00000040E1062C4EF03F0896A8A6A75
:100780008B6A8C6AFDEF03F00000050E1062CFEF5C
:1007900003F0896A8A6A8B6A8C6AFDEF03F00000B5
:1007A000060E1062DAEF03F0896A8A6A8B6A8C6A35
:1007B000FDEF03F00000080E1062E5EF03F0896A18
:1007C0008A6A8B6A8C6AFDEF03F00000090E1062E2
:1007D000F0EF03F0896A8A6A8B6A8C6AFDEF03F096
:1007E00000000A0E1062FBEF03F0896A8A6A8B6AC6
:1007F0008C6AFDEF03F000008FD7D9EC07F0000EF4
:10080000F86E0E0EF76E700EF66E0800F550BDEC29
:1008100007F00B00F550FBE110C0E8FFE82A176E67
:10082000E842E89EE842E89E175E17C0E8FF17C05E
:1008300011F0150D11C0E8FF300FBDEC07F03A0EB6
:10084000BDEC07F0200EBDEC07F0F3CF22F0000E58
:10085000222621C0AAFF22C0A9FFA69EA69CA68090
:10086000A8CF18F0222A21C0AAFF22C0A9FFA69E65
:10087000A69CA680A8CF19F0222A64EC06F0F3CF3C
:1008800022F0EDEC07F0F3CF22F0ADEC06F04CECEB
:1008900006F00D0E106253EF04F0896A8A6A8B6AC3
:1008A0008C6A6EEF03F00000F2D7D9EC07F0000E6F
:1008B000F86E0E0EF76EA00EF66E0800F550BDEC49
:1008C00007F00B00F550FBE1EDEC07F0000EF86EC1
:1008D0000E0EF76EAE0EF66E0800F550BDEC07F08A
:1008E0000B00F550FBE1F9CF3AF0FACF3BF0FBCF2C
:1008F0003CF04CEC06F00D0E106285EF04F0896AB6
:100900008A6A8B6A8C6A11EF01F000000E0E106289
:1009100090EF04F0896A8A6A8B6A8C6A92EF04F01D
:100920000000E7D73968D9EC07F0000EF86E0E0E1C
:10093000F76EB80EF66E0800F550BDEC07F00B0030
:10094000F550FBE1396AD5D78298829694889486CF
:1009500012EC08F01200020E806F5FEC08F082C00B
:10096000E8FFAAEC08F0FAEC05F0010E806F5FECEE
:1009700008F082C0E8FFAAEC08F0FAEC05F0060ED9
:10098000806F5FEC08F082C0E8FFAAEC08F0FAEC98
:1009900005F0050E806F5FEC08F082C0E8FFAAEC5E
:1009A00008F0FAEC05F0040E806F5FEC08F082C0EE
:1009B000E8FFAAEC08F0FAEC05F012001838176E00
:1009C0000F0E171617C0E8FF300F21C0AAFF22C074
:1009D000A9FFE8CFA8FFA6B2FED7A69EA69CA68434
:1009E000F29EA198550EA76EAA0EA76EA682A6B279
:1009F000FED7F28EA694222A18C017F00F0E1716F3
:100A000017C0E8FF300F21C0AAFF22C0A9FFE8CF1E
:100A1000A8FFA6B2FED7A69EA69CA684F29EA19889
:100A2000550EA76EAA0EA76EA682A6B2FED7F28EAC
:100A3000A694222A1938176E0F0E171617C0E8FF52
:100A4000300F21C0AAFF22C0A9FFE8CFA8FFA6B29D
:100A5000FED7A69EA69CA684F29EA198550EA76ED0
:100A6000AA0EA76EA682A6B2FED7F28EA694222A5E
:100A70001200020E806F5FEC08F082C0E8FFAAEC63
:100A800008F085C0E8FFBDEC07F086C0E8FFBDECCC
:100A900007F0680EBDEC07F0010E806F5FEC08F008
:100AA00082C0E8FFAAEC08F085C0E8FFBDEC07F0C3
:100AB00086C0E8FFBDEC07F0000E806F5FEC08F029
:100AC00082C0E8FFAAEC08F085C0E8FFBDEC07F0A3
:100AD00086C0E8FFBDEC07F0200EBDEC07F0060E67
:100AE000806F5FEC08F082C0E8FFAAEC08F085C0D8
:100AF000E8FFBDEC07F086C0E8FFBDEC07F02F0E65
:100B0000BDEC07F0050E806F5FEC08F082C0E8FFD7
:100B1000AAEC08F085C0E8FFBDEC07F086C0E8FF4E
:100B2000BDEC07F02F0EBDEC07F0040E806F5FECFC
:100B300008F082C0E8FFAAEC08F085C0E8FFBDEC31
:100B400007F086C0E8FFBDEC07F01200816B060ECF
:100B5000806F22EC08F0802FFCD722EC08F0000E0A
:100B6000806F800E816F22EC08F0060E806F170EEA
:100B7000816F22EC08F0050E806F020E816F22EC6F
:100B800008F0040E806F190E816F22EC08F0020E3F
:100B9000806F110E816F22EC08F0010E806F380E0D
:100BA000816F22EC08F0000E806F000E816F22EC46
:100BB00008F012000F0EAF6EAC6AAB6AAB8EAB885A
:100BC000AC8A1200780E1C6E1C2EE4EF05F00000BB
:100BD0001200A40E1D6E1D2EEBEF05F0000012009A
:100BE000F90E1E6EE9EC05F01E2EF2EF05F0E9ECB1
:100BF00005F0120021C0AAFF22C0A9FF85C0A8FFEE
:100C0000A6B2FED7A69EA69CA684F29EA198550EDB
:100C1000A76EAA0EA76EA682A6B2FED7F28EA694E3
:100C2000222A21C0AAFF22C0A9FF86C0A8FFA6B21F
:100C3000FED7A69EA69CA684F29EA198550EA76EEE
:100C4000AA0EA76EA682A6B2FED7F28EA694222A7C
:100C50001200216A226A2068156A21C0AAFF22C0F8
:100C6000A9FF20C0A8FFA6B2FED7A69EA69CA68478
:100C7000F29EA198550EA76EAA0EA76EA682A6B2E6
:100C8000FED7F28EA694152A222A150E15622DEF94
:100C900006F0216A226A120081A24CEF06F0813828
:100CA0000F0B106E81B252EF06F01200EDEC07F060
:100CB00039EC05F081A256EF06F081380F0B106E6B
:100CC00081B260EF06F0120021C0AAFF22C0A9FF86
:100CD000A69EA69CA680A8CF23F0FF0E236283EFDA
:100CE00006F0000EF86E0E0EF76EF20EF66E0800AD
:100CF000F550BDEC07F00B00F550FBE1FF0E236053
:100D0000ACEF06F0120021C0AAFF22C0A9FFA69EE8
:100D1000A69CA680A8CFE8FFBDEC07F0222A21C040
:100D2000AAFF22C0A9FFA69EA69CA680A8CFE8FF86
:100D3000BDEC07F0222A21C0AAFF22C0A9FFA69E6F
:100D4000A69CA680A8CFE8FFBDEC07F0222A730E70
:100D5000BDEC07F0EDEC07F0120021C0AAFF22C0A5
:100D6000A9FFA69EA69CA680A8CF23F0FF0E236213
:100D7000CBEF06F0000EF86E0E0EF76EF20EF66E6A
:100D80000800F550BDEC07F00B00F550FBE1FF0E3D
:100D90002360FBEF06F021C0AAFF22C0A9FFA69E98
:100DA000A69CA680A8CF23F023C0E8FFBDEC07F0E7
:100DB000222A21C0AAFF22C0A9FFA69EA69CA68027
:100DC000A8CF23F023C0E8FFBDEC07F0222A680E6D
:100DD000BDEC07F0FCEC06F0200EBDEC07F0FCECDF
:100DE00006F02F0EBDEC07F0FCEC06F02F0EBDEC6C
:100DF00007F0FCEC06F0120021C0AAFF22C0A9FFF8
:100E0000A69EA69CA680A8CF23F023C0E8FFBDEC39
:100E100007F0222A21C0AAFF22C0A9FFA69EA69CF5
:100E2000A680A8CF23F023C0E8FFBDEC07F0222A5C
:020E30001200AE
:0E0E3200626F744C00006D7220686C2068675F
:100E400000005374616E6462790054696D653A0004
:100E500031323A303020322F332F31340000536199
:100E60007665643A00004261636B203C303E0000CE
:100E70005065726D616E656E74204C6F6773000013
:100E80003C313E202E2E2E203C393E00536F727492
:100E9000696E672E2E2E0000454E44203C2A3E00EF
:100EA000504320496E746572666163650000426557
:100EB00067696E203C233E005472616E73666572F2
:100EC00072696E672E2E2E0053746F707065640009
:100ED00054696D653A200000536176696E672E2E65
:100EE0002E0053616665747920636865636B2E2EEE
:100EF0002E004E2F410054696D6520616E642044C0
:100F00006174653A0000F6EC07F0F6EC07F0F6ECD9
:100F100007F08394300EF1EC07F0E0EC07F0E0EC22
:100F200007F0F6EC07F0E0EC07F0200EF1EC07F02C
:100F3000E0EC07F0F6EC07F0280ECEEC07F0F6EC4C
:100F400007F00C0ECEEC07F0F6EC07F0060ECEEC38
:100F500007F0F6EC07F0D9EC07F0838412008C94CC
:100F6000736EF00B8C6E8C867338F00B8C968C6ED7
:100F70008C868C9607EC08F012008C94746E74507A
:100F8000F00B040F836E8C867438F00B8C96040F74
:100F9000836E8C868C9601EC08F01200706EF1EC7A
:100FA00007F0E0EC07F07038F1EC07F0E0EC07F048
:100FB00012008394010ECEEC07F0F6EC07F012005D
:100FC000838600008396230E716E712EE5EF07F085
:100FD0001200800EAFEC07F01200C00EAFEC07F06D
:100FE0001200F00B83120F0983161200500E726E5E
:100FF000230E716E712EFAEF07F0722EF8EF07F0E4
:101000001200230E756E752E03EF08F01200C20E4B
:10101000756E0A0E766E752E0FEF08F0762E0BEFBA
:1010200008F01200000EC76E240EC86E280EC66EA1
:10103000C56AC68AA1969E96C790C584C5B4FED7D8
:101040009E961200C580C6AE9E869EA6FED79E9630
:10105000D00EC7B0FED7C96E9EA6FED79E96C5BC61
:101060004AEF08F080C0E8FFC7B0FED7C96E9EA661
:10107000FED79E96C5BC4FEF08F081C0E8FFC7B011
:10108000FED7C96E9EA6FED79E96C5BC55EF08F04A
:101090005AEF08F000000D0E896E3BEF09F00000DA
:1010A0000F0E896E8D803BEF09F00000090E896EEE
:1010B0003BEF09F0C584C5B4FED79E961200C580EB
:1010C000C6AE9E869EA6FED79E96D00EC7B0FED711
:1010D000C96E9EA6FED79E96C5BC96EF08F080C04E
:1010E000E8FFC7B0FED7C96E9EA6FED79E96C5BCC8
:1010F0009BEF08F0C5829EA6FED79E96D10EC7B084
:10110000FED7C96E9EA6FED79E96C5BCA0EF08F07E
:10111000C5869EA6FED79E96C9CFE8FF826FC58A78
:10112000C588C5B891EF08F0A5EF08F00000030EE0
:10113000896EFCEF08F00000050E896EFCEF08F0E8
:101140000000070E896EFCEF08F0C584C5B4FED719
:101150009E961200876F87390F0B300F856F87C0FF
:10116000E8FF0F0B300F866F1200C580C6AE9E865B
:101170009EA6FED79E96520EC7B0FED7C96E9EA6FB
:10118000FED79E96C5BCEDEF08F080C0E8FF800951
:10119000C7B0FED7C96E9EA6FED79E96C5BCF2EF1D
:1011A00008F0C5829EA6FED79E96530EC7B0FED706
:1011B000C96E9EA6FED79E96C5BCF7EF08F0C58601
:1011C0009EA6FED79E96C9CFE8FF816FC58AC588C7
:1011D000C5B8E8EF08F0FCEF08F00000030E896ED8
:1011E000FCEF08F00000050E896EFCEF08F000002F
:1011F000070E896EFCEF08F0C584C5B4FED79E9635
:101200001200C580C6AE9E869EA6FED79E96520E42
:10121000C7B0FED7C96E9EA6FED79E96C5BC2BEF63
:1012200009F080C0E8FFA009C7B0FED7C96E9EA62E
:10123000FED79E96C5BC30EF09F081C0E8FFFF0BDA
:10124000C7B0FED7C96E9EA6FED79E96C5BC36EF28
:1012500009F03BEF09F000000D0E896E3BEF09F03D
:1012600000000F0E896E8D803BEF09F00000090E23
:10127000896E3BEF09F0C584C5B4FED79E96120077
:10128000C580C6AE9E869EA6FED79E96110EC7B09E
:10129000FED7C96E9EA6FED79E96C5BC2BEF09F061
:1012A000C5869EA6FED79E96C9CFE8FF816FC58AE8
:1012B000C588C5B859EF09F0C584C5B4FED79E9658
:1012C0001200C5BC1200C58AC598C5B865EF09F003
:1012D0001200C76A280EC66EC56A240EC86E9486B0
:1012E00094881200C7B472EF09F01F0EC5140009EC
:1012F000F9E1120072EC09F0C580120072EC09F0FD
:10130000C582120072EC09F0C584120072EC09F07B
:10131000C96EC7B489EF09F01200C58672EC09F0F6
:10132000C5B6FED7C9501200C59AC588C5B8FED744
:021330001200A9
:020000040030CA
:0100010002FC
:010002001FDE
:010003001EDE
:010005008179
:010006008178
:010008000FE8
:01000900C036
:01000A000FE6
:01000B00E014
:01000C000FE4
:01000D0040B2
:00000001FF
