:020000040000FA
:0400000087EF00F096
:020004000000FA
:040008001CEF00F0F9
:0800180061EF00F0D5AE12000B
:10002000FF0ED76EFF0ED66E1200D5AE1200C30EB5
:10003000D76E280ED66E1200D8CF13F0146E000EB5
:100040003862A2EC08F0000E38620EEC00F0FF0EF1
:10005000386215EC00F0F2A45CEF00F019C017F064
:100060000F0E1716090E17623FEF00F0100E19263B
:10007000F00E1916A00E1960196A42EF00F0192A45
:1000800042EF00F00000000E19625CEF00F018C0B3
:1000900017F00F0E1716090E176258EF00F0100E2A
:1000A0001826F00E1816A00E1860186A5BEF00F004
:1000B000182A5BEF00F00000F294143813C0D8FF48
:1000C0001000D8CF13F0146EF0A082EF00F0FF0EF6
:1000D0001E6282EF00F081380F0B126E0C0E12625E
:1000E00082EF00F0D59ECDEC04F01E6A010E376E53
:1000F000CCEC03F0FF6AFE6AFD6AF090143813C07E
:10010000D8FF1000F090143813C0D8FF1000700E04
:10011000D36E000E926EFF0E936E000E946E000E64
:10012000956E030E966E000E896E000E8A6E000E9E
:100130008B6E000E8C6E000E8D6E000EC26E3BEC50
:1001400008F0280E67EC08F00C0E67EC08F0010EC2
:1001500067EC08F0D1EC08F08BEC04F0B6EC09F099
:10016000C9EC05F092EC08F0000EF86E0F0EF76E79
:10017000700EF66E0800F55075EC08F00B00F550A7
:10018000FBE1ACEC08F0000EF86E0F0EF76E760E89
:10019000F66E0800F55075EC08F00B00F550FBE129
:1001A000050E1A6E27EC06F01A2ED2EF00F0020EA2
:1001B000E8CF61F0C8EC09F0050E1A6E27EC06F0E6
:1001C0001A2EDEEF00F0E2EC09F02D6E050E1A6E2D
:1001D00027EC06F01A2EE8EF00F0030EE8CF61F0EE
:1001E000C8EC09F0050E1A6E27EC06F01A2EF4EF93
:1001F00000F0E2EC09F02E6E050E1A6E27EC06F008
:100200001A2EFEEF00F0040EE8CF61F0C8EC09F002
:10021000050E1A6E27EC06F01A2E0AEF01F0E2EC3A
:1002200009F02F6E050E1A6E27EC06F01A2E14EF49
:1002300001F0050EE8CF61F0C8EC09F0050E1A6E6A
:1002400027EC06F01A2E20EF01F0E2EC09F0306EF8
:10025000D06AF26AF16AF06AD08EF28EF28CF18A7C
:10026000F28AF284F184F086F09CD59ED59CD59AD2
:10027000D598D596D594D582D580206A216A636AAF
:10028000646AF20E936E030E966E00D0000E846EBA
:10029000000E806E386892EC08F0000EF86E0F0EBB
:1002A000F76E800EF66E0800F55075EC08F00B0046
:1002B000F550FBE1ACEC08F0000EF86E0F0EF76E97
:1002C000A80EF66E0800F55075EC08F00B00F5501E
:1002D000FBE1FF0ED76EFF0ED66ED58E8DEC06F0CD
:1002E000030E10627AEF01F0896A8A6A8B6A8C6A5F
:1002F0009DEF01F00000070E106285EF01F0896AA2
:100300008A6A8B6A8C6A0AEF02F000000B0E106298
:1003100090EF01F0896A8A6A8B6A8C6A61EF02F059
:1003200000000F0E10629BEF01F0896A8A6A8B6AE7
:100330008C6A78EF03F00000D1D7386A60EC06F0E1
:1003400092EC04F01E6892EC08F0000EF86E100EAD
:10035000F76E1E0EF66E0800F55075EC08F00B00F7
:10036000F550FBE1C30ED76E280ED66ED58E186AF7
:10037000196A010EE8CF61F0C8EC09F0030E1A6E9D
:1003800027EC06F01A2EC0EF01F0CFEF01F018387D
:10039000176E0F0E1716000E175E26E01200ACEC5B
:1003A00008F01838176E0F0E171617C0E8FF300F39
:1003B00075EC08F018C017F00F0E171617C0E8FFFD
:1003C000300F75EC08F01938176E0F0E171617C09E
:1003D000E8FF300F75EC08F0730E75EC08F080CF75
:1003E00017F017B8DCD700D0D59ECDEC04F092EC16
:1003F00008F0000EF86E100EF76E680EF66E08002C
:10040000F55075EC08F00B00F550FBE11E6ACCECE2
:1004100003F07DD6386A92EC08F0000EF86E0F0EED
:10042000F76ED00EF66E0800F55075EC08F00B0074
:10043000F550FBE10A0E216E97EC06F0ACEC08F0EB
:100440000D0E216EE0EC06F083EC06F0070E106254
:1004500030EF02F0896A8A6A8B6A8C6A3DEF02F09B
:1004600000000D0E10623BEF02F0896A8A6A8B6A07
:100470008C6A46EF01F00000E7D792EC08F0216AA1
:100480004CEC07F0ACEC08F0000EF86E0F0EF76EB7
:10049000EC0EF66E0800F55075EC08F00B00F55008
:1004A000FBE1206A216A83EC06F00D0E10625FEF1B
:1004B00002F0896A8A6A8B6A8C6A0AEF02F000008D
:1004C000C3D7386A92EC08F0000EF86E0F0EF76E84
:1004D000FC0EF66E0800F55075EC08F00B00F550B8
:1004E000FBE1ACEC08F0000EF86E100EF76E0C0E8F
:1004F000F66E0800F55075EC08F00B00F550FBE1C6
:1005000083EC06F00D0E10628CEF02F0896A8A6AA5
:100510008B6A8C6A46EF01F00000000E106297EFC4
:1005200002F0896A8A6A8B6A8C6AF1EF02F0000035
:10053000010E1062A2EF02F0896A8A6A8B6A8C6AE5
:10054000F1EF02F00000020E1062ADEF02F0896AD6
:100550008A6A8B6A8C6AF1EF02F00000040E106266
:10056000B8EF02F0896A8A6A8B6A8C6AF1EF02F04E
:100570000000050E1062C3EF02F0896A8A6A8B6A76
:100580008C6AF1EF02F00000060E1062CEEF02F06E
:10059000896A8A6A8B6A8C6AF1EF02F00000080EA1
:1005A0001062D9EF02F0896A8A6A8B6A8C6AF1EF6D
:1005B00002F00000090E1062E4EF02F0896A8A6A14
:1005C0008B6A8C6AF1EF02F000000A0E1062EFEF06
:1005D00002F0896A8A6A8B6A8C6AF1EF02F0000085
:1005E0008FD7386A92EC08F0000EF86E0F0EF76E97
:1005F000FC0EF66E0800F55075EC08F00B00F55097
:10060000FBE110C0E8FFE82A176EE842E89EE842E6
:10061000E89E175E17C0E8FF17C011F0150D11C056
:10062000E8FF300F75EC08F03A0E75EC08F0200E7C
:1006300075EC08F0F3CF21F0000E212620C0AAFFB0
:1006400021C0A9FFA69EA69CA680A8CF18F0212AAB
:1006500020C0AAFF21C0A9FFA69EA69CA680A8CF65
:1006600019F0212A97EC06F0F3CF21F0ACEC08F05A
:10067000F3CF21F04CEC07F083EC06F0030E106290
:1006800048EF03F0896A8A6A8B6A8C6A55EF03F037
:1006900000000D0E106253EF03F0896A8A6A8B6ABC
:1006A0008C6A61EF02F00000E7D792EC08F0000ED0
:1006B000F86E0F0EF76ED00EF66E0800F55075EC62
:1006C00008F00B00F550FBE197EC06F0ACEC08F0FD
:1006D000E0EC06F083EC06F00D0E106276EF03F00E
:1006E000896A8A6A8B6A8C6A61EF02F00000F2D72D
:1006F000386A92EC08F0000EF86E100EF76E300EAD
:10070000F66E0800F55075EC08F00B00F550FBE1B3
:10071000ACEC08F0000EF86E100EF76E3E0EF66EA2
:100720000800F55075EC08F00B00F550FBE1F9CF2F
:1007300029F0FACF2AF0FBCF2BF083EC06F00D0E58
:100740001062A9EF03F0896A8A6A8B6A8C6A46EFA5
:1007500001F000000E0E1062B4EF03F0896A8A6A9D
:100760008B6A8C6AB6EF03F00000E7D7386A286816
:1007700092EC08F0000EF86E100EF76E4E0EF66E4C
:100780000800F55075EC08F00B00F550FBE1D3ECD8
:1007900005F0286A46EF01F02DC0E8FF300F20C0B9
:1007A000AAFF21C0A9FFE8CFA8FFA6B2FED7A69E48
:1007B000A69CA684F29EA198550EA76EAA0EA76EBF
:1007C000A682A6B2FED7F28EA694212A2EC0E8FFFA
:1007D000300F20C0AAFF21C0A9FFE8CFA8FFA6B212
:1007E000FED7A69EA69CA684F29EA198550EA76E43
:1007F000AA0EA76EA682A6B2FED7F28EA694212AD2
:100800002FC0E8FF300F20C0AAFF21C0A9FFE8CF0A
:10081000A8FFA6B2FED7A69EA69CA684F29EA1988B
:10082000550EA76EAA0EA76EA682A6B2FED7F28EAE
:10083000A694212A30C0E8FF300F20C0AAFF21C0B3
:10084000A9FFE8CFA8FFA6B2FED7A69EA69CA684C5
:10085000F29EA198550EA76EAA0EA76EA682A6B20A
:10086000FED7F28EA694212A37C0E8FF300F20C0B1
:10087000AAFF21C0A9FFE8CFA8FFA6B2FED7A69E77
:10088000A69CA684F29EA198550EA76EAA0EA76EEE
:10089000A682A6B2FED7F28EA694212A000E206E62
:1008A000A80E216E000E236EDC0E246E166A156AE9
:1008B000152A20C0AAFF21C0A9FFA69EA69CA6803B
:1008C000A8CF22F0150E212620C0AAFF21C0A9FF23
:1008D00022C0A8FFA6B2FED7A69EA69CA684F29E22
:1008E000A198550EA76EAA0EA76EA682A6B2FED735
:1008F000F28EA694140E215E150E156258EF04F0C8
:100900002A0E215EDC0E246E156A162A090E166266
:1009100058EF04F01200829882969488948640ECF6
:1009200009F01200020E606E04EC09F062C0E8FFEC
:1009300035EC09F0020E606E04EC09F062C0E8FFCD
:1009400035EC09F031EC06F0010E606E04EC09F0B4
:1009500062C0E8FF35EC09F031EC06F0060E606E7F
:1009600004EC09F062C0E8FF35EC09F031EC06F068
:10097000050E606E04EC09F062C0E8FF35EC09F08A
:1009800031EC06F0040E606E04EC09F062C0E8FF82
:1009900035EC09F031EC06F012001838176E0F0E26
:1009A000171617C0E8FF300F20C0AAFF21C0A9FF0B
:1009B000E8CFA8FFA6B2FED7A69EA69CA684F29E6C
:1009C000A198550EA76EAA0EA76EA682A6B2FED754
:1009D000F28EA694212A18C017F00F0E171617C012
:1009E000E8FF300F20C0AAFF21C0A9FFE8CFA8FF71
:1009F000A6B2FED7A69EA69CA684F29EA198550EEE
:100A0000A76EAA0EA76EA682A6B2FED7F28EA694F5
:100A1000212A1938176E0F0E171617C0E8FF300F6E
:100A200020C0AAFF21C0A9FFE8CFA8FFA6B2FED729
:100A3000A69EA69CA684F29EA198550EA76EAA0E0D
:100A4000A76EA682A6B2FED7F28EA694212A120025
:100A5000020E606E04EC09F062C0E8FF35EC09F0AC
:100A600063C0E8FF75EC08F064C0E8FF75EC08F0BF
:100A7000680E75EC08F0010E606E04EC09F062C0BF
:100A8000E8FF35EC09F063C0E8FF75EC08F064C0DE
:100A9000E8FF75EC08F0000E606E04EC09F062C02F
:100AA000E8FF35EC09F063C0E8FF75EC08F064C0BE
:100AB000E8FF75EC08F0200E75EC08F0060E606E8D
:100AC00004EC09F062C0E8FF35EC09F063C0E8FF10
:100AD00075EC08F064C0E8FF75EC08F02F0E75ECBB
:100AE00008F0050E606E04EC09F062C0E8FF35EC1A
:100AF00009F063C0E8FF75EC08F064C0E8FF75EC2E
:100B000008F02F0E75EC08F0040E606E04EC09F08E
:100B100062C0E8FF35EC09F063C0E8FF75EC08F04F
:100B200064C0E8FF75EC08F01200616A060E606EA2
:100B3000E2EC08F0602EFCD7E2EC08F0000E606EEC
:100B4000800E616EE2EC08F0060E606E170E616EAC
:100B5000E2EC08F0050E606E040E616EE2EC08F047
:100B6000040E606E060E616EE2EC08F0020E606E1E
:100B7000220E616EE2EC08F0010E606E150E616EE1
:100B8000E2EC08F0000E606E000E616EE2EC08F020
:100B90001200948E949C0F0EAF6EAC6AAB6AAB8E53
:100BA000AB88AC8A1200020E0DEC06F00D0E0DECB7
:100BB00006F0156A166A150E1502F3CF21F0166AB3
:100BC00020C0AAFF21C0A9FFA69EA69CA680A8CFF0
:100BD000E8FF0DEC06F0212A162A120E1662F0D755
:100BE00012EC06F0152A080E1562E5D7ACEC08F0F9
:100BF000000EF86E100EF76E5E0EF66E0800F550E1
:100C000075EC08F00B00F550FBE1280E1A6E27EC8E
:100C100006F01A2E07EF06F01200AD6EACA20EEF32
:100C200006F012000A0E0DEC06F00D0E0DEC06F0AB
:100C30001200780E1B6E1B2E1BEF06F00000120038
:100C4000A40E1C6E1C2E22EF06F000001200F90EFE
:100C50001D6E20EC06F01D2E29EF06F020EC06F0AC
:100C6000120020C0AAFF21C0A9FF63C0A8FFA6B23E
:100C7000FED7A69EA69CA684F29EA198550EA76EAE
:100C8000AA0EA76EA682A6B2FED7F28EA694212A3D
:100C900020C0AAFF21C0A9FF64C0A8FFA6B2FED74A
:100CA000A69EA69CA684F29EA198550EA76EAA0E9B
:100CB000A76EA682A6B2FED7F28EA694212A1200B3
:100CC000206A216A1F68156A20C0AAFF21C0A9FFF7
:100CD0001FC0A8FFA6B2FED7A69EA69CA684F29E21
:100CE000A198550EA76EAA0EA76EA682A6B2FED731
:100CF000F28EA694152A212A150E156264EF06F0CD
:100D0000206A216A120081A283EF06F081380F0B5E
:100D1000106E81B289EF06F0120081A28DEF06F00D
:100D200081380F0B106E81B293EF06F0120020C0D5
:100D3000AAFF21C0A9FFA69EA69CA680A8CF22F04C
:100D4000FF0E2262B6EF06F0000EF86E100EF76E80
:100D5000720EF66E0800F55075EC08F00B00F550B9
:100D6000FBE1FF0E2260DFEF06F0120020C0AAFFB9
:100D700021C0A9FFA69EA69CA680A8CFE8FF75EC7F
:100D800008F0212A20C0AAFF21C0A9FFA69EA69C88
:100D9000A680A8CFE8FF75EC08F0212A20C0AAFFA2
:100DA00021C0A9FFA69EA69CA680A8CFE8FF75EC4F
:100DB00008F0212A730E75EC08F0ACEC08F0120074
:100DC00020C0AAFF21C0A9FFA69EA69CA680A8CFEE
:100DD00022F0FF0E2262FEEF06F0000EF86E100EFB
:100DE000F76E720EF66E0800F55075EC08F00B0009
:100DF000F550FBE1FF0E22604BEF07F0610E75EC42
:100E000008F020C0AAFF21C0A9FFA69EA69CA6802C
:100E1000A8CF22F022C0E8FF75EC08F0212A200EAE
:100E200075EC08F0620E75EC08F020C0AAFF21C036
:100E3000A9FFA69EA69CA680A8CF22F022C0E8FF0C
:100E400075EC08F0212A200E75EC08F0630E75ECA5
:100E500008F020C0AAFF21C0A9FFA69EA69CA680DC
:100E6000A8CF22F022C0E8FF75EC08F0212A200E5E
:100E700075EC08F0640E75EC08F020C0AAFF21C0E4
:100E8000A9FFA69EA69CA680A8CF22F022C0E8FFBC
:100E900075EC08F0212A120020C0AAFF21C0A9FF8A
:100EA000A69EA69CA680A8CF22F0FF0E22626AEF23
:100EB00007F0000EF86E100EF76E720EF66E080058
:100EC000F55075EC08F00B00F550FBE1FF0E2260C9
:100ED0009AEF07F020C0AAFF21C0A9FFA69EA69CFA
:100EE000A680A8CF22F022C0E8FF75EC08F0212AE6
:100EF00020C0AAFF21C0A9FFA69EA69CA680A8CFBD
:100F000022F022C0E8FF75EC08F0212A680E75EC8B
:100F100008F09BEC07F0200E75EC08F09BEC07F056
:100F20002F0E75EC08F09BEC07F02F0E75EC08F017
:100F30009BEC07F0120020C0AAFF21C0A9FFA69ECB
:100F4000A69CA680A8CF22F022C0E8FF75EC08F08E
:100F5000212A20C0AAFF21C0A9FFA69EA69CA68088
:100F6000A8CF22F022C0E8FF75EC08F0212A120079
:100F7000626F744C00006D7220686C20686700001E
:100F80007374616E64696E67206279202E2E2E2044
:100F90002E2E2E207374616E64696E672062792034
:100FA0002E2E2E202E2E2E003C613E736F7274204A
:100FB0003C623E6C617374206C6F67203C633E70D2
:100FC00065726D206C6F6773203C643E7063000037
:100FD00074696D653A0031323A303020322F332F48
:100FE0003134000073617665643A00003C626163ED
:100FF0006B3E20746F207374617473007065726D42
:10100000616E656E74206C6F67732000707265731B
:1010100073203C313E20746F203C393E0000736FDA
:101020007274696E672E2E2E00003C656E643E0061
:10103000706320696E7465726661636500003C7858
:101040006665723E20746F20626567696E00747217
:10105000616E7366657272696E672E2E2E00636F05
:101060006D706C6574652100736176696E672E2EF4
:101070002E006E2F6100B5EC08F0B5EC08F0B5EC71
:1010800008F08394300EB0EC08F099EC08F099EC7D
:1010900008F0B5EC08F099EC08F0200EB0EC08F080
:1010A00099EC08F0B5EC08F0280E87EC08F0B5ECE8
:1010B00008F00C0E87EC08F0B5EC08F0060E87EC93
:1010C00008F0B5EC08F092EC08F0838412008C94E0
:1010D000716EF00B8C6E8C867138F00B8C968C6E6A
:1010E0008C868C96C6EC08F012008C94726E72C0DE
:1010F000E8FFF00B040F836E8C867238F00B8C9631
:10110000040F836E8C868C96C0EC08F01200686E1B
:10111000B0EC08F099EC08F06838B0EC08F099EC05
:1011200008F012008394010E87EC08F0B5EC08F08B
:101130001200838600008396230E696E692E9EEF4F
:1011400008F012001B0E67EC08F0B5EC08F0120076
:10115000800E67EC08F01200C00E67EC08F0120079
:10116000F00B83120F0983161200500E706E230EBF
:10117000696E692EB9EF08F0702EB7EF08F0120013
:10118000230E736E732EC2EF08F01200C20E736E40
:101190000A0E746E732ECEEF08F0742ECAEF08F0AC
:1011A0001200000EC76E280EC66E000EC56E180E19
:1011B000C86EC68AA1969E96C790C584C5B4FED750
:1011C0009E961200C580C6AE9E869EA6FED79E96AF
:1011D000D00EC7B0FED7C96E9EA6FED79E9660C041
:1011E000E8FFC7B0FED7C96E9EA6FED79E9661C027
:1011F000E8FFC7B0FED7C96E9EA6FED79E96C584EF
:10120000C5B4FED79E961200C580C6AE9E869EA629
:10121000FED79E96D00EC7B0FED7C96E9EA6FED74B
:101220009E9660C0E8FFC7B0FED7C96E9EA6FED7E7
:101230009E96C5829EA6FED79E96D10EC7B0FED7BB
:10124000C96E9EA6FED79E96C5869EA6FED79E9682
:10125000C9CFE8FF626EC58AC588C5B82DEF09F011
:10126000C584C5B4FED79E961200656E65380F0B17
:10127000300F636E65C0E8FF0F0B300F646E120015
:10128000C580C6AE9E869EA6FED79E96D00EC7B0DF
:10129000FED7C96E9EA6FED79E960E0EC7B0FED78D
:1012A000C96E9EA6FED79E96040EC7B0FED7C96E25
:1012B0009EA6FED79E96C584C5B4FED79E96120004
:1012C000C580C6AE9E869EA6FED79E96520EC7B01D
:1012D000FED7C96E9EA6FED79E9660C0E8FF800925
:1012E000C7B0FED7C96E9EA6FED79E96C5829EA6A3
:1012F000FED79E96530EC7B0FED7C96E9EA6FED7E8
:101300009E96C5869EA6FED79E96C9CFE8FF616EC3
:10131000C58AC588C5B88AEF09F0C584C5B4FED7AB
:101320009E961200C580C6AE9E869EA6FED79E964D
:10133000520EC7B0FED7C96E9EA6FED79E9660C05D
:10134000E8FF8009C7B0FED7C96E9EA6FED79E965D
:1013500061C0E8FFFF0BC7B0FED7C96E9EA6FED7DF
:101360009E96C584C5B4FED79E961200C580C6AEB3
:101370009E869EA6FED79E96100EC7B0FED7C96E5B
:101380009EA6FED79E96C584C5B4FED79E96120033
:10139000C580C6AE9E869EA6FED79E96100EC7B08E
:1013A000FED7C96E9EA6FED79E9661C0E8FFC7B065
:1013B000FED7C96E9EA6FED79E96C584C5B4FED73D
:1013C0009E961200C580C6AE9E869EA6FED79E96AD
:1013D000100EC7B0FED7C96E9EA6FED79E96C582D8
:1013E0009EA6FED79E96110EC7B0FED7C96E9EA6CA
:1013F000FED79E96C5869EA6FED79E96C9CFE8FFCD
:10140000C58AC588C5B802EF0AF0C584C5B4FED741
:101410009E961200C5BC1200C58AC598C5B80EEFCD
:101420000AF01200C76A280EC66EC56A240EC86E7E
:10143000948694881200C7B41BEF0AF01F0EC514DF
:101440000009F9E112001BEC0AF0C58012001BEC48
:101450000AF0C58212001BEC0AF0C58412001BECD6
:101460000AF0C96EC7B432EF0AF01200C5861BEC51
:101470000AF0C5B6FED7C9501200C59AC588C5B8CE
:04148000FED7120081
:020000040030CA
:0100010002FC
:010002001FDE
:010003001EDE
:010005008179
:010006008178
:010008000FE8
:01000900C036
:01000A000FE6
:01000B00E014
:01000C000FE4
:01000D0040B2
:00000001FF
