:020000040000FA
:04000000A5EF00F078
:020004000000FA
:0400080032EF00F0E3
:080018007AEF00F0FF0E1E62FA
:1000200075EF00F0D59E5CEC05F0F2921E6A010EB1
:10003000376E5BEC04F0000EE8CF61F075EC0AF06F
:10004000FF6AFE6AFD6AF090143813C0D8FF1000F2
:10005000FF0ED76EFF0ED66E1200C30ED76E270EA0
:10006000D66E1200D8CF13F0146EF2B20EEC00F080
:10007000000E38624FEC09F0000E386228EC00F0F8
:10008000FF0E38622DEC00F0F2A475EF00F019C0FD
:1000900017F00F0E1716090E176258EF00F0100E2A
:1000A0001926F00E1916A00E1960196A5BEF00F000
:1000B000192A5BEF00F00000000E196275EF00F0E6
:1000C00018C017F00F0E1716090E176271EF00F027
:1000D000100E1826F00E1816A00E1860186A74EF8D
:1000E00000F0182A74EF00F00000F294143813C0E6
:1000F000D8FF1000D8CF13F0146EF0A0A0EF00F0DE
:10010000FF0E1E62A0EF00F081380F0B126E0C0E76
:100110001262A0EF00F0D59E5CEC05F01E6A010EA5
:10012000376E000EE8CF61F075EC0AF05BEC04F07E
:10013000FF6AFE6AFD6AF090143813C0D8FF100001
:10014000F090143813C0D8FF1000700ED36E000E5C
:10015000926EFF0E936E000E946E000E956E000E62
:10016000966E000E896E000E8A6E000E8B6E000E6B
:100170008C6E000E8D6E000EC26EE8EC08F0280E3C
:1001800014EC09F00C0E14EC09F0010E14EC09F05B
:100190007EEC09F01AEC05F058EC06F0D06AF26A31
:1001A000F16AF06AD08EF28EF28CF18AF28AF284D1
:1001B000F184F086F09CF288F292D59ED59CD59A77
:1001C000D598D596D594D582D580206A216A636A60
:1001D000646A000EE8CF61F075EC0AF02C6A2D6AB3
:1001E0002E6A2F6A306A316A326AF20E936E3FECE1
:1001F00009F0000EF86E100EF76E920EF66E080003
:10020000F55022EC09F00B00F550FBE159EC09F038
:10021000000EF86E100EF76E980EF66E0800F55090
:1002200022EC09F00B00F550FBE1280E1A6EB6EC3B
:1002300006F01A2E17EF01F0000E846E000E806E8D
:1002400038683FEC09F0000EF86E100EF76EA20E43
:10025000F66E0800F55022EC09F00B00F550FBE1BA
:1002600059EC09F0000EF86E100EF76ECA0EF66E1D
:100270000800F55022EC09F00B00F550FBE1FF0EF1
:10028000D76EFF0ED66ED58E1CEC07F0000E1062F6
:1002900050EF01F0896A8A6A8B6A8C6ADFEF01F09D
:1002A0000000010E10625BEF01F0896A8A6A8B6AB6
:1002B0008C6A89EF01F00000030E106266EF01F016
:1002C000896A8A6A8B6A8C6AF9EF01F00000070E6E
:1002D000106271EF01F0896A8A6A8B6A8C6A99EF01
:1002E00002F000000B0E10627CEF01F0896A8A6A4E
:1002F0008B6A8C6AF0EF02F000000F0E106287EF3D
:1003000001F0896A8A6A8B6A8C6A07EF04F0000040
:10031000BBD7386A326A140E1A6EB6EC06F01A2E83
:100320008DEF01F0230E806E73EC09F073EC09F091
:1003300073EC09F073EC09F073EC09F073EC09F05D
:1003400073EC09F073EC09F0260E806E73EC09F083
:1003500073EC09F073EC09F073EC09F073EC09F03D
:1003600073EC09F073EC09F073EC09F02C0E806E5D
:1003700073EC09F073EC09F073EC09F073EC09F01D
:1003800073EC09F073EC09F073EC09F073EC09F00D
:10039000290E806E73EC09F073EC09F073EC09F030
:1003A00073EC09F073EC09F073EC09F073EC09F0ED
:1003B00073EC09F0322A020E3262B4D7AAD73FECAE
:1003C00009F0386A010E846E3C0E1A6EB6EC06F027
:1003D0001A2EE6EF01F08FEC0AF02C6E300F22ECB3
:1003E00009F03C0E1A6EB6EC06F01A2EF3EF01F08F
:1003F000E6D7D59E386AEFEC06F021EC05F01E68D2
:100400003FEC09F0000EF86E110EF76E500EF66E0E
:100410000800F55022EC09F00B00F550FBE159EC17
:1004200009F0C30ED76E270ED66ED58E186A196ADC
:100430002D6A2E6A2F6A306A316A010E356E346A6F
:10044000010EE8CF61F075EC0AF02FEF02F01838DA
:10045000176E0F0E1716010E175E4FE01200020EF8
:10046000376E18C017F00F0E1716050E176027EC21
:1004700002F0376A0A0E315C40E00A0E1A6EB6ECE2
:1004800006F01A2E3FEF02F08FEC0AF02C6E050EEC
:100490002C5CE5E0312A040E2C5C0AE0030E2C5C97
:1004A00009E0020E2C5C08E0010E2C5C07E0D7D7B7
:1004B000302A06D02F2A04D02E2A02D02D2A00D08E
:1004C000376A0A0E315C19E0CAD7030E31642FEF88
:1004D00002F0000E30642FEF02F0000E2F642FEFB9
:1004E00002F0000E2E642FEF02F0000E2D642FEFAD
:1004F00002F0030E376E7DEF02F0D59E5CEC05F046
:100500001E6A000EE8CF61F075EC0AF03FEC09F0CE
:10051000000EF86E110EF76EC20EF66E0800F55062
:1005200022EC09F00B00F550FBE15BEC04F099EFD5
:1005300002F0386A3FEC09F0000EF86E100EF76E0C
:10054000F20EF66E0800F55022EC09F00B00F550A3
:10055000FBE10A0E216E28EC07F059EC09F00D0EB4
:10056000216E71EC07F012EC07F0070E1062BFEF7E
:1005700002F0896A8A6A8B6A8C6ACCEF02F000000A
:100580000D0E1062CAEF02F0896A8A6A8B6A8C6A61
:100590001CEF01F00000E7D73FEC09F0216ADDEC29
:1005A00007F059EC09F0000EF86E110EF76E0E0E02
:1005B000F66E0800F55022EC09F00B00F550FBE157
:1005C000206A216A12EC07F00D0E1062EEEF02F0C5
:1005D000896A8A6A8B6A8C6A99EF02F00000C3D735
:1005E00038683FEC09F0000EF86E110EF76E180E29
:1005F000F66E0800F55022EC09F00B00F550FBE117
:1006000059EC09F0000EF86E110EF76E280EF66E1A
:100610000800F55022EC09F00B00F550FBE112EC5C
:1006200007F00D0E10621BEF03F0896A8A6A8B6A6D
:100630008C6A1CEF01F00000000E106226EF03F040
:10064000896A8A6A8B6A8C6A80EF03F00000010E67
:10065000106231EF03F0896A8A6A8B6A8C6A80EFD4
:1006600003F00000020E10623CEF03F0896A8A6A10
:100670008B6A8C6A80EF03F00000040E106247EF73
:1006800003F0896A8A6A8B6A8C6A80EF03F0000043
:10069000050E106252EF03F0896A8A6A8B6A8C6ACF
:1006A00080EF03F00000060E10625DEF03F0896A30
:1006B0008A6A8B6A8C6A80EF03F00000080E106271
:1006C00068EF03F0896A8A6A8B6A8C6A80EF03F0AC
:1006D0000000090E106273EF03F0896A8A6A8B6A60
:1006E0008C6A80EF03F000000A0E10627EEF03F0C8
:1006F000896A8A6A8B6A8C6A80EF03F000008FD760
:10070000386A3FEC09F0000EF86E110EF76E180E05
:10071000F66E0800F55022EC09F00B00F550FBE1F5
:1007200010C0E8FFE82A176EE842E89EE842E89E1B
:10073000175E17C0E8FF17C011F0150D11C0E8FFD4
:10074000300F22EC09F03A0E22EC09F0200E22ECD8
:1007500009F0F3CF21F0000E212620C0AAFF21C00E
:10076000A9FFA69EA69CA680A8CF18F0212A20C08B
:10077000AAFF21C0A9FFA69EA69CA680A8CF19F01B
:10078000212A28EC07F0F3CF21F059EC09F0F3CF40
:1007900021F0DDEC07F012EC07F0030E1062D7EF4A
:1007A00003F0896A8A6A8B6A8C6AE4EF03F00000BE
:1007B0000D0E1062E2EF03F0896A8A6A8B6A8C6A16
:1007C000F0EF02F00000E7D73FEC09F0000EF86E02
:1007D000100EF76EF20EF66E0800F55022EC09F0DE
:1007E0000B00F550FBE128EC07F059EC09F071EC37
:1007F00007F012EC07F00D0E106205EF04F0896AA5
:100800008A6A8B6A8C6AF0EF02F00000F2D73868CF
:100810003FEC09F0000EF86E110EF76E640EF66EE6
:100820000800F55022EC09F00B00F550FBE159EC03
:1008300009F0000EF86E110EF76E880EF66E0800C5
:10084000F55022EC09F00B00F550FBE1F9CF29F04F
:10085000FACF2AF0FBCF2BF012EC07F00D0E10624E
:1008600038EF04F0896A8A6A8B6A8C6A1CEF01F09F
:1008700000000E0E106243EF04F0896A8A6A8B6AE8
:100880008C6A45EF04F00000E7D7386A28683FEC2F
:1008900009F0000EF86E110EF76EA80EF66E080045
:1008A000F55022EC09F00B00F550FBE162EC06F08C
:1008B000286A1CEF01F02DC0E8FF300F20C0AAFF0E
:1008C00021C0A9FFE8CFA8FFA6B2FED7A69EA69C8E
:1008D000A684F29EA198550EA76EAA0EA76EA682B8
:1008E000A6B2FED7F28EA694212A2EC0E8FF300FC2
:1008F00020C0AAFF21C0A9FFE8CFA8FFA6B2FED75B
:10090000A69EA69CA684F29EA198550EA76EAA0E3E
:10091000A76EA682A6B2FED7F28EA694212A2FC079
:10092000E8FF300F20C0AAFF21C0A9FFE8CFA8FF31
:10093000A6B2FED7A69EA69CA684F29EA198550EAE
:10094000A76EAA0EA76EA682A6B2FED7F28EA694B6
:10095000212A30C0E8FF300F20C0AAFF21C0A9FF24
:10096000E8CFA8FFA6B2FED7A69EA69CA684F29EBC
:10097000A198550EA76EAA0EA76EA682A6B2FED7A4
:10098000F28EA694212A37C0E8FF300F20C0AAFFBC
:1009900021C0A9FFE8CFA8FFA6B2FED7A69EA69CBD
:1009A000A684F29EA198550EA76EAA0EA76EA682E7
:1009B000A6B2FED7F28EA694212A000E206EA80EB3
:1009C000216E000E236EDC0E246E166A156A152A3F
:1009D00020C0AAFF21C0A9FFA69EA69CA680A8CFE2
:1009E00022F0150E212620C0AAFF21C0A9FF22C097
:1009F000A8FFA6B2FED7A69EA69CA684F29EA198AA
:100A0000550EA76EAA0EA76EA682A6B2FED7F28ECC
:100A1000A694140E215E150E1562E7EF04F02A0E5F
:100A2000215EDC0E246E156A162A090E1662E7EFA7
:100A300004F012008298829694889486EDEC09F076
:100A40001200020E606EB1EC09F062C0E8FFE2EC49
:100A500009F0020E606EB1EC09F062C0E8FFE2EC52
:100A600009F0C0EC06F0010E606EB1EC09F062C056
:100A7000E8FFE2EC09F0C0EC06F0060E606EB1ECA7
:100A800009F062C0E8FFE2EC09F0C0EC06F0050EE8
:100A9000606EB1EC09F062C0E8FFE2EC09F0C0EC76
:100AA00006F0040E606EB1EC09F062C0E8FFE2EC03
:100AB00009F0C0EC06F012001838176E0F0E17166A
:100AC00017C0E8FF300F20C0AAFF21C0A9FFE8CF60
:100AD000A8FFA6B2FED7A69EA69CA684F29EA198C9
:100AE000550EA76EAA0EA76EA682A6B2FED7F28EEC
:100AF000A694212A18C017F00F0E171617C0E8FF8A
:100B0000300F20C0AAFF21C0A9FFE8CFA8FFA6B2DE
:100B1000FED7A69EA69CA684F29EA198550EA76E0F
:100B2000AA0EA76EA682A6B2FED7F28EA694212A9E
:100B30001938176E0F0E171617C0E8FF300F20C0B8
:100B4000AAFF21C0A9FFE8CFA8FFA6B2FED7A69EA4
:100B5000A69CA684F29EA198550EA76EAA0EA76E1B
:100B6000A682A6B2FED7F28EA694212A1200020E09
:100B7000606EB1EC09F062C0E8FFE2EC09F063C01E
:100B8000E8FF22EC09F064C0E8FF22EC09F0680EEF
:100B900022EC09F0010E606EB1EC09F062C0E8FFD2
:100BA000E2EC09F063C0E8FF22EC09F064C0E8FF62
:100BB00022EC09F0000E606EB1EC09F062C0E8FFB3
:100BC000E2EC09F063C0E8FF22EC09F064C0E8FF42
:100BD00022EC09F0200E22EC09F0060E606EB1EC5A
:100BE00009F062C0E8FFE2EC09F063C0E8FF22EC24
:100BF00009F064C0E8FF22EC09F02F0E22EC09F0A6
:100C0000050E606EB1EC09F062C0E8FFE2EC09F09D
:100C100063C0E8FF22EC09F064C0E8FF22EC09F0B1
:100C20002F0E22EC09F0040E606EB1EC09F062C0E8
:100C3000E8FFE2EC09F063C0E8FF22EC09F064C0D1
:100C4000E8FF22EC09F01200616A060E606E8FEC7C
:100C500009F0602EFCD78FEC09F0000E606E800E5C
:100C6000616E8FEC09F0060E606E170E616E8FECF0
:100C700009F0050E606E030E616E8FEC09F0040E34
:100C8000606E040E616E8FEC09F0020E606E120E43
:100C9000616E8FEC09F0010E606E480E616E8FEC94
:100CA00009F0000E606E000E616E8FEC09F012000C
:100CB000948E949C0F0EAF6EAC6AAB6AAB8EAB8811
:100CC000AC8A1200020E9CEC06F00D0E9CEC06F0B5
:100CD000156A166A150E1502F3CF21F0166A20C0A8
:100CE000AAFF21C0A9FFA69EA69CA680A8CFE8FFC8
:100CF0009CEC06F0212A162A120E1662F0D7A1ECFF
:100D000006F0152A080E1562E5D759EC09F0000E19
:100D1000F86E110EF76EB80EF66E0800F55022EC64
:100D200009F00B00F550FBE1280E1A6EB6EC06F048
:100D30001A2E96EF06F01200AD6EACA29DEF06F0F3
:100D400012000A0E9CEC06F00D0E9CEC06F0120050
:100D5000780E1B6E1B2EAAEF06F000001200A40EE8
:100D60001C6E1C2EB1EF06F000001200F90E1D6E75
:100D7000AFEC06F01D2EB8EF06F0AFEC06F0120057
:100D800020C0AAFF21C0A9FF63C0A8FFA6B2FED75A
:100D9000A69EA69CA684F29EA198550EA76EAA0EAA
:100DA000A76EA682A6B2FED7F28EA694212A20C0F4
:100DB000AAFF21C0A9FF64C0A8FFA6B2FED7A69EC5
:100DC000A69CA684F29EA198550EA76EAA0EA76EA9
:100DD000A682A6B2FED7F28EA694212A1200206A1D
:100DE000216A1F68156A20C0AAFF21C0A9FF1FC081
:100DF000A8FFA6B2FED7A69EA69CA684F29EA198A6
:100E0000550EA76EAA0EA76EA682A6B2FED7F28EC8
:100E1000A694152A212A150E1562F3EF06F0206A12
:100E2000216A120081A212EF07F081380F0B106EB9
:100E300081B218EF07F0120059EC09F081A21CEF03
:100E400007F081380F0B106E81B224EF07F012000B
:100E500020C0AAFF21C0A9FFA69EA69CA680A8CF5D
:100E600022F0FF0E226247EF07F0000EF86E110E1F
:100E7000F76ECC0EF66E0800F55022EC09F00B0070
:100E8000F550FBE1FF0E226070EF07F0120020C06A
:100E9000AAFF21C0A9FFA69EA69CA680A8CFE8FF16
:100EA00022EC09F0212A20C0AAFF21C0A9FFA69E9A
:100EB000A69CA680A8CFE8FF22EC09F0212A20C03A
:100EC000AAFF21C0A9FFA69EA69CA680A8CFE8FFE6
:100ED00022EC09F0212A730E22EC09F059EC09F0FA
:100EE000120020C0AAFF21C0A9FFA69EA69CA68032
:100EF000A8CF22F0FF0E22628FEF07F0000EF86EEF
:100F0000110EF76ECC0EF66E0800F55022EC09F0CB
:100F10000B00F550FBE1FF0E2260DCEF07F0610EE5
:100F200022EC09F020C0AAFF21C0A9FFA69EA69C22
:100F3000A680A8CF22F022C0E8FF22EC09F0212AE7
:100F4000200E22EC09F0620E22EC09F020C0AAFF6C
:100F500021C0A9FFA69EA69CA680A8CF22F022C0F1
:100F6000E8FF22EC09F0212A200E22EC09F0630EA2
:100F700022EC09F020C0AAFF21C0A9FFA69EA69CD2
:100F8000A680A8CF22F022C0E8FF22EC09F0212A97
:100F9000200E22EC09F0640E22EC09F020C0AAFF1A
:100FA00021C0A9FFA69EA69CA680A8CF22F022C0A1
:100FB000E8FF22EC09F0212A120020C0AAFF21C07C
:100FC000A9FFA69EA69CA680A8CF22F0FF0E2262B3
:100FD000FBEF07F0000EF86E110EF76ECC0EF66EFA
:100FE0000800F55022EC09F00B00F550FBE1FF0E74
:100FF00022602BEF08F020C0AAFF21C0A9FFA69E07
:10100000A69CA680A8CF22F022C0E8FF22EC09F01F
:10101000212A20C0AAFF21C0A9FFA69EA69CA680C7
:10102000A8CF22F022C0E8FF22EC09F0212A680EA6
:1010300022EC09F02CEC08F0200E22EC09F02CEC4C
:1010400008F02F0E22EC09F02CEC08F02F0E22EC09
:1010500009F02CEC08F0120020C0AAFF21C0A9FF63
:10106000A69EA69CA680A8CF22F022C0E8FF22EC74
:1010700009F0212A20C0AAFF21C0A9FFA69EA69C94
:10108000A680A8CF22F022C0E8FF22EC09F0212A96
:0210900012004C
:0E109200626F744C00006D7220686C206867FD
:1010A00000007374616E64696E67206279202E2E71
:1010B0002E202E2E2E207374616E64696E6720625E
:1010C00079202E2E2E202E2E2E003C613E736F7224
:1010D00074203C623E6C617374206C6F67203C63CB
:1010E0003E7065726D206C6F6773203C643E706368
:1010F000000074696D653A0031323A303020322F89
:10110000332F3134000073617665643A0000626108
:10111000636B203C303E00007065726D616E656EE1
:1011200074206C6F6773200061636365737320754F
:101130007020746F2039206C6F67732C207072657B
:101140007373203C313E202E2E2E203C393E000071
:10115000736F7274696E672E2E2E0000656E6420A8
:101160003C2A3E00706320696E7465726661636537
:10117000202E2E2E20706320696E74657266616366
:1011800065202E2E2E2000007072657373203C2384
:101190003E20746F20626567696E206C6F672074F3
:1011A00072616E73666572007472616E73666572E9
:1011B00072696E672E2E2E00636F6D706C6574659C
:1011C0002100736176696E672E2E2E006E2F6100EE
:1011D00062EC09F062EC09F062EC09F08394300EE5
:1011E0005DEC09F046EC09F046EC09F062EC09F020
:1011F00046EC09F0200E5DEC09F046EC09F062ECDB
:1012000009F0280E34EC09F062EC09F00C0E34EC15
:1012100009F062EC09F0060E34EC09F062EC09F01A
:101220003FEC09F0838412008C94716EF00B8C6E8D
:101230008C867138F00B8C968C6E8C868C9673EC49
:1012400009F012008C94726E72C0E8FFF00B040F6C
:10125000836E8C867238F00B8C96040F836E8C86AE
:101260008C966DEC09F01200686E5DEC09F046ECAE
:1012700009F068385DEC09F046EC09F0120083943F
:10128000010E34EC09F062EC09F0120083860000D4
:101290008396230E696E692E4BEF09F012001B0E28
:1012A00014EC09F062EC09F01200800E14EC09F065
:1012B0001200C00E14EC09F01200F00B83120F099B
:1012C00083161200500E706E230E696E692E66EF43
:1012D00009F0702E64EF09F01200230E736E732E66
:1012E0006FEF09F01200C20E736E0A0E746E732E49
:1012F0007BEF09F0742E77EF09F01200000EC76E35
:10130000280EC66E000EC56E180EC86EC68AA1964F
:101310009E96C790C584C5B4FED79E961200C58020
:10132000C6AE9E869EA6FED79E96D00EC7B0FED7AE
:10133000C96E9EA6FED79E9660C0E8FFC7B0FED7D6
:10134000C96E9EA6FED79E9661C0E8FFC7B0FED7C5
:10135000C96E9EA6FED79E96C584C5B4FED79E963E
:101360001200C580C6AE9E869EA6FED79E96D00E63
:10137000C7B0FED7C96E9EA6FED79E9660C0E8FF96
:10138000C7B0FED7C96E9EA6FED79E96C5829EA602
:10139000FED79E96D10EC7B0FED7C96E9EA6FED7C9
:1013A0009E96C5869EA6FED79E96C9CFE8FF626E22
:1013B000C58AC588C5B8DAEF09F0C584C5B4FED7BB
:1013C0009E961200656E65380F0B300F636E65C018
:1013D000E8FF0F0B300F646E1200C580C6AE9E860C
:1013E0009EA6FED79E96D00EC7B0FED7C96E9EA60B
:1013F000FED79E960E0EC7B0FED7C96E9EA6FED72C
:101400009E96040EC7B0FED7C96E9EA6FED79E96C6
:10141000C584C5B4FED79E961200C580C6AE9E8612
:101420009EA6FED79E96520EC7B0FED7C96E9EA648
:10143000FED79E9660C0E8FF8009C7B0FED7C96E90
:101440009EA6FED79E96C5829EA6FED79E96530E5A
:10145000C7B0FED7C96E9EA6FED79E96C5869EA62D
:10146000FED79E96C9CFE8FF616EC58AC588C5B80C
:1014700037EF0AF0C584C5B4FED79E961200C5802A
:10148000C6AE9E869EA6FED79E96520EC7B0FED7CB
:10149000C96E9EA6FED79E9660C0E8FF8009C7B0C1
:1014A000FED7C96E9EA6FED79E9661C0E8FFFF0BD1
:1014B000C7B0FED7C96E9EA6FED79E96C584C5B49A
:1014C000FED79E961200C580C6AE9E869EA6FED70B
:1014D0009E96100EC7B0FED7C96E9EA6FED79E96EA
:1014E000C584C5B4FED79E961200C580C6AE9E8642
:1014F0009EA6FED79E96100EC7B0FED7C96E9EA6BA
:10150000FED79E9661C0E8FFC7B0FED7C96E9EA603
:10151000FED79E96C584C5B4FED79E961200C580A0
:10152000C6AE9E869EA6FED79E96C5829EA6FED776
:101530009E96110EC7B0FED7C96E9EA6FED79E9688
:10154000C5869EA6FED79E96C9CFE8FFC58AC588E8
:10155000C5B8A8EF0AF0C584C5B4FED79E961200A0
:10156000C5BC1200C58AC598C5B8B4EF0AF0120010
:10157000C76A280EC66EC56A240EC86E9486948803
:101580001200C7B4C1EF0AF01F0EC5140009F9E13B
:101590001200C1EC0AF0C5801200C1EC0AF0C5824D
:1015A0001200C1EC0AF0C5841200C1EC0AF0C96E49
:1015B000C7B4D8EF0AF01200C586C1EC0AF0C5B670
:1015C000FED7C9501200C59AC588C5B8FED712000B
:020000040030CA
:0100010002FC
:010002001FDE
:010003001EDE
:010005008179
:010006008178
:010008000FE8
:01000900C036
:01000A000FE6
:01000B00E014
:01000C000FE4
:01000D0040B2
:00000001FF
