:020000040000FA
:0400000098EF00F085
:020004000000FA
:040008002DEF00F0E8
:0800180072EF00F0FF0E1E6202
:100020006DEF00F0D59E81EC05F0F2921E6A010E94
:10003000376E80EC04F0FF6AFE6AFD6AF0901438B7
:1000400013C0D8FF1000FF0ED76EFF0ED66E120041
:10005000C30ED76E250ED66E1200D8CF13F0146ED5
:10006000000E386250EC09F0000E386223EC00F00C
:10007000FF0E386228EC00F0F2A46DEF00F019C01A
:1000800017F00F0E1716090E176250EF00F0100E42
:100090001926F00E1916A00E1960196A53EF00F018
:1000A000192A53EF00F00000000E19626DEF00F006
:1000B00018C017F00F0E1716090E176269EF00F03F
:1000C000100E1826F00E1816A00E1860186A6CEFA5
:1000D00000F0182A6CEF00F00000F294143813C0FE
:1000E000D8FF1000D8CF13F0146EF0A093EF00F0FB
:1000F000FF0E1E6293EF00F081380F0B126E0C0E94
:10010000126293EF00F0D59E81EC05F01E6A010E9D
:10011000376E80EC04F0FF6AFE6AFD6AF0901438D6
:1001200013C0D8FF1000F090143813C0D8FF10008F
:10013000700ED36E000E926EFF0E936E000E946ED4
:10014000000E956E000E966E000E896E000E8A6E81
:10015000000E8B6E000E8C6E000E8D6E000EC26E49
:10016000E9EC08F0280E15EC09F00C0E15EC09F07E
:10017000010E15EC09F07FEC09F03FEC05F07DEC89
:1001800006F0D06AF26AF16AF06AD08EF28EF28CD2
:10019000F18AF28AF284F184F086F09CD59ED59C97
:1001A000D59AD598D596D594D582D580206A216ADE
:1001B000636A646A2C6A2D6A2E6A2F6A306A316A11
:1001C000326AF20E936E40EC09F0000EF86E100EDB
:1001D000F76EDC0EF66E0800F55023EC09F00B000C
:1001E000F550FBE15AEC09F0000EF86E100EF76EB8
:1001F000E20EF66E0800F55023EC09F00B00F55006
:10020000FBE1280E1A6EDBEC06F01A2E03EF01F06C
:10021000000E846E000E806E386840EC09F0000E0F
:10022000F86E100EF76EEC0EF66E0800F55023EC2B
:1002300009F00B00F550FBE15AEC09F0000EF86EE6
:10024000110EF76E140EF66E0800F55023EC09F04F
:100250000B00F550FBE1FF0ED76EFF0ED66ED58E6C
:1002600041EC07F0000E10623CEF01F0896A8A6AE7
:100270008B6A8C6ACBEF01F00000010E106247EF31
:1002800001F0896A8A6A8B6A8C6A75EF01F0000056
:10029000030E106252EF01F0896A8A6A8B6A8C6AD7
:1002A000E5EF01F00000070E10625DEF01F0896AD2
:1002B0008A6A8B6A8C6AC0EF02F000000B0E106233
:1002C00068EF01F0896A8A6A8B6A8C6A17EF03F01B
:1002D00000000F0E106273EF01F0896A8A6A8B6A60
:1002E0008C6A2DEF04F00000BBD7386A326A140E16
:1002F0001A6EDBEC06F01A2E79EF01F0230E806EF9
:1003000074EC09F074EC09F074EC09F074EC09F089
:1003100074EC09F074EC09F074EC09F074EC09F079
:10032000260E806E74EC09F074EC09F074EC09F0A0
:1003300074EC09F074EC09F074EC09F074EC09F059
:1003400074EC09F02C0E806E74EC09F074EC09F07A
:1003500074EC09F074EC09F074EC09F074EC09F039
:1003600074EC09F074EC09F0290E806E74EC09F05D
:1003700074EC09F074EC09F074EC09F074EC09F019
:1003800074EC09F074EC09F074EC09F0322A020EF6
:100390003262B4D7AAD740EC09F0386A010E846EF5
:1003A000280E1A6EDBEC06F01A2ED2EF01F076EC76
:1003B0000AF02C6E300F23EC09F03C0E1A6EDBECC9
:1003C00006F01A2EDFEF01F0E6D7D59E386A14EC5E
:1003D00007F046EC05F01E6840EC09F0000EF86EE0
:1003E000110EF76E7E0EF66E0800F55023EC09F044
:1003F0000B00F550FBE15AEC09F0C30ED76E250E49
:10040000D66ED58E186A196A2D6A2E6A2F6A306ADE
:10041000316A010E356E346A010E846E52EF02F0BD
:10042000000E336E1A0E346E0ED0010E336E190E9E
:10043000346E09D0326A000E140E1A6EDBEC06F030
:100440001A2E1EEF02F0230E806E030E1A6EDBECE6
:1004500006F01A2E27EF02F0322A34C0E8FF190EF8
:10046000325C20E0260E806E030E1A6EDBEC06F086
:100470001A2E36EF02F0322A2C0E806E030E1A6E00
:10048000DBEC06F01A2E40EF02F0322A290E806EC5
:10049000030E1A6EDBEC06F01A2E4AEF02F0322A37
:1004A00023EF02F076EC0AF0280E1A6EDBEC06F071
:1004B0001A2E56EF02F0280E1A6EDBEC06F01A2EFA
:1004C0005DEF02F02C6E050E2C5CB4E0312A040EB8
:1004D0002C5C0AE0030E2C5C09E0020E2C5C08E0A8
:1004E000010E2C5C07E008D0302A06D02F2A04D059
:1004F0002E2A02D02D2A00D01838176E0F0E17168C
:10050000000E176452EF02F0020E376E18C017F09B
:100510000F0E1716050E175C1CE0376A0A0E315CC9
:1005200018E0030E316452EF02F0000E306452EF17
:1005300002F0000E2F6452EF02F0000E2E6452EF14
:1005400002F0000E2D6452EF02F0030E376EA9EF99
:1005500002F0D59E81EC05F01E6A40EC09F0000E19
:10056000F86E110EF76EC40EF66E0800F55023EC0F
:1005700009F00B00F550FBE180EC04F0C0EF02F055
:10058000386A40EC09F0000EF86E110EF76E3C0E62
:10059000F66E0800F55023EC09F00B00F550FBE176
:1005A0000A0E216E4DEC07F05AEC09F00D0E216E8B
:1005B00096EC07F037EC07F0070E1062E6EF02F05A
:1005C000896A8A6A8B6A8C6AF3EF02F000000D0E6A
:1005D0001062F1EF02F0896A8A6A8B6A8C6A08EF0E
:1005E00001F00000E7D740EC09F0216A02EC08F0C6
:1005F0005AEC09F0000EF86E110EF76E580EF66EFA
:100600000800F55023EC09F00B00F550FBE1206ADF
:10061000216A37EC07F00D0E106215EF03F0896ABE
:100620008A6A8B6A8C6AC0EF02F00000C3D7386A0E
:1006300040EC09F0000EF86E110EF76E620EF66EC9
:100640000800F55023EC09F00B00F550FBE15AECE3
:1006500009F0000EF86E110EF76E720EF66E0800BD
:10066000F55023EC09F00B00F550FBE137EC07F0F7
:100670000D0E106242EF03F0896A8A6A8B6A8C6AF7
:1006800008EF01F00000000E10624DEF03F0896AE0
:100690008A6A8B6A8C6AA7EF03F00000010E106271
:1006A00058EF03F0896A8A6A8B6A8C6AA7EF03F0B5
:1006B0000000020E106263EF03F0896A8A6A8B6A97
:1006C0008C6AA7EF03F00000040E10626EEF03F0D7
:1006D000896A8A6A8B6A8C6AA7EF03F00000050EAC
:1006E000106279EF03F0896A8A6A8B6A8C6AA7EFD5
:1006F00003F00000060E106284EF03F0896A8A6A34
:100700008B6A8C6AA7EF03F00000080E10628FEF6F
:1007100003F0896A8A6A8B6A8C6AA7EF03F000008B
:10072000090E10629AEF03F0896A8A6A8B6A8C6AF2
:10073000A7EF03F000000A0E1062A5EF03F0896A2C
:100740008A6A8B6A8C6AA7EF03F000008FD740ECAF
:1007500009F0000EF86E110EF76E620EF66E0800CC
:10076000F55023EC09F00B00F550FBE110C0E8FF59
:10077000E82A176EE842E89EE842E89E175E17C036
:10078000E8FF17C011F0150D11C0E8FF300F23EC82
:1007900009F03A0E23EC09F0200E23EC09F0F3CF18
:1007A00021F0000E212620C0AAFF21C0A9FFA69E8D
:1007B000A69CA680A8CF18F0212A20C0AAFF21C09D
:1007C000A9FFA69EA69CA680A8CF19F0212A4DECD1
:1007D00007F0F3CF21F05AEC09F0F3CF21F002EC4F
:1007E00008F037EC07F0030E1062FDEF03F0896AA2
:1007F0008A6A8B6A8C6A0AEF04F000000D0E1062A0
:1008000008EF04F0896A8A6A8B6A8C6A17EF03F032
:100810000000E7D740EC09F0000EF86E110EF76EFD
:100820003C0EF66E0800F55023EC09F00B00F55075
:10083000FBE14DEC07F05AEC09F096EC07F037ECD1
:1008400007F00D0E10622BEF04F0896A8A6A8B6A3A
:100850008C6A17EF03F00000F2D7386A40EC09F019
:10086000000EF86E110EF76E920EF66E0800F5503F
:1008700023EC09F00B00F550FBE15AEC09F0000EF7
:10088000F86E110EF76EA00EF66E0800F55023EC10
:1008900009F00B00F550FBE1F9CF29F0FACF2AF06F
:1008A000FBCF2BF037EC07F00D0E10625EEF04F07B
:1008B000896A8A6A8B6A8C6A08EF01F000000E0E62
:1008C000106269EF04F0896A8A6A8B6A8C6A6BEF3E
:1008D00004F00000E7D7286840EC09F0000EF86E3D
:1008E000110EF76EAA0EF66E0800F55023EC09F013
:1008F0000B00F550FBE187EC06F0286A08EF01F0E9
:100900002DC0E8FF300F20C0AAFF21C0A9FFE8CF0B
:10091000A8FFA6B2FED7A69EA69CA684F29EA1988A
:10092000550EA76EAA0EA76EA682A6B2FED7F28EAD
:10093000A694212A2EC0E8FF300F20C0AAFF21C0B4
:10094000A9FFE8CFA8FFA6B2FED7A69EA69CA684C4
:10095000F29EA198550EA76EAA0EA76EA682A6B209
:10096000FED7F28EA694212A2FC0E8FF300F20C0B8
:10097000AAFF21C0A9FFE8CFA8FFA6B2FED7A69E76
:10098000A69CA684F29EA198550EA76EAA0EA76EED
:10099000A682A6B2FED7F28EA694212A30C0E8FF26
:1009A000300F20C0AAFF21C0A9FFE8CFA8FFA6B240
:1009B000FED7A69EA69CA684F29EA198550EA76E71
:1009C000AA0EA76EA682A6B2FED7F28EA694212A00
:1009D00037C0E8FF300F20C0AAFF21C0A9FFE8CF31
:1009E000A8FFA6B2FED7A69EA69CA684F29EA198BA
:1009F000550EA76EAA0EA76EA682A6B2FED7F28EDD
:100A0000A694212A000E206EA80E216E000E236EE1
:100A1000DC0E246E166A156A152A20C0AAFF21C0B2
:100A2000A9FFA69EA69CA680A8CF22F0150E21267F
:100A300020C0AAFF21C0A9FF22C0A8FFA6B2FED7EE
:100A4000A69EA69CA684F29EA198550EA76EAA0EFD
:100A5000A76EA682A6B2FED7F28EA694140E215ED1
:100A6000150E15620CEF05F02A0E215EDC0E246EC9
:100A7000156A162A090E16620CEF05F0120082980C
:100A8000829694889486EEEC09F01200020E606E55
:100A9000B2EC09F062C0E8FFE3EC09F0020E606E10
:100AA000B2EC09F062C0E8FFE3EC09F0E5EC06F017
:100AB000010E606EB2EC09F062C0E8FFE3EC09F0F1
:100AC000E5EC06F0060E606EB2EC09F062C0E8FFDD
:100AD000E3EC09F0E5EC06F0050E606EB2EC09F00F
:100AE00062C0E8FFE3EC09F0E5EC06F0040E606E8E
:100AF000B2EC09F062C0E8FFE3EC09F0E5EC06F0C7
:100B000012001838176E0F0E171617C0E8FF300FB7
:100B100020C0AAFF21C0A9FFE8CFA8FFA6B2FED738
:100B2000A69EA69CA684F29EA198550EA76EAA0E1C
:100B3000A76EA682A6B2FED7F28EA694212A18C06E
:100B400017F00F0E171617C0E8FF300F20C0AAFFCE
:100B500021C0A9FFE8CFA8FFA6B2FED7A69EA69CFB
:100B6000A684F29EA198550EA76EAA0EA76EA68225
:100B7000A6B2FED7F28EA694212A1938176E0F0E50
:100B8000171617C0E8FF300F20C0AAFF21C0A9FF29
:100B9000E8CFA8FFA6B2FED7A69EA69CA684F29E8A
:100BA000A198550EA76EAA0EA76EA682A6B2FED772
:100BB000F28EA694212A1200020E606EB2EC09F0A9
:100BC00062C0E8FFE3EC09F063C0E8FF23EC09F042
:100BD00064C0E8FF23EC09F0680E23EC09F0010E75
:100BE000606EB2EC09F062C0E8FFE3EC09F063C0AC
:100BF000E8FF23EC09F064C0E8FF23EC09F0000EE5
:100C0000606EB2EC09F062C0E8FFE3EC09F063C08B
:100C1000E8FF23EC09F064C0E8FF23EC09F0200EA4
:100C200023EC09F0060E606EB2EC09F062C0E8FF3A
:100C3000E3EC09F063C0E8FF23EC09F064C0E8FFCF
:100C400023EC09F02F0E23EC09F0050E606EB2ECD8
:100C500009F062C0E8FFE3EC09F063C0E8FF23ECB1
:100C600009F064C0E8FF23EC09F02F0E23EC09F033
:100C7000040E606EB2EC09F062C0E8FFE3EC09F02C
:100C800063C0E8FF23EC09F064C0E8FF23EC09F03F
:100C90001200616A060E606E90EC09F0602EFCD7BF
:100CA00090EC09F0000E606E800E616E90EC09F021
:100CB000060E606E170E616E90EC09F0050E606E08
:100CC000030E616E90EC09F0040E606E040E616E0E
:100CD00090EC09F0020E606E120E616E90EC09F05D
:100CE000010E606E480E616E90EC09F0000E606EB1
:100CF000000E616E90EC09F01200948E949C0F0E21
:100D0000AF6EAC6AAB6AAB8EAB88AC8A1200020ED7
:100D1000C1EC06F00D0EC1EC06F0156A166A150E50
:100D20001502F3CF21F0166A20C0AAFF21C0A9FF47
:100D3000A69EA69CA680A8CFE8FFC1EC06F0212ABB
:100D4000162A120E1662F0D7C6EC06F0152A080E07
:100D50001562E5D75AEC09F0000EF86E110EF76E29
:100D6000BA0EF66E0800F55023EC09F00B00F550B2
:100D7000FBE1280E1A6EDBEC06F01A2EBBEF06F034
:100D80001200AD6EACA2C2EF06F012000A0EC1EC6A
:100D900006F00D0EC1EC06F01200780E1B6E1B2E35
:100DA000CFEF06F000001200A40E1C6E1C2ED6EF32
:100DB00006F000001200F90E1D6ED4EC06F01D2E98
:100DC000DDEF06F0D4EC06F0120020C0AAFF21C02F
:100DD000A9FF63C0A8FFA6B2FED7A69EA69CA684C4
:100DE000F29EA198550EA76EAA0EA76EA682A6B275
:100DF000FED7F28EA694212A20C0AAFF21C0A9FF07
:100E000064C0A8FFA6B2FED7A69EA69CA684F29EAA
:100E1000A198550EA76EAA0EA76EA682A6B2FED7FF
:100E2000F28EA694212A1200206A216A1F68156A90
:100E300020C0AAFF21C0A9FF1FC0A8FFA6B2FED7ED
:100E4000A69EA69CA684F29EA198550EA76EAA0EF9
:100E5000A76EA682A6B2FED7F28EA694152A212AE4
:100E6000150E156218EF07F0206A216A120081A2A0
:100E700037EF07F081380F0B106E81B23DEF07F0AE
:100E800012005AEC09F081A241EF07F081380F0BF4
:100E9000106E81B249EF07F0120020C0AAFF21C0F6
:100EA000A9FFA69EA69CA680A8CF22F0FF0E2262D4
:100EB0006CEF07F0000EF86E110EF76ECE0EF66EA8
:100EC0000800F55023EC09F00B00F550FBE1FF0E94
:100ED000226095EF07F0120020C0AAFF21C0A9FFF1
:100EE000A69EA69CA680A8CFE8FF23EC09F0212AA5
:100EF00020C0AAFF21C0A9FFA69EA69CA680A8CFBD
:100F0000E8FF23EC09F0212A20C0AAFF21C0A9FF95
:100F1000A69EA69CA680A8CFE8FF23EC09F0212A74
:100F2000730E23EC09F05AEC09F0120020C0AAFF5E
:100F300021C0A9FFA69EA69CA680A8CF22F0FF0EE6
:100F40002262B4EF07F0000EF86E110EF76ECE0EAF
:100F5000F66E0800F55023EC09F00B00F550FBE1AC
:100F6000FF0E226001EF08F0610E23EC09F020C0B3
:100F7000AAFF21C0A9FFA69EA69CA680A8CF22F00A
:100F800022C0E8FF23EC09F0212A200E23EC09F00F
:100F9000620E23EC09F020C0AAFF21C0A9FFA69E83
:100FA000A69CA680A8CF22F022C0E8FF23EC09F07F
:100FB000212A200E23EC09F0630E23EC09F020C057
:100FC000AAFF21C0A9FFA69EA69CA680A8CF22F0BA
:100FD00022C0E8FF23EC09F0212A200E23EC09F0BF
:100FE000640E23EC09F020C0AAFF21C0A9FFA69E31
:100FF000A69CA680A8CF22F022C0E8FF23EC09F02F
:10100000212A120020C0AAFF21C0A9FFA69EA69CEB
:10101000A680A8CF22F0FF0E226220EF08F0000E7B
:10102000F86E110EF76ECE0EF66E0800F55023EC3A
:1010300009F00B00F550FBE1FF0E226050EF08F0C5
:1010400020C0AAFF21C0A9FFA69EA69CA680A8CF6B
:1010500022F022C0E8FF23EC09F0212A20C0AAFFD9
:1010600021C0A9FFA69EA69CA680A8CF22F022C0E0
:10107000E8FF23EC09F0212A680E23EC09F051EC7B
:1010800008F0200E23EC09F051EC08F02F0E23ECB1
:1010900009F051EC08F02F0E23EC09F051EC08F0A8
:1010A000120020C0AAFF21C0A9FFA69EA69CA68070
:1010B000A8CF22F022C0E8FF23EC09F0212A20C0AB
:1010C000AAFF21C0A9FFA69EA69CA680A8CF22F0B9
:0C10D00022C0E8FF23EC09F0212A1200E6
:0410DC00626F744C7F
:1010E00000006D7220686C20686700005374616EA8
:1010F00064696E67206279202E2E2E202E2E2E20DF
:101100005374616E64696E67206279202E2E2E20E2
:101110002E2E2E003C413E536F7274203C423E4CBA
:10112000617374204C6F67203C433E5065726D20A4
:101130004C6F6773203C443E5043000054696D651A
:101140003A0031323A303020322F332F3134000020
:1011500053617665643A00004261636B203C303E27
:1011600000005065726D616E656E74204C6F677320
:1011700000003C313E202E2E2E203C393E00536F85
:101180007274696E672E2E2E0000454E44203C2A54
:101190003E00504320496E746572666163650000CD
:1011A000426567696E203C233E005472616E73662F
:1011B000657272696E672E2E2E00436F6D706C65BE
:1011C00074652100536176696E672E2E2E004E2FB6
:1011D000410063EC09F063EC09F063EC09F08394DF
:1011E000300E5EEC09F047EC09F047EC09F063ECD7
:1011F00009F047EC09F0200E5EEC09F047EC09F02D
:1012000063EC09F0280E35EC09F063EC09F00C0EE4
:1012100035EC09F063EC09F0060E35EC09F063ECEF
:1012200009F040EC09F0838412008C94716EF00B8D
:101230008C6E8C867138F00B8C968C6E8C868C96AE
:1012400074EC09F012008C94726E72C0E8FFF00B1F
:10125000040F836E8C867238F00B8C96040F836EAD
:101260008C868C966EEC09F01200686E5EEC09F0CC
:1012700047EC09F068385EEC09F047EC09F0120021
:101280008394010E35EC09F063EC09F012008386BB
:1012900000008396230E696E692E4CEF09F0120050
:1012A0001B0E15EC09F063EC09F01200800E15EC32
:1012B00009F01200C00E15EC09F01200F00B8312B9
:1012C0000F0983161200500E706E230E696E692E80
:1012D00067EF09F0702E65EF09F01200230E736EB0
:1012E000732E70EF09F01200C20E736E0A0E746E48
:1012F000732E7CEF09F0742E78EF09F01200000EC7
:10130000C76E280EC66E000EC56E180EC86EC68A51
:10131000A1969E96C790C584C5B4FED79E9612002E
:10132000C580C6AE9E869EA6FED79E96D00EC7B03E
:10133000FED7C96E9EA6FED79E9660C0E8FFC7B0D6
:10134000FED7C96E9EA6FED79E9661C0E8FFC7B0C5
:10135000FED7C96E9EA6FED79E96C584C5B4FED79D
:101360009E961200C580C6AE9E869EA6FED79E960D
:10137000D00EC7B0FED7C96E9EA6FED79E9660C09F
:10138000E8FFC7B0FED7C96E9EA6FED79E96C5825F
:101390009EA6FED79E96D10EC7B0FED7C96E9EA65A
:1013A000FED79E96C5869EA6FED79E96C9CFE8FF1D
:1013B000626EC58AC588C5B8DBEF09F0C584C5B4BF
:1013C000FED79E961200656E65380F0B300F636E68
:1013D00065C0E8FF0F0B300F646E1200C580C6AE0B
:1013E0009E869EA6FED79E96D00EC7B0FED7C96E2B
:1013F0009EA6FED79E960E0EC7B0FED7C96E9EA6BD
:10140000FED79E96040EC7B0FED7C96E9EA6FED725
:101410009E96C584C5B4FED79E961200C580C6AE02
:101420009E869EA6FED79E96520EC7B0FED7C96E68
:101430009EA6FED79E9660C0E8FF8009C7B0FED783
:10144000C96E9EA6FED79E96C5829EA6FED79E9684
:10145000530EC7B0FED7C96E9EA6FED79E96C58610
:101460009EA6FED79E96C9CFE8FF616EC58AC58845
:10147000C5B838EF0AF0C584C5B4FED79E961200F1
:10148000C580C6AE9E869EA6FED79E96520EC7B05B
:10149000FED7C96E9EA6FED79E9660C0E8FF800963
:1014A000C7B0FED7C96E9EA6FED79E9661C0E8FF64
:1014B000FF0BC7B0FED7C96E9EA6FED79E96C58409
:1014C000C5B4FED79E961200C580C6AE9E869EA667
:1014D000FED79E96100EC7B0FED7C96E9EA6FED749
:1014E0009E96C584C5B4FED79E961200C580C6AE32
:1014F0009E869EA6FED79E96C5829EA6FED79E96E7
:10150000110EC7B0FED7C96E9EA6FED79E96C586A1
:101510009EA6FED79E96C9CFE8FFC58AC588C5B8E6
:101520008FEF0AF0C584C5B4FED79E961200C5BCE5
:101530001200C58AC598C5B89BEF0AF01200C76AA9
:10154000280EC66EC56A240EC86E94869488120052
:10155000C7B4A8EF0AF01F0EC5140009F9E1120084
:10156000A8EC0AF0C5801200A8EC0AF0C5821200AF
:10157000A8EC0AF0C5841200A8EC0AF0C96EC7B442
:10158000BFEF0AF01200C586A8EC0AF0C5B6FED778
:0E159000C9501200C59AC588C5B8FED7120012
:020000040030CA
:0100010002FC
:010002001FDE
:010003001EDE
:010005008179
:010006008178
:010008000FE8
:01000900C036
:01000A000FE6
:01000B00E014
:01000C000FE4
:01000D0040B2
:00000001FF
