:020000040000FA
:0400000083EF00F09A
:020004000000FA
:0400080018EF00F0FD
:080018005DEF00F0FF0ED76E52
:10002000FF0ED66E1200C50ED76E440ED66E1200AD
:10003000D8CF13F0146E000E38622BEC09F0000ECE
:1000400038620EEC00F0FF0E386213EC00F0F2A400
:1000500058EF00F019C017F00F0E1716090E1762AF
:100060003BEF00F0100E1926F00E1916A00E1960C5
:10007000196A3EEF00F0192A3EEF00F00000000E72
:10008000196258EF00F018C017F00F0E1716090E7E
:10009000176254EF00F0100E1826F00E1816A00E7E
:1000A0001860186A57EF00F0182A57EF00F00000A8
:1000B000F294143813C0D8FF1000D8CF13F0146E88
:1000C000F0A07EEF00F0FF0E1E627EEF00F08138A0
:1000D0000F0B126E0C0E12627EEF00F0D59E5CECE0
:1000E00005F01E6A010E376E5BEC04F0FF6AFE6AD3
:1000F000FD6AF090143813C0D8FF1000F090143847
:1001000013C0D8FF1000000E926EFF0E936E000E0B
:10011000946E000E956E000E966E000E896E000EA7
:100120008A6E000E8B6E000E8C6E000E8D6E000EB1
:10013000C26EC4EC08F0280EF0EC08F00C0EF0ECE7
:1001400008F0010EF0EC08F05AEC09F01AEC05F09A
:1001500058EC06F0D06AF26AF16AF06AD08EF28E3C
:10016000F28CF18AF28AF284F184F086F09CD59EBA
:10017000D59CD59AD598D596D594D582D580206A28
:10018000216A636A646A2C6A2D6A2E6A2F6A306A51
:10019000316A326AF20E936E1BEC09F0000EF86EB3
:1001A000100EF76E920EF66E0800F550FEEC08F099
:1001B0000B00F550FBE135EC09F0000EF86E100E67
:1001C000F76E980EF66E0800F550FEEC08F00B0086
:1001D000F550FBE1280E1A6EB6EC06F01A2EECEF85
:1001E00000F0000E846E000E806E38681BEC09F083
:1001F000000EF86E100EF76EA20EF66E0800F550A7
:10020000FEEC08F00B00F550FBE135EC09F0000EB8
:10021000F86E100EF76ECA0EF66E0800F550FEEC82
:1002200008F00B00F550FBE1FF0ED76EFF0ED66E07
:10023000D58E1CEC07F0000E106225EF01F0896AE4
:100240008A6A8B6A8C6AC6EF01F00000010E1062A8
:1002500030EF01F0896A8A6A8B6A8C6AA8EF01F034
:100260000000020E10623BEF01F0896A8A6A8B6A15
:100270008C6A74EF01F00000040E106246EF01F08A
:10028000896A8A6A8B6A8C6A8EEF01F00000030E1D
:10029000106251EF01F0896A8A6A8B6A8C6AD6EF24
:1002A00001F00000070E10625CEF01F0896A8A6AB3
:1002B0008B6A8C6A9BEF02F000000B0E106267EFF6
:1002C00001F0896A8A6A8B6A8C6AF2EF02F0000098
:1002D0000F0E106272EF01F0896A8A6A8B6A8C6A6B
:1002E00008EF04F00000A5D7386A000E846E0A0EED
:1002F0001A6EB6EC06F01A2E79EF01F0010E846E3C
:1003000012EC07F00D0E10628CEF01F0896A8A6A18
:100310008B6A8C6AF1EF00F00000F0D7386A000EAB
:10032000846E0A0E1A6EB6EC06F01A2E93EF01F0E8
:10033000020E846E12EC07F00D0E1062A6EF01F0B3
:10034000896A8A6A8B6A8C6AF1EF00F00000F0D744
:10035000386A326A140E1A6EB6EC06F01A2EACEF3A
:1003600001F0230E806E4FEC09F0260E806E4FECEC
:1003700009F02C0E806E4FEC09F0290E806E4FECC8
:1003800009F0322A780E3262ECD7E2D7386A280EAA
:100390001A6EB6EC06F01A2EC9EF01F01BEC09F04C
:1003A000BEEC0AF0300FFEEC08F0F1D7D59E386AAB
:1003B000EFEC06F021EC05F01E681BEC09F0000ED6
:1003C000F86E110EF76E340EF66E0800F550FEEC66
:1003D00008F00B00F550FBE135EC09F0C50ED76EC7
:1003E000440ED66ED58E186A196A2D6A2E6A2F6A47
:1003F000306A316A010E356E346AFFEF01F0326AFD
:10040000230E806E4FEC09F0260E806E4FEC09F043
:100410002C0E806E4FEC09F0290E806E4FEC09F027
:10042000322A780E3262ECD700D0020E2C6E050E06
:100430002C60FFEF01F0312A040E2C5C09E0030E62
:100440002C5C14E0020E2C5C1FE0010E2C5C2CE0F6
:10045000302A040E366E355C4CE0030E355C32E01B
:10046000020E355C2FE0010E355C2CE02F2A030EC6
:10047000366E355C3EE0040E355C30E0020E355CD5
:1004800021E0010E355C1EE02E2A7DEF02F0020E07
:10049000366E355C2EE0040E355C20E0030E355CD4
:1004A0001DE0010E355C0EE02D2A010E366E355C26
:1004B00020E0040E355C12E0030E355C0FE0020E06
:1004C000355C0CE0336A000E846E010E846E332AB4
:1004D00033C0E8FF346265EF02F00BD0336A000EE0
:1004E000846E020E846E332A33C0E8FF3462F9D77B
:1004F00000D036C035F0000E846E090E3162FFEF79
:1005000001F083EF02F0D59E5CEC05F01E6A376ABD
:100510001BEC09F0000EF86E110EF76E7A0EF66EF7
:100520000800F550FEEC08F00B00F550FBE15BEC29
:1005300004F09BEF02F0386A1BEC09F0000EF86E35
:10054000100EF76EF20EF66E0800F550FEEC08F095
:100550000B00F550FBE10A0E216E28EC07F035EC9C
:1005600009F00D0E216E71EC07F012EC07F0070E8A
:100570001062C1EF02F0896A8A6A8B6A8C6ACEEFD8
:1005800002F000000D0E1062CCEF02F0896A8A6A58
:100590008B6A8C6AF1EF00F00000E7D71BEC09F0E2
:1005A000216ADDEC07F035EC09F0000EF86E110E53
:1005B000F76E0E0EF66E0800F550FEEC08F00B001C
:1005C000F550FBE1206A216A12EC07F00D0E106273
:1005D000F0EF02F0896A8A6A8B6A8C6A9BEF02F0FC
:1005E0000000C3D7386A1BEC09F0000EF86E110E3C
:1005F000F76E180EF66E0800F550FEEC08F00B00D2
:10060000F550FBE135EC09F0000EF86E110EF76EB7
:10061000280EF66E0800F550FEEC08F00B00F550C1
:10062000FBE112EC07F00D0E10621DEF03F0896A7A
:100630008A6A8B6A8C6AF1EF00F00000000E10628B
:1006400028EF03F0896A8A6A8B6A8C6A82EF03F06A
:100650000000010E106233EF03F0896A8A6A8B6A28
:100660008C6A82EF03F00000020E10623EEF03F08E
:10067000896A8A6A8B6A8C6A82EF03F00000040E32
:10068000106249EF03F0896A8A6A8B6A8C6A82EF8A
:1006900003F00000050E106254EF03F0896A8A6AC5
:1006A0008B6A8C6A82EF03F00000060E10625FEF27
:1006B00003F0896A8A6A8B6A8C6A82EF03F0000011
:1006C000080E10626AEF03F0896A8A6A8B6A8C6A84
:1006D00082EF03F00000090E106275EF03F0896AE3
:1006E0008A6A8B6A8C6A82EF03F000000A0E10623D
:1006F00080EF03F0896A8A6A8B6A8C6A82EF03F062
:1007000000008FD71BEC09F0000EF86E110EF76E8B
:10071000180EF66E0800F550FEEC08F00B00F550D0
:10072000FBE110C0E8FFE82A176EE842E89EE842C5
:10073000E89E175E17C0E8FF17C011F0150D11C035
:10074000E8FF300FFEEC08F03A0EFEEC08F0200E49
:10075000FEEC08F0F3CF21F0000E212620C0AAFF06
:1007600021C0A9FFA69EA69CA680A8CF18F0212A8A
:1007700020C0AAFF21C0A9FFA69EA69CA680A8CF44
:1007800019F0212A28EC07F0F3CF21F035EC09F01D
:10079000F3CF21F0DDEC07F012EC07F0030E10624E
:1007A000D8EF03F0896A8A6A8B6A8C6AE5EF03F0F6
:1007B00000000D0E1062E3EF03F0896A8A6A8B6A0B
:1007C0008C6AF2EF02F00000E7D71BEC09F0000E94
:1007D000F86E100EF76EF20EF66E0800F550FEEC95
:1007E00008F00B00F550FBE128EC07F035EC09F0C0
:1007F00071EC07F012EC07F00D0E106206EF04F03A
:10080000896A8A6A8B6A8C6AF2EF02F00000F2D77A
:10081000386A1BEC09F0000EF86E110EF76E480EE8
:10082000F66E0800F550FEEC08F00B00F550FBE109
:1008300035EC09F0000EF86E110EF76E560EF66EDE
:100840000800F550FEEC08F00B00F550FBE1F9CF85
:1008500029F0FACF2AF0FBCF2BF012EC07F00D0EA7
:10086000106239EF04F0896A8A6A8B6A8C6AF1EF48
:1008700000F000000E0E106244EF04F0896A8A6AEC
:100880008B6A8C6A46EF04F00000E7D728681BECFF
:1008900009F0000EF86E110EF76E600EF66E08008D
:1008A000F550FEEC08F00B00F550FBE162EC06F0B1
:1008B000286AF1EF00F02DC0E8FF300F20C0AAFF3A
:1008C00021C0A9FFE8CFA8FFA6B2FED7A69EA69C8E
:1008D000A684F29EA198550EA76EAA0EA76EA682B8
:1008E000A6B2FED7F28EA694212A2EC0E8FF300FC2
:1008F00020C0AAFF21C0A9FFE8CFA8FFA6B2FED75B
:10090000A69EA69CA684F29EA198550EA76EAA0E3E
:10091000A76EA682A6B2FED7F28EA694212A2FC079
:10092000E8FF300F20C0AAFF21C0A9FFE8CFA8FF31
:10093000A6B2FED7A69EA69CA684F29EA198550EAE
:10094000A76EAA0EA76EA682A6B2FED7F28EA694B6
:10095000212A30C0E8FF300F20C0AAFF21C0A9FF24
:10096000E8CFA8FFA6B2FED7A69EA69CA684F29EBC
:10097000A198550EA76EAA0EA76EA682A6B2FED7A4
:10098000F28EA694212A37C0E8FF300F20C0AAFFBC
:1009900021C0A9FFE8CFA8FFA6B2FED7A69EA69CBD
:1009A000A684F29EA198550EA76EAA0EA76EA682E7
:1009B000A6B2FED7F28EA694212A000E206EA80EB3
:1009C000216E000E236EDC0E246E166A156A152A3F
:1009D00020C0AAFF21C0A9FFA69EA69CA680A8CFE2
:1009E00022F0150E212620C0AAFF21C0A9FF22C097
:1009F000A8FFA6B2FED7A69EA69CA684F29EA198AA
:100A0000550EA76EAA0EA76EA682A6B2FED7F28ECC
:100A1000A694140E215E150E1562E7EF04F02A0E5F
:100A2000215EDC0E246E156A162A090E1662E7EFA7
:100A300004F012008298829694889486FEEC09F065
:100A40001200020E606EA8EC09F062C0E8FFF3EC41
:100A500009F0020E606EA8EC09F062C0E8FFF3EC4A
:100A600009F0C0EC06F0010E606EA8EC09F062C05F
:100A7000E8FFF3EC09F0C0EC06F0060E606EA8EC9F
:100A800009F062C0E8FFF3EC09F0C0EC06F0050ED7
:100A9000606EA8EC09F062C0E8FFF3EC09F0C0EC6E
:100AA00006F0040E606EA8EC09F062C0E8FFF3ECFB
:100AB00009F0C0EC06F012001838176E0F0E17166A
:100AC00017C0E8FF300F20C0AAFF21C0A9FFE8CF60
:100AD000A8FFA6B2FED7A69EA69CA684F29EA198C9
:100AE000550EA76EAA0EA76EA682A6B2FED7F28EEC
:100AF000A694212A18C017F00F0E171617C0E8FF8A
:100B0000300F20C0AAFF21C0A9FFE8CFA8FFA6B2DE
:100B1000FED7A69EA69CA684F29EA198550EA76E0F
:100B2000AA0EA76EA682A6B2FED7F28EA694212A9E
:100B30001938176E0F0E171617C0E8FF300F20C0B8
:100B4000AAFF21C0A9FFE8CFA8FFA6B2FED7A69EA4
:100B5000A69CA684F29EA198550EA76EAA0EA76E1B
:100B6000A682A6B2FED7F28EA694212A1200020E09
:100B7000606EA8EC09F062C0E8FFF3EC09F063C016
:100B8000E8FFFEEC08F064C0E8FFFEEC08F0680E39
:100B9000FEEC08F0010E606EA8EC09F062C0E8FF00
:100BA000F3EC09F063C0E8FFFEEC08F064C0E8FF76
:100BB000FEEC08F0000E606EA8EC09F062C0E8FFE1
:100BC000F3EC09F063C0E8FFFEEC08F064C0E8FF56
:100BD000FEEC08F0200EFEEC08F0060E606EA8ECAD
:100BE00009F062C0E8FFF3EC09F063C0E8FFFEEC37
:100BF00008F064C0E8FFFEEC08F02F0EFEEC08F0F1
:100C0000050E606EA8EC09F062C0E8FFF3EC09F095
:100C100063C0E8FFFEEC08F064C0E8FFFEEC08F0FB
:100C20002F0EFEEC08F0040E606EA8EC09F062C016
:100C3000E8FFF3EC09F063C0E8FFFEEC08F064C0E5
:100C4000E8FFFEEC08F01200616A060E606E6BECC5
:100C500009F0602EFCD76BEC09F0000E606E800E80
:100C6000616E6BEC09F0060E606E170E616E6BEC38
:100C700009F0050E606E030E616E6BEC09F0040E58
:100C8000606E040E616E6BEC09F0020E606E120E67
:100C9000616E6BEC09F0010E606E480E616E6BECDC
:100CA00009F0000E606E000E616E6BEC09F0120030
:100CB000948E949C0F0EAF6EAC6AAB6AAB8EAB8811
:100CC000AC8A1200020E9CEC06F00D0E9CEC06F0B5
:100CD000156A166A150E1502F3CF21F0166A20C0A8
:100CE000AAFF21C0A9FFA69EA69CA680A8CFE8FFC8
:100CF0009CEC06F0212A162A120E1662F0D7A1ECFF
:100D000006F0152A080E1562E5D735EC09F0000E3D
:100D1000F86E110EF76E700EF66E0800F550FEECD0
:100D200008F00B00F550FBE1280E1A6EB6EC06F049
:100D30001A2E96EF06F01200AD6EACA29DEF06F0F3
:100D400012000A0E9CEC06F00D0E9CEC06F0120050
:100D5000780E1B6E1B2EAAEF06F000001200A40EE8
:100D60001C6E1C2EB1EF06F000001200F90E1D6E75
:100D7000AFEC06F01D2EB8EF06F0AFEC06F0120057
:100D800020C0AAFF21C0A9FF63C0A8FFA6B2FED75A
:100D9000A69EA69CA684F29EA198550EA76EAA0EAA
:100DA000A76EA682A6B2FED7F28EA694212A20C0F4
:100DB000AAFF21C0A9FF64C0A8FFA6B2FED7A69EC5
:100DC000A69CA684F29EA198550EA76EAA0EA76EA9
:100DD000A682A6B2FED7F28EA694212A1200206A1D
:100DE000216A1F68156A20C0AAFF21C0A9FF1FC081
:100DF000A8FFA6B2FED7A69EA69CA684F29EA198A6
:100E0000550EA76EAA0EA76EA682A6B2FED7F28EC8
:100E1000A694152A212A150E1562F3EF06F0206A12
:100E2000216A120081A212EF07F081380F0B106EB9
:100E300081B218EF07F0120035EC09F081A21CEF27
:100E400007F081380F0B106E81B224EF07F012000B
:100E500020C0AAFF21C0A9FFA69EA69CA680A8CF5D
:100E600022F0FF0E226247EF07F0000EF86E110E1F
:100E7000F76E840EF66E0800F550FEEC08F00B00DD
:100E8000F550FBE1FF0E226070EF07F0120020C06A
:100E9000AAFF21C0A9FFA69EA69CA680A8CFE8FF16
:100EA000FEEC08F0212A20C0AAFF21C0A9FFA69EBF
:100EB000A69CA680A8CFE8FFFEEC08F0212A20C05F
:100EC000AAFF21C0A9FFA69EA69CA680A8CFE8FFE6
:100ED000FEEC08F0212A730EFEEC08F035EC09F068
:100EE000120020C0AAFF21C0A9FFA69EA69CA68032
:100EF000A8CF22F0FF0E22628FEF07F0000EF86EEF
:100F0000110EF76E840EF66E0800F550FEEC08F038
:100F10000B00F550FBE1FF0E2260DCEF07F0610EE5
:100F2000FEEC08F020C0AAFF21C0A9FFA69EA69C47
:100F3000A680A8CF22F022C0E8FFFEEC08F0212A0C
:100F4000200EFEEC08F0620EFEEC08F020C0AAFFB6
:100F500021C0A9FFA69EA69CA680A8CF22F022C0F1
:100F6000E8FFFEEC08F0212A200EFEEC08F0630EEC
:100F7000FEEC08F020C0AAFF21C0A9FFA69EA69CF7
:100F8000A680A8CF22F022C0E8FFFEEC08F0212ABC
:100F9000200EFEEC08F0640EFEEC08F020C0AAFF64
:100FA00021C0A9FFA69EA69CA680A8CF22F022C0A1
:100FB000E8FFFEEC08F0212A120020C0AAFF21C0A1
:100FC000A9FFA69EA69CA680A8CF22F0FF0E2262B3
:100FD000FBEF07F0000EF86E110EF76E840EF66E42
:100FE0000800F550FEEC08F00B00F550FBE1FF0E99
:100FF00022602BEF08F020C0AAFF21C0A9FFA69E07
:10100000A69CA680A8CF22F022C0E8FFFEEC08F044
:10101000212A20C0AAFF21C0A9FFA69EA69CA680C7
:10102000A8CF22F022C0E8FFFEEC08F0212A680ECB
:10103000FEEC08F02CEC08F0200EFEEC08F02CEC96
:1010400008F02F0EFEEC08F02CEC08F02F0EFEEC52
:1010500008F02CEC08F0120020C0AAFF21C0A9FF64
:10106000A69EA69CA680A8CF22F022C0E8FFFEEC98
:1010700008F0212A20C0AAFF21C0A9FFA69EA69C95
:10108000A680A8CF22F022C0E8FFFEEC08F0212ABB
:0210900012004C
:0E109200626F744C00006D7220686C206867FD
:1010A00000005374616E64696E67206279202E2E91
:1010B0002E202E2E2E205374616E64696E6720627E
:1010C00079202E2E2E202E2E2E003C413E536F7264
:1010D00074203C423E4C617374204C6F67203C434B
:1010E0003E5065726D204C6F6773203C443E504308
:1010F000000054696D653A0031323A303020322FA9
:10110000332F3134000053617665643A0000426148
:10111000636B203C303E00005065726D616E656E01
:1011200074204C6F677300003C313E202E2E2E2021
:101130003C393E00536F7274696E672E2E2E00008C
:10114000454E44203C2A3E00504320496E7465724F
:10115000666163650000426567696E203C233E005E
:101160005472616E7366657272696E672E2E2E0000
:10117000436F6D706C6574652100536176696E67AD
:101180002E2E2E004E2F41003EEC09F03EEC09F0D1
:101190003EEC09F08394300E39EC09F022EC09F0B2
:1011A00022EC09F03EEC09F022EC09F0200E39ECBB
:1011B00009F022EC09F03EEC09F0280E10EC09F0E1
:1011C0003EEC09F00C0E10EC09F03EEC09F0060EB6
:1011D00010EC09F03EEC09F01BEC09F083841200DE
:1011E0008C94716EF00B8C6E8C867138F00B8C9633
:1011F0008C6E8C868C964FEC09F012008C94726E7B
:1012000072C0E8FFF00B040F836E8C867238F00B0F
:101210008C96040F836E8C868C9649EC09F0120034
:10122000686E39EC09F022EC09F0683839EC09F005
:1012300022EC09F012008394010E10EC09F03EEC50
:1012400009F01200838600008396230E696E692ED2
:1012500027EF09F012001B0EF0EC08F03EEC09F04D
:101260001200800EF0EC08F01200C00EF0EC08F056
:101270001200F00B83120F0983161200500E706ECD
:10128000230E696E692E42EF09F0702E40EF09F0CF
:101290001200230E736E732E4BEF09F01200C20E74
:1012A000736E0A0E746E732E57EF09F0742E53EF9F
:1012B00009F01200000EC76E280EC66E000EC56E35
:1012C000180EC86EC68AA1969E96C790C584C5B4EE
:1012D000FED79E961200C580C6AE9E869EA6FED7FD
:1012E0009E96D00EC7B0FED7C96E9EA6FED79E961C
:1012F000C5BC93EF09F060C0E8FFC7B0FED7C96E68
:101300009EA6FED79E96C5BC98EF09F061C0E8FF87
:10131000C7B0FED7C96E9EA6FED79E96C5BC9EEFEF
:1013200009F0A3EF09F00000010E896EA3EF09F0A8
:101330000000020E896E8D80A3EF09F00000040EFC
:10134000896EA3EF09F0C584C5B4FED79E9612003E
:10135000C580C6AE9E869EA6FED79E96D00EC7B00E
:10136000FED7C96E9EA6FED79E96C5BCDFEF09F0DC
:1013700060C0E8FFC7B0FED7C96E9EA6FED79E9696
:10138000C5BCE4EF09F0C5829EA6FED79E96D10E9D
:10139000C7B0FED7C96E9EA6FED79E96C5BCE9EF24
:1013A00009F0C5869EA6FED79E96C9CFE8FF626E5D
:1013B000C58AC588C5B8DAEF09F0EEEF09F000007C
:1013C000030E896EEEEF09F00000070E896EEEEF56
:1013D00009F000000F0E896EEEEF09F0C584C5B468
:1013E000FED79E961200656E65380F0B300F636E48
:1013F00065C0E8FF0F0B300F646E1200C580C6AEEB
:101400009E869EA6FED79E96D00EC7B0FED7C96E0A
:101410009EA6FED79E960E0EC7B0FED7C96E9EA69C
:10142000FED79E96040EC7B0FED7C96E9EA6FED705
:101430009E96C584C5B4FED79E961200C580C6AEE2
:101440009E869EA6FED79E96520EC7B0FED7C96E48
:101450009EA6FED79E96C5BC56EF0AF060C0E8FF78
:101460008009C7B0FED7C96E9EA6FED79E96C5BCA2
:101470005BEF0AF0C5829EA6FED79E96530EC7B0BC
:10148000FED7C96E9EA6FED79E96C5BC60EF0AF039
:10149000C5869EA6FED79E96C9CFE8FF616EC58A17
:1014A000C588C5B851EF0AF065EF0AF00000030ED9
:1014B000896E65EF0AF00000050E896E65EF0AF08F
:1014C0000000070E896E65EF0AF0C584C5B4FED72B
:1014D0009E961200C580C6AE9E869EA6FED79E969C
:1014E000520EC7B0FED7C96E9EA6FED79E96C5BC4B
:1014F00094EF0AF060C0E8FF8009C7B0FED7C96E5C
:101500009EA6FED79E96C5BC99EF0AF061C0E8FF83
:10151000FF0BC7B0FED7C96E9EA6FED79E96C5BC70
:101520009FEF0AF0A4EF0AF000000D0E896EA4EF01
:101530000AF000000F0E896E8D80A4EF0AF0000003
:10154000090E896EA4EF0AF0C584C5B4FED79E9635
:101550001200C580C6AE9E869EA6FED79E96100E31
:10156000C7B0FED7C96E9EA6FED79E96C5BC94EFA7
:101570000AF0C584C5B4FED79E961200C580C6AEDB
:101580009E869EA6FED79E96C5829EA6FED79E9656
:10159000110EC7B0FED7C96E9EA6FED79E96C58611
:1015A0009EA6FED79E96C9CFE8FFC58AC588C5B856
:1015B000D7EF0AF0C584C5B4FED79E961200C5BC0D
:1015C0001200C58AC598C5B8E3EF0AF01200C76AD1
:1015D000280EC66EC56A240EC86E948694881200C2
:1015E000C7B4F0EF0AF01F0EC5140009F9E11200AC
:1015F000F0EC0AF0C5801200F0EC0AF0C58212008F
:10160000F0EC0AF0C5841200F0EC0AF0C96EC7B421
:1016100007EF0BF01200C586F0EC0AF0C5B6FED756
:0E162000C9501200C59AC588C5B8FED7120081
:020000040030CA
:0100010002FC
:010002001FDE
:010003001EDE
:010005008179
:010006008178
:010008000FE8
:01000900C036
:01000A000FE6
:01000B00E014
:01000C000FE4
:01000D0040B2
:00000001FF
